:040000005CEF00F0C1
:10001800D8CF05F0E8CF06F0E0CF07F0F2A401D082
:1000280001D03FD0FB0E026E1D0E016EBEEC1EF01D
:100038000001864B872B844B852B010E8027000EF1
:100048008123000E8223000E83238C2B82A001D0F3
:1000580001D002D08F6B01D08F2B582A5650020A3C
:10006800D8A401D001D00ED0640E586401D001D0BC
:1000780009D082A201D001D002D0829201D082821E
:10008800586A0ED05604D8A401D001D003D0828279
:10009800586A06D0566601D001D002D08292586ABA
:1000A800F29407C0E0FF06C0E8FF05C0D8FF1000C3
:0400B800DCEF1DF06C
:100600007777772E6575726F736F757263652E736A
:10061000652F70617269735F3031302E786D6C00B8
:100620000000E8CFCEF0CA6BCD6B511CCC6FCE670B
:100630000FD0E9EC1EF0096A430E086E51C00AF0B3
:10064000CEEC1CF0096A430E086EB5EC1EF0B4D374
:10065000CE050FE1E9EC1EF0096A440E086E51C0A8
:100660000AF0CEEC1CF0096A440E086EB5EC1EF0E0
:10067000A3D3010ECE657BD10A0ECE6178D14B0E8D
:10068000CE25086E096A000E0922B5EC1EF00001A5
:10069000C76FC7BF57D1A1D3010ECA6F510426E15E
:1006A0008A88000E8AB8010ECC6F010ECD6F096AE0
:1006B0004D0E086EB5EC1EF00001C76FC7A58DD3B7
:1006C000096A660E086EB5EC1EF00001C76F096A74
:1006D000650E086EB5EC1EF00001C96FC86BC751FE
:1006E000C825606F000EC921616F77D3516675D33D
:1006F0008A98000E8AB8010ECC6FCD6B6ED3010EB6
:10070000CA6F51041DE18A82000E8AB2010ECC6FBD
:10071000010ECD6F096A4E0E086EB5EC1EF0000199
:10072000C76FC7A55AD3096A680E086EB5EC1EF0EC
:100730000001C76F096A670E086EB5EC1EF070D134
:1007400051664BD38A92000E8AB2010ECC6FD5D778
:10075000010ECA6F510426E18A80000E8AB0010E94
:10076000CC6F010ECD6F096A4F0E086EB5EC1EF00E
:100770000001C76FC7A531D3096A6A0E086EB5ECD0
:100780001EF00001C76F096A690E086EB5EC1EF015
:100790000001C96FC86BC751C825646F000EC9211D
:1007A000656F1BD3516619D38A90000E8AB0010E73
:1007B000CC6FA3D7010ECA6F510426E18B8E000EB9
:1007C0008BBE010ECC6F010ECD6F096A500E086E04
:1007D000B5EC1EF00001C76FC7A5FFD2096A6C0E09
:1007E000086EB5EC1EF00001C76F096A6B0E086E4B
:1007F000B5EC1EF00001C96FC86BC751C825666F04
:10080000000EC921676FE9D25166E7D28B9E000EB8
:100810008BBE010ECC6F71D7010ECA6F510426E159
:100820008B8C000E8BBC010ECC6F010ECD6F096A54
:10083000510E086EB5EC1EF00001C76FC7A5CDD2F2
:10084000096A6E0E086EB5EC1EF00001C76F096AEA
:100850006D0E086EB5EC1EF00001C96FC86BC75174
:10086000C825686F000EC921696FB7D25166B5D22D
:100870008B9C000E8BBC010ECC6F3FD7010ECA6F54
:10088000510426E18B8A000E8BBA010ECC6F010E4B
:10089000CD6F096A520E086EB5EC1EF00001C76FED
:1008A000C7A59BD2096A700E086EB5EC1EF0000158
:1008B000C76F096A6F0E086EB5EC1EF00001C96FB4
:1008C000C86BC751C8256A6F000EC9216B6F85D2EE
:1008D000516683D28B9A000E8BBA010ECC6F0DD766
:1008E000010ECA6F510426E18B88000E8BB8010EF1
:1008F000CC6F010ECD6F096A530E086EB5EC1EF079
:100900000001C76FC7A569D2096A720E086EB5ECFF
:100910001EF00001C76F096A710E086EB5EC1EF07B
:100920000001C96FC86BC751C8256C6F000EC92183
:100930006D6F53D2516651D28B98000E8BB8010E59
:10094000CC6FDBD6CE51020A01E1A6D6010A01E145
:10095000D6D6070A01E1FCD6010A01E12BD7030A2A
:1009600001E15AD7010A8AE00F0ABAE036D2090E2D
:10097000CE652DD1120ECE612AD115D1E9EC1EF033
:1009800065DACEEC1CF06CDAB5EC1EF00001CC6F31
:1009900051A011D08A98CD6B8A81096A560E086ED3
:1009A000B5EC1EF00001C76F096A550E086EB5EC74
:1009B0001EF05EDA03D08A918A98CD6B51B480D64E
:1009C0000CD2E9EC1EF042DACEEC1CF049DAB5ECC0
:1009D0001EF00001CC6F51A012D08A92CD6B8A8399
:1009E000096A560E086EB5EC1EF00001C76F096A61
:1009F000550E086EB5EC1EF0000144DA03D08A9360
:100A00008A92CD6B51A4E9D1096A660E086EB5ECE5
:100A10001EF00001C76F096A650E086EB5EC1EF086
:100A20000001C96FC86BC751C825626F000EC9218C
:100A3000636FD3D1E9EC1EF009DACEEC1CF010DACA
:100A4000B5EC1EF00001CC6F51A013D08A90CD6B95
:100A50008A85096A5A0E086EB5EC1EF00001C76F50
:100A6000096A590E086EB5EC1EF00001C96F23DA51
:100A700003D08A958A90CD6B51B47ED6AED1E9EC85
:100A80001EF0E4D9CEEC1CF0EBD9B5EC1EF0000161
:100A9000CC6F51A013D08B9ECD6B8A87096A5C0EF8
:100AA000086EB5EC1EF00001C76F096A5B0E086E98
:100AB000B5EC1EF00001C96F06DA03D08A978B9E51
:100AC000CD6B51B48BD689D1E9EC1EF0BFD9CEECF9
:100AD0001CF0C6D9B5EC1EF00001CC6F51A013D0AC
:100AE0008B9CCD6B8A89096A5E0E086EB5EC1EF090
:100AF0000001C76F096A5D0E086EB5EC1EF00001BB
:100B0000C96FD1D903D08A998B9CCD6B51B498D63B
:100B100064D1E9EC1EF09AD9CEEC1CF0A1D9B5EC69
:100B20001EF00001CC6F51A013D08B9ACD6B8A8B35
:100B3000096A600E086EB5EC1EF00001C76F096A05
:100B40005F0E086EB5EC1EF00001C96FA4D903D08A
:100B50008A9B8B9ACD6B51B4A5D63FD1E9EC1EF0A0
:100B600075D9CEEC1CF07CD9B5EC1EF00001CC6F31
:100B700051A013D08B98CD6B8A8D096A620E086ED6
:100B8000B5EC1EF00001C76F096A610E086EB5EC86
:100B90001EF00001C96F9FD903D08A9D8B9ECD6B3B
:100BA00051B4B2D61AD1CE510A0A01E1E7D6010AF0
:100BB00001E107D7070A01E13DD7010A01E15FD74B
:100BC000030A82E0010AA5E01F0AC8E006D1110E5F
:100BD000CE65A4D0220ECE61A1D0E9EC1EF036D9AC
:100BE000CEEC1CF03DD9B5EC1EF00001CC6F83D0EB
:100BF000096A560E086EB5EC1EF00001C76F096A4F
:100C0000550E086EB5EC1EF033D9E7D0096A580EC0
:100C1000086EB5EC1EF00001C76F096A570E086E2A
:100C2000B5EC1EF000012ED9D8D0096A5A0E086E14
:100C3000B5EC1EF00001C76F096A590E086EB5ECDD
:100C40001EF00001C96F37D9C8D0096A5C0E086E62
:100C5000B5EC1EF00001C76F096A5B0E086EB5ECBB
:100C60001EF00001C96F2FD9B8D0096A5E0E086E58
:100C7000B5EC1EF00001C76F096A5D0E086EB5EC99
:100C80001EF00001C96F0FD9A8D0096A600E086E66
:100C9000B5EC1EF00001C76F096A5F0E086EB5EC77
:100CA0001EF00001C96FF7D898D0096A620E086E6D
:100CB000B5EC1EF00001C76F096A610E086EB5EC55
:100CC0001EF00001C96F07D988D0096A640E086E4A
:100CD000B5EC1EF00001C76F096A630E086EB5EC33
:100CE0001EF00001C96FC86BC751C8257E6F000E8A
:100CF000C9217F6F72D0CE51130A01E179D7060A5C
:100D000085E0020A92E00E0AA0E0020AAEE0060ABE
:100D1000BCE0020ACAE03E0AD8E05FD0210ECE65F0
:100D20003DD0320ECE613AD0E9EC1EF08FD8CEEC39
:100D30001CF096D8B5EC1EF00001CC6F16D0096AF5
:100D4000740E086EB5EC1EF00001C76F096A730ED1
:100D5000086EB5EC1EF00001C96FC86BC751C825FD
:100D60006E6F000EC9216F6F38D0CE51230A01E19A
:100D7000A7D4060A01E1D7D4020A01E1FDD40E0A84
:100D800001E12CD5020A01E15BD5060A01E18AD511
:100D9000020A01E1B9D51E0AD2E01FD0310ECE659C
:100DA0000ED0420ECE610BD0E9EC1EF04FD8CEEC47
:100DB0001CF056D8B5EC1EF00001CC6F0ED0470EDB
:100DC000CE650BD0800ECE6108D0E9EC1EF03ED887
:100DD000CEEC1CF0B0EC0CF0ECD7CA5135E04B0E69
:100DE000CE25086E096A000E0922B5EC1EF000013E
:100DF000CB6FCD5115E0CBA708D0140EC56F030EF5
:100E0000C66FCE51FE0F11EC1CF0CBAB1DD0140EF3
:100E1000C56F190EC66FCE51FE0F11EC1CF014D029
:100E2000CBA908D0140EC56F040EC66FCE51FE0FAD
:100E300011EC1CF0CBAD08D0140EC56F180EC66FA8
:100E4000CE51FE0F11EC1CF0CC511200430E0001EC
:100E5000CE25086E096A000E092251C00AF0000C66
:100E6000430E0001CE25086E096A000E0922000C0F
:100E70000001C96FC86BC751C825706F000EC9212A
:100E8000716F1200C96FC86BC751C825726F000E11
:100E9000C921736F1200C86BC751C8257A6F000E45
:100EA000C9217B6F1200C86BC751C825786F000E2F
:100EB000C921796F1200C86BC751C825746F000E25
:100EC000C921756F1200C86BC751C825766F000E17
:100ED000C921776F1200C86BC751C8257C6F000EFF
:100EE000C9217D6F12009951981101E1B5D2E4D268
:100EF00090EC1CF0E1D22EEC1DF0DED2B8EC1DF02F
:100F0000DBD2E8EC1CF0D8D296510F0B020A01E0BC
:100F1000D3D2915120EE9CF0DF62CED2800E9D6143
:100F200012D09D51A5EC1AF00001AA6F9DC0A9F046
:100F3000030EA56F820EA46FA66BA76B0A0EA86F97
:100F4000A5EC1DF0B9D29D511EEC14F0EDD79651D1
:100F50000F0B030A01E0B0D2915120EE9CF0DF624A
:100F6000ABD2800E9D6106D09EC051F09D5111EC18
:100F700003F0DBD79EC010F09D5102EC18F0D4D7DF
:100F8000915120EE9CF0DF6297D2000EA2EC1EF091
:100F900000019E1901E090D2030EA2EC1EF00001A8
:100FA0009F1901E089D2050EA2EC1EF00001A019E4
:100FB00001E082D2070EA2EC1EF00001A11901E0AF
:100FC0007BD25350A21901E077D2525020EEA3F009
:100FD000DF6272D29D513AEC1EF06ED2000EA2EC8E
:100FE0001EF000019D1973E1010EA2EC1EF000013C
:100FF0009E196DE1020EA2EC1EF000019F1967E13F
:10100000030EA2EC1EF00001A01961E18D895FD0F2
:10101000040EA2EC1EF000019D1959E1050EA2EC90
:101020001EF000019E1953E1060EA2EC1EF0000115
:101030009F194DE1070EA2EC1EF00001A01947E137
:101040008D8B45D0080EA2EC1EF000019D193FE1EA
:10105000090EA2EC1EF000019E1939E10A0EA2EC65
:101060001EF000019F1933E10B0EA2EC1EF00001EF
:10107000A0192DE18D8D2BD00C0EA2EC1EF00001DD
:101080009D1925E10D0EA2EC1EF000019E191FE135
:101090000E0EA2EC1EF000019F1919E10F0EA2EC3A
:1010A0001EF00001A01913E18D8F11D08D6B0FD0B0
:1010B0009C390F0BD16FD26BD251F8E1D1518EE038
:1010C000010AA6E0030ABEE0010AD6E0EFD78D517F
:1010D000F00BF00A01E0F0D16EEC1CF0EDD1915173
:1010E00020EE9CF0DF62E8D1DD6B9DC0DCF09EC09D
:1010F000DFF0EB6B42D0070E086EEB5158EC1DF0A1
:101100000001D16FD151AA0FD96EDA6ADC51EB25FB
:1011100048EC1EF0DF6E070E086E0001EB5158EC34
:101120001DF0060A0BE0FF0E0001DF25D16FD26B28
:10113000FF0ED223EB51D119D2111EE1070E086E1A
:101140000001EB5158EC1DF0060A03E1070E000107
:1011500009D0070E086E0001EB5158EC1DF000019C
:10116000D16FD129DE6FDE51810FA46FBCD9DDC0F4
:10117000A9F0A5EC1DF0DD2BEB2BDF51EB5D01E3BE
:101180009BD1B9D7915120EE9CF0DF6295D19DC0E3
:10119000E0F09651FE0F070BE16FE66B16D0E651BB
:1011A0009E0FD96EDA6ADF50CF6FE051E625EDEC85
:1011B0001DF00001E651AA0FD96EDA6AE051E6256A
:1011C00048EC1EF0DF6E0001E62BE151E65DE7E33F
:1011D0008AD9A96BE151810FA46FB2D6915120EE4B
:1011E0009CF0DF6269D19D51A5EC1AF00001D16F2E
:1011F000D129516E9D5111EC03F097D6915120EEFB
:101200009CF0DF6259D19D51A5EC1AF00001D16F1D
:10121000D105516E9D5111EC03F087D69C51911967
:1012200003E09C2901E048D1E56B030EA56F880E11
:10123000A46FA66BA76B200EA86FEA6B5BD9EC516D
:10124000A90FD96EDA6AE5510F08A2EC1EF0DF6E25
:101250000001E52B100EE56501D004D0EC2B070E44
:10126000EC65EDD7100EE56501D006D0A5EC1DF0BC
:10127000EA2B020EEA65E2D7EC6BEC5155EC1EF05E
:10128000000908E0EC51AC0FD96EDA6AEC5155EC6C
:101290001EF005D0EC51AC0FD96EDA6A000EDF6E8D
:1012A000EC2B040EEC65E9D7A5EC1DF0050EE56FFF
:1012B000030EEA6F1FD9EC51A90FD96EDA6AE55116
:1012C00055EC1EF0DF6EE52BEC2B070EEC65F3D72B
:1012D000A5EC1DF0EA2B060EEA65ECD7EDD0915196
:1012E00020EE9CF0DF62E8D0030EA56F870EA46F9E
:1012F000A66BA76B220EA86FA90EFEEC1DF020D6E0
:10130000915120EE9CF0DF62D7D0E76B96C0D1F010
:101310000F0ED117040ED15D12E3A0C0E8F0E96B07
:10132000E951E81103E1010EE96FE86B010EE85D98
:10133000010EE95907E3010EE96F000E02D0E96BD7
:10134000010EE86F52C0D8F053C0D9F0B6D8070EDE
:10135000A56FBFD8E751E85DD16F000EE959D26F94
:10136000040ED15D000ED25902E3040E02D0E75103
:10137000E85DE26FE251840FA46F9F51E725AC6FE7
:10138000E36B0CD0E351AD0FD96EDA6A9F51E725BC
:10139000E32548EC1EF0DF6E0001E32BE251E35D34
:1013A000F1E3A5EC1DF0E251E727A92BE751D16F3E
:1013B000D26BE851D15DE951D259CCE3D8C052F09B
:1013C000D9C053F079D0915120EE9CF0DF6274D0F7
:1013D00052C0DAF053C0DBF070D89FC0E4F014D0F4
:1013E0009F51A008E425D96EDA6ADF50CF6FE4512F
:1013F000EDEC1DF00001D16F9F51AD08E425D96ED1
:10140000DA6AD1C0DFFFE42B96510F0BD16FD26B9C
:101410009F51D127000ED223FC0ED125D36FFF0E92
:10142000D221D46FE451D56FD66BD651800AD76FD5
:10143000D351D55DD451800AD759D2E3DAC052F0E6
:10144000DBC053F0070EA56F96510F0B800FA46FF2
:1014500040D89FC0ACF074D59A51010A01E148D53B
:10146000030A01E148D5040A01E148D50E0A01E169
:1014700048D5010A01E148D5020A01E168D5070A09
:1014800001E17ED51B0A01E113D60F0A01E127D63F
:10149000010A01E177D6040A01E1A0D6030A01E1BD
:1014A000ADD6010A01E1BAD63E0A01E118D7040A15
:1014B00001E126D7030A87E012009E519DC0D1F0BA
:1014C000D26BD1C0D2F0D16BD111526ED251536ECA
:1014D0001200A66BA76B270EA86FA96B9DC0AAF080
:1014E0009EC0ABF01200070EA56FA66BA76B1A0E7D
:1014F000A86F1A0CEAC0A9F0010EEC6F010CE9EC20
:101500001EF0096A430E086E000E0A6ACEEC1CF04B
:10151000E9EC1EF0096A440E086E000E0A6ACEEC71
:101520001CF0E9EC1EF0096A4D0E086E980E0A6E6A
:10153000CEEC1CF0E9EC1EF0096A4E0E086E980E17
:101540000A6ECEEC1CF0E9EC1EF0096A4F0E086E34
:10155000980E0A6ECEEC1CF0E9EC1EF0096A500EF3
:10156000086E980E0A6ECEEC1CF0E9EC1EF0096ACB
:10157000510E086E980E0A6ECEEC1CF0E9EC1EF0CF
:10158000096A520E086E980E0A6ECEEC1CF0E9EC59
:101590001EF0096A530E086E980E0A6ECEEC1CF00F
:1015A000E9EC1EF0096A540E086E980E0A6ECEEC35
:1015B0001CF0E9EC1EF0096A550E086E000E0A6A6E
:1015C000CEEC1CF0E9EC1EF0096A560E086E000E17
:1015D0000A6ACEEC1CF0E9EC1EF0096A570E086EA0
:1015E000000E0A6ACEEC1CF0E9EC1EF0096A580EF7
:1015F000086E000E0A6ACEEC1CF0E9EC1EF0096AD7
:10160000590E086E000E0A6ACEEC1CF0E9EC1EF0D2
:10161000096A5A0E086E000E0A6ACEEC1CF0E9EC5C
:101620001EF0096A5B0E086E000E0A6ACEEC1CF012
:10163000E9EC1EF0096A5C0E086E000E0A6ACEEC38
:101640001CF0E9EC1EF0096A5D0E086E000E0A6AD5
:10165000CEEC1CF0E9EC1EF0096A5E0E086E000E7E
:101660000A6ACEEC1CF0E9EC1EF0096A5F0E086E07
:10167000000E0A6ACEEC1CF0E9EC1EF0096A600E5E
:10168000086E000E0A6ACEEC1CF0E9EC1EF0096A46
:10169000610E086E000E0A6ACEEC1CF0E9EC1EF03A
:1016A000096A620E086E000E0A6ACEEC1CF0E9ECC4
:1016B0001EF0096A630E086E000E0A6ACEEC1CF07A
:1016C000E9EC1EF0096A640E086E000E0A6ACEECA0
:1016D0001CF0E9EC1EF0096A650E086E000E0A6A3D
:1016E000CEEC1CF0E9EC1EF0096A660E086E000EE6
:1016F0000A6ACEEC1CF0E9EC1EF0096A670E086E6F
:10170000000E0A6ACEEC1CF0E9EC1EF0096A680EC5
:10171000086E000E0A6ACEEC1CF0E9EC1EF0096AB5
:10172000690E086E000E0A6ACEEC1CF0E9EC1EF0A1
:10173000096A6A0E086E000E0A6ACEEC1CF0E9EC2B
:101740001EF0096A6B0E086E000E0A6ACEEC1CF0E1
:10175000E9EC1EF0096A6C0E086E000E0A6ACEEC07
:101760001CF0E9EC1EF0096A6D0E086E000E0A6AA4
:10177000CEEC1CF0E9EC1EF0096A6E0E086E000E4D
:101780000A6ACEEC1CF0E9EC1EF0096A6F0E086ED6
:10179000000E0A6ACEEC1CF0E9EC1EF0096A700E2D
:1017A000086E000E0A6ACEEC1CF0E9EC1EF0096A25
:1017B000710E086E000E0A6ACEEC1CF0E9EC1EF009
:1017C000096A720E086E000E0A6ACEEC1CF0E9EC93
:1017D0001EF0096A730E086E000E0A6ACEEC1CF049
:1017E000E9EC1EF0096A740E086E000E0A6ACEEC6F
:1017F0001CF0E9EC1EF0096A750E086E000E0A6A0C
:10180000CEEC1CF0E9EC1EF0096A760E086E000EB4
:101810000A6ACEEC1CF0E9EC1EF0096A770E086E3D
:10182000000E0A6ACEEC1CF0E9EC1EF0096A780E94
:10183000086E000E0A6ACEEC1CF0E9EC1EF0096A94
:10184000790E086E000E0A6ACEEC1CF0E9EC1EF070
:10185000096A7A0E086E000E0A6ACEEC1CF0E9ECFA
:101860001EF0096A7B0E086E000E0A6ACEEC1CF0B0
:10187000E9EC1EF0096A7C0E086E000E0A6ACEECD6
:101880001CF0E9EC1EF0096A7D0E086E000E0A6A73
:10189000CEEC1CF0E9EC1EF0096A7E0E086E000E1C
:1018A0000A6ACEEC1CF0E9EC1EF0096A7F0E086EA5
:1018B000000E0A6ACEEC1CF0E9EC1EF0096A800EFC
:1018C000086E000E0A6ACEEC1CF0E9EC1EF0096A04
:1018D000810E086E000E0A6ACEEC1CF0E9EC1EF0D8
:1018E000096A820E086E000E0A6ACEEC1CF0E9EC62
:1018F0001EF0096A830E086E000E0A6ACEEC1CF018
:10190000E9EC1EF0096A840E086E000E0A6ACEEC3D
:101910001CF00E6A0F6AE9EC1EF00F500EC00CF0BE
:101920000D6AD8900C360D36D8900C360D36D890FE
:101930000C360D360C26000E0D228B0E0C24086E74
:10194000000E0D20096E000E0A6ACEEC1CF00F2A64
:10195000070E0F64E0D70E2A060E0E64DBD7060CC6
:1019600036683768386839683A6A3B6A3C6A3D6A63
:10197000436A435072D9440E1224086E000E13209D
:10198000096EB5EC1EF0146E14AE1AD1435065D931
:10199000470E1224086E000E1320096EB5EC1EF0DF
:1019A00068D9450E1924086E000E1A20096EB5EC90
:1019B0001EF034D9B5EC1EF0226E020E221622C0A3
:1019C00023F0246A256A266A170ED8902336243617
:1019D00025362636E82EF9D71C5065D9FF0E2B1078
:1019E000316E2C50326E2D50336E2E50346E43506B
:1019F00034D9480E1224086E000E1320096EB5EC7F
:101A00001EF037D9460E1924086E000E1A20096EF2
:101A1000B5EC1EF003D9B5EC1EF0226E010E2216B5
:101A200022C023F0246A256A266A23C026F0256A8C
:101A3000246A236A1C5037D943502F6E306AD890DD
:101A40002F363036D8902F363036D8902F36303665
:101A5000430E2F24086E000E3020096EB5EC1EF0E8
:101A60002B103E6E2C503F6E2D50406E2E50416E0E
:101A7000436608D03EC03AF03FC03BF040C03CF067
:101A800041C03DF0315036163250371633503816BB
:101A900034503916426A42503EC012F03FC013F033
:101AA00040C014F041C015F0E82A05D0D890153296
:101AB000143213321232E82EF9D7010E12164250A8
:101AC0003AC016F03BC017F03CC018F03DC019F00A
:101AD000E82A05D0D8901932183217321632E82E7B
:101AE000F9D71650010B121810E042C012F0FDD8C1
:101AF00001D000D9122EFDD7131C156E141C166EC2
:101B0000176A16BE17061750E6D8422A1F0E4264FF
:101B1000C2D73E503A163F503B1640503C164150FB
:101B20003D16435042E0426A43C012F04350136EE8
:101B3000146AD89013361436D89013361436D890C9
:101B400013361436430E1324086E000E1420096E4B
:101B5000B5EC1EF0156E122A02D0D8901532122E56
:101B6000FCD7010E151643C016F035C017F0162A23
:101B700002D0D8901732162EFCD71750010B15182B
:101B800010E043C012F0B1D801D0B4D8122EFDD766
:101B900013C015F014C016F0000E16BEFF0E176E1F
:101BA0009AD8422A070E4264BFD7435056D8430EF4
:101BB0001224086E000E1320096EB5EC1EF0356E6F
:101BC000432A060E4364D5D6800E61EC1EF00F0149
:101BD0000F0E096E1C0E086E36C00AF037C00BF0EF
:101BE00038C00CF039C00DF0010E0E6E78EC17F015
:101BF0000D01D4830F010F0E096E040E086E3AC05A
:101C00000AF03BC00BF03CC00CF03DC00DF0010EE3
:101C10000E6E78EC17F0000E61EF1EF01B6E1BC00D
:101C20001CF01D6A1E6A1F6A1DC01FF01CC01EF03A
:101C30001D6A1C6A4350206E216AD89020362136D6
:101C4000D89020362136D89020362136440E2024D4
:101C5000086E000E2120096E1200126E136AD890D1
:101C600012361336D89012361336D89012361336F1
:101C70001200146E14C015F0166A176A186A17C09D
:101C800018F016C017F015C016F0156A4350196EFB
:101C90001A6AD89019361A36D89019361A36D8904A
:101CA00019361A3612002310276E1D502410286E84
:101CB0001E502510296E1F5026102A6E1550271011
:101CC0002B6E165028102C6E175029102D6E1850A0
:101CD0002A102E6E1200186E155036161650371632
:101CE00017503816185039161200010E136E146A68
:101CF000122A1200D890133614361200CF6BD16B13
:101D0000070ED16501D01FD12DD9B5EC1EF0000111
:101D1000D06FD0AF16D1D151020DF350600FD96EF4
:101D2000DA6ADE50DD1028E016D9DE06000EDD5A34
:101D300012D9DE50DD103CE115D9B5EC1EF00001E2
:101D4000CC6FCCA535D0D1C0CCF0010ECD6FCC2B53
:101D500002D0D890CD37CC2FFCD7CD51516E000E8C
:101D600008EC19F0D0A324D0010EC56F020EC66F87
:101D7000D15111EC1CF01CD0650ED125086E096AFA
:101D8000000E0922B5EC1EF00001CD6FCC6B660E83
:101D9000D125086E096A000E0922B5EC1EF000017B
:101DA000CC27000ECD23D7D8CCC0DEFFCDC0DDFFC1
:101DB000D1C0CCF0010ECD6FCC2B02D0D890CD3756
:101DC000CC2FFCD7CD518A1501E1BBD0BDD8DE5058
:101DD000DD1001E1A5D0B8D8DE06000EDD5AB4D87A
:101DE000DE50DD102EE0ADD08AA802D08A9825D032
:101DF0008A88010ECF6F33D08AA202D08A921DD07A
:101E00008A82F7D78AA002D08A9017D08A80F1D729
:101E10008BAE02D08B9E11D08B8EEBD78BAC02D0C9
:101E20008B9C0BD08B8CE5D78BAA02D08B9A05D0DC
:101E30008B8ADFD78BA803D08B98CF6B10D08B8881
:101E4000D8D7D151D1E0010AD7E0030ADBE0010A7B
:101E5000DFE0070AE3E0010AE7E0030AEBE089D8E4
:101E6000B5EC1EF00001CD6FCC6B8CD8B5EC1EF03C
:101E70000001CC27000ECD2367D8CCC0DEFFCDC03B
:101E8000DDFFCF513AE06ED8B5EC1EF00001CC6F0B
:101E9000CCA520D0D151020D650EF324086E000EA2
:101EA000F420096EB5EC1EF00001CD6FCC6BD15162
:101EB000020D660EF324086E000EF420096EB5ECD8
:101EC0001EF00001CC27000ECD2345D8CCC0DEFF8C
:101ED000CDC0DDFFD0A707D0140EC56F030EC66FAF
:101EE000D15111EC1CF0D0AB2CD0140EC56F190ED3
:101EF000C66FD15111EC1CF024D0D0A907D0140E1C
:101F0000C56F040EC66FD15111EC1CF0D0AD19D0C5
:101F1000140EC56F180EC66FD15111EC1CF011D004
:101F200031D8B5EC1EF00001CC6F23D8B5EC1EF013
:101F30000001CE6FCD6BCC51CD25706F000ECE2140
:101F4000716FD12BDDD61200D151020DF350700FFD
:101F5000D96EDA6A1200D151020DF350600FD96EBA
:101F6000DA6A12004D0ED125086E096A000E0922A8
:101F7000000CD151020D550EF324086E000EF42012
:101F8000096E1200D151020D560EF324086E000E98
:101F9000F420096E1200E8CFCAF0CC6BCCC0C7F0B9
:101FA000010EC86FC72B02D0D890C837C72FFCD7F7
:101FB000C851511401E137D1CAA911D0D890CC35FC
:101FC000C76FC86BC837750EC725086E000EC821CD
:101FD000096EB5EC1EF000019D1901E024D1CAA7DD
:101FE00011D0D890CC35C76FC86BC837760EC725CF
:101FF000086E000EC821096EB5EC1EF000019E1996
:1020000001E011D14D0ECC25086E096A000E09229F
:10201000B5EC1EF00001CB6FCBAF05D1E0D08A88C4
:10202000096A4D0E086EB5EC1EF00001C76FC7A51A
:10203000E8D0096A660E086EB5EC1EF00001C76FA5
:10204000096A650E086EB5EC1EF00001C96FC86B19
:10205000C751C825606F000EC921616FD2D08A8236
:10206000096A4E0E086EB5EC1EF00001C76FC7A5D9
:10207000C8D0096A680E086EB5EC1EF00001C76F83
:10208000096A670E086EB5EC1EF00001C96FC86BD7
:10209000C751C825626F000EC921636FB2D08A8014
:1020A000096A4F0E086EB5EC1EF00001C76FC7A598
:1020B000A8D0096A6A0E086EB5EC1EF00001C76F61
:1020C000096A690E086EB5EC1EF00001C96FC86B95
:1020D000C751C825646F000EC921656F92D08B8EE1
:1020E000096A500E086EB5EC1EF00001C76FC7A557
:1020F00088D0096A6C0E086EB5EC1EF00001C76F3F
:10210000096A6B0E086EB5EC1EF00001C96FC86B52
:10211000C751C825666F000EC921676F72D08B8CBE
:10212000096A510E086EB5EC1EF00001C76FC7A515
:1021300068D0096A6E0E086EB5EC1EF00001C76F1C
:10214000096A6D0E086EB5EC1EF00001C96FC86B10
:10215000C751C825686F000EC921696F52D08B8A9C
:10216000096A520E086EB5EC1EF00001C76FC7A5D4
:1021700048D0096A700E086EB5EC1EF00001C76FFA
:10218000096A6F0E086EB5EC1EF00001C96FC86BCE
:10219000C751C8256A6F000EC9216B6F32D08B887A
:1021A000096A530E086EB5EC1EF00001C76FC7A593
:1021B00028D0096A720E086EB5EC1EF00001C76FD8
:1021C000096A710E086EB5EC1EF00001C96FC86B8C
:1021D000C751C8256C6F000EC9216D6F12D0CC514C
:1021E00001E11DD7010A01E13AD7030A01E157D7FE
:1021F000010A01E174D7070A92E0010AB0E0030A7C
:10220000CEE0CBA707D0140EC56F030EC66FCC511E
:1022100011EC1CF0CBAB07D0140EC56F190EC66FB6
:10222000CC5111EC1CF0CC2B070ECC65B7D6070CAB
:10223000E8CF14F0546A7750C00B166E166632D091
:1022400060AE12D0A49074AE06D01150D96EDA6A86
:10225000000EDB86749E60A002D0548001D05490A2
:102260000F0E196E600E1AD00F0150AF19D0A49244
:1022700074AC06D01150D96EDA6A000EDB86749CFD
:102280005051070B546E020E546005D01150D96E98
:10229000DA6A000EDB8E0F0E196E500E186E65D0C6
:1022A000000EC2D01650400A46E160AE04D00F0EB8
:1022B000196E600E3ED00F0150AF04D00F0E196E94
:1022C000500E37D00D01F8B507D00E0120AF04D065
:1022D0000E0E196E200E2DD00D01F8B707D00E018D
:1022E00030AF04D00E0E196E300E23D00D01F8B9A8
:1022F00007D00E0140AF04D00E0E196E400E19D05B
:102300000D01F8BB05D00E0150AF02D00E0ED7D78D
:102310000D01F8BD05D00E0160AF02D00E0EC8D77A
:102320000D01F8BFBDD70E0170AFBAD70E0E196EF2
:10233000700E186E0AD074AEB3D76F50070BD6EC80
:102340001BF008C018F009C019F018C0D9FF19C057
:10235000DAFFDF501F0B546EA49274AC06D01150FC
:10236000D96EDA6A000EDB86749C18C012F019C0B0
:1023700013F01150D96EDA6ADF6A20EE05F055D8F5
:102380001050D96EDA6A17500F0BDF6E17AC05D0FC
:102390001150D96EDA6A000EDB8C20EE02F045D8BF
:1023A00017A608D01150D96EDA6A000EDB8A010E2A
:1023B000176E01D0176A1828086E000E1920096ED2
:1023C00014C00AF017C00BF0E9EC16F0060E182640
:1023D000000E19221050D96EDA6ADF50176E156A96
:1023E0000DD018C0D9FF19C0DAFF0F50E16EE26AB4
:1023F000DFCFE7FF184A192A0F2A152A1750155C54
:10240000F0E3A4AE06D01150D96EDA6A000EDB8874
:10241000A49E12C0D9FF13C0DAFF7F0EDF1616503C
:10242000800AD8B4749E010E12001850D926195093
:10243000DA22DF50176E120000019951981101E164
:10244000E8D0DD6BE7D88C0ECD25086E000ECE21CE
:10245000096EB5EC1EF00001DC6FDCAFD5D0DCAD51
:1024600018D0DD51CD6FCE6BD890CD37CE37D89008
:10247000CD37CE37D890CD37CE378B0ECD25086EE1
:10248000000ECE21096EB5EC1EF000019B1901E093
:10249000BBD0DD51080D8E0EF324086E000EF42023
:1024A000096EB5EC1EF00001CD6FDC51010BCF6F52
:1024B000CE6BCD51CE25D06F000ECF21D16FDD5127
:1024C000080D8D0EF324086E000EF420096EB5EC95
:1024D0001EF00001CD6FDC51020BCF6FCE6BCD51E2
:1024E000CE25D26F000ECF21D36F94D8900ECD257C
:1024F000086E000ECE21096EB5EC1EF00001D46FFF
:1025000089D88F0ECD25086E000ECE21096EB5EC50
:102510001EF00001D56F20EE98F0DECFCDF0DDCFBC
:10252000CEF0D051CD1BD151CE1BD251CD17D351AE
:10253000CE17CE51CD1168E19A51D419D5154FE07F
:1025400063D0000167D873D8B5EC1EF00001D66FD8
:10255000D6C051F0DC51CBEC0FF056D000015AD868
:1025600066D8B5EC1EF00001D76FD7C051F0DC5132
:1025700008EC19F049D000014DD859D8B5EC1EF03F
:102580000001D86FD8C00AF0DC511EEC13F03CD02B
:10259000000140D84CD8B5EC1EF00001D96FD9C06D
:1025A00051F0DC514BEC16F02FD0000133D83FD85E
:1025B000B5EC1EF00001DA6FDAC00CF0DC5100EC73
:1025C0001BF022D0000126D832D8B5EC1EF0000155
:1025D000DB6FDBC051F0DC51A2EC15F015D01AD83E
:1025E000910ECD25086E000ECE21096EB5EC1EF0C1
:1025F000010AA7E0030AB2E0010ABDE0070AE2E02F
:102600000E0AC6E01A0AD1E00001DD2B060EDD65D8
:1026100019D71200DD51CD6FCE6BD890CD37CE37A4
:10262000D890CD37CE37D890CD37CE371200920E16
:10263000CD25086E000ECE21096E1200E8CF0FF0F6
:10264000106A10C00BF0010E0C6E0B2A02D0D8904D
:102650000C360B2EFCD70C500A1401E1EAD00FA85F
:1026600011D0D89010340B6E0C6A0C36750E0B24FA
:10267000086E000E0C20096EB5EC1EF000019D19CD
:1026800001E0D7D00FA611D0D89010340B6E0C6A91
:102690000C36760E0B24086E000E0C20096EB5EC7D
:1026A0001EF000019E1901E0C4D04D0E1024086EEA
:1026B000096A000E0922B5EC1EF00E6E0EAEB9D0FE
:1026C000A8D08A9800018A81096A560E086EB5EC76
:1026D0001EF00B6E096A550E086EB5EC1EF00D6EFD
:1026E0000C6A0B500C240001706F000E0D20716FEE
:1026F000A0D08A9200018A83096A580E086EB5EC50
:102700001EF00B6E096A570E086EB5EC1EF00D6ECA
:102710000C6A0B500C240001726F000E0D20736FB9
:1027200088D08A9000018A85096A5A0E086EB5EC35
:102730001EF00B6E096A590E086EB5EC1EF00D6E98
:102740000C6A0B500C240001746F000E0D20756F85
:1027500070D08B9E00018A87096A5C0E086EB5EC0A
:102760001EF00B6E096A5B0E086EB5EC1EF00D6E66
:102770000C6A0B500C240001766F000E0D20776F51
:1027800058D08B9C00018A89096A5E0E086EB5ECF0
:102790001EF00B6E096A5D0E086EB5EC1EF00D6E34
:1027A0000C6A0B500C240001786F000E0D20796F1D
:1027B00040D08B9A00018A8B096A600E086EB5ECD6
:1027C0001EF00B6E096A5F0E086EB5EC1EF00D6E02
:1027D0000C6A0B500C2400017A6F000E0D207B6FE9
:1027E00028D08B9800018A8D096A620E086EB5ECBC
:1027F0001EF00B6E096A610E086EB5EC1EF00D6ED0
:102800000C6A0B500C2400017C6F000E0D207D6FB4
:1028100010D0105001E155D7010A01E16AD7030A2F
:1028200080E0010A96E0070AACE0010AC2E0030A70
:10283000D8E0102A070E106404D7070CE8CF1CF06C
:102840001B6A1C50800A04E155C01BF0556AB3D0C6
:102850001C50810A02E1010E75D01C50820A02E16F
:10286000050E70D01C50830A02E11B6AA4D01C50D4
:10287000940A03E1F4EC1EF065D01C50950A03E1C4
:10288000F3EC1EF05FD01C50960A03E1F2EC1EF050
:1028900059D0890E1C6005D01C507C0F98EC1EF09E
:1028A00051D0880E1C6408D0910E1C6005D01C50BD
:1028B000770F8EEC1EF046D01C50910A03E191C0B8
:1028C0001BF079D01C50930A03E152C01BF073D067
:1028D0001C50920A02E1535035D01C50970A03E174
:1028E000F1EC1EF02FD01C50980A03E1F0EC1EF022
:1028F00029D01C50990A03E1EFEC1EF023D0990E69
:102900001C6422D09E0E1C601FD0D6EC1EF00BC0A3
:1029100014F00AC013F009C012F008C011F01C50E6
:10292000660F196E195049D811C00DF012C00EF083
:1029300013C00FF014C010F0E82A01D048D8E82ED8
:10294000FDD724D01B6E37D09D0E1C6421D0A20E63
:102950001C601ED0D1EC1EF00BC018F00AC017F09E
:1029600009C016F008C015F01C50620F1A6E1A50FC
:1029700024D815C00DF016C00EF017C00FF018C007
:1029800010F0E82A01D023D8E82EFDD70D50DAD771
:10299000CF0E1C6408D0E00E1C6005D01C50300F18
:1029A000A2EC1EF0CFD7DF0E1C6405D01C50200F08
:1029B00055EC1EF0C7D71B50120003080C6ED890C0
:1029C0000C36D8900C36D8900C360C501200D8909B
:1029D00010320F320E320D3212000F0E1C6E400EEE
:1029E0001B6E0F0E1E6E300E1D6E0F0E206E200E13
:1029F0001F6E0E0E226E200E216E0E0E246E300EF5
:102A0000236E0E0E266E400E256E0E0E286E500E94
:102A1000276E0E0E2A6E600E296E0E0E2C6E700E34
:102A20002B6E7750C00B2D6E2D6602D0020E01D09A
:102A3000080E2E6E0D01D890F831306E346A7DD0BC
:102A40003450020DF3501B0FD96EDA6ADECF35F029
:102A5000DDCF36F035C031F036C032F0020E3464CE
:102A600004D0D890303230A067D035C0D9FF36C0FE
:102A7000DAFFDF501A6E1AB65FD035C0D9FF36C004
:102A8000DAFFFC0EDF1619C01AF0030E1A1635C055
:102A9000D9FF36C0DAFF1A50DF1219AC04D0185033
:102AA0004009336E02D018C033F020EE05F03550E7
:102AB000D9263650DA2233C0DFFF19AA03D0010E1F
:102AC000336E01D0336A3528086E000E3620096E49
:102AD00012C00AF013C00BF014C00CF015C00DF0BA
:102AE00033C00EF078EC17F0060E3526000E3622B5
:102AF0002F6A0FD016C0D9FF17C0DAFF35C0E1FF2B
:102B000036C0E2FFDFCFE7FF164A172A354A362ADA
:102B10002F2A18502F5CEEE331C0D9FF32C0DAFF04
:102B2000DF501A6E1AB406D031C0D9FF32C0DAFFB6
:102B3000000EDB86010E05D0342A2E50345C80E373
:102B4000000E1200E8CFC9F0CB6BCC6BCCC0C7F045
:102B5000010EC86FC72B02D0D890C837C72FFCD73B
:102B6000C851511401E192D0C9A911D0D890CC35E7
:102B7000C76FC86BC837750EC725086E000EC82111
:102B8000096EB5EC1EF000019D1901E07FD0C9A7C8
:102B900010D0D890CC35C76FC86BC837760EC72514
:102BA000086E000EC821096EB5EC1EF000019E19DA
:102BB0006DE14D0ECC25086E096A000E0922B5ECB8
:102BC0001EF00001CA6F2DD08AA802D08A9825D0A5
:102BD0008A88010ECB6F33D08AA202D08A921DD090
:102BE0008A82F7D78AA002D08A9017D08A80F1D73C
:102BF0008BAE02D08B9E11D08B8EEBD78BAC02D0DC
:102C00008B9C0BD08B8CE5D78BAA02D08B9A05D0EE
:102C10008B8ADFD78BA803D08B98CB6B10D08B8897
:102C2000D8D7CC51D1E0010AD7E0030ADBE0010A92
:102C3000DFE0070AE3E0010AE7E0030AEBE0CB513B
:102C400013E0CAA707D0140EC56F030EC66FCC5190
:102C500011EC1CF0CAAB1AD0140EC56F190EC66F5A
:102C6000CC5111EC1CF012D0CAA907D0140EC56FBC
:102C7000040EC66FCC5111EC1CF0CAAD07D0140E77
:102C8000C56F180EC66FCC5111EC1CF0CC2B070E83
:102C9000CC655CD7070CE8CFC9F0CA6BCC6BCCC055
:102CA000C7F0010EC86FC72B02D0D890C837C72F06
:102CB000FCD7C851511401E187D0C9A910D0D890D0
:102CC000CC35C76FC86BC837750EC725086E000EA8
:102CD000C821096EB5EC1EF000019D1975E1C9A768
:102CE00010D0D890CC35C76FC86BC837760EC725C3
:102CF000086E000EC821096EB5EC1EF000019E1989
:102D000063E14D0ECC25086E096A000E0922B5EC70
:102D10001EF00001CB6F23D0000E8AB8010ECA6FDF
:102D20002CD0000E8AB2010ECA6F27D0000E8AB0D6
:102D3000010ECA6F22D0000E8BBE010ECA6F1DD0CD
:102D4000000E8BBC010ECA6F18D0000E8BBA010E9C
:102D5000CA6F13D0000E8BB8010ECA6F0ED0CC51C3
:102D6000DBE0010ADEE0030AE1E0010AE4E0070A31
:102D7000E7E0010AEAE0030AEDE0CA5113E0CBA95B
:102D800007D0140EC56F040EC66FCC5111EC1CF0A9
:102D9000CBAD1AD0140EC56F180EC66FCC5111EC06
:102DA0001CF012D0CBA907D0140EC56F040EC66F4D
:102DB000CC5111EC1CF0CBAD07D0140EC56F180E22
:102DC000C66FCC5111EC1CF0CC2B070ECC6567D72D
:102DD000070C0AC00EF00B662BD00E50D96E6CD8C3
:102DE0000C36D8900C36D8900C34DF6E0E50D96E5D
:102DF000DA6AD92ADA6A73D8D8900C320D2EFCD749
:102E00000C5063D8050E0D6ED8900C320D2EFCD7E9
:102E10000E50D96EDA6A0C50DF123DD8DF6A0E50C0
:102E2000D96EDA6A030ED926DA6A000EDF6E32D066
:102E300032D855D8D8900C360D2EFCD70C50DF6EFA
:102E40000E50D96EDA6A030ED92636D80C32D890D5
:102E50000C32D8900C3039D8030E0C161CD80C50FC
:102E6000DF1208C0D9FF09C0DAFFDF500C6ED8901E
:102E70000C32D8900C32D8900C321C0E0C160BD899
:102E80000C50DF120FD8E12AE26ADFCFE7FF0AD841
:102E9000DFCFE7FF12000E50D96EDA6A020ED92694
:102EA000DA6A1200084A092A08C0D9FF09C0DAFF05
:102EB0000E50E16EE26A1200DA6A08C0E1FF09C052
:102EC000E2FFE7500C6ED8901200DF6E084A092A24
:102ED00008C0D9FF09C0DAFFDF500C6E120008C02D
:102EE000E1FF09C0E2FFE7500C6E050E0D6E050C08
:102EF0000A0E116E0E6622D01150D96EDA6ADF50BA
:102F00000F6ED8900F32D8900F32D8900F3062D811
:102F1000D92ADA6A72D8D8900F36102EFCD708C09A
:102F2000D9FF46D86AD8D8900F36102EFCD70F504C
:102F300008C0D9FF09C0DAFFDF6E39D0115042D87E
:102F4000050E106ED8900F32102EFCD70F5042D8BD
:102F5000030E49D80F3608C0D9FF2AD8020E43D82D
:102F60000F34E00B08C0D9FF09C0DAFFDF6E08C0DC
:102F7000D9FF09C0DAFF000EDB86115023D8030EFB
:102F80000F1608C0D9FF14D8D92ADA6A08C0E1FFA1
:102F900009C0E2FFDFCFE7FF084A092A1150D96EC6
:102FA000DA6A08C0E1FF09C0E2FFDFCFE7FF1200E5
:102FB00009C0DAFF0F50DF12084A092A1150D96EF2
:102FC000DA6A1200D96EDA6A020ED926DA6ADF509E
:102FD0000F6E120008C0D9FF09C0DAFFDF6E115072
:102FE000D96EDA6A1200D926DA6ADF500F6ED890ED
:102FF0000F36D8900F36D8901200DF500F6E050EA6
:10300000106E050CE8CF16F0101C156E830E1664BA
:103010000ED0890E16600BD010C00CF016507C0F2D
:103020002CEC1EF016507C0F98EC1EF069D0165058
:10303000920A0DE11050126E116A5250136E146A0A
:103040001110526E12501410536E535059D0165026
:10305000930A0BE1116A5350126E10501110526E08
:103060001250536E52C015F04ED0880E166419D00F
:10307000910E166016D053C011F011C012F0136AF1
:10308000122802E1522802E0101C3AD010C00CF0C5
:103090001650770F7FEC1DF01650770F8EEC1EF058
:1030A0002FD0CF0E166417D0E00E166014D053C088
:1030B00011F011C012F0136A1228E6E15228E4E17F
:1030C00010C00CF01650300F92EC1DF01650300F5F
:1030D000A2EC1EF015D01650A20AD6E11050550AE7
:1030E00004E1846B856B550E0BD01050AA0A0BE1DE
:1030F000E80E845D030E855905E2E5EC1EF0AA0E8C
:10310000156E01D0156A155012000001806B816B9D
:10311000826B836B8B6B896B886B8A6B0C6A0C5030
:10312000020DF350700FD96EDA6ADE6ADD6A0C5058
:10313000020DF350600FD96EDA6ADE6ADD6A0C2A7E
:10314000070E0C64ECD70C6A4D0E0C24086E096A4D
:10315000000E0922B5EC1EF00A6E0AA027D00CC0A2
:103160000AF0010E0B6E0A2A02D0D8900B360A2EF6
:10317000FCD70B5000018A13550E0C24086E096A07
:10318000000E0922B5EC1EF00B6E0A6A560E0C24D6
:10319000086E096A000E0922B5EC1EF031D8700FD6
:1031A000D96EDA6A0AC0DEFF0BC0DDFF520E0C24B6
:1031B000086E096A000E0922B5EC1EF00A6E0AA418
:1031C0001AD06F0E0C24086E096A000E0922B5ECA5
:1031D0001EF00B6E0A6A700E0C24086E096A000E4F
:1031E0000922B5EC1EF00CD8600FD96EDA6A0AC05D
:1031F000DEFF0BC0DDFF0C2A060E0C64A5D7060C03
:103200000A26000E0B220C50020DF3500001120092
:10321000E8CFC9F0CB6BCBC0C7F0010EC86FC72B8E
:1032200002D0D890C837C72FFCD7C85151145FE0DF
:10323000C9A910D0D890CB35C76FC86BC837750EE9
:10324000C725086E000EC821096EB5EC1EF00001FE
:103250009D194DE1C9A710D0D890CB35C76FC86B69
:10326000C837760EC725086E000EC821096EB5EC6A
:103270001EF000019E193BE14D0ECB25086E096A38
:10328000000E0922B5EC1EF00001CA6FCAAF2FD0A4
:103290000ED08A981AD08A9218D08A9016D08B9E17
:1032A00014D08B9C12D08B9A10D08B980ED0CB510F
:1032B000F0E0010AF0E0030AF0E0010AF0E0070A9A
:1032C000F0E0010AF0E0030AF0E0CAA907D0140E0A
:1032D000C56F040EC66FCB5111EC1CF0CAAD07D000
:1032E000140EC56F180EC66FCB5111EC1CF0CB2B12
:1032F000070ECB6590D7070CAFEC1CF0CAEC1DF0A5
:10330000000904E17FEC0AF085EC18F06EEC1CF08B
:103310000400FA0E00018F650ED092050CE0916951
:10332000E9EC1EF0096A010E086EFF0E0A68CEEC89
:103330001CF06EEC1CF0966B43EC1DF01CD0912938
:1033400003E1010E926F23D0030E926F0EEC1EF07C
:103350001ED0EDEC19F01BD096AF19D099519811F1
:10336000D8B473EC07F01CEC12F011D0ECEC1EF0AA
:103370000ED0926B0CD000019251E1E0010AE9E01D
:10338000030AE4E0010AE8E0070AF0E0F2D7E90EF8
:103390000001805D030E8159000E8259000E835991
:1033A0000BE3806B816B826B836B47EC1CF092515B
:1033B000030AD8B47EEC0EF03B0E8B650BD08B6B02
:1033C000892B3B0E896502D0896B882B170E886587
:1033D00001D0886BEEEC1EF09BD753D0572810E03D
:1033E000810EA46FA56BA66BA76B020EA86F57C0CA
:1033F000A9F0A5EC1DF0010E936F866B876B48D08A
:10340000040E926F810EA46FA969070EA56FA66BBB
:10341000A76B030EA86FA5EC1DF03AD096AF0FD0A6
:103420009951981135E19A51030A32E1576603D058
:10343000020E926FE2D7572A936B946B29D0E90E54
:10344000865D030E875924E3942B020E946517D0F2
:10345000576605D0572A936B866B876BEED757C09C
:1034600091F0030E926F936B915183EC1EF0400E1E
:1034700078EC1EF00001946B0EEC1EF009D0936BFB
:1034800007D000019351AAE0010AC8E0030AF7E15E
:10349000966B120041C0B1F0B26BB36BB46BB3C0AA
:1034A000B4F0B2C0B3F0B1C0B2F0B16B3F50B56F81
:1034B0004050B66FB76BB86BB6C0B8F0B5C0B7F0D8
:1034C000B66BB56B43C0B9F0BA6BBB6BBC6B1A0E75
:1034D000D890B937BA37BB37BC37E82EF9D7B551D2
:1034E000B911BD6FB651BA11BE6FB751BB11BF6FE5
:1034F000B851BC11C06FB151BD11C16FB251BE11F5
:10350000C26FB351BF11C36FB451C011C46F4250E9
:10351000C111476EC251486EC351496EC4514A6EC3
:1035200047C037F048C038F049C039F04AC03AF0D7
:1035300044C03BF045C03CF046C03DF000EC1DF0FF
:103540000009000ED8A4010E1200E8CF0BF00A6AA1
:103550000B6606D0096A430E086EB5EC1EF04DD01E
:103560000B0406E1096A440E086EB5EC1EF045D066
:10357000010E0B6434D00A0E0B6031D01ED0000E49
:103580008AB8010E3AD0000E8AB2010E36D0000E73
:103590008AB0010E32D0000E8BBE010E2ED0000E6E
:1035A0008BBC010E2AD0000E8BBA010E26D0000E65
:1035B0008BB8010E22D00A6A21D00B50020ADFE03C
:1035C000010AE1E0070AE3E0010AE5E0030AE7E0B7
:1035D000010AE9E00F0AEBE0010AEDE00FD0090E65
:1035E0000B640CD0800E0B6009D0430E0B24086EC8
:1035F000096A000E0922B5EC1EF00A6E0A5012008C
:10360000E8CF10F0116A11C00DF0010E0E6E0D2AF8
:1036100002D0D8900E360D2EFCD70E500C143AE086
:1036200010A810D0D89011340D6E0E6A0E36750E9B
:103630000D24086E000E0E20096EB5EC1EF0000180
:103640009D1928E110A610D0D89011340D6E0E6A85
:103650000E36760E0D24086E000E0E20096EB5ECA7
:103660001EF000019E1916E14D0E1124086E096A24
:10367000000E0922B5EC1EF00F6EE9EC1EF04D0EA7
:103680001124086E096A000E09220F507F0B0A6E82
:10369000CEEC1CF0112A070E1164B5D7070C800E72
:1036A00061EC1EF0090E706EFC0E716E010E726EF2
:1036B000200E736E778E779C606A0F01506B0E013F
:1036C000206B306B406B506B606B706BE00E0D01CC
:1036D000F86F0F01006B080E016F026B036B046B38
:1036E000E80E056F1A0E066F076B030E0D01D46FFF
:1036F000D56BE06B110EE16FE26FE36BE46BE56B92
:10370000E66BE76B540EF06F050EF16FF26BF26B28
:103710000F0E0F01186FE00E196F1A6B1B6B1987D4
:103720000F0E1C6FE00E1D6F1E691F6B1D87000EB4
:1037300061EF1EF0E8CF27F021C01AF022C01BF085
:10374000280E18EC1DF0000902E1000E2ED01F50CB
:10375000D96EDA6A28C0DFFF1E50D96EDA6A29C036
:10376000DFFF2A50236E010E2B14246E2750D96ED2
:10377000DA6A23C0DEFF24C0DDFF2050D96EDA6A8A
:1037800028C023F029C024F02AC025F02BC026F041
:103790001B0E05D0D8902632253224322332E82E53
:1037A000F9D72350070BDF6E010E1200E8CF0BF0A4
:1037B00024D00F0E0D6E600E1ED00F010F0E0D6E79
:1037C000500E19D00E010E0E0D6E200E14D00E01EB
:1037D0000E0E0D6E300E0FD00E010E0E0D6E400E41
:1037E0000AD00E010E0EEBD70E010E0EE3D70E011E
:1037F0000E0E0D6E700E0C6E0FD00B50DAE0010A3B
:10380000DCE0030ADFE0010AE2E0070AE5E0010A82
:10381000E8E0030AE9E0EBD70CC008F00DC009F0BE
:103820001200E8CF50F050C04DF0D89050344B6E9D
:103830004C6A4C36750E4B24086E000E4C20096EF7
:10384000B5EC1EF04E6ED89050344B6E4C6A4C3630
:10385000760E4B24086E000E4C20096EB5EC1EF05F
:103860004F6E0001C5C03FF0406AC6C041F091C034
:1038700042F0030E436E446E4D0E456E000E466ED2
:103880000F0E466E5F0E4564466A4AEF1AF0952B9E
:103890003B0E95650DD0956B902B9251030A08E174
:1038A000C7EC1EF00001C56FCCEC1EF06CEC1DF0F7
:1038B0003B0E906502D0906B8E2B170E8E6501D05B
:1038C0008E6B9251030A09E18D2B8DC04DF00F0EC6
:1038D0004D16020E4D5CD8B08D6B1200020E566E66
:1038E000DBEC1EF00001916F916701D09169966B3E
:1038F000976B986B996B9A6BA46BA56BA66BA76B78
:10390000A86B556A576A926B936B946B526A536AB1
:10391000866B876B846B856B956B906B8E6B1200DF
:10392000E0EC1EF0000916E1000196510F0B050AAC
:1039300015E1E0EC1EF000019C1910E09C5178ECC0
:103940001EF000019169FF0E83EC1EF0010E0001D4
:10395000926F04D000019C5178EC1EF0120085ECAF
:1039600018F0926A806A080E936E816A010E946E56
:10397000826A920E1DEC1EF0FB0E096E1D0E086E83
:10398000ACEC1EF08A988A928A908B9E8B9C8B9AC4
:103990008B984FEC1BF0F28CF28E120008C0A9FF3E
:1039A0000AC0A8FFA69EA69CA684000EF2BE010E29
:1039B0000B6EF29E550EA76EAA0EA76EA682A6B239
:1039C000FED70BB002D0F29E01D0F28EA694120068
:1039D00096510F0B0D6E0D5012E0915120EE9CF0A0
:1039E000DF620DD00D0405E0010E0D6408D09D6767
:1039F00006D09169FF0E83EC1EF06EEC1CF01200F5
:103A00008C6B37C012F038C013F039C014F03AC0D4
:103A100015F03CC016F03DC017F03BC018F0200E6A
:103A2000196EEDEC14F00009ECE00001A46B010C40
:103A3000E8CF1CF096AF02D0000E0FD01BC00FF0E5
:103A40001AC010F01D0E116E1C5018EC11F0000978
:103A5000F3E01DAC1DAAF0D7010E120096C04CF089
:103A60000F0E4C164C040EE1915120EE9CF0DF62DB
:103A700009D0800EA46FA56BA66BA76B030EA86F71
:103A8000A5EC1DF0120096BF12D09A0E1E6E9B0E72
:103A90001F6E970E206E960E216E9C0E226E980E53
:103AA0009AEC1BF02C6E2C5002E00001968F120055
:103AB000E8CF09F0080E0A6E0B6AD89009340B346F
:103AC0000B6ED890093608500B5C02E308500B5E71
:103AD0000A2EF3D70B501200E8CF4CF0830E0001F2
:103AE000A46F070EA56FA76B140EA66F090EA86F23
:103AF000A96B4CC0AAF0C5C0ABF0A5EF1DF0E8CF94
:103B00000DF0070E0D6401D00CD0E9EC1EF00B0E89
:103B10000D24086E096A000E09220CC00AF0CEECD2
:103B20001CF01200E8CF0DF00F0E0D6401D00CD088
:103B3000E9EC1EF0130E0D24086E096A000E09222E
:103B40000CC00AF0CEEC1CF01200A6C03FF0A7C0DB
:103B500040F0A8C041F091C042F0A5C043F0A4518C
:103B60000F0B446E000E466EA90E456E4AEF1AF01A
:103B700096510F0B020A0DE1915120EE9CF0DF628D
:103B800008D09DC091F0915183EC1EF0400E78EC6E
:103B90001EF01200E0EC1EF0C00B400A02E1010E24
:103BA0000AD0FF0E83EC1EF0000E78EC1EF0A00E83
:103BB0006DEC1EF0000E120000EE60F0510EEE6A89
:103BC000E806FDE100EE52F0070EEE6AE806FDE1C0
:103BD000000EF86E00017CEF19F0E8CFD0F07F0EF8
:103BE000D06506D0CFC010F0D05102EC18F005D04F
:103BF000CFC051F0D05111EC03F01200070EA96FA5
:103C0000480EAA6F020E086E0850A90FD96EDA6A24
:103C1000DF6A082A070E0864F7D7070C810E000137
:103C2000A46FA56BA66BA76B020EA86F91C0A9F03D
:103C3000A5EC1DF0010E566E010CE8CF08F00850FF
:103C40007F0BD56ED76AD66AF29408AE02D0F28A9C
:103C500001D0F29AD58E1200E8CF0DF0E9EC1EF0FB
:103C6000060E0D24086E096A000E09220CC00AF027
:103C7000CEEF1CF0E8CF0CF00C0409E1E9EC1EF0EB
:103C8000096A086AFF0E0A68CEEC1CF0FF001200F9
:103C9000E8CF1DF07F0E1D6404D01D501EEC14F003
:103CA00003D01D50A5EC1AF01200E8CF09F009501E
:103CB000000F086E08C0F6FF060EF76E0800F550FC
:103CC0001200E8CF08F01F0E6F1608506F126F50E9
:103CD000E00B0818D8B41200FAD7E8CF0CF0E9ECE2
:103CE0001EF0096A030E086E0CC00AF0CEEF1CF03D
:103CF000E8CF0CF0E9EC1EF0096A020E086E0CC069
:103D00000AF0CEEF1CF0E8CF0CF0E9EC1EF0096AE7
:103D1000010E086E0CC00AF0CEEF1CF0E8CF0AF0DE
:103D20000B0E0A24086E096A000E0922B5EF1EF078
:103D3000E8CF0AF0060E0A24086E096A000E09226E
:103D4000B5EF1EF0E8CF0AF0130E0A24086E096AD8
:103D5000000E0922B5EF1EF008C00AF009C00BF0F2
:103D60000BC0D7FF0AC0D6FF120008C0A9FFA69C4F
:103D7000A69EA68000F000F0A850120001C003F03B
:103D800002C004F004C0D7FF03C0D6FF1200096AC6
:103D9000440E086EB5EF1EF0096A430E086EB5EFCB
:103DA0001EF0086A096A0A6A0B6A1200086A096A40
:103DB0000A6A0B6A1200096A010E086EB5EF1EF05E
:103DC000096A020E086EB5EF1EF07FEC0AF085EF6F
:103DD00018F0A6A21200FDD7566A12001200010CBC
:0A3DE000080C010C010C010C010C91
:020000040020DA
:08000000FFFFFFFFFFFFFFFF00
:020000040030CA
:0E000000FF061C1EFF8281FF0FC00FE00F40A5
:00000001FF
