:040000005BEF00F0C2
:10001800D8CF05F0E8CF06F0E0CF07F0F2A401D082
:1000280001D03ED0FB0E026E1D0E016E75EC1DF068
:100038000001864B872B844B852B010E8027000EF1
:100048008123000E8223000E832382A001D001D0D9
:1000580002D08F6B01D08F2B582A5650020AD8A491
:1000680001D001D00ED0640E586401D001D009D05F
:1000780082A201D001D002D0829201D08282586A35
:100088000ED05604D8A401D001D003D08282586A79
:1000980006D0566601D001D002D08292586AF294F6
:1000A80007C0E0FF06C0E8FF05C0D8FF10007BEFDF
:0200B8001CF03A
:100600007777772E6575726F736F757263652E736A
:10061000652F70617269735F3031302E786D6C00B8
:100620000000E8CFCEF0CA6BCC6B511CCD6FCE670B
:100630000DD0096A430E086E51C00AF044EC1CF05C
:10064000096A430E086E6CEC1DF09CD3CE050DE1DB
:10065000096A440E086E51C00AF044EC1CF0096AA5
:10066000440E086E6CEC1DF08DD3010ECE657BD16F
:100670000A0ECE6178D14B0ECE25086E096A000EA7
:1006800009226CEC1DF00001C76FC7BF57D17CD3A6
:10069000010ECA6F510426E18A88000E8AB8010E45
:1006A000CD6F010ECC6F096A4D0E086E6CEC1DF01B
:1006B0000001C76FC7A568D3096A660E086E6CECA7
:1006C0001DF00001C76F096A650E086E6CEC1DF025
:1006D0000001C96FC86BC751C825606F000EC921E2
:1006E000616F52D3516650D38A98000E8AB8010EBA
:1006F000CD6FCC6B49D3010ECA6F51041DE18A82C4
:10070000000E8AB2010ECD6F010ECC6F096A4E0E3B
:10071000086E6CEC1DF00001C76FC7A535D3096AE0
:10072000680E086E6CEC1DF00001C76F096A670E59
:10073000086E6CEC1DF066D1516626D38A92000ECD
:100740008AB2010ECD6FD5D7010ECA6F510426E1D2
:100750008A80000E8AB0010ECD6F010ECC6F096A3F
:100760004F0E086E6CEC1DF00001C76FC7A50CD3CF
:10077000096A6A0E086E6CEC1DF00001C76F096A09
:10078000690E086E6CEC1DF00001C96FC86BC75193
:10079000C825646F000EC921656FF6D25166F4D288
:1007A0008A90000E8AB0010ECD6FA3D7010ECA6FDA
:1007B000510426E18B8E000E8BBE010ECD6F010E13
:1007C000CC6F096A500E086E6CEC1DF00001C76F0B
:1007D000C7A5DAD2096A6C0E086E6CEC1DF0000138
:1007E000C76F096A6B0E086E6CEC1DF00001C96FD3
:1007F000C86BC751C825666F000EC921676FC4D288
:100800005166C2D28B9E000E8BBE010ECD6F71D78A
:10081000010ECA6F510426E18B8C000E8BBC010EB9
:10082000CD6F010ECC6F096A510E086E6CEC1DF095
:100830000001C76FC7A5A8D2096A6E0E086E6CECDE
:100840001DF00001C76F096A6D0E086E6CEC1DF09B
:100850000001C96FC86BC751C825686F000EC92158
:10086000696F92D2516690D28B9C000E8BBC010EA8
:10087000CD6F3FD7010ECA6F510426E18B8A000E5F
:100880008BBA010ECD6F010ECC6F096A520E086E45
:100890006CEC1DF00001C76FC7A576D2096A700E17
:1008A000086E6CEC1DF00001C76F096A6F0E086ED0
:1008B0006CEC1DF00001C96FC86BC751C8256A6F89
:1008C000000EC9216B6F60D251665ED28B9A000E0A
:1008D0008BBA010ECD6F0DD7010ECA6F510426E100
:1008E0008B88000E8BB8010ECD6F010ECC6F096A9C
:1008F000530E086E6CEC1DF00001C76FC7A544D203
:10090000096A720E086E6CEC1DF00001C76F096A6F
:10091000710E086E6CEC1DF00001C96FC86BC751F9
:10092000C8256C6F000EC9216D6F2ED251662CD276
:100930008B98000E8BB8010ECD6FDBD6CE51020A1C
:1009400001E1A6D6010A01E1D6D6070A01E1FCD6EB
:10095000010A01E12BD7030A01E15AD7010A8AE013
:100960000F0ABAE011D2090ECE650AD1120ECE617D
:1009700007D1F2D0430E41DA44EC1CF046DA6CECBD
:100980001DF00001CD6F51A010D08A98CC6B8A81E8
:10099000096A560E086E6CEC1DF00001C76F096AFB
:1009A000550E086E6CEC1DF038DA51B485D6ECD1DA
:1009B000430E23DA44EC1CF028DA6CEC1DF0000145
:1009C000CD6F51A011D08A92CC6B8A83096A560EE2
:1009D000086E6CEC1DF00001C76F096A550E086EB9
:1009E0006CEC1DF0000123DA51A4CED1096A660E29
:1009F000086E6CEC1DF00001C76F096A650E086E89
:100A00006CEC1DF00001C96FC86BC751C825626F3F
:100A1000000EC921636FB8D1430EEFD944EC1CF02E
:100A2000F4D96CEC1DF00001CD6F51A012D08A906A
:100A3000CC6B8A85096A5A0E086E6CEC1DF00001B9
:100A4000C76F096A590E086E6CEC1DF00001C96F82
:100A500007DA51B48DD698D1430ECFD944EC1CF0AF
:100A6000D4D96CEC1DF00001CD6F51A012D08B9E3B
:100A7000CC6B8A87096A5C0E086E6CEC1DF0000175
:100A8000C76F096A5B0E086E6CEC1DF00001C96F40
:100A9000EFD951B49FD678D1430EAFD944EC1CF0B6
:100AA000B4D96CEC1DF00001CD6F51A012D08B9C1D
:100AB000CC6B8A89096A5E0E086E6CEC1DF0000131
:100AC000C76F096A5D0E086E6CEC1DF00001C96FFE
:100AD000BFD951B4B1D658D1430E8FD944EC1CF0D4
:100AE00094D96CEC1DF00001CD6F51A012D08B9AFF
:100AF000CC6B8A8B096A600E086E6CEC1DF00001ED
:100B0000C76F096A5F0E086E6CEC1DF00001C96FBB
:100B100097D951B4C3D638D1430E6FD944EC1CF0E9
:100B200074D96CEC1DF00001CD6F51A012D08B98E0
:100B3000CC6B8A8D096A620E086E6CEC1DF00001A8
:100B4000C76F096A610E086E6CEC1DF00001C96F79
:100B500097D951B4D5D618D1CE510A0A01E10AD796
:100B6000010A01E125D7070A01E156D7010A01E18F
:100B700073D7030A91E0010AAFE01F0ACDE004D168
:100B8000110ECE65A3D0220ECE61A0D0430E35D972
:100B900044EC1CF03AD96CEC1DF00001CD6F83D011
:100BA000096A560E086E6CEC1DF00001C76F096AE9
:100BB000550E086E6CEC1DF030D9E6D0096A580E5F
:100BC000086E6CEC1DF00001C76F096A570E086EC5
:100BD0006CEC1DF000012BD9D7D0096A5A0E086EB3
:100BE0006CEC1DF00001C76F096A590E086E6CECC1
:100BF0001DF00001C96F34D9C7D0096A5C0E086EB8
:100C00006CEC1DF00001C76F096A5B0E086E6CEC9E
:100C10001DF00001C96F2CD9B7D0096A5E0E086EAD
:100C20006CEC1DF00001C76F096A5D0E086E6CEC7C
:100C30001DF00001C96F0CD9A7D0096A600E086EBB
:100C40006CEC1DF00001C76F096A5F0E086E6CEC5A
:100C50001DF00001C96FF4D897D0096A620E086EC2
:100C60006CEC1DF00001C76F096A610E086E6CEC38
:100C70001DF00001C96F04D987D0096A640E086E9F
:100C80006CEC1DF00001C76F096A630E086E6CEC16
:100C90001DF00001C96FC86BC751C8257E6F000EDB
:100CA000C9217F6F71D0CE51130A01E179D7060AAD
:100CB00085E0020A92E00E0AA0E0020AAEE0060A0F
:100CC000BCE0020ACAE03E0AD8E05ED0210ECE6542
:100CD0003CD0320ECE6139D0430E8FD844EC1CF09C
:100CE00094D86CEC1DF00001CD6F16D0096A740E1B
:100CF000086E6CEC1DF00001C76F096A730E086E78
:100D00006CEC1DF00001C96FC86BC751C8256E6F30
:100D1000000EC9216F6F38D0CE51230A01E1CCD427
:100D2000060A01E1FCD4020A01E122D50E0A01E122
:100D300051D5020A01E180D5060A01E1AFD5020AC8
:100D400001E1DED51E0AD2E01FD0310ECE650BD0F8
:100D5000420ECE6108D0430E50D844EC1CF055D85A
:100D60006CEC1DF00FD0470ECE650ED0800ECE611C
:100D70000BD0430E42D844EC1CF043EC0AF045D8AB
:100D80006CEC1DF00001CD6FCA5135E04B0ECE2545
:100D9000086E096A000E09226CEC1DF00001CB6F91
:100DA000CC5115E0CBA708D0140EC56F030EC66F4B
:100DB000CE51FE0FD5EC1AF0CBAB1DD0140EC56F83
:100DC000190EC66FCE51FE0FD5EC1AF014D0CBA978
:100DD00008D0140EC56F040EC66FCE51FE0FD5ECB1
:100DE0001AF0CBAD08D0140EC56F180EC66FCE51D9
:100DF000FE0FD5EC1AF0CD511200CE25086E096A0F
:100E0000000E092251C00AF0000C430E0001CE254D
:100E1000086E096A000E0922000C0001C96FC86B38
:100E2000C751C825706F000EC921716F1200C96FBC
:100E3000C86BC751C825726F000EC921736F1200AD
:100E4000C86BC751C8257A6F000EC9217B6F12008D
:100E5000C86BC751C825786F000EC921796F120081
:100E6000C86BC751C825746F000EC921756F120079
:100E7000C86BC751C825766F000EC921776F120065
:100E8000C86BC751C8257C6F000EC9217D6F120049
:100E90009951981101E1A4D2D3D274EC1BF0D0D2B5
:100EA000E0EC1BF0CDD257EC1CF0CAD2B2EC1BF038
:100EB000C7D296510F0B020A01E0C2D2915120EE27
:100EC0009CF0DF62BDD2800E9D6112D09D5182ECFC
:100ED00019F00001AA6F9DC0A9F0030EA56F820E44
:100EE000A46FA66BA76B0A0EA86F31EC1CF0A8D2FA
:100EF0009D518BEC17F0EDD796510F0B030A01E0D3
:100F00009FD2915120EE9CF0DF629AD2800E9D61BB
:100F100006D09EC051F09D5111EC03F0DBD79EC06E
:100F20000FF09D5149EC13F0D4D7915120EE9CF075
:100F3000DF6286D2000E3EEC1DF000019E1901E03A
:100F40007FD2030E3EEC1DF000019F1901E078D224
:100F5000050E3EEC1DF00001A01901E071D2070E54
:100F60003EEC1DF00001A11901E06AD25350A21914
:100F700001E066D2525020EEA3F0DF6261D29D51B3
:100F800012EC1DF05DD2000E3EEC1DF000019D192B
:100F900073E1010E3EEC1DF000019E196DE1020EA1
:100FA0003EEC1DF000019F1967E1030E3EEC1DF0C1
:100FB0000001A01961E18D895FD0040E3EEC1DF0A7
:100FC00000019D1959E1050E3EEC1DF000019E192E
:100FD00053E1060E3EEC1DF000019F194DE1070E96
:100FE0003EEC1DF00001A01947E18D8B45D0080EA5
:100FF0003EEC1DF000019D193FE1090E3EEC1DF095
:1010000000019E1939E10A0E3EEC1DF000019F1906
:1010100033E10B0E3EEC1DF00001A0192DE18D8D8A
:101020002BD00C0E3EEC1DF000019D1925E10D0E9C
:101030003EEC1DF000019E191FE10E0E3EEC1DF06E
:1010400000019F1919E10F0E3EEC1DF00001A019DF
:1010500013E18D8F11D08D6B0FD09C390F0BD16F99
:10106000D26BD251F8E1D1518EE0010AA6E0030A19
:10107000BEE0010AD6E0EFD78D51F00BF00A01E097
:10108000DFD132EC1BF0DCD1915120EE9CF0DF621D
:10109000D7D1DD6B9DC0DCF09EC0DFF0EA6B42D0A3
:1010A000070E086EEA510AEC1CF00001D16FD15115
:1010B000AA0FD96EDA6ADC51EA25EDEC1CF0DF6E7E
:1010C000070E086E0001EA510AEC1CF0060A0BE05C
:1010D000FF0E0001DF25D16FD26BFF0ED223EA5144
:1010E000D119D2111EE1070E086E0001EA510AEC77
:1010F0001CF0060A03E1070E000109D0070E086E76
:101100000001EA510AEC1CF00001D16FD129DE6F19
:10111000DE51810FA46FABD9DDC0A9F031EC1CF01A
:10112000DD2BEA2BDF51EA5D01E38AD1B9D791517A
:1011300020EE9CF0DF6284D19DC0E0F09651FE0F5E
:10114000070BE16FE76B16D0E7519E0FD96EDA6A95
:10115000DF50CF6FE051E7258CEC1CF00001E75128
:10116000AA0FD96EDA6AE051E725EDEC1CF0DF6ECC
:101170000001E72BE151E75DE7E379D9A96BE15184
:10118000810FA46FB2D6915120EE9CF0DF6258D14E
:101190009D5182EC19F00001D16FD129516E9D5102
:1011A00011EC03F097D6915120EE9CF0DF6248D10C
:1011B0009D5182EC19F00001D16FD105516E9D5106
:1011C00011EC03F087D69C51911903E09C2901E0B2
:1011D00037D1E56B030EA56F880EA46FA66BA76BC6
:1011E000200EA86FE96B4AD9EB51A90FD96EDA6AC4
:1011F000E5510F083EEC1DF0DF6E0001E52B100EEF
:10120000E56501D004D0EB2B070EEB65EDD7100E92
:10121000E56501D006D031EC1CF0E92B020EE96542
:10122000E2D7EB6BEB5106EC1DF0000908E0EB5147
:10123000AC0FD96EDA6AEB5106EC1DF005D0EB511C
:10124000AC0FD96EDA6A000EDF6EEB2B040EEB6585
:10125000E9D731EC1CF0050EE56F030EE96F0ED9EE
:10126000EB51A90FD96EDA6AE55106EC1DF0DF6E7D
:10127000E52BEB2B070EEB65F3D731EC1CF0E92BDC
:10128000060EE965ECD7DCD0915120EE9CF0DF62D0
:10129000D7D0030EA56F870EA46FA66BA76B220E87
:1012A000A86FA90EBFEC1CF020D6915120EE9CF047
:1012B000DF62C6D0E86B96C0D1F00F0ED117040ED6
:1012C000D15D04E3A0C0E6F0E66702D0010EE66F50
:1012D00052C0D8F053C0D9F0B4D8030EA56FBDD812
:1012E000E851E6C0D1F0D26BD15F000ED25BD25193
:1012F000800A800F040ED8B4D15D02E3040E02D040
:10130000E851E65DE26FE251840FA46F9F51E8253A
:10131000AC6FE36B0CD0E351AD0FD96EDA6A9F511D
:10132000E825E325EDEC1CF0DF6E0001E32BE25134
:10133000E35DF1E331EC1CF0E251E827A92BE65123
:10134000E85DCEE3D8C052F0D9C053F079D09151C6
:1013500020EE9CF0DF6274D052C0DAF053C0DBF0B4
:1013600070D89FC0E4F014D09F51A008E425D96E36
:10137000DA6ADF50CF6FE4518CEC1CF00001D16FC2
:101380009F51AD08E425D96EDA6AD1C0DFFFE42BA6
:1013900096510F0BD16FD26B9F51D127000ED223E4
:1013A000FC0ED125D36FFF0ED221D46FE451D56F3F
:1013B000D66BD651800AD76FD351D55DD451800AF0
:1013C000D759D2E3DAC052F0DBC053F0030EA56F59
:1013D00096510F0B800FA46F40D89FC0ACF085D5FD
:1013E0009A51010A01E159D5030A01E159D5040ACC
:1013F00001E159D50E0A01E159D5010A01E159D59A
:10140000020A01E179D5070A01E18FD51B0A01E142
:1014100024D60F0A01E138D6010A01E188D6040A70
:1014200001E1B1D6030A01E1BED6010A01E1CBD642
:101430003E0A01E129D7040A01E137D7030A87E010
:1014400012009E519DC0D1F0D26BD1C0D2F0D16BB1
:10145000D111526ED251536E1200A66BA76B270E9C
:10146000A86FA96B9DC0AAF09EC0ABF01200030E3E
:10147000A56FA66BA76B1A0EA86F1A0CE9C0A9F08E
:10148000010EEB6F010C36683768386839683A6AC4
:101490003B6A3C6A3D6A436A435072D9440E122447
:1014A000086E000E1320096E6CEC1DF0146E14AE65
:1014B0001AD1435065D9470E1224086E000E13202E
:1014C000096E6CEC1DF068D9450E1924086E000EEB
:1014D0001A20096E6CEC1DF034D96CEC1DF0226EF4
:1014E000020E221622C023F0246A256A266A170EED
:1014F000D8902336243625362636E82EF9D71C50C8
:1015000065D9FF0E2B10316E2C50326E2D50336E7C
:101510002E50346E435034D9480E1224086E000EFB
:101520001320096E6CEC1DF037D9460E1924086E95
:10153000000E1A20096E6CEC1DF003D96CEC1DF046
:10154000226E010E221622C023F0246A256A266A22
:1015500023C026F0256A246A236A1C5037D94350D9
:101560002F6E306AD8902F363036D8902F363036DE
:10157000D8902F363036430E2F24086E000E3020C0
:10158000096E6CEC1DF02B103E6E2C503F6E2D50F2
:10159000406E2E50416E436608D03EC03AF03FC0C8
:1015A0003BF040C03CF041C03DF031503616325067
:1015B00037163350381634503916426A42503EC0FE
:1015C00012F03FC013F040C014F041C015F0E82AFB
:1015D00005D0D8901532143213321232E82EF9D7D2
:1015E000010E121642503AC016F03BC017F03CC034
:1015F00018F03DC019F0E82A05D0D89019321832F9
:1016000017321632E82EF9D71650010B121810E0D7
:1016100042C012F0FDD801D000D9122EFDD7131C04
:10162000156E141C166E176A16BE17061750E6D8EC
:10163000422A1F0E4264C2D73E503A163F503B1614
:1016400040503C1641503D16435042E0426A43C070
:1016500012F04350136E146AD89013361436D89093
:1016600013361436D89013361436430E1324086EEE
:10167000000E1420096E6CEC1DF0156E122A02D0BB
:10168000D8901532122EFCD7010E151643C016F055
:1016900035C017F0162A02D0D8901732162EFCD774
:1016A0001750010B151810E043C012F0B1D801D04B
:1016B000B4D8122EFDD713C015F014C016F0000ECA
:1016C00016BEFF0E176E9AD8422A070E4264BFD785
:1016D000435056D8430E1224086E000E1320096E94
:1016E0006CEC1DF0356E432A060E4364D5D6800E91
:1016F0001EEC1DF00F010F0E096E1C0E086E36C099
:101700000AF037C00BF038C00CF039C00DF0010EF4
:101710000E6EF8EC15F00D01D4830F010F0E096E5B
:10172000040E086E3AC00AF03BC00BF03CC00CF04F
:101730003DC00DF0010E0E6EF8EC15F0000E1EEF20
:101740001DF01B6E1BC01CF01D6A1E6A1F6A1DC0A7
:101750001FF01CC01EF01D6A1C6A4350206E216AD7
:10176000D89020362136D89020362136D890203691
:101770002136440E2024086E000E2120096E12002E
:10178000126E136AD89012361336D890123613366A
:10179000D890123613361200146E14C015F0166A63
:1017A000176A186A17C018F016C017F015C016F09F
:1017B000156A4350196E1A6AD89019361A36D8909D
:1017C00019361A36D89019361A3612002310276E99
:1017D0001D502410286E1E502510296E1F502610F3
:1017E0002A6E155027102B6E165028102C6E17508D
:1017F00029102D6E18502A102E6E1200186E1550DA
:10180000361616503716175038161850391612005B
:10181000010E136E146A122A1200D8901336143671
:101820001200096A430E086E000E0A6A44EC1CF0AE
:10183000096A440E086E000E0A6A44EC1CF0096A3C
:101840004D0E086E980E0A6E44EC1CF0096A4E0E9E
:10185000086E980E0A6E44EC1CF0096A4F0E086E72
:10186000980E0A6E44EC1CF0096A500E086E980E31
:101870000A6E44EC1CF0096A510E086E980E0A6E4E
:1018800044EC1CF0096A520E086E980E0A6E44EC85
:101890001CF0096A530E086E980E0A6E44EC1CF098
:1018A000096A540E086E980E0A6E44EC1CF0096A20
:1018B000550E086E000E0A6A44EC1CF0096A560EBA
:1018C000086E000E0A6A44EC1CF0096A570E086E96
:1018D000000E0A6A44EC1CF0096A580E086E000EED
:1018E0000A6A44EC1CF0096A590E086E000E0A6A76
:1018F00044EC1CF0096A5A0E086E000E0A6A44ECA9
:101900001CF0096A5B0E086E000E0A6A44EC1CF0BB
:10191000096A5C0E086E000E0A6A44EC1CF0096A43
:101920005D0E086E000E0A6A44EC1CF0096A5E0E39
:10193000086E000E0A6A44EC1CF0096A5F0E086E1D
:10194000000E0A6A44EC1CF0096A600E086E000E74
:101950000A6A44EC1CF0096A610E086E000E0A6AFD
:1019600044EC1CF0096A620E086E000E0A6A44EC30
:101970001CF0096A630E086E000E0A6A44EC1CF043
:10198000096A640E086E000E0A6A44EC1CF0096ACB
:10199000650E086E000E0A6A44EC1CF0096A660EB9
:1019A000086E000E0A6A44EC1CF0096A670E086EA5
:1019B000000E0A6A44EC1CF0096A680E086E000EFC
:1019C0000A6A44EC1CF0096A690E086E000E0A6A85
:1019D00044EC1CF0096A6A0E086E000E0A6A44ECB8
:1019E0001CF0096A6B0E086E000E0A6A44EC1CF0CB
:1019F000096A6C0E086E000E0A6A44EC1CF0096A53
:101A00006D0E086E000E0A6A44EC1CF0096A6E0E38
:101A1000086E000E0A6A44EC1CF0096A6F0E086E2C
:101A2000000E0A6A44EC1CF0096A700E086E000E83
:101A30000A6A44EC1CF0096A710E086E000E0A6A0C
:101A400044EC1CF0096A720E086E000E0A6A44EC3F
:101A50001CF0096A730E086E000E0A6A44EC1CF052
:101A6000096A740E086E000E0A6A44EC1CF0096ADA
:101A7000750E086E000E0A6A44EC1CF0096A760EB8
:101A8000086E000E0A6A44EC1CF0096A770E086EB4
:101A9000000E0A6A44EC1CF0096A780E086E000E0B
:101AA0000A6A44EC1CF0096A790E086E000E0A6A94
:101AB00044EC1CF0096A7A0E086E000E0A6A44ECC7
:101AC0001CF0096A7B0E086E000E0A6A44EC1CF0DA
:101AD000096A7C0E086E000E0A6A44EC1CF0096A62
:101AE0007D0E086E000E0A6A44EC1CF0096A7E0E38
:101AF000086E000E0A6A44EC1CF0096A7F0E086E3C
:101B0000000E0A6A44EC1CF0096A800E086E000E92
:101B10000A6A44EC1CF0096A810E086E000E0A6A1B
:101B200044EC1CF0096A820E086E000E0A6A44EC4E
:101B30001CF0096A830E086E000E0A6A44EC1CF061
:101B4000096A840E086E000E0A6A44EC1CF00D6AE5
:101B50000E6A0E500DC00BF00C6AD8900B360C3686
:101B6000D8900B360C36D8900B360C360B26000E60
:101B70000C228B0E0B24086E000E0C20096E000E3A
:101B80000A6A44EC1CF00E2A070E0E64E2D70D2AF6
:101B9000060E0D64DDD7060CCF6BD16B070ED16539
:101BA00001D01FD12DD96CEC1DF00001D06FD0AF4A
:101BB00016D1D151020DF350600FD96EDA6ADE50A2
:101BC000DD1028E016D9DE06000EDD5A12D9DE50EF
:101BD000DD103CE115D96CEC1DF00001CC6FCCA5FB
:101BE00035D0D1C0CCF0010ECD6FCC2B02D0D89027
:101BF000CD37CC2FFCD7CD51516E000E6DEC18F0C7
:101C0000D0A324D0010EC56F020EC66FD151D5EC02
:101C10001AF01CD0650ED125086E096A000E092243
:101C20006CEC1DF00001CD6FCC6B660ED125086EFB
:101C3000096A000E09226CEC1DF00001CC27000E91
:101C4000CD23D7D8CCC0DEFFCDC0DDFFD1C0CCF0D6
:101C5000010ECD6FCC2B02D0D890CD37CC2FFCD736
:101C6000CD518A1501E1BBD0BDD8DE50DD1001E1B8
:101C7000A5D0B8D8DE06000EDD5AB4D8DE50DD108F
:101C80002EE0ADD08AA802D08A9825D08A88010E8D
:101C9000CF6F33D08AA202D08A921DD08A82F7D722
:101CA0008AA002D08A9017D08A80F1D78BAE02D05A
:101CB0008B9E11D08B8EEBD78BAC02D08B9C0BD034
:101CC0008B8CE5D78BAA02D08B9A05D08B8ADFD775
:101CD0008BA803D08B98CF6B10D08B88D8D7D151DD
:101CE000D1E0010AD7E0030ADBE0010ADFE0070ADE
:101CF000E3E0010AE7E0030AEBE089D86CEC1DF0B1
:101D00000001CD6FCC6B8CD86CEC1DF00001CC27A2
:101D1000000ECD2367D8CCC0DEFFCDC0DDFFCF5194
:101D20003AE06ED86CEC1DF00001CC6FCCA520D051
:101D3000D151020D650EF324086E000EF420096ED9
:101D40006CEC1DF00001CD6FCC6BD151020D660E15
:101D5000F324086E000EF420096E6CEC1DF00001F7
:101D6000CC27000ECD2345D8CCC0DEFFCDC0DDFF93
:101D7000D0A707D0140EC56F030EC66FD151D5EC96
:101D80001AF0D0AB2CD0140EC56F190EC66FD151FE
:101D9000D5EC1AF024D0D0A907D0140EC56F040ECC
:101DA000C66FD151D5EC1AF0D0AD19D0140EC56F55
:101DB000180EC66FD151D5EC1AF011D031D86CEC99
:101DC0001DF00001CC6F23D86CEC1DF00001CE6F2C
:101DD000CD6BCC51CD25706F000ECE21716FD12B04
:101DE000DDD61200D151020DF350700FD96EDA6AB0
:101DF0001200D151020DF350600FD96EDA6A120051
:101E00004D0ED125086E096A000E0922000CD15131
:101E1000020D550EF324086E000EF420096E120018
:101E2000D151020D560EF324086E000EF420096EF7
:101E30001200E8CFCAF0CC6BCCC0C7F0010EC86F5F
:101E4000C72B02D0D890C837C72FFCD7C851511420
:101E500001E11FD1CAA70CD0780ECC25086E096A03
:101E6000000E09226CEC1DF000019E1901E011D159
:101E70004D0ECC25086E096A000E09226CEC1DF08F
:101E80000001CB6FCBAF05D1E0D08A88096A4D0E37
:101E9000086E6CEC1DF00001C76FC7A5E8D0096A99
:101EA000660E086E6CEC1DF00001C76F096A650EC6
:101EB000086E6CEC1DF00001C96FC86BC751C825D6
:101EC000606F000EC921616FD2D08A82096A4E0EFE
:101ED000086E6CEC1DF00001C76FC7A5C8D0096A79
:101EE000680E086E6CEC1DF00001C76F096A670E82
:101EF000086E6CEC1DF00001C96FC86BC751C82596
:101F0000626F000EC921636FB2D08A80096A4F0EDA
:101F1000086E6CEC1DF00001C76FC7A5A8D0096A58
:101F20006A0E086E6CEC1DF00001C76F096A690E3D
:101F3000086E6CEC1DF00001C96FC86BC751C82555
:101F4000646F000EC921656F92D08B8E096A500EA6
:101F5000086E6CEC1DF00001C76FC7A588D0096A38
:101F60006C0E086E6CEC1DF00001C76F096A6B0EF9
:101F7000086E6CEC1DF00001C96FC86BC751C82515
:101F8000666F000EC921676F72D08B8C096A510E83
:101F9000086E6CEC1DF00001C76FC7A568D0096A18
:101FA0006E0E086E6CEC1DF00001C76F096A6D0EB5
:101FB000086E6CEC1DF00001C96FC86BC751C825D5
:101FC000686F000EC921696F52D08B8A096A520E60
:101FD000086E6CEC1DF00001C76FC7A548D0096AF8
:101FE000700E086E6CEC1DF00001C76F096A6F0E71
:101FF000086E6CEC1DF00001C96FC86BC751C82595
:102000006A6F000EC9216B6F32D08B88096A530E3C
:10201000086E6CEC1DF00001C76FC7A528D0096AD7
:10202000720E086E6CEC1DF00001C76F096A710E2C
:10203000086E6CEC1DF00001C96FC86BC751C82554
:102040006C6F000EC9216D6F12D0CC5101E11DD70C
:10205000010A01E13AD7030A01E157D7010A01E178
:1020600074D7070A92E0010AB0E0030ACEE0CBA7DA
:1020700007D0140EC56F030EC66FCC51D5EC1AF005
:10208000CBAB07D0140EC56F190EC66FCC51D5EC73
:102090001AF0CC2B070ECC65CFD6070C0001995156
:1020A000981101E1F5D0DD6BF4D88C0ECD25086ECA
:1020B000000ECE21096E6CEC1DF00001DC6FDCAF70
:1020C000E2D0DCAD18D0DD51CD6FCE6BD890CD37DE
:1020D000CE37D890CD37CE37D890CD37CE378B0E80
:1020E000CD25086E000ECE21096E6CEC1DF00001AE
:1020F0009B1901E0C8D0DCA90BD09D2909E0096A31
:10210000430E086E6CEC1DF000019D1901E0BBD080
:10211000DD51080D8E0EF324086E000EF420096EBA
:102120006CEC1DF00001CD6FDC51010BCF6FCE6B5D
:10213000CD51CE25D06F000ECF21D16FDD51080DCE
:102140008D0EF324086E000EF420096E6CEC1DF069
:102150000001CD6FDC51020BCF6FCE6BCD51CE2580
:10216000D26F000ECF21D36F94D8900ECD25086E7C
:10217000000ECE21096E6CEC1DF00001D46F89D8E1
:102180008F0ECD25086E000ECE21096E6CEC1DF071
:102190000001D56F20EE98F0DECFCDF0DDCFCEF090
:1021A000D051CD1BD151CE1BD251CD17D351CE170B
:1021B000CE51CD1168E19A51D419D5154FE063D0B5
:1021C000000167D873D86CEC1DF00001D66FD6C043
:1021D00051F0DC5119EC0FF056D000015AD866D8F6
:1021E0006CEC1DF00001D76FD7C051F0DC516DECE5
:1021F00018F049D000014DD859D86CEC1DF0000101
:10220000D86FD8C00BF0DC5161EC12F03CD000016B
:1022100040D84CD86CEC1DF00001D96FD9C051F0FA
:10222000DC5182EC16F02FD0000133D83FD86CEC93
:102230001DF00001DA6FDAC00BF0DC519FEC1AF0F0
:1022400022D0000126D832D86CEC1DF00001DB6FE3
:10225000DBC051F0DC51D9EC14F015D01AD8910E36
:10226000CD25086E000ECE21096E6CEC1DF0010A22
:10227000A7E0030AB2E0010ABDE0070AE2E00E0AA5
:10228000C6E01A0AD1E00001DD2B060EDD650CD791
:102290001200DD51CD6FCE6BD890CD37CE37D890B0
:1022A000CD37CE37D890CD37CE371200920ECD2510
:1022B000086E000ECE21096E1200E8CF14F0546AA9
:1022C0007750C00B166E166632D060AE12D0A49056
:1022D00074AE06D01150D96EDA6A000EDB86749E99
:1022E00060A002D0548001D054900F0E196E600E81
:1022F0001AD00F0150AF19D0A49274AC06D011506F
:10230000D96EDA6A000EDB86749C5051070B546E4E
:10231000020E546005D01150D96EDA6A000EDB8EC1
:102320000F0E196E500E186E65D0000EC2D01650EA
:10233000400A46E160AE04D00F0E196E600E3ED02A
:102340000F0150AF04D00F0E196E500E37D00D0193
:10235000F8B507D00E0120AF04D00E0E196E200E76
:102360002DD00D01F8B707D00E0130AF04D00E0EFE
:10237000196E300E23D00D01F8B907D00E0140AF11
:1023800004D00E0E196E400E19D00D01F8BB05D009
:102390000E0150AF02D00E0ED7D70D01F8BD05D0FB
:1023A0000E0160AF02D00E0EC8D70D01F8BFBDD729
:1023B0000E0170AFBAD70E0E196E700E186E0AD0DD
:1023C00074AEB3D76F50070B64EC1AF008C018F066
:1023D00009C019F018C0D9FF19C0DAFFDF501F0B70
:1023E000546EA49274AC06D01150D96EDA6A000E05
:1023F000DB86749C18C012F019C013F01150D96E0E
:10240000DA6ADF6A20EE05F055D81050D96EDA6A24
:1024100017500F0BDF6E17AC05D01150D96EDA6A6A
:10242000000EDB8C20EE02F045D817A608D0115024
:10243000D96EDA6A000EDB8A010E176E01D0176AB8
:102440001828086E000E1920096E14C00AF017C073
:102450000BF069EC15F0060E1826000E192210502C
:10246000D96EDA6ADF50176E156A0DD018C0D9FF21
:1024700019C0DAFF0F50E16EE26ADFCFE7FF184ABA
:10248000192A0F2A152A1750155CF0E3A4AE06D0BE
:102490001150D96EDA6A000EDB88A49E12C0D9FFF3
:1024A00013C0DAFF7F0EDF161650800AD8B4749E70
:1024B000010E12001850D9261950DA22DF50176E7B
:1024C0001200E8CF0FF0116A11C00CF0010E0D6E72
:1024D0000C2A02D0D8900D360C2EFCD70D500B14C0
:1024E00001E1D2D00FA60CD0780E1124086E096A33
:1024F000000E09226CEC1DF000019E1901E0C4D011
:102500004D0E1124086E096A000E09226CEC1DF0B4
:10251000106E10AEB9D0A8D08A9800018A81096ADD
:10252000560E086E6CEC1DF00C6E096A550E086EA6
:102530006CEC1DF00E6E0D6A0C500D240001706FD6
:10254000000E0E20716FA0D08A9200018A83096A62
:10255000580E086E6CEC1DF00C6E096A570E086E72
:102560006CEC1DF00E6E0D6A0C500D240001726FA4
:10257000000E0E20736F88D08A9000018A85096A48
:102580005A0E086E6CEC1DF00C6E096A590E086E3E
:102590006CEC1DF00E6E0D6A0C500D240001746F72
:1025A000000E0E20756F70D08B9E00018A87096A1D
:1025B0005C0E086E6CEC1DF00C6E096A5B0E086E0A
:1025C0006CEC1DF00E6E0D6A0C500D240001766F40
:1025D000000E0E20776F58D08B9C00018A89096A03
:1025E0005E0E086E6CEC1DF00C6E096A5D0E086ED6
:1025F0006CEC1DF00E6E0D6A0C500D240001786F0E
:10260000000E0E20796F40D08B9A00018A8B096AE8
:10261000600E086E6CEC1DF00C6E096A5F0E086EA1
:102620006CEC1DF00E6E0D6A0C500D2400017A6FDB
:10263000000E0E207B6F28D08B9800018A8D096ACE
:10264000620E086E6CEC1DF00C6E096A610E086E6D
:102650006CEC1DF00E6E0D6A0C500D2400017C6FA9
:10266000000E0E207D6F10D0115001E155D7010AE8
:1026700001E16AD7030A80E0010A96E0070AACE0AC
:10268000010AC2E0030AD8E0112A070E11641CD720
:10269000070CE8CF20F00F1C1F6E830E20640ED0B5
:1026A000890E20600BD00FC00BF020507C0FFAEC8D
:1026B0001CF020507C0F34EC1DF077D02050920A93
:1026C0000DE10F50116E106A5250126E136A101005
:1026D000526E11501310536E535067D02050930A0E
:1026E0000BE1106A5350116E0F501010526E1150C2
:1026F000536E52C01FF096D0880E206419D0910EF0
:10270000206016D053C010F010C011F0126A1128CA
:1027100002E1522802E00F1C48D00FC00BF02050FD
:10272000770F9DEC1CF02050770F2AEC1DF03DD068
:10273000CF0E206417D0E00E206014D053C010F0EC
:1027400010C011F0126A1128E6E15228E4E10FC02E
:102750000BF02050300FAEEC1CF02050300F3EEC50
:102760001DF023D0990E206422D09E0E20601FD031
:102770008DEC1DF00BC018F00AC017F009C016F060
:1027800008C015F02050660F1D6E1D504DD815C0A5
:1027900011F016C012F017C013F018C014F0E82A98
:1027A00001D04CD8E82EFDD724D01F6E3BD09D0E13
:1027B000206421D0A20E20601ED088EC1DF00BC03A
:1027C0001CF00AC01BF009C01AF008C019F0205014
:1027D000620F1E6E1E5028D819C011F01AC012F0D8
:1027E0001BC013F01CC014F0E82A01D027D8E82E33
:1027F000FDD71150DAD72050A20A8DE10F50550AAB
:1028000004E1846B856B550ED0D70F50AA0A0AE1FC
:10281000E80E845D030E855904E29CEC1DF0AA0EBF
:10282000C4D71F6A1F5012000308106ED8901036CC
:10283000D8901036D890103610501200D89014321C
:1028400013321232113212000F0E1C6E400E1B6E2C
:102850000F0E1E6E300E1D6E0F0E206E200E1F6EA0
:102860000E0E226E200E216E0E0E246E300E236E82
:102870000E0E266E400E256E0E0E286E500E276E22
:102880000E0E2A6E600E296E0E0E2C6E700E2B6EC2
:102890007750C00B2D6E2D6602D0020E01D0080EAF
:1028A0002E6E0D01D890F831306E346A7DD03450E0
:1028B000020DF3501B0FD96EDA6ADECF35F0DDCF93
:1028C00036F035C031F036C032F0020E346404D038
:1028D000D890303230A067D035C0D9FF36C0DAFF8B
:1028E000DF501A6E1AB65FD035C0D9FF36C0DAFF96
:1028F000FC0EDF1619C01AF0030E1A1635C0D9FFE8
:1029000036C0DAFF1A50DF1219AC04D01850400953
:10291000336E02D018C033F020EE05F03550D926C2
:102920003650DA2233C0DFFF19AA03D0010E336E0E
:1029300001D0336A3528086E000E3620096E12C0A9
:102940000AF013C00BF014C00CF015C00DF033C02A
:102950000EF0F8EC15F0060E3526000E36222F6A22
:102960000FD016C0D9FF17C0DAFF35C0E1FF36C05F
:10297000E2FFDFCFE7FF164A172A354A362A2F2A09
:1029800018502F5CEEE331C0D9FF32C0DAFFDF50C0
:102990001A6E1AB406D031C0D9FF32C0DAFF000E69
:1029A000DB86010E05D0342A2E50345C80E3000E05
:1029B0001200E8CFC9F0CB6BCC6BCCC0C7F0010ED6
:1029C000C86FC72B02D0D890C837C72FFCD7C851C3
:1029D00051147AE0C9A70BD0780ECC25086E096A8D
:1029E000000E09226CEC1DF000019E196DE14D0EE8
:1029F000CC25086E096A000E09226CEC1DF000015E
:102A0000CA6F2DD08AA802D08A9825D08A88010E54
:102A1000CB6F33D08AA202D08A921DD08A82F7D798
:102A20008AA002D08A9017D08A80F1D78BAE02D0CC
:102A30008B9E11D08B8EEBD78BAC02D08B9C0BD0A6
:102A40008B8CE5D78BAA02D08B9A05D08B8ADFD7E7
:102A50008BA803D08B98CB6B10D08B88D8D7CC5158
:102A6000D1E0010AD7E0030ADBE0010ADFE0070A50
:102A7000E3E0010AE7E0030AEBE0CB5113E0CAA769
:102A800007D0140EC56F030EC66FCC51D5EC1AF0EB
:102A9000CAAB1AD0140EC56F190EC66FCC51D5EC47
:102AA0001AF012D0CAA907D0140EC56F040EC66F53
:102AB000CC51D5EC1AF0CAAD07D0140EC56F180E64
:102AC000C66FCC51D5EC1AF0CC2B070ECC6575D760
:102AD000070C0AC00EF00B662BD00E50D96E6CD8C6
:102AE0000C36D8900C36D8900C34DF6E0E50D96E60
:102AF000DA6AD92ADA6A73D8D8900C320D2EFCD74C
:102B00000C5063D8050E0D6ED8900C320D2EFCD7EC
:102B10000E50D96EDA6A0C50DF123DD8DF6A0E50C3
:102B2000D96EDA6A030ED926DA6A000EDF6E32D069
:102B300032D855D8D8900C360D2EFCD70C50DF6EFD
:102B40000E50D96EDA6A030ED92636D80C32D890D8
:102B50000C32D8900C3039D8030E0C161CD80C50FF
:102B6000DF1208C0D9FF09C0DAFFDF500C6ED89021
:102B70000C32D8900C32D8900C321C0E0C160BD89C
:102B80000C50DF120FD8E12AE26ADFCFE7FF0AD844
:102B9000DFCFE7FF12000E50D96EDA6A020ED92697
:102BA000DA6A1200084A092A08C0D9FF09C0DAFF08
:102BB0000E50E16EE26A1200DA6A08C0E1FF09C055
:102BC000E2FFE7500C6ED8901200DF6E084A092A27
:102BD00008C0D9FF09C0DAFFDF500C6E120008C030
:102BE000E1FF09C0E2FFE7500C6E050E0D6E050C0B
:102BF0000A0E116E0E6622D01150D96EDA6ADF50BD
:102C00000F6ED8900F32D8900F32D8900F3062D814
:102C1000D92ADA6A72D8D8900F36102EFCD708C09D
:102C2000D9FF46D86AD8D8900F36102EFCD70F504F
:102C300008C0D9FF09C0DAFFDF6E39D0115042D881
:102C4000050E106ED8900F32102EFCD70F5042D8C0
:102C5000030E49D80F3608C0D9FF2AD8020E43D830
:102C60000F34E00B08C0D9FF09C0DAFFDF6E08C0DF
:102C7000D9FF09C0DAFF000EDB86115023D8030EFE
:102C80000F1608C0D9FF14D8D92ADA6A08C0E1FFA4
:102C900009C0E2FFDFCFE7FF084A092A1150D96EC9
:102CA000DA6A08C0E1FF09C0E2FFDFCFE7FF1200E8
:102CB00009C0DAFF0F50DF12084A092A1150D96EF5
:102CC000DA6A1200D96EDA6A020ED926DA6ADF50A1
:102CD0000F6E120008C0D9FF09C0DAFFDF6E115075
:102CE000D96EDA6A1200D926DA6ADF500F6ED890F0
:102CF0000F36D8900F36D8901200DF500F6E050EA9
:102D0000106E050CE8CFC9F0CA6BCC6BCCC0C7F015
:102D1000010EC86FC72B02D0D890C837C72FFCD779
:102D2000C851511470E0C9A70BD0780ECC25086E9D
:102D3000096A000E09226CEC1DF000019E1963E186
:102D40004D0ECC25086E096A000E09226CEC1DF0B0
:102D50000001CB6F23D0000E8AB8010ECA6F2CD0B1
:102D6000000E8AB2010ECA6F27D0000E8AB0010E83
:102D7000CA6F22D0000E8BBE010ECA6F1DD0000E8E
:102D80008BBC010ECA6F18D0000E8BBA010ECA6F31
:102D900013D0000E8BB8010ECA6F0ED0CC51DBE001
:102DA000010ADEE0030AE1E0010AE4E0070AE7E0E5
:102DB000010AEAE0030AEDE0CA5113E0CBA907D00B
:102DC000140EC56F040EC66FCC51D5EC1AF0CBAD06
:102DD0001AD0140EC56F180EC66FCC51D5EC1AF070
:102DE00012D0CBA907D0140EC56F040EC66FCC51FC
:102DF000D5EC1AF0CBAD07D0140EC56F180EC66F08
:102E0000CC51D5EC1AF0CC2B070ECC657FD7070C34
:102E10000001806B816B826B836B8B6B896B886B22
:102E20008A6B0D6A0D50020DF350700FD96EDA6A7D
:102E3000DE6ADD6A0D50020DF350600FD96EDA6A5A
:102E4000DE6ADD6A0D2A070E0D64ECD70D6A4D0EA1
:102E50000D24086E096A000E09226CEC1DF00B6E41
:102E60000BA027D00DC00BF0010E0C6E0B2A02D068
:102E7000D8900C360B2EFCD70C5000018A13550E3F
:102E80000D24086E096A000E09226CEC1DF00C6E10
:102E90000B6A560E0D24086E096A000E09226CECAE
:102EA0001DF031D8700FD96EDA6A0BC0DEFF0CC08E
:102EB000DDFF520E0D24086E096A000E09226CEC2B
:102EC0001DF00B6E0BA41AD06F0E0D24086E096A4C
:102ED000000E09226CEC1DF00C6E0B6A700E0D24B6
:102EE000086E096A000E09226CEC1DF00CD8600F08
:102EF000D96EDA6A0BC0DEFF0CC0DDFF0D2A060EAC
:102F00000D64A5D7060C0B26000E0C220D50020DE9
:102F1000F35000011200E8CF0DF00D50800A04E1DB
:102F20008CC00CF08C6B67D00D50810A02E1010E51
:102F300061D00D50820A02E1050E5CD00D50830A6B
:102F400002E10C6A58D00D50940A03E1A8EC1DF080
:102F500051D00D50950A03E1A7EC1DF04BD00D5058
:102F6000960A03E1A6EC1DF045D0890E0D6005D050
:102F70000D507C0F34EC1DF03DD0880E0D6408D050
:102F8000910E0D6005D00D50770F2AEC1DF032D058
:102F90000D50910A03E191C00CF02DD00D50930A11
:102FA00003E152C00CF027D00D50920A02E15350B9
:102FB00021D00D50970A03E1A5EC1DF01BD00D5058
:102FC000980A03E1A4EC1DF015D00D50990A03E115
:102FD000A3EC1DF00FD0CF0E0D6408D0E00E0D60F5
:102FE00005D00D50300F3EEC1DF004D00D50200FD9
:102FF00006EC1DF00C6E0C50120093EC1BF069EC0B
:103000001CF0000904E111EC0CF008EC17F032ECB4
:103010001BF00400FA0E00018F650CD092050AE047
:103020009169096A010E086EFF0E0A6844EC1CF0F3
:1030300032EC1BF0966BF5EC1BF01CD0912903E1F0
:10304000010E926F23D0030E926FCFEC1CF01ED0B6
:10305000CAEC18F01BD096AF19D099519811D8B47A
:1030600048EC07F04EEC10F011D0A0EC1DF00ED0A3
:10307000926B0CD000019251E1E0010AE9E0030AF1
:10308000E4E0010AE8E0070AF0E0F2D7E90E000107
:10309000805D030E8159000E8259000E83590CE3A6
:1030A000806B816B826B836B552A0BEC1BF092510A
:1030B000030AD8B4CCEC0DF03B0E8B650BD08B6BB8
:1030C000892B3B0E896502D0896B882B170E88658A
:1030D00001D0886BA2EC1DF09CD7E8CFC9F0CB6B78
:1030E000CBC0C7F0010EC86FC72B02D0D890C8372D
:1030F000C72FFCD7C851511448E0C9A70BD0780E90
:10310000CB25086E096A000E09226CEC1DF0000147
:103110009E193BE14D0ECB25086E096A000E09226F
:103120006CEC1DF00001CA6FCAAF2FD00ED08A9888
:103130001AD08A9218D08A9016D08B9E14D08B9C6D
:1031400012D08B9A10D08B980ED0CB51F0E0010AA0
:10315000F0E0030AF0E0010AF0E0070AF0E0010AFB
:10316000F0E0030AF0E0CAA907D0140EC56F040E00
:10317000C66FCB51D5EC1AF0CAAD07D0140EC56F8F
:10318000180EC66FCB51D5EC1AF0CB2B070ECB65C2
:10319000A7D7070C53D0572810E0810EA46FA56B5A
:1031A000A66BA76B020EA86F57C0A9F031EC1CF0FC
:1031B000010E936F866B876B48D0040E926F810E61
:1031C000A46FA969070EA56FA66BA76B030EA86F66
:1031D00031EC1CF03AD096AF0FD09951981135E1EF
:1031E0009A51030A32E1576603D0020E926FE2D77A
:1031F000572A936B946B29D0E90E865D030E87598D
:1032000024E3942B020E946517D0576605D0572AF5
:10321000936B866B876BEED757C091F0030E926F5E
:10322000936B91515AEC1DF0400E51EC1DF00001D2
:10323000946BCFEC1CF009D0936B07D00001935135
:10324000AAE0010AC8E0030AF7E1966B120041C048
:10325000B1F0B26BB36BB46BB3C0B4F0B2C0B3F047
:10326000B1C0B2F0B16B3F50B56F4050B66FB76BA5
:10327000B86BB6C0B8F0B5C0B7F0B66BB56B43C0AD
:10328000B9F0BA6BBB6BBC6B1A0ED890B937BA37B2
:10329000BB37BC37E82EF9D7B551B911BD6FB65160
:1032A000BA11BE6FB751BB11BF6FB851BC11C06F1F
:1032B000B151BD11C16FB251BE11C26FB351BF1137
:1032C000C36FB451C011C46F4250C111476EC25197
:1032D000486EC351496EC4514A6E47C037F048C06A
:1032E00038F049C039F04AC03AF044C03BF045C01C
:1032F0003CF046C03DF054EC1BF00009000ED8A491
:10330000010E1200E8CF0CF00B6A0C6606D0096AB9
:10331000430E086E6CEC1DF04DD00C0406E1096AFA
:10332000440E086E6CEC1DF045D0010E0C6434D0D8
:103330000A0E0C6031D01ED0000E8AB8010E3AD0B1
:10334000000E8AB2010E36D0000E8AB0010E32D0C5
:10335000000E8BBE010E2ED0000E8BBC010E2AD0AB
:10336000000E8BBA010E26D0000E8BB8010E22D0B3
:103370000B6A21D00C50020ADFE0010AE1E0070AE3
:10338000E3E0010AE5E0030AE7E0010AE9E00F0AE9
:10339000EBE0010AEDE00FD0090E0C640CD0800EBA
:1033A0000C6009D0430E0C24086E096A000E092235
:1033B0006CEC1DF00B6E0B501200800E1EEC1DF01D
:1033C000090E706EFC0E716E010E726E200E736E21
:1033D000778E779C606A0F01506B0E01206B306B0B
:1033E000406B506B606B706BE00E0D01F86F0F015E
:1033F000006B080E016F026B036B046BE80E056F28
:103400001A0E066F076B030E0D01D46FD56BE06BC0
:10341000110EE16FE26FE36BE46BE56BE66BE76B5C
:10342000540EF06F050EF16FF26BF26B0F0E0F0181
:10343000186FE00E196F1A6B1B6B19870F0E1C6F3C
:10344000E00E1D6F1E691F6B1D87000E1EEF1DF025
:10345000E8CF27F021C01AF022C01BF0280ECAECDA
:103460001BF0000902E1000E2ED01F50D96EDA6A5F
:1034700028C0DFFF1E50D96EDA6A29C0DFFF2A504C
:10348000236E010E2B14246E2750D96EDA6A23C0E6
:10349000DEFF24C0DDFF2050D96EDA6A28C023F099
:1034A00029C024F02AC025F02BC026F01B0E05D021
:1034B000D8902632253224322332E82EF9D72350F1
:1034C000070BDF6E010E1200E8CF0BF024D00F0EB9
:1034D0000D6E600E1ED00F010F0E0D6E500E19D026
:1034E0000E010E0E0D6E200E14D00E010E0E0D6E7E
:1034F000300E0FD00E010E0E0D6E400E0AD00E01D2
:103500000E0EEBD70E010E0EE3D70E010E0E0D6E52
:10351000700E0C6E0FD00B50DAE0010ADCE0030AEB
:10352000DFE0010AE2E0070AE5E0010AE8E0030A59
:10353000E9E0EBD70CC008F00DC009F01200E8CFAD
:103540000EF0106A10C00CF0010E0D6E0C2A02D0A5
:10355000D8900D360C2EFCD70D500B1421E00EA682
:103560000BD0780E1024086E096A000E09226CEC4C
:103570001DF000019E1914E14D0E1024086E096A19
:10358000000E09226CEC1DF00F6E4D0E1024086E1B
:10359000096A000E09220F507F0B0A6E44EC1CF0E2
:1035A000102A070E1064CED7070CE8CF50F050C099
:1035B0004DF0D89050344B6E4C6A4C36750E4B24FF
:1035C000086E000E4C20096E6CEC1DF04E6ED8900B
:1035D00050344B6E4C6A4C36760E4B24086E000EFF
:1035E0004C20096E6CEC1DF04F6E0001C5C03FF021
:1035F000406AC6C041F091C042F0030E436E446E73
:103600004D0E456E000E466E0F0E466E5F0E456403
:10361000466A27EF19F0952B3B0E95650DD0956BFB
:10362000902B9251030A08E17EEC1DF00001C56F5A
:1036300083EC1DF01EEC1CF03B0E906502D0906BED
:103640008E2B170E8E6501D08E6B9251030A09E105
:103650008D2B8DC04DF00F0E4D16020E4D5CD8B067
:103660008D6B1200020E566E92EC1DF00001916FF0
:10367000916701D09169966B976B986B996B9A6B78
:10368000A46BA56BA66BA76BA86B8C6B576A926B30
:10369000936B946B526A536A866B876B846B856BF2
:1036A000956B906B8E6B12003E6A556A17D037C0CF
:1036B00012F038C013F039C014F03AC015F03CC015
:1036C00016F03DC017F03BC018F0200E196E24EC28
:1036D00014F0000903E0010E3E6E02D05550E7E001
:1036E0000001A46B3E50120097EC1DF0000916E19A
:1036F000000196510F0B050A15E197EC1DF0000132
:103700009C1910E09C5151EC1DF000019169FF0ED5
:103710005AEC1DF0010E0001926F04D000019C5183
:1037200051EC1DF0120008EC17F0926A806A080E46
:10373000936E816A010E946E826A920EDEEC1CF02A
:10374000FB0E096E1D0E086E63EC1DF08A988A92BE
:103750008A908B9E8B9C8B9A8B98DDEC19F0F28C67
:10376000F28E120096510F0B0C6E0C5012E091511C
:1037700020EE9CF0DF620DD00C0405E0010E0C641D
:1037800008D09D6706D09169FF0E5AEC1DF032EC0F
:103790001BF01200E8CF1CF096AF02D0000E0FD045
:1037A0001BC00FF01AC010F01D0E116E1C505DEC06
:1037B00011F00009F3E01DAC1DAAF0D7010E1200B4
:1037C00096C04CF00F0E4C164C040EE1915120EEB9
:1037D0009CF0DF6209D0800EA46FA56BA66BA76B6F
:1037E000030EA86F31EC1CF0120096BF12D09A0E97
:1037F0001E6E9B0E1F6E970E206E960E216E9C0EF7
:10380000226E980E28EC1AF02C6E2C5002E000016B
:10381000968F1200E8CF09F0080E0A6E0B6AD89056
:1038200009340B340B6ED890093608500B5C02E358
:1038300008500B5E0A2EF3D70B501200E8CF4CF065
:10384000830E0001A46F070EA56FA76B140EA66F61
:10385000090EA86FA96B4CC0AAF0C5C0ABF031EF40
:103860001CF0A6C03FF0A7C040F0A8C041F091C036
:1038700042F0A5C043F0A4510F0B446E000E466EFB
:10388000A90E456E27EF19F008C0A9FF0AC0A8FFCE
:10389000A69EA69CA684F29E550EA76EAA0EA76EA3
:1038A000A682F28EA1A8FED7A198A69412009651E6
:1038B0000F0B020A0DE1915120EE9CF0DF6208D05F
:1038C0009DC091F091515AEC1DF0400E51EC1DF04D
:1038D000120097EC1DF0C00B400A02E1010E0AD065
:1038E000FF0E5AEC1DF0000E51EC1DF0A00E48EC3E
:1038F0001DF0000E120000EE60F0510EEE6AE806B8
:10390000FDE100EE52F0070EEE6AE806FDE1000E62
:10391000F86E0001FDEF17F0E8CFD0F07F0ED06514
:1039200006D0CFC00FF0D05149EC13F005D0CFC076
:1039300051F0D05111EC03F01200E8CF0CF0070E5B
:103940000C6401D00AD00B0E0C24086E096A000E1C
:1039500009220BC00AF044EC1CF01200E8CF0CF076
:103960000F0E0C6401D00AD0130E0C24086E096AE5
:10397000000E09220BC00AF044EC1CF01200070EE6
:10398000A96F480EAA6F020E086E0850A90FD96ED3
:10399000DA6ADF6A082A070E0864F7D7070C810E77
:1039A0000001A46FA56BA66BA76B020EA86F91C058
:1039B000A9F031EC1CF0010E566E010CE8CF08F0B6
:1039C00008507F0BD56ED76AD66AF29408AE02D043
:1039D000F28A01D0F29AD58E1200E8CF0EF07F0E57
:1039E0000E6404D00E508BEC17F003D00E5082EC16
:1039F00019F01200E8CF0CF0060E0C24086E096ACC
:103A0000000E09220BC00AF044EF1CF0E8CF09F0C9
:103A10000950000F086E08C0F6FF060EF76E08008A
:103A2000F5501200E8CF0BF00B0407E1096A086AB1
:103A3000FF0E0A6844EC1CF0FF001200E8CF08F00B
:103A40001F0E6F1608506F126F50E00B0818D8B495
:103A50001200FAD7E8CF0BF00B0E0B24086E096AA0
:103A6000000E09226CEF1DF0E8CF0BF0060E0B24C0
:103A7000086E096A000E09226CEF1DF0E8CF0BF00A
:103A8000130E0B24086E096A000E09226CEF1DF05C
:103A9000E8CF0BF0096A030E086E0BC00AF044EF82
:103AA0001CF0E8CF0BF0096A020E086E0BC00AF09A
:103AB00044EF1CF0E8CF0BF0096A010E086E0BC052
:103AC0000AF044EF1CF008C00AF009C00BF00BC06C
:103AD000D7FF0AC0D6FF120008C0A9FFA69EA69C69
:103AE000A680A8CF0AF00A50120001C003F002C05D
:103AF00004F004C0D7FF03C0D6FF1200096A440EC9
:103B0000086E6CEF1DF0096A430E086E6CEF1DF035
:103B1000086A096A0A6A0B6A1200086A096A0A6A6C
:103B20000B6A1200096A010E086E6CEF1DF0096A3B
:103B3000020E086E6CEF1DF011EC0CF008EF17F0A0
:103B4000566A12001200010C080C010C000C010C4A
:023B5000010C66
:020000040020DA
:08000000FFFFFFFFFFFFFFFF00
:020000040030CA
:0E000000FF061C1EFF8281FF0FC00FE00F40A5
:00000001FF
