:040000005CEF00F0C1
:10001800D8CF05F0E8CF06F0E0CF07F0F2A401D082
:1000280001D03FD0FB0E026E1D0E016EBFEC1EF01C
:100038000001864B872B844B852B010E8027000EF1
:100048008123000E8223000E83238C2B82A001D0F3
:1000580001D002D08F6B01D08F2B582A5650020A3C
:10006800D8A401D001D00ED0640E586401D001D0BC
:1000780009D082A201D001D002D0829201D082821E
:10008800586A0ED05604D8A401D001D003D0828279
:10009800586A06D0566601D001D002D08292586ABA
:1000A800F29407C0E0FF06C0E8FF05C0D8FF1000C3
:0400B800DDEF1DF06B
:100600007777772E6575726F736F757263652E736A
:10061000652F70617269735F3031302E786D6C00B8
:100620000000E8CFCEF0CA6BCD6B511CCC6FCE670B
:100630000FD0EAEC1EF0096A430E086E51C00AF0B2
:10064000CFEC1CF0096A430E086EB6EC1EF0B4D372
:10065000CE050FE1EAEC1EF0096A440E086E51C0A7
:100660000AF0CFEC1CF0096A440E086EB6EC1EF0DE
:10067000A3D3010ECE657BD10A0ECE6178D14B0E8D
:10068000CE25086E096A000E0922B6EC1EF00001A4
:10069000C76FC7BF57D1A1D3010ECA6F510426E15E
:1006A0008A88000E8AB8010ECC6F010ECD6F096AE0
:1006B0004D0E086EB6EC1EF00001C76FC7A58DD3B6
:1006C000096A660E086EB6EC1EF00001C76F096A73
:1006D000650E086EB6EC1EF00001C96FC86BC751FD
:1006E000C825606F000EC921616F77D3516675D33D
:1006F0008A98000E8AB8010ECC6FCD6B6ED3010EB6
:10070000CA6F51041DE18A82000E8AB2010ECC6FBD
:10071000010ECD6F096A4E0E086EB6EC1EF0000198
:10072000C76FC7A55AD3096A680E086EB6EC1EF0EB
:100730000001C76F096A670E086EB6EC1EF070D133
:1007400051664BD38A92000E8AB2010ECC6FD5D778
:10075000010ECA6F510426E18A80000E8AB0010E94
:10076000CC6F010ECD6F096A4F0E086EB6EC1EF00D
:100770000001C76FC7A531D3096A6A0E086EB6ECCF
:100780001EF00001C76F096A690E086EB6EC1EF014
:100790000001C96FC86BC751C825646F000EC9211D
:1007A000656F1BD3516619D38A90000E8AB0010E73
:1007B000CC6FA3D7010ECA6F510426E18B8E000EB9
:1007C0008BBE010ECC6F010ECD6F096A500E086E04
:1007D000B6EC1EF00001C76FC7A5FFD2096A6C0E08
:1007E000086EB6EC1EF00001C76F096A6B0E086E4A
:1007F000B6EC1EF00001C96FC86BC751C825666F03
:10080000000EC921676FE9D25166E7D28B9E000EB8
:100810008BBE010ECC6F71D7010ECA6F510426E159
:100820008B8C000E8BBC010ECC6F010ECD6F096A54
:10083000510E086EB6EC1EF00001C76FC7A5CDD2F1
:10084000096A6E0E086EB6EC1EF00001C76F096AE9
:100850006D0E086EB6EC1EF00001C96FC86BC75173
:10086000C825686F000EC921696FB7D25166B5D22D
:100870008B9C000E8BBC010ECC6F3FD7010ECA6F54
:10088000510426E18B8A000E8BBA010ECC6F010E4B
:10089000CD6F096A520E086EB6EC1EF00001C76FEC
:1008A000C7A59BD2096A700E086EB6EC1EF0000157
:1008B000C76F096A6F0E086EB6EC1EF00001C96FB3
:1008C000C86BC751C8256A6F000EC9216B6F85D2EE
:1008D000516683D28B9A000E8BBA010ECC6F0DD766
:1008E000010ECA6F510426E18B88000E8BB8010EF1
:1008F000CC6F010ECD6F096A530E086EB6EC1EF078
:100900000001C76FC7A569D2096A720E086EB6ECFE
:100910001EF00001C76F096A710E086EB6EC1EF07A
:100920000001C96FC86BC751C8256C6F000EC92183
:100930006D6F53D2516651D28B98000E8BB8010E59
:10094000CC6FDBD6CE51020A01E1A6D6010A01E145
:10095000D6D6070A01E1FCD6010A01E12BD7030A2A
:1009600001E15AD7010A8AE00F0ABAE036D2090E2D
:10097000CE652DD1120ECE612AD115D1EAEC1EF032
:1009800065DACFEC1CF06CDAB6EC1EF00001CC6F2F
:1009900051A011D08A98CD6B8A81096A560E086ED3
:1009A000B6EC1EF00001C76F096A550E086EB6EC72
:1009B0001EF05EDA03D08A918A98CD6B51B480D64E
:1009C0000CD2EAEC1EF042DACFEC1CF049DAB6ECBD
:1009D0001EF00001CC6F51A012D08A92CD6B8A8399
:1009E000096A560E086EB6EC1EF00001C76F096A60
:1009F000550E086EB6EC1EF0000144DA03D08A935F
:100A00008A92CD6B51A4E9D1096A660E086EB6ECE4
:100A10001EF00001C76F096A650E086EB6EC1EF085
:100A20000001C96FC86BC751C825626F000EC9218C
:100A3000636FD3D1EAEC1EF009DACFEC1CF010DAC8
:100A4000B6EC1EF00001CC6F51A013D08A90CD6B94
:100A50008A85096A5A0E086EB6EC1EF00001C76F4F
:100A6000096A590E086EB6EC1EF00001C96F23DA50
:100A700003D08A958A90CD6B51B47ED6AED1EAEC84
:100A80001EF0E4D9CFEC1CF0EBD9B6EC1EF000015F
:100A9000CC6F51A013D08B9ECD6B8A87096A5C0EF8
:100AA000086EB6EC1EF00001C76F096A5B0E086E97
:100AB000B6EC1EF00001C96F06DA03D08A978B9E50
:100AC000CD6B51B48BD689D1EAEC1EF0BFD9CFECF7
:100AD0001CF0C6D9B6EC1EF00001CC6F51A013D0AB
:100AE0008B9CCD6B8A89096A5E0E086EB6EC1EF08F
:100AF0000001C76F096A5D0E086EB6EC1EF00001BA
:100B0000C96FD1D903D08A998B9CCD6B51B498D63B
:100B100064D1EAEC1EF09AD9CFEC1CF0A1D9B6EC66
:100B20001EF00001CC6F51A013D08B9ACD6B8A8B35
:100B3000096A600E086EB6EC1EF00001C76F096A04
:100B40005F0E086EB6EC1EF00001C96FA4D903D089
:100B50008A9B8B9ACD6B51B4A5D63FD1EAEC1EF09F
:100B600075D9CFEC1CF07CD9B6EC1EF00001CC6F2F
:100B700051A013D08B98CD6B8A8D096A620E086ED6
:100B8000B6EC1EF00001C76F096A610E086EB6EC84
:100B90001EF00001C96F9FD903D08A9D8B9ECD6B3B
:100BA00051B4B2D61AD1CE510A0A01E1E7D6010AF0
:100BB00001E107D7070A01E13DD7010A01E15FD74B
:100BC000030A82E0010AA5E01F0AC8E006D1110E5F
:100BD000CE65A4D0220ECE61A1D0EAEC1EF036D9AB
:100BE000CFEC1CF03DD9B6EC1EF00001CC6F83D0E9
:100BF000096A560E086EB6EC1EF00001C76F096A4E
:100C0000550E086EB6EC1EF033D9E7D0096A580EBF
:100C1000086EB6EC1EF00001C76F096A570E086E29
:100C2000B6EC1EF000012ED9D8D0096A5A0E086E13
:100C3000B6EC1EF00001C76F096A590E086EB6ECDB
:100C40001EF00001C96F37D9C8D0096A5C0E086E62
:100C5000B6EC1EF00001C76F096A5B0E086EB6ECB9
:100C60001EF00001C96F2FD9B8D0096A5E0E086E58
:100C7000B6EC1EF00001C76F096A5D0E086EB6EC97
:100C80001EF00001C96F0FD9A8D0096A600E086E66
:100C9000B6EC1EF00001C76F096A5F0E086EB6EC75
:100CA0001EF00001C96FF7D898D0096A620E086E6D
:100CB000B6EC1EF00001C76F096A610E086EB6EC53
:100CC0001EF00001C96F07D988D0096A640E086E4A
:100CD000B6EC1EF00001C76F096A630E086EB6EC31
:100CE0001EF00001C96FC86BC751C8257E6F000E8A
:100CF000C9217F6F72D0CE51130A01E179D7060A5C
:100D000085E0020A92E00E0AA0E0020AAEE0060ABE
:100D1000BCE0020ACAE03E0AD8E05FD0210ECE65F0
:100D20003DD0320ECE613AD0EAEC1EF08FD8CFEC37
:100D30001CF096D8B6EC1EF00001CC6F16D0096AF4
:100D4000740E086EB6EC1EF00001C76F096A730ED0
:100D5000086EB6EC1EF00001C96FC86BC751C825FC
:100D60006E6F000EC9216F6F38D0CE51230A01E19A
:100D7000A7D4060A01E1D7D4020A01E1FDD40E0A84
:100D800001E12CD5020A01E15BD5060A01E18AD511
:100D9000020A01E1B9D51E0AD2E01FD0310ECE659C
:100DA0000ED0420ECE610BD0EAEC1EF04FD8CFEC45
:100DB0001CF056D8B6EC1EF00001CC6F0ED0470EDA
:100DC000CE650BD0800ECE6108D0EAEC1EF03ED886
:100DD000CFEC1CF0B1EC0CF0ECD7CA5135E04B0E67
:100DE000CE25086E096A000E0922B6EC1EF000013D
:100DF000CB6FCD5115E0CBA708D0140EC56F030EF5
:100E0000C66FCE51FE0F12EC1CF0CBAB1DD0140EF2
:100E1000C56F190EC66FCE51FE0F12EC1CF014D028
:100E2000CBA908D0140EC56F040EC66FCE51FE0FAD
:100E300012EC1CF0CBAD08D0140EC56F180EC66FA7
:100E4000CE51FE0F12EC1CF0CC511200430E0001EB
:100E5000CE25086E096A000E092251C00AF0000C66
:100E6000430E0001CE25086E096A000E0922000C0F
:100E70000001C96FC86BC751C825706F000EC9212A
:100E8000716F1200C96FC86BC751C825726F000E11
:100E9000C921736F1200C86BC751C8257A6F000E45
:100EA000C9217B6F1200C86BC751C825786F000E2F
:100EB000C921796F1200C86BC751C825746F000E25
:100EC000C921756F1200C86BC751C825766F000E17
:100ED000C921776F1200C86BC751C8257C6F000EFF
:100EE000C9217D6F12009951981101E1B5D2E4D268
:100EF00091EC1CF0E1D22FEC1DF0DED2B9EC1DF02C
:100F0000DBD2E9EC1CF0D8D296510F0B020A01E0BB
:100F1000D3D2915120EE9CF0DF62CED2800E9D6143
:100F200012D09D51A6EC1AF00001AA6F9DC0A9F045
:100F3000030EA56F820EA46FA66BA76B0A0EA86F97
:100F4000A6EC1DF0B9D29D511FEC14F0EDD79651CF
:100F50000F0B030A01E0B0D2915120EE9CF0DF624A
:100F6000ABD2800E9D6106D09EC051F09D5111EC18
:100F700003F0DBD79EC048F09D5103EC18F0D4D7A6
:100F8000915120EE9CF0DF6297D2000EA3EC1EF090
:100F900000019E1901E090D2030EA3EC1EF00001A7
:100FA0009F1901E089D2050EA3EC1EF00001A019E3
:100FB00001E082D2070EA3EC1EF00001A11901E0AE
:100FC0007BD25350A21901E077D2525020EEA3F009
:100FD000DF6272D29D513BEC1EF06ED2000EA3EC8C
:100FE0001EF000019D1973E1010EA3EC1EF000013B
:100FF0009E196DE1020EA3EC1EF000019F1967E13E
:10100000030EA3EC1EF00001A01961E18D895FD0F1
:10101000040EA3EC1EF000019D1959E1050EA3EC8E
:101020001EF000019E1953E1060EA3EC1EF0000114
:101030009F194DE1070EA3EC1EF00001A01947E136
:101040008D8B45D0080EA3EC1EF000019D193FE1E9
:10105000090EA3EC1EF000019E1939E10A0EA3EC63
:101060001EF000019F1933E10B0EA3EC1EF00001EE
:10107000A0192DE18D8D2BD00C0EA3EC1EF00001DC
:101080009D1925E10D0EA3EC1EF000019E191FE134
:101090000E0EA3EC1EF000019F1919E10F0EA3EC38
:1010A0001EF00001A01913E18D8F11D08D6B0FD0B0
:1010B0009C390F0BD16FD26BD251F8E1D1518EE038
:1010C000010AA6E0030ABEE0010AD6E0EFD78D517F
:1010D000F00BF00A01E0F0D16FEC1CF0EDD1915172
:1010E00020EE9CF0DF62E8D1DD6B9DC0DCF09EC09D
:1010F000DFF0EB6B42D0070E086EEB5159EC1DF0A0
:101100000001D16FD151AA0FD96EDA6ADC51EB25FB
:1011100049EC1EF0DF6E070E086E0001EB5159EC32
:101120001DF0060A0BE0FF0E0001DF25D16FD26B28
:10113000FF0ED223EB51D119D2111EE1070E086E1A
:101140000001EB5159EC1DF0060A03E1070E000106
:1011500009D0070E086E0001EB5159EC1DF000019B
:10116000D16FD129DE6FDE51810FA46FBCD9DDC0F4
:10117000A9F0A6EC1DF0DD2BEB2BDF51EB5D01E3BD
:101180009BD1B9D7915120EE9CF0DF6295D19DC0E3
:10119000E0F09651FE0F070BE16FE66B16D0E651BB
:1011A0009E0FD96EDA6ADF50CF6FE051E625EEEC84
:1011B0001DF00001E651AA0FD96EDA6AE051E6256A
:1011C00049EC1EF0DF6E0001E62BE151E65DE7E33E
:1011D0008AD9A96BE151810FA46FB2D6915120EE4B
:1011E0009CF0DF6269D19D51A6EC1AF00001D16F2D
:1011F000D129516E9D5111EC03F097D6915120EEFB
:101200009CF0DF6259D19D51A6EC1AF00001D16F1C
:10121000D105516E9D5111EC03F087D69C51911967
:1012200003E09C2901E048D1E56B030EA56F880E11
:10123000A46FA66BA76B200EA86FEA6B5BD9EC516D
:10124000A90FD96EDA6AE5510F08A3EC1EF0DF6E24
:101250000001E52B100EE56501D004D0EC2B070E44
:10126000EC65EDD7100EE56501D006D0A6EC1DF0BB
:10127000EA2B020EEA65E2D7EC6BEC5156EC1EF05D
:10128000000908E0EC51AC0FD96EDA6AEC5156EC6B
:101290001EF005D0EC51AC0FD96EDA6A000EDF6E8D
:1012A000EC2B040EEC65E9D7A6EC1DF0050EE56FFE
:1012B000030EEA6F1FD9EC51A90FD96EDA6AE55116
:1012C00056EC1EF0DF6EE52BEC2B070EEC65F3D72A
:1012D000A6EC1DF0EA2B060EEA65ECD7EDD0915195
:1012E00020EE9CF0DF62E8D0030EA56F870EA46F9E
:1012F000A66BA76B220EA86FA90EFFEC1DF020D6DF
:10130000915120EE9CF0DF62D7D0E76B96C0D1F010
:101310000F0ED117040ED15D12E3A0C0E8F0E96B07
:10132000E951E81103E1010EE96FE86B010EE85D98
:10133000010EE95907E3010EE96F000E02D0E96BD7
:10134000010EE86F52C0D8F053C0D9F0B6D8070EDE
:10135000A56FBFD8E751E85DD16F000EE959D26F94
:10136000040ED15D000ED25902E3040E02D0E75103
:10137000E85DE26FE251840FA46F9F51E725AC6FE7
:10138000E36B0CD0E351AD0FD96EDA6A9F51E725BC
:10139000E32549EC1EF0DF6E0001E32BE251E35D33
:1013A000F1E3A6EC1DF0E251E727A92BE751D16F3D
:1013B000D26BE851D15DE951D259CCE3D8C052F09B
:1013C000D9C053F079D0915120EE9CF0DF6274D0F7
:1013D00052C0DAF053C0DBF070D89FC0E4F014D0F4
:1013E0009F51A008E425D96EDA6ADF50CF6FE4512F
:1013F000EEEC1DF00001D16F9F51AD08E425D96ED0
:10140000DA6AD1C0DFFFE42B96510F0BD16FD26B9C
:101410009F51D127000ED223FC0ED125D36FFF0E92
:10142000D221D46FE451D56FD66BD651800AD76FD5
:10143000D351D55DD451800AD759D2E3DAC052F0E6
:10144000DBC053F0070EA56F96510F0B800FA46FF2
:1014500040D89FC0ACF074D59A51010A01E148D53B
:10146000030A01E148D5040A01E148D50E0A01E169
:1014700048D5010A01E148D5020A01E168D5070A09
:1014800001E17ED51B0A01E113D60F0A01E127D63F
:10149000010A01E177D6040A01E1A0D6030A01E1BD
:1014A000ADD6010A01E1BAD63E0A01E118D7040A15
:1014B00001E126D7030A87E012009E519DC0D1F0BA
:1014C000D26BD1C0D2F0D16BD111526ED251536ECA
:1014D0001200A66BA76B270EA86FA96B9DC0AAF080
:1014E0009EC0ABF01200070EA56FA66BA76B1A0E7D
:1014F000A86F1A0CEAC0A9F0010EEC6F010CEAEC1F
:101500001EF0096A430E086E000E0A6ACFEC1CF04A
:10151000EAEC1EF0096A440E086E000E0A6ACFEC6F
:101520001CF0EAEC1EF0096A4D0E086E980E0A6E69
:10153000CFEC1CF0EAEC1EF0096A4E0E086E980E15
:101540000A6ECFEC1CF0EAEC1EF0096A4F0E086E32
:10155000980E0A6ECFEC1CF0EAEC1EF0096A500EF1
:10156000086E980E0A6ECFEC1CF0EAEC1EF0096AC9
:10157000510E086E980E0A6ECFEC1CF0EAEC1EF0CD
:10158000096A520E086E980E0A6ECFEC1CF0EAEC57
:101590001EF0096A530E086E980E0A6ECFEC1CF00E
:1015A000EAEC1EF0096A540E086E980E0A6ECFEC33
:1015B0001CF0EAEC1EF0096A550E086E000E0A6A6D
:1015C000CFEC1CF0EAEC1EF0096A560E086E000E15
:1015D0000A6ACFEC1CF0EAEC1EF0096A570E086E9E
:1015E000000E0A6ACFEC1CF0EAEC1EF0096A580EF5
:1015F000086E000E0A6ACFEC1CF0EAEC1EF0096AD5
:10160000590E086E000E0A6ACFEC1CF0EAEC1EF0D0
:10161000096A5A0E086E000E0A6ACFEC1CF0EAEC5A
:101620001EF0096A5B0E086E000E0A6ACFEC1CF011
:10163000EAEC1EF0096A5C0E086E000E0A6ACFEC36
:101640001CF0EAEC1EF0096A5D0E086E000E0A6AD4
:10165000CFEC1CF0EAEC1EF0096A5E0E086E000E7C
:101660000A6ACFEC1CF0EAEC1EF0096A5F0E086E05
:10167000000E0A6ACFEC1CF0EAEC1EF0096A600E5C
:10168000086E000E0A6ACFEC1CF0EAEC1EF0096A44
:10169000610E086E000E0A6ACFEC1CF0EAEC1EF038
:1016A000096A620E086E000E0A6ACFEC1CF0EAECC2
:1016B0001EF0096A630E086E000E0A6ACFEC1CF079
:1016C000EAEC1EF0096A640E086E000E0A6ACFEC9E
:1016D0001CF0EAEC1EF0096A650E086E000E0A6A3C
:1016E000CFEC1CF0EAEC1EF0096A660E086E000EE4
:1016F0000A6ACFEC1CF0EAEC1EF0096A670E086E6D
:10170000000E0A6ACFEC1CF0EAEC1EF0096A680EC3
:10171000086E000E0A6ACFEC1CF0EAEC1EF0096AB3
:10172000690E086E000E0A6ACFEC1CF0EAEC1EF09F
:10173000096A6A0E086E000E0A6ACFEC1CF0EAEC29
:101740001EF0096A6B0E086E000E0A6ACFEC1CF0E0
:10175000EAEC1EF0096A6C0E086E000E0A6ACFEC05
:101760001CF0EAEC1EF0096A6D0E086E000E0A6AA3
:10177000CFEC1CF0EAEC1EF0096A6E0E086E000E4B
:101780000A6ACFEC1CF0EAEC1EF0096A6F0E086ED4
:10179000000E0A6ACFEC1CF0EAEC1EF0096A700E2B
:1017A000086E000E0A6ACFEC1CF0EAEC1EF0096A23
:1017B000710E086E000E0A6ACFEC1CF0EAEC1EF007
:1017C000096A720E086E000E0A6ACFEC1CF0EAEC91
:1017D0001EF0096A730E086E000E0A6ACFEC1CF048
:1017E000EAEC1EF0096A740E086E000E0A6ACFEC6D
:1017F0001CF0EAEC1EF0096A750E086E000E0A6A0B
:10180000CFEC1CF0EAEC1EF0096A760E086E000EB2
:101810000A6ACFEC1CF0EAEC1EF0096A770E086E3B
:10182000000E0A6ACFEC1CF0EAEC1EF0096A780E92
:10183000086E000E0A6ACFEC1CF0EAEC1EF0096A92
:10184000790E086E000E0A6ACFEC1CF0EAEC1EF06E
:10185000096A7A0E086E000E0A6ACFEC1CF0EAECF8
:101860001EF0096A7B0E086E000E0A6ACFEC1CF0AF
:10187000EAEC1EF0096A7C0E086E000E0A6ACFECD4
:101880001CF0EAEC1EF0096A7D0E086E000E0A6A72
:10189000CFEC1CF0EAEC1EF0096A7E0E086E000E1A
:1018A0000A6ACFEC1CF0EAEC1EF0096A7F0E086EA3
:1018B000000E0A6ACFEC1CF0EAEC1EF0096A800EFA
:1018C000086E000E0A6ACFEC1CF0EAEC1EF0096A02
:1018D000810E086E000E0A6ACFEC1CF0EAEC1EF0D6
:1018E000096A820E086E000E0A6ACFEC1CF0EAEC60
:1018F0001EF0096A830E086E000E0A6ACFEC1CF017
:10190000EAEC1EF0096A840E086E000E0A6ACFEC3B
:101910001CF0466A476AEAEC1EF0475046C044F0A5
:10192000456AD89044364536D89044364536D890E6
:10193000443645364426000E45228B0E4424086E5C
:10194000000E4520096E000E0A6ACFEC1CF0472AF3
:10195000070E4764E0D7462A060E4664DBD7B1EF90
:101960000CF036683768386839683A6A3B6A3C6A0E
:101970003D6A436A435072D9440E1224086E000E29
:101980001320096EB6EC1EF0146E14AE1AD143503B
:1019900065D9470E1224086E000E1320096EB6ECAE
:1019A0001EF068D9450E1924086E000E1A20096E23
:1019B000B6EC1EF034D9B6EC1EF0226E020E2216E2
:1019C00022C023F0246A256A266A170ED89023368F
:1019D000243625362636E82EF9D71C5065D9FF0E59
:1019E0002B10316E2C50326E2D50336E2E50346EC3
:1019F000435034D9480E1224086E000E1320096E8D
:101A0000B6EC1EF037D9460E1924086E000E1A20C7
:101A1000096EB6EC1EF003D9B6EC1EF0226E010E74
:101A2000221622C023F0246A256A266A23C026F0E3
:101A3000256A246A236A1C5037D943502F6E306AB6
:101A4000D8902F363036D8902F363036D8902F3663
:101A50003036430E2F24086E000E3020096EB6EC8F
:101A60001EF02B103E6E2C503F6E2D50406E2E50AF
:101A7000416E436608D03EC03AF03FC03BF040C0E4
:101A80003CF041C03DF031503616325037163350DD
:101A9000381634503916426A42503EC012F03FC0E8
:101AA00013F040C014F041C015F0E82A05D0D890DA
:101AB0001532143213321232E82EF9D7010E1216F3
:101AC00042503AC016F03BC017F03CC018F03DC081
:101AD00019F0E82A05D0D890193218321732163288
:101AE000E82EF9D71650010B121810E042C012F080
:101AF000FDD801D000D9122EFDD7131C156E141C71
:101B0000166E176A16BE17061750E6D8422A1F0E21
:101B10004264C2D73E503A163F503B1640503C16E6
:101B200041503D16435042E0426A43C012F04350D8
:101B3000136E146AD89013361436D89013361436B0
:101B4000D89013361436430E1324086E000E14205A
:101B5000096EB6EC1EF0156E122A02D0D89015321E
:101B6000122EFCD7010E151643C016F035C017F023
:101B7000162A02D0D8901732162EFCD71750010B18
:101B8000151810E043C012F0B1D801D0B4D8122E0D
:101B9000FDD713C015F014C016F0000E16BEFF0ED0
:101BA000176E9AD8422A070E4264BFD7435056D8C0
:101BB000430E1224086E000E1320096EB6EC1EF0C0
:101BC000356E432A060E4364D5D6800E62EC1EF0B5
:101BD0000F010F0E096E1C0E086E36C00AF037C0DA
:101BE0000BF038C00CF039C00DF0010E0E6E79EC20
:101BF00017F00D01D4830F010F0E096E040E086E4D
:101C00003AC00AF03BC00BF03CC00CF03DC00DF0F8
:101C1000010E0E6E79EC17F0000E62EF1EF01B6ED7
:101C20001BC01CF01D6A1E6A1F6A1DC01FF01CC06D
:101C30001EF01D6A1C6A4350206E216AD89020361F
:101C40002136D89020362136D89020362136440EC1
:101C50002024086E000E2120096E1200126E136AF5
:101C6000D89012361336D89012361336D8901236D2
:101C700013361200146E14C015F0166A176A186A2B
:101C800017C018F016C017F015C016F0156A4350AB
:101C9000196E1A6AD89019361A36D89019361A362B
:101CA000D89019361A3612002310276E1D502410B2
:101CB000286E1E502510296E1F5026102A6E1550B2
:101CC00027102B6E165028102C6E175029102D6ED1
:101CD00018502A102E6E1200186E15503616165017
:101CE000371617503816185039161200010E136E99
:101CF000146A122A1200D890133614361200CF6BD1
:101D0000D16B070ED16501D01FD12DD9B6EC1EF0D5
:101D10000001D06FD0AF16D1D151020DF350600F3A
:101D2000D96EDA6ADE50DD1028E016D9DE06000E24
:101D3000DD5A12D9DE50DD103CE115D9B6EC1EF0AB
:101D40000001CC6FCCA535D0D1C0CCF0010ECD6F49
:101D5000CC2B02D0D890CD37CC2FFCD7CD51516EA3
:101D6000000E09EC19F0D0A324D0010EC56F020EAD
:101D7000C66FD15112EC1CF01CD0650ED125086E37
:101D8000096A000E0922B6EC1EF00001CD6FCC6B83
:101D9000660ED125086E096A000E0922B6EC1EF007
:101DA0000001CC27000ECD23D7D8CCC0DEFFCDC09C
:101DB000DDFFD1C0CCF0010ECD6FCC2B02D0D8907E
:101DC000CD37CC2FFCD7CD518A1501E1BBD0BDD882
:101DD000DE50DD1001E1A5D0B8D8DE06000EDD5AD8
:101DE000B4D8DE50DD102EE0ADD08AA802D08A989B
:101DF00025D08A88010ECF6F33D08AA202D08A9272
:101E00001DD08A82F7D78AA002D08A9017D08A8004
:101E1000F1D78BAE02D08B9E11D08B8EEBD78BACD3
:101E200002D08B9C0BD08B8CE5D78BAA02D08B9ADF
:101E300005D08B8ADFD78BA803D08B98CF6B10D0BF
:101E40008B88D8D7D151D1E0010AD7E0030ADBE073
:101E5000010ADFE0070AE3E0010AE7E0030AEBE03A
:101E600089D8B6EC1EF00001CD6FCC6B8CD8B6ECE7
:101E70001EF00001CC27000ECD2367D8CCC0DEFFBA
:101E8000CDC0DDFFCF513AE06ED8B6EC1EF00001B8
:101E9000CC6FCCA520D0D151020D650EF324086E75
:101EA000000EF420096EB6EC1EF00001CD6FCC6B75
:101EB000D151020D660EF324086E000EF420096E57
:101EC000B6EC1EF00001CC27000ECD2345D8CCC0C7
:101ED000DEFFCDC0DDFFD0A707D0140EC56F030E07
:101EE000C66FD15112EC1CF0D0AB2CD0140EC56FC4
:101EF000190EC66FD15112EC1CF024D0D0A907D016
:101F0000140EC56F040EC66FD15112EC1CF0D0AD8B
:101F100019D0140EC56F180EC66FD15112EC1CF0FB
:101F200011D031D8B6EC1EF00001CC6F23D8B6EC3E
:101F30001EF00001CE6FCD6BCC51CD25706F000E21
:101F4000CE21716FD12BDDD61200D151020DF3508D
:101F5000700FD96EDA6A1200D151020DF350600F82
:101F6000D96EDA6A12004D0ED125086E096A000E8C
:101F70000922000CD151020D550EF324086E000EFB
:101F8000F420096E1200D151020D560EF324086E92
:101F9000000EF420096E1200E8CFCAF0CC6BCCC062
:101FA000C7F0010EC86FC72B02D0D890C837C72F13
:101FB000FCD7C851511401E137D1CAA911D0D8902A
:101FC000CC35C76FC86BC837750EC725086E000EB5
:101FD000C821096EB6EC1EF000019D1901E024D164
:101FE000CAA711D0D890CC35C76FC86BC837760E4A
:101FF000C725086E000EC821096EB6EC1EF0000160
:102000009E1901E011D14D0ECC25086E096A000E13
:102010000922B6EC1EF00001CB6FCBAF05D1E0D0AA
:102020008A88096A4D0E086EB6EC1EF00001C76F73
:10203000C7A5E8D0096A660E086EB6EC1EF000016E
:10204000C76F096A650E086EB6EC1EF00001C96F15
:10205000C86BC751C825606F000EC921616FD2D00F
:102060008A82096A4E0E086EB6EC1EF00001C76F38
:10207000C7A5C8D0096A680E086EB6EC1EF000014C
:10208000C76F096A670E086EB6EC1EF00001C96FD3
:10209000C86BC751C825626F000EC921636FB2D0EB
:1020A0008A80096A4F0E086EB6EC1EF00001C76FF9
:1020B000C7A5A8D0096A6A0E086EB6EC1EF000012A
:1020C000C76F096A690E086EB6EC1EF00001C96F91
:1020D000C86BC751C825646F000EC921656F92D0C7
:1020E0008B8E096A500E086EB6EC1EF00001C76FA9
:1020F000C7A588D0096A6C0E086EB6EC1EF0000108
:10210000C76F096A6B0E086EB6EC1EF00001C96F4E
:10211000C86BC751C825666F000EC921676F72D0A2
:102120008B8C096A510E086EB6EC1EF00001C76F69
:10213000C7A568D0096A6E0E086EB6EC1EF00001E5
:10214000C76F096A6D0E086EB6EC1EF00001C96F0C
:10215000C86BC751C825686F000EC921696F52D07E
:102160008B8A096A520E086EB6EC1EF00001C76F2A
:10217000C7A548D0096A700E086EB6EC1EF00001C3
:10218000C76F096A6F0E086EB6EC1EF00001C96FCA
:10219000C86BC751C8256A6F000EC9216B6F32D05A
:1021A0008B88096A530E086EB6EC1EF00001C76FEB
:1021B000C7A528D0096A720E086EB6EC1EF00001A1
:1021C000C76F096A710E086EB6EC1EF00001C96F88
:1021D000C86BC751C8256C6F000EC9216D6F12D036
:1021E000CC5101E11DD7010A01E13AD7030A01E10F
:1021F00057D7010A01E174D7070A92E0010AB0E05B
:10220000030ACEE0CBA707D0140EC56F030EC66F2E
:10221000CC5112EC1CF0CBAB07D0140EC56F190ECD
:10222000C66FCC5112EC1CF0CC2B070ECC65B7D688
:10223000070CE8CF14F0546A7750C00B166E166680
:1022400032D060AE12D0A49074AE06D01150D96EC8
:10225000DA6A000EDB86749E60A002D0548001D042
:1022600054900F0E196E600E1AD00F0150AF19D096
:10227000A49274AC06D01150D96EDA6A000EDB86D7
:10228000749C5051070B546E020E546005D01150CF
:10229000D96EDA6A000EDB8E0F0E196E500E186EB4
:1022A00065D0000EC2D01650400A46E160AE04D0A0
:1022B0000F0E196E600E3ED00F0150AF04D00F0EFE
:1022C000196E500E37D00D01F8B507D00E0120AFB2
:1022D00004D00E0E196E200E2DD00D01F8B707D0C8
:1022E0000E0130AF04D00E0E196E300E23D00D014A
:1022F000F8B907D00E0140AF04D00E0E196E400E93
:1023000019D00D01F8BB05D00E0150AF02D00E0E52
:10231000D7D70D01F8BD05D00E0160AF02D00E0E6B
:10232000C8D70D01F8BFBDD70E0170AFBAD70E0EDA
:10233000196E700E186E0AD074AEB3D76F50070BBB
:10234000D7EC1BF008C018F009C019F018C0D9FF6D
:1023500019C0DAFFDF501F0B546EA49274AC06D084
:102360001150D96EDA6A000EDB86749C18C012F028
:1023700019C013F01150D96EDA6ADF6A20EE05F049
:1023800055D81050D96EDA6A17500F0BDF6E17ACA4
:1023900005D01150D96EDA6A000EDB8C20EE02F007
:1023A00045D817A608D01150D96EDA6A000EDB8A1C
:1023B000010E176E01D0176A1828086E000E19203A
:1023C000096E14C00AF017C00BF0EAEC16F0060E06
:1023D0001826000E19221050D96EDA6ADF50176ED7
:1023E000156A0DD018C0D9FF19C0DAFF0F50E16E81
:1023F000E26ADFCFE7FF184A192A0F2A152A175079
:10240000155CF0E3A4AE06D01150D96EDA6A000E66
:10241000DB88A49E12C0D9FF13C0DAFF7F0EDF163F
:102420001650800AD8B4749E010E12001850D92696
:102430001950DA22DF50176E1200000199519811DD
:1024400001E1E8D0DD6BE7D88C0ECD25086E000EDB
:10245000CE21096EB6EC1EF00001DC6FDCAFD5D0EA
:10246000DCAD18D0DD51CD6FCE6BD890CD37CE37E7
:10247000D890CD37CE37D890CD37CE378B0ECD25EF
:10248000086E000ECE21096EB6EC1EF000019B19FD
:1024900001E0BBD0DD51080D8E0EF324086E000E56
:1024A000F420096EB6EC1EF00001CD6FDC51010B7B
:1024B000CF6FCE6BCD51CE25D06F000ECF21D16F17
:1024C000DD51080D8D0EF324086E000EF420096E08
:1024D000B6EC1EF00001CD6FDC51020BCF6FCE6B5E
:1024E000CD51CE25D26F000ECF21D36F94D8900E50
:1024F000CD25086E000ECE21096EB6EC1EF000014F
:10250000D46F89D88F0ECD25086E000ECE21096EAE
:10251000B6EC1EF00001D56F20EE98F0DECFCDF0C6
:10252000DDCFCEF0D051CD1BD151CE1BD251CD1726
:10253000D351CE17CE51CD1168E19A51D419D5158A
:102540004FE063D0000167D873D8B6EC1EF00001ED
:10255000D66FD6C051F0DC51CCEC0FF056D0000154
:102560005AD866D8B6EC1EF00001D76FD7C051F02C
:10257000DC5109EC19F049D000014DD859D8B6EC1E
:102580001EF00001D86FD8C00AF0DC511FEC13F028
:102590003CD0000140D84CD8B6EC1EF00001D96FF9
:1025A000D9C051F0DC514CEC16F02FD0000133D8DB
:1025B0003FD8B6EC1EF00001DA6FDAC00CF0DC5147
:1025C00001EC1BF022D0000126D832D8B6EC1EF068
:1025D0000001DB6FDBC051F0DC51A3EC15F015D02E
:1025E0001AD8910ECD25086E000ECE21096EB6ECDC
:1025F0001EF0010AA7E0030AB2E0010ABDE0070AE3
:10260000E2E00E0AC6E01A0AD1E00001DD2B060E58
:10261000DD6519D71200DD51CD6FCE6BD890CD3767
:10262000CE37D890CD37CE37D890CD37CE371200B1
:10263000920ECD25086E000ECE21096E1200E8CF55
:102640000FF0106A10C00BF0010E0C6E0B2A02D0B6
:10265000D8900C360B2EFCD70C500A1401E1EAD0AE
:102660000FA811D0D89010340B6E0C6A0C36750E72
:102670000B24086E000E0C20096EB6EC1EF0000153
:102680009D1901E0D7D00FA611D0D89010340B6E51
:102690000C6A0C36760E0B24086E000E0C20096EA8
:1026A000B6EC1EF000019E1901E0C4D04D0E1024BE
:1026B000086E096A000E0922B6EC1EF00E6E0EAE10
:1026C000B9D0A8D08A9800018A81096A560E086E8E
:1026D000B6EC1EF00B6E096A550E086EB6EC1EF0D5
:1026E0000D6E0C6A0B500C240001706F000E0D2053
:1026F000716FA0D08A9200018A83096A580E086E11
:10270000B6EC1EF00B6E096A570E086EB6EC1EF0A2
:102710000D6E0C6A0B500C240001726F000E0D2020
:10272000736F88D08A9000018A85096A5A0E086EF4
:10273000B6EC1EF00B6E096A590E086EB6EC1EF070
:102740000D6E0C6A0B500C240001746F000E0D20EE
:10275000756F70D08B9E00018A87096A5C0E086EC7
:10276000B6EC1EF00B6E096A5B0E086EB6EC1EF03E
:102770000D6E0C6A0B500C240001766F000E0D20BC
:10278000776F58D08B9C00018A89096A5E0E086EAB
:10279000B6EC1EF00B6E096A5D0E086EB6EC1EF00C
:1027A0000D6E0C6A0B500C240001786F000E0D208A
:1027B000796F40D08B9A00018A8B096A600E086E8F
:1027C000B6EC1EF00B6E096A5F0E086EB6EC1EF0DA
:1027D0000D6E0C6A0B500C2400017A6F000E0D2058
:1027E0007B6F28D08B9800018A8D096A620E086E73
:1027F000B6EC1EF00B6E096A610E086EB6EC1EF0A8
:102800000D6E0C6A0B500C2400017C6F000E0D2025
:102810007D6F10D0105001E155D7010A01E16AD750
:10282000030A80E0010A96E0070AACE0010AC2E070
:10283000030AD8E0102A070E106404D7070CE8CF6B
:102840001CF01B6A1C50800A04E155C01BF0556A3D
:10285000B3D01C50810A02E1010E75D01C50820ACF
:1028600002E1050E70D01C50830A02E11B6AA4D05D
:102870001C50940A03E1F5EC1EF065D01C50950A3B
:1028800003E1F4EC1EF05FD01C50960A03E1F3EC78
:102890001EF059D0890E1C6005D01C507C0F99EC9D
:1028A0001EF051D0880E1C6408D0910E1C6005D01B
:1028B0001C50770F8FEC1EF046D01C50910A03E19C
:1028C00091C01BF079D01C50930A03E152C01BF059
:1028D00073D01C50920A02E1535035D01C50970A15
:1028E00003E1F2EC1EF02FD01C50980A03E1F1EC4A
:1028F0001EF029D01C50990A03E1F0EC1EF023D001
:10290000990E1C6422D09E0E1C601FD0D7EC1EF0C6
:102910000BC014F00AC013F009C012F008C011F087
:102920001C50660F196E195049D811C00DF012C015
:102930000EF013C00FF014C010F0E82A01D048D8F0
:10294000E82EFDD724D01B6E37D09D0E1C6421D0FD
:10295000A20E1C601ED0D2EC1EF00BC018F00AC0F4
:1029600017F009C016F008C015F01C50620F1A6E5F
:102970001A5024D815C00DF016C00EF017C00FF075
:1029800018C010F0E82A01D023D8E82EFDD70D504A
:10299000DAD7CF0E1C6408D0E00E1C6005D01C50A6
:1029A000300FA3EC1EF0CFD7DF0E1C6405D01C50F7
:1029B000200F56EC1EF0C7D71B50120003080C6EF8
:1029C000D8900C36D8900C36D8900C360C5012009B
:1029D000D89010320F320E320D3212000F0E1C6ED4
:1029E000400E1B6E0F0E1E6E300E1D6E0F0E206EF3
:1029F000200E1F6E0E0E226E200E216E0E0E246E05
:102A0000300E236E0E0E266E400E256E0E0E286EB4
:102A1000500E276E0E0E2A6E600E296E0E0E2C6E54
:102A2000700E2B6E7750C00B2D6E2D6602D0020EED
:102A300001D0080E2E6E0D01D890F831306E346A38
:102A40007DD03450020DF3501B0FD96EDA6ADECF01
:102A500035F0DDCF36F035C031F036C032F0020E41
:102A6000346404D0D890303230A067D035C0D9FF5C
:102A700036C0DAFFDF501A6E1AB65FD035C0D9FF04
:102A800036C0DAFFFC0EDF1619C01AF0030E1A1654
:102A900035C0D9FF36C0DAFF1A50DF1219AC04D0A6
:102AA00018504009336E02D018C033F020EE05F004
:102AB0003550D9263650DA2233C0DFFF19AA03D0A9
:102AC000010E336E01D0336A3528086E000E3620B1
:102AD000096E12C00AF013C00BF014C00CF015C040
:102AE0000DF033C00EF079EC17F0060E3526000E0F
:102AF00036222F6A0FD016C0D9FF17C0DAFF35C0B3
:102B0000E1FF36C0E2FFDFCFE7FF164A172A354A5A
:102B1000362A2F2A18502F5CEEE331C0D9FF32C07D
:102B2000DAFFDF501A6E1AB406D031C0D9FF32C0B6
:102B3000DAFF000EDB86010E05D0342A2E50345CFD
:102B400080E3000E1200E8CFC9F0CB6BCC6BCCC099
:102B5000C7F0010EC86FC72B02D0D890C837C72F57
:102B6000FCD7C851511401E192D0C9A911D0D89015
:102B7000CC35C76FC86BC837750EC725086E000EF9
:102B8000C821096EB6EC1EF000019D1901E07FD04E
:102B9000C9A710D0D890CC35C76FC86BC837760E90
:102BA000C725086E000EC821096EB6EC1EF00001A4
:102BB0009E196DE14D0ECC25086E096A000E0922A2
:102BC000B6EC1EF00001CA6F2DD08AA802D08A98F8
:102BD00025D08A88010ECB6F33D08AA202D08A9288
:102BE0001DD08A82F7D78AA002D08A9017D08A8017
:102BF000F1D78BAE02D08B9E11D08B8EEBD78BACE6
:102C000002D08B9C0BD08B8CE5D78BAA02D08B9AF1
:102C100005D08B8ADFD78BA803D08B98CB6B10D0D5
:102C20008B88D8D7CC51D1E0010AD7E0030ADBE08A
:102C3000010ADFE0070AE3E0010AE7E0030AEBE04C
:102C4000CB5113E0CAA707D0140EC56F030EC66F91
:102C5000CC5112EC1CF0CAAB1AD0140EC56F190E71
:102C6000C66FCC5112EC1CF012D0CAA907D0140EBA
:102C7000C56F040EC66FCC5112EC1CF0CAAD07D064
:102C8000140EC56F180EC66FCC5112EC1CF0CC2B75
:102C9000070ECC655CD7070CE8CFC9F0CA6BCC6BCC
:102CA000CCC0C7F0010EC86FC72B02D0D890C83770
:102CB000C72FFCD7C851511401E187D0C9A910D042
:102CC000D890CC35C76FC86BC837750EC725086E4E
:102CD000000EC821096EB6EC1EF000019D1975E1C9
:102CE000C9A710D0D890CC35C76FC86BC837760E3F
:102CF000C725086E000EC821096EB6EC1EF0000153
:102D00009E1963E14D0ECC25086E096A000E09225A
:102D1000B6EC1EF00001CB6F23D0000E8AB8010E76
:102D2000CA6F2CD0000E8AB2010ECA6F27D0000ED7
:102D30008AB0010ECA6F22D0000E8BBE010ECA6F80
:102D40001DD0000E8BBC010ECA6F18D0000E8BBABE
:102D5000010ECA6F13D0000E8BB8010ECA6F0ED0D1
:102D6000CC51DBE0010ADEE0030AE1E0010AE4E025
:102D7000070AE7E0010AEAE0030AEDE0CA5113E0BE
:102D8000CBA907D0140EC56F040EC66FCC5112EC40
:102D90001CF0CBAD1AD0140EC56F180EC66FCC51F7
:102DA00012EC1CF012D0CBA907D0140EC56F040E84
:102DB000C66FCC5112EC1CF0CBAD07D0140EC56F12
:102DC000180EC66FCC5112EC1CF0CC2B070ECC6544
:102DD00067D7070C0AC00EF00B662BD00E50D96EC9
:102DE0006CD80C36D8900C36D8900C34DF6E0E5060
:102DF000D96EDA6AD92ADA6A73D8D8900C320D2ED5
:102E0000FCD70C5063D8050E0D6ED8900C320D2EE9
:102E1000FCD70E50D96EDA6A0C50DF123DD8DF6A4B
:102E20000E50D96EDA6A030ED926DA6A000EDF6E0A
:102E300032D032D855D8D8900C360D2EFCD70C5045
:102E4000DF6E0E50D96EDA6A030ED92636D80C32F0
:102E5000D8900C32D8900C3039D8030E0C161CD8F0
:102E60000C50DF1208C0D9FF09C0DAFFDF500C6E2A
:102E7000D8900C32D8900C32D8900C321C0E0C1614
:102E80000BD80C50DF120FD8E12AE26ADFCFE7FF40
:102E90000AD8DFCFE7FF12000E50D96EDA6A020EB1
:102EA000D926DA6A1200084A092A08C0D9FF09C0DF
:102EB000DAFF0E50E16EE26A1200DA6A08C0E1FF42
:102EC00009C0E2FFE7500C6ED8901200DF6E084A8E
:102ED000092A08C0D9FF09C0DAFFDF500C6E1200C2
:102EE00008C0E1FF09C0E2FFE7500C6E050E0D6E51
:102EF000050C0A0E116E0E6622D01150D96EDA6AD8
:102F0000DF500F6ED8900F32D8900F32D8900F301C
:102F100062D8D92ADA6A72D8D8900F36102EFCD728
:102F200008C0D9FF46D86AD8D8900F36102EFCD7E3
:102F30000F5008C0D9FF09C0DAFFDF6E39D0115039
:102F400042D8050E106ED8900F32102EFCD70F50BD
:102F500042D8030E49D80F3608C0D9FF2AD8020E2E
:102F600043D80F34E00B08C0D9FF09C0DAFFDF6E89
:102F700008C0D9FF09C0DAFF000EDB86115023D844
:102F8000030E0F1608C0D9FF14D8D92ADA6A08C070
:102F9000E1FF09C0E2FFDFCFE7FF084A092A11502D
:102FA000D96EDA6A08C0E1FF09C0E2FFDFCFE7FFB0
:102FB000120009C0DAFF0F50DF12084A092A115027
:102FC000D96EDA6A1200D96EDA6A020ED926DA6A86
:102FD000DF500F6E120008C0D9FF09C0DAFFDF6EA4
:102FE0001150D96EDA6A1200D926DA6ADF500F6EF4
:102FF000D8900F36D8900F36D8901200DF500F6E51
:10300000050E106E050CE8CF4EF0481C4D6E830E79
:103010004E640ED0890E4E600BD048C00CF04E505E
:103020007C0F2DEC1EF04E507C0F99EC1EF069D0F9
:103030004E50920A0DE148504A6E496A52504B6E0A
:103040004C6A4910526E4A504C10536E535059D02E
:103050004E50930A0BE1496A53504A6E485049104A
:10306000526E4A50536E52C04DF04ED0880E4E6490
:1030700019D0910E4E6016D053C049F049C04AF0A5
:103080004B6A4A2802E1522802E0481C3AD048C064
:103090000CF04E50770F80EC1DF04E50770F8FECF8
:1030A0001EF02FD0CF0E4E6417D0E00E4E6014D01D
:1030B00053C049F049C04AF04B6A4A28E6E1522819
:1030C000E4E148C00CF04E50300F93EC1DF04E5030
:1030D000300FA3EC1EF015D04E50A20AD6E1485096
:1030E000550A04E1846B856B550E0BD04850AA0A33
:1030F0000BE1E80E845D030E855905E2E6EC1EF057
:10310000AA0E4D6E01D04D6A4D5012000001806B29
:10311000816B826B836B8B6B896B886B8A6B0C6AA0
:103120000C50020DF350700FD96EDA6ADE6ADD6A58
:103130000C50020DF350600FD96EDA6ADE6ADD6A58
:103140000C2A070E0C64ECD70C6A4D0E0C24086E8A
:10315000096A000E0922B6EC1EF00A6E0AA027D0FA
:103160000CC00AF0010E0B6E0A2A02D0D8900B3662
:103170000A2EFCD70B5000018A13550E0C24086E42
:10318000096A000E0922B6EC1EF00B6E0A6A560E92
:103190000C24086E096A000E0922B6EC1EF031D824
:1031A000700FD96EDA6A0AC0DEFF0BC0DDFF520E67
:1031B0000C24086E096A000E0922B6EC1EF00A6E95
:1031C0000AA41AD06F0E0C24086E096A000E092298
:1031D000B6EC1EF00B6E0A6A700E0C24086E096ABB
:1031E000000E0922B6EC1EF00CD8600FD96EDA6A18
:1031F0000AC0DEFF0BC0DDFF0C2A060E0C64A5D74B
:10320000060C0A26000E0B220C50020DF350000192
:103210001200E8CFC9F0CB6BCBC0C7F0010EC86F6E
:10322000C72B02D0D890C837C72FFCD7C85151142C
:103230005FE0C9A910D0D890CB35C76FC86BC8372D
:10324000750EC725086E000EC821096EB6EC1EF07B
:1032500000019D194DE1C9A710D0D890CB35C76F9B
:10326000C86BC837760EC725086E000EC821096ED8
:10327000B6EC1EF000019E193BE14D0ECB25086E09
:10328000096A000E0922B6EC1EF00001CA6FCAAF2F
:103290002FD00ED08A981AD08A9218D08A9016D041
:1032A0008B9E14D08B9C12D08B9A10D08B980ED002
:1032B000CB51F0E0010AF0E0030AF0E0010AF0E08F
:1032C000070AF0E0010AF0E0030AF0E0CAA907D01B
:1032D000140EC56F040EC66FCB5112EC1CF0CAADB4
:1032E00007D0140EC56F180EC66FCB5112EC1CF030
:1032F000CB2B070ECB6590D7070CB0EC1CF0CBECBA
:103300001DF0000904E17FEC0AF086EC18F06FEC88
:103310001CF00400FA0E00018F650ED092050CE03F
:103320009169EAEC1EF0096A010E086EFF0E0A6848
:10333000CFEC1CF06FEC1CF0966B44EC1DF01CD035
:10334000912903E1010E926F23D0030E926F0FECCF
:103350001EF01ED0EEEC19F01BD096AF19D099518B
:103360009811D8B473EC07F01DEC12F011D0EDEC0D
:103370001EF00ED0926B0CD000019251E1E0010AD8
:10338000E9E0030AE4E0010AE8E0070AF0E0F2D726
:10339000E90E0001805D030E8159000E8259000E76
:1033A00083590BE3806B816B826B836B48EC1CF061
:1033B0009251030AD8B47FEC0EF03B0E8B650BD014
:1033C0008B6B892B3B0E896502D0896B882B170E7E
:1033D000886501D0886BEFEC1EF09BD753D057283F
:1033E00010E0810EA46FA56BA66BA76B020EA86FF1
:1033F00057C0A9F0A6EC1DF0010E936F866B876B8A
:1034000048D0040E926F810EA46FA969070EA56FB4
:10341000A66BA76B030EA86FA6EC1DF03AD096AF73
:103420000FD09951981135E19A51030A32E157664C
:1034300003D0020E926FE2D7572A936B946B29D078
:10344000E90E865D030E875924E3942B020E9465E2
:1034500017D0576605D0572A936B866B876BEED7CC
:1034600057C091F0030E926F936B915184EC1EF054
:10347000400E79EC1EF00001946B0FEC1EF009D0A9
:10348000936B07D000019351AAE0010AC8E0030A38
:10349000F7E1966B120041C0B1F0B26BB36BB46B45
:1034A000B3C0B4F0B2C0B3F0B1C0B2F0B16B3F5032
:1034B000B56F4050B66FB76BB86BB6C0B8F0B5C05B
:1034C000B7F0B66BB56B43C0B9F0BA6BBB6BBC6BF6
:1034D0001A0ED890B937BA37BB37BC37E82EF9D7B0
:1034E000B551B911BD6FB651BA11BE6FB751BB110D
:1034F000BF6FB851BC11C06FB151BD11C16FB25196
:10350000BE11C26FB351BF11C36FB451C011C46FAC
:103510004250C111476EC251486EC351496EC451E9
:103520004A6E47C037F048C038F049C039F04AC049
:103530003AF044C03BF045C03CF046C03DF001ECE1
:103540001DF00009000ED8A4010E1200E8CF0BF008
:103550000A6A0B6606D0096A430E086EB6EC1EF0C6
:103560004DD00B0406E1096A440E086EB6EC1EF05D
:1035700045D0010E0B6434D00A0E0B6031D01ED042
:10358000000E8AB8010E3AD0000E8AB2010E36D073
:10359000000E8AB0010E32D0000E8BBE010E2ED06E
:1035A000000E8BBC010E2AD0000E8BBA010E26D065
:1035B000000E8BB8010E22D00A6A21D00B50020AED
:1035C000DFE0010AE1E0070AE3E0010AE5E0030ABF
:1035D000E7E0010AE9E00F0AEBE0010AEDE00FD0B5
:1035E000090E0B640CD0800E0B6009D0430E0B2427
:1035F000086E096A000E0922B6EC1EF00A6E0A5027
:103600001200E8CF10F0116A11C00DF0010E0E6E1D
:103610000D2A02D0D8900E360D2EFCD70E500C1469
:103620003AE010A810D0D89011340D6E0E6A0E3604
:10363000750E0D24086E000E0E20096EB6EC1EF0FD
:1036400000019D1928E110A610D0D89011340D6EFC
:103650000E6A0E36760E0D24086E000E0E20096ED0
:10366000B6EC1EF000019E1916E14D0E1124086EF5
:10367000096A000E0922B6EC1EF00F6EEAEC1EF08D
:103680004D0E1124086E096A000E09220F507F0B9F
:103690000A6ECFEC1CF0112A070E1164B5D7070C87
:1036A000800E62EC1EF0090E706EFC0E716E010E43
:1036B000726E200E736E778E779C606A0F01506B6E
:1036C0000E01206B306B406B506B606B706BE00ECB
:1036D0000D01F86F0F01006B080E016F026B036B99
:1036E000046BE80E056F1A0E066F076B030E0D01D3
:1036F000D46FD56BE06B110EE16FE26FE36BE46B9F
:10370000E56BE66BE76B540EF06F050EF16FF26B35
:10371000F26B0F0E0F01186FE00E196F1A6B1B6B17
:1037200019870F0E1C6FE00E1D6F1E691F6B1D8722
:10373000000E62EF1EF0E8CF27F021C01AF022C081
:103740001BF0280E19EC1DF0000902E1000E2ED02E
:103750001F50D96EDA6A28C0DFFF1E50D96EDA6AB0
:1037600029C0DFFF2A50236E010E2B14246E275030
:10377000D96EDA6A23C0DEFF24C0DDFF2050D96E87
:10378000DA6A28C023F029C024F02AC025F02BC013
:1037900026F01B0E05D0D890263225322432233253
:1037A000E82EF9D72350070BDF6E010E1200E8CF89
:1037B0000BF024D00F0E0D6E600E1ED00F010F0EF9
:1037C0000D6E500E19D00E010E0E0D6E200E14D07F
:1037D0000E010E0E0D6E300E0FD00E010E0E0D6E80
:1037E000400E0AD00E010E0EEBD70E010E0EE3D7DF
:1037F0000E010E0E0D6E700E0C6E0FD00B50DAE037
:10380000010ADCE0030ADFE0010AE2E0070AE5E082
:10381000010AE8E0030AE9E0EBD70CC008F00DC0AC
:1038200009F01200E8CF50F050C04DF0D89050345D
:103830004B6E4C6A4C36750E4B24086E000E4C20B5
:10384000096EB6EC1EF04E6ED89050344B6E4C6A3A
:103850004C36760E4B24086E000E4C20096EB6ECEA
:103860001EF04F6E0001C5C03FF0406AC6C041F077
:1038700091C042F0030E436E446E4D0E456E000E35
:10388000466E0F0E466E5F0E4564466A4BEF1AF0A9
:10389000952B3B0E95650DD0956B902B9251030A9D
:1038A00008E1C8EC1EF00001C56FCDEC1EF06DEC18
:1038B0001DF03B0E906502D0906B8E2B170E8E651F
:1038C00001D08E6B9251030A09E18D2B8DC04DF012
:1038D0000F0E4D16020E4D5CD8B08D6B1200020E0D
:1038E000566EDCEC1EF00001916F916701D091697A
:1038F000966B976B986B996B9A6BA46BA56BA66B89
:10390000A76BA86B556A576A926B936B946B526A5C
:10391000536A866B876B846B856B956B906B8E6B34
:103920001200E1EC1EF0000916E1000196510F0BA8
:10393000050A15E1E1EC1EF000019C1910E09C5114
:1039400079EC1EF000019169FF0E84EC1EF0010E6F
:103950000001926F04D000019C5179EC1EF012001E
:1039600086EC18F0926A806A080E936E816A010EE6
:10397000946E826A920E1EEC1EF0FB0E096E1D0EF6
:10398000086EADEC1EF08A988A928A908B9E8B9C72
:103990008B9A8B9850EC1BF0F28CF28E120008C0C0
:1039A000A9FF0AC0A8FFA69EA69CA684000EF2BE90
:1039B000010E0B6EF29E550EA76EAA0EA76EA68282
:1039C000A6B2FED70BB002D0F29E01D0F28EA69422
:1039D000120096510F0B0D6E0D5012E0915120EE1A
:1039E0009CF0DF620DD00D0405E0010E0D6408D0DF
:1039F0009D6706D09169FF0E84EC1EF06FEC1CF001
:103A000012008C6B37C012F038C013F039C014F0BC
:103A10003AC015F03CC016F03DC017F03BC018F09E
:103A2000200E196EEEEC14F00009ECE00001A46B1E
:103A3000010CE8CF1CF096AF02D0000E0FD01BC0D7
:103A40000FF01AC010F01D0E116E1C5019EC11F081
:103A50000009F3E01DAC1DAAF0D7010E120096C0BC
:103A60004CF00F0E4C164C040EE1915120EE9CF0E0
:103A7000DF6209D0800EA46FA56BA66BA76B030E47
:103A8000A86FA6EC1DF0120096BF12D09A0E1E6E03
:103A90009B0E1F6E970E206E960E216E9C0E226E50
:103AA000980E9BEC1BF02C6E2C5002E00001968FC0
:103AB0001200E8CF09F0080E0A6E0B6AD89009349C
:103AC0000B340B6ED890093608500B5C02E308509B
:103AD0000B5E0A2EF3D70B501200E8CF4CF0830E8A
:103AE0000001A46F070EA56FA76B140EA66F090E39
:103AF000A86FA96B4CC0AAF0C5C0ABF0A6EF1DF033
:103B0000E8CF0DF0070E0D6401D00CD0EAEC1EF0EA
:103B10000B0E0D24086E096A000E09220CC00AF073
:103B2000CFEC1CF01200E8CF0DF00F0E0D6401D0A9
:103B30000CD0EAEC1EF0130E0D24086E096A000E7C
:103B400009220CC00AF0CFEC1CF01200A6C03FF016
:103B5000A7C040F0A8C041F091C042F0A5C043F01A
:103B6000A4510F0B446E000E466EA90E456E4BEF2E
:103B70001AF096510F0B020A0DE1915120EE9CF0C4
:103B8000DF6208D09DC091F0915184EC1EF0400E90
:103B900079EC1EF01200E1EC1EF0C00B400A02E1CD
:103BA000010E0AD0FF0E84EC1EF0000E79EC1EF020
:103BB000A00E6EEC1EF0000E120000EE60F0510E32
:103BC000EE6AE806FDE100EE52F0070EEE6AE80646
:103BD000FDE1000EF86E00017DEF19F0E8CFD0F0A6
:103BE0007F0ED06506D0CFC048F0D05103EC18F05E
:103BF00005D0CFC051F0D05111EC03F01200070EE8
:103C0000A96F480EAA6F020E086E0850A90FD96E50
:103C1000DA6ADF6A082A070E0864F7D7070C810EF4
:103C20000001A46FA56BA66BA76B020EA86F91C0D5
:103C3000A9F0A6EC1DF0010E566E010CE8CF08F0BD
:103C400008507F0BD56ED76AD66AF29408AE02D0C0
:103C5000F28A01D0F29AD58E1200E8CF0DF0EAEC8C
:103C60001EF0060E0D24086E096A000E09220CC013
:103C70000AF0CFEF1CF0E8CF0CF00C0409E1EAECFD
:103C80001EF0096A086AFF0E0A68CFEC1CF0FF00FC
:103C90001200E8CF1DF07F0E1D6404D01D501FECF4
:103CA00014F003D01D50A6EC1AF01200E8CF09F072
:103CB0000950000F086E08C0F6FF060EF76E0800E8
:103CC000F5501200E8CF08F01F0E6F1608506F1263
:103CD0006F50E00B0818D8B41200FAD7E8CF0CF0F8
:103CE000EAEC1EF0096A030E086E0CC00AF0CFEF72
:103CF0001CF0E8CF0CF0EAEC1EF0096A020E086E28
:103D00000CC00AF0CFEF1CF0E8CF0CF0EAEC1EF08C
:103D1000096A010E086E0CC00AF0CFEF1CF0E8CF64
:103D20000AF00B0E0A24086E096A000E0922B6EF8B
:103D30001EF0E8CF0AF0060E0A24086E096A000E8B
:103D40000922B6EF1EF0E8CF0AF0130E0A24086E1F
:103D5000096A000E0922B6EF1EF008C00AF009C079
:103D60000BF00BC0D7FF0AC0D6FF120008C0A9FF96
:103D7000A69CA69EA68000F000F0A850120001C0EC
:103D800003F002C004F004C0D7FF03C0D6FF120046
:103D9000096A440E086EB6EF1EF0096A430E086EFB
:103DA000B6EF1EF0086A096A0A6A0B6A1200086A0E
:103DB000096A0A6A0B6A1200096A010E086EB6EFF8
:103DC0001EF0096A020E086EB6EF1EF07FEC0AF0D4
:103DD00086EF18F0A6A21200FDD7566A1200120054
:0C3DE000010C080C010C020C010C010C81
:020000040020DA
:08000000FFFFFFFFFFFFFFFF00
:020000040030CA
:0E000000FF061C1EFF8281FF0FC00FE00F40A5
:00000001FF
