:040000005BEF00F0C2
:10001800D8CF05F0E8CF06F0E0CF07F0F2A401D082
:1000280001D03ED0FB0E026E1D0E016E48EC1EF094
:100038000001864B872B844B852B010E8027000EF1
:100048008123000E8223000E832382A001D001D0D9
:1000580002D08E6B01D08E2B582A5650020AD8A493
:1000680001D001D00ED0640E586401D001D009D05F
:1000780082A201D001D002D0829201D08282586A35
:100088000ED05604D8A401D001D003D08282586A79
:1000980006D0566601D001D002D08292586AF294F6
:1000A80007C0E0FF06C0E8FF05C0D8FF100066EFF4
:0200B8001DF039
:100600007777772E6575726F736F757263652E736A
:10061000652F70617269735F3031302E786D6C00B8
:100620000000E8CFCDF0C96BCC6B511CCB6FCD6710
:100630000FD073EC1EF0096A430E086E51C00AF029
:1006400059EC1CF0096A430E086E3FEC1EF0B4D35F
:10065000CD050FE173EC1EF0096A440E086E51C01F
:100660000AF059EC1CF0096A440E086E3FEC1EF0CB
:10067000A3D3010ECD657BD10A0ECD6178D14B0E8F
:10068000CD25086E096A000E09223FEC1EF000011C
:10069000C66FC6BF57D1A1D3010EC96F510426E161
:1006A0008A88000E8AB8010ECB6F010ECC6F096AE2
:1006B0004D0E086E3FEC1EF00001C66FC6A58DD32F
:1006C000096A660E086E3FEC1EF00001C66F096AEB
:1006D000650E086E3FEC1EF00001C86FC76BC65177
:1006E000C725606F000EC821616F77D3516675D33F
:1006F0008A98000E8AB8010ECB6FCC6B6ED3010EB8
:10070000C96F51041DE18A82000E8AB2010ECB6FBF
:10071000010ECC6F096A4E0E086E3FEC1EF0000110
:10072000C66FC6A55AD3096A680E086E3FEC1EF064
:100730000001C66F096A670E086E3FEC1EF070D1AB
:1007400051664BD38A92000E8AB2010ECB6FD5D779
:10075000010EC96F510426E18A80000E8AB0010E95
:10076000CB6F010ECC6F096A4F0E086E3FEC1EF086
:100770000001C66FC6A531D3096A6A0E086E3FEC48
:100780001EF00001C66F096A690E086E3FEC1EF08C
:100790000001C86FC76BC651C725646F000EC82122
:1007A000656F1BD3516619D38A90000E8AB0010E73
:1007B000CB6FA3D7010EC96F510426E18B8E000EBB
:1007C0008BBE010ECB6F010ECC6F096A500E086E06
:1007D0003FEC1EF00001C66FC6A5FFD2096A6C0E81
:1007E000086E3FEC1EF00001C66F096A6B0E086EC2
:1007F0003FEC1EF00001C86FC76BC651C725666F7E
:10080000000EC821676FE9D25166E7D28B9E000EB9
:100810008BBE010ECB6F71D7010EC96F510426E15B
:100820008B8C000E8BBC010ECB6F010ECC6F096A56
:10083000510E086E3FEC1EF00001C66FC6A5CDD26A
:10084000096A6E0E086E3FEC1EF00001C66F096A61
:100850006D0E086E3FEC1EF00001C86FC76BC651ED
:10086000C725686F000EC821696FB7D25166B5D22F
:100870008B9C000E8BBC010ECB6F3FD7010EC96F56
:10088000510426E18B8A000E8BBA010ECB6F010E4C
:10089000CC6F096A520E086E3FEC1EF00001C66F65
:1008A000C6A59BD2096A700E086E3FEC1EF00001CF
:1008B000C66F096A6F0E086E3FEC1EF00001C86F2C
:1008C000C76BC651C7256A6F000EC8216B6F85D2F2
:1008D000516683D28B9A000E8BBA010ECB6F0DD767
:1008E000010EC96F510426E18B88000E8BB8010EF2
:1008F000CB6F010ECC6F096A530E086E3FEC1EF0F1
:100900000001C66FC6A569D2096A720E086E3FEC77
:100910001EF00001C66F096A710E086E3FEC1EF0F2
:100920000001C86FC76BC651C7256C6F000EC82188
:100930006D6F53D2516651D28B98000E8BB8010E59
:10094000CB6FDBD6CD51020A01E1A6D6010A01E147
:10095000D6D6070A01E1FCD6010A01E12BD7030A2A
:1009600001E15AD7010A8AE00F0ABAE036D2090E2D
:10097000CD652DD1120ECD612AD115D173EC1EF0AB
:1009800065DA59EC1CF06CDA3FEC1EF00001CB6F1D
:1009900051A011D08A98CC6B8A81096A560E086ED4
:1009A0003FEC1EF00001C66F096A550E086E3FEC61
:1009B0001EF05EDA03D08A918A98CC6B51B480D64F
:1009C0000CD273EC1EF042DA59EC1CF049DA3FEC21
:1009D0001EF00001CB6F51A012D08A92CC6B8A839B
:1009E000096A560E086E3FEC1EF00001C66F096AD8
:1009F000550E086E3FEC1EF0000144DA03D08A93D6
:100A00008A92CC6B51A4E9D1096A660E086E3FEC5C
:100A10001EF00001C66F096A650E086E3FEC1EF0FD
:100A20000001C86FC76BC651C725626F000EC82191
:100A3000636FD3D173EC1EF009DA59EC1CF010DAB5
:100A40003FEC1EF00001CB6F51A013D08A90CC6B0D
:100A50008A85096A5A0E086E3FEC1EF00001C66FC7
:100A6000096A590E086E3FEC1EF00001C86F13DAD8
:100A700003D08A958A90CC6B51B47ED6AED173ECFC
:100A80001EF0E4D959EC1CF0EBD93FEC1EF000014C
:100A9000CB6F51A013D08B9ECC6B8A87096A5C0EFA
:100AA000086E3FEC1EF00001C66F096A5B0E086E0F
:100AB0003FEC1EF00001C86FF6D903D08A978B9ED9
:100AC000CC6B51B48BD689D173EC1EF0BFD959ECE5
:100AD0001CF0C6D93FEC1EF00001CB6F51A013D023
:100AE0008B9CCC6B8A89096A5E0E086E3FEC1EF007
:100AF0000001C66F096A5D0E086E3FEC1EF0000132
:100B0000C86FE9D903D08A998B9CCC6B51B498D625
:100B100064D173EC1EF09AD959EC1CF0A1D93FECCA
:100B20001EF00001CB6F51A013D08B9ACC6B8A8B37
:100B3000096A600E086E3FEC1EF00001C66F096A7C
:100B40005F0E086E3FEC1EF00001C86FBCD903D0E9
:100B50008A9B8B9ACC6B51B4A5D63FD173EC1EF017
:100B600075D959EC1CF07CD93FEC1EF00001CB6F1D
:100B700051A013D08B98CC6B8A8D096A620E086ED7
:100B80003FEC1EF00001C66F096A610E086E3FEC73
:100B90001EF00001C86F8FD903D08A9D8B9ECC6B4D
:100BA00051B4B2D61AD1CD510A0A01E1E7D6010AF1
:100BB00001E107D7070A01E13DD7010A01E15FD74B
:100BC000030A82E0010AA5E01F0AC8E006D1110E5F
:100BD000CD65A4D0220ECD61A1D073EC1EF036D924
:100BE00059EC1CF03DD93FEC1EF00001CB6F83D0D7
:100BF000096A560E086E3FEC1EF00001C66F096AC6
:100C0000550E086E3FEC1EF033D9E7D0096A580E36
:100C1000086E3FEC1EF00001C66F096A570E086EA1
:100C20003FEC1EF000012ED9D8D0096A5A0E086E8A
:100C30003FEC1EF00001C66F096A590E086E3FECCA
:100C40001EF00001C86F27D9C8D0096A5C0E086E73
:100C50003FEC1EF00001C66F096A5B0E086E3FECA8
:100C60001EF00001C86F1FD9B8D0096A5E0E086E69
:100C70003FEC1EF00001C66F096A5D0E086E3FEC86
:100C80001EF00001C86F27D9A8D0096A600E086E4F
:100C90003FEC1EF00001C66F096A5F0E086E3FEC64
:100CA0001EF00001C86F0FD998D0096A620E086E55
:100CB0003FEC1EF00001C66F096A610E086E3FEC42
:100CC0001EF00001C86FF7D888D0096A640E086E5C
:100CD0003FEC1EF00001C66F096A630E086E3FEC20
:100CE0001EF00001C86FC76BC651C7257E6F000E8E
:100CF000C8217F6F72D0CD51130A01E179D7060A5E
:100D000085E0020A92E00E0AA0E0020AAEE0060ABE
:100D1000BCE0020ACAE03E0AD8E05FD0210ECD65F1
:100D20003DD0320ECD613AD073EC1EF08FD859EC25
:100D30001CF096D83FEC1EF00001CB6F16D0096A6C
:100D4000740E086E3FEC1EF00001C66F096A730E48
:100D5000086E3FEC1EF00001C86FC76BC651C72577
:100D60006E6F000EC8216F6F38D0CD51230A01E19C
:100D7000A7D4060A01E1D7D4020A01E1FDD40E0A84
:100D800001E12CD5020A01E15BD5060A01E18AD511
:100D9000020A01E1B9D51E0AD2E01FD0310ECD659D
:100DA0000ED0420ECD610BD073EC1EF04FD859EC33
:100DB0001CF056D83FEC1EF00001CB6F0ED0470E52
:100DC000CD650BD0800ECD6108D073EC1EF03ED8FF
:100DD00059EC1CF0B0EC0CF0ECD7C95135E04B0EDF
:100DE000CD25086E096A000E09223FEC1EF00001B5
:100DF000CA6FCC5115E0CAA708D0140EC46F030EF9
:100E0000C56FCD51FE0F9CEC1BF0CAAB1DD0140E6C
:100E1000C46F190EC56FCD51FE0F9CEC1BF014D0A2
:100E2000CAA908D0140EC46F040EC56FCD51FE0FB1
:100E30009CEC1BF0CAAD08D0140EC46F180EC56F21
:100E4000CD51FE0F9CEC1BF0CB511200430E000164
:100E5000CD25086E096A000E092251C00AF0000C67
:100E6000430E0001CD25086E096A000E0922000C10
:100E70000001C86FC76BC651C725706F000EC8212F
:100E8000716F1200C86FC76BC651C725726F000E15
:100E9000C821736F1200C76BC651C725746F000E4F
:100EA000C821756F1200C76BC651C725766F000E3B
:100EB000C821776F1200C76BC651C7257C6F000E23
:100EC000C8217D6F1200C76BC651C7257A6F000E0F
:100ED000C8217B6F1200C76BC651C725786F000E03
:100EE000C821796F12009851971101E1B5D2E4D26F
:100EF0001BEC1CF0E1D2B8EC1CF0DED242EC1DF091
:100F0000DBD273EC1CF0D8D295510F0B020A01E032
:100F1000D3D2905120EE9BF0DF62CED2800E9C6146
:100F200012D09C5147EC1AF00001A96F9CC0A8F0A8
:100F3000030EA46F820EA36FA56BA66B0A0EA76F9C
:100F40002FEC1DF0B9D29C5108EC14F0EDD795515F
:100F50000F0B030A01E0B0D2905120EE9BF0DF624C
:100F6000ABD2800E9C6106D09DC051F09C5111EC1B
:100F700003F0DBD79DC010F09C51BBEC17F0D4D729
:100F8000905120EE9BF0DF6297D2000E2CEC1EF009
:100F900000019D1901E090D2030E2CEC1EF000011F
:100FA0009E1901E089D2050E2CEC1EF000019F195C
:100FB00001E082D2070E2CEC1EF00001A01901E026
:100FC0007BD25350A11901E077D2525020EEA2F00B
:100FD000DF6272D29C51C4EC1DF06ED2000E2CEC7C
:100FE0001EF000019C1973E1010E2CEC1EF00001B3
:100FF0009D196DE1020E2CEC1EF000019E1967E1B7
:10100000030E2CEC1EF000019F1961E18C895FD06A
:10101000040E2CEC1EF000019C1959E1050E2CEC7D
:101020001EF000019D1953E1060E2CEC1EF000018C
:101030009E194DE1070E2CEC1EF000019F1947E1AF
:101040008C8B45D0080E2CEC1EF000019C193FE162
:10105000090E2CEC1EF000019D1939E10A0E2CEC52
:101060001EF000019E1933E10B0E2CEC1EF0000166
:101070009F192DE18C8D2BD00C0E2CEC1EF0000155
:101080009C1925E10D0E2CEC1EF000019D191FE1AD
:101090000E0E2CEC1EF000019E1919E10F0E2CEC27
:1010A0001EF000019F1913E18C8F11D08C6B0FD0B3
:1010B0009B390F0BD06FD16BD151F8E1D0518EE03D
:1010C000010AA6E0030ABEE0010AD6E0EFD78C5180
:1010D000F00BF00A01E0F0D1F9EC1BF0EDD19051EA
:1010E00020EE9BF0DF62E8D1DC6B9CC0DBF09DC0A2
:1010F000DEF0EA6B42D0070E086EEA51E2EC1CF01B
:101100000001D06FD051A90FD96EDA6ADB51EA2500
:10111000D2EC1DF0DF6E070E086E0001EA51E2EC22
:101120001CF0060A0BE0FF0E0001DE25D06FD16B2C
:10113000FF0ED123EA51D019D1111EE1070E086E1E
:101140000001EA51E2EC1CF0060A03E1070E00017F
:1011500009D0070E086E0001EA51E2EC1CF0000114
:10116000D06FD029DD6FDD51810FA36FBCD9DCC0FA
:10117000A8F02FEC1DF0DC2BEA2BDE51EA5D01E339
:101180009BD1B9D7905120EE9BF0DF6295D19CC0E6
:10119000DFF09551FE0F070BE06FE56B16D0E551C0
:1011A0009D0FD96EDA6ADF50CE6FDF51E52577ECFF
:1011B0001DF00001E551A90FD96EDA6ADF51E5256E
:1011C000D2EC1DF0DF6E0001E52BE051E55DE7E3B9
:1011D0008AD9A86BE051810FA36FB2D6905120EE4F
:1011E0009BF0DF6269D19C5147EC1AF00001D06F8F
:1011F000D029516E9C5111EC03F097D6905120EEFE
:101200009BF0DF6259D19C5147EC1AF00001D06F7E
:10121000D005516E9C5111EC03F087D69B5190196B
:1012200003E09B2901E048D1E46B030EA46F880E14
:10123000A36FA56BA66B200EA76FE96B5BD9EB5173
:10124000A80FD96EDA6AE4510F082CEC1EF0DF6E9D
:101250000001E42B100EE46501D004D0EB2B070E47
:10126000EB65EDD7100EE46501D006D02FEC1DF034
:10127000E92B020EE965E2D7EB6BEB51DFEC1DF0D9
:10128000000908E0EB51AB0FD96EDA6AEB51DFECE5
:101290001DF005D0EB51AB0FD96EDA6A000EDF6E90
:1012A000EB2B040EEB65E9D72FEC1DF0050EE46F78
:1012B000030EE96F1FD9EB51A80FD96EDA6AE4511A
:1012C000DFEC1DF0DF6EE42BEB2B070EEB65F3D7A5
:1012D0002FEC1DF0E92B060EE965ECD7EDD090510F
:1012E00020EE9BF0DF62E8D0030EA46F870EA36FA1
:1012F000A56BA66B220EA76FA80E88EC1DF020D65A
:10130000905120EE9BF0DF62D7D0E66B95C0D0F015
:101310000F0ED017040ED05D12E39FC0E7F0E86B0C
:10132000E851E71103E1010EE86FE76B010EE75D9D
:10133000010EE85907E3010EE86F000E02D0E86BDA
:10134000010EE76F52C0D7F053C0D8F0B6D8070EE1
:10135000A46FBFD8E651E75DD06F000EE859D16F9A
:10136000040ED05D000ED15902E3040E02D0E65106
:10137000E75DE16FE151840FA36F9E51E625AB6FEE
:10138000E26B0CD0E251AC0FD96EDA6A9E51E625C1
:10139000E225D2EC1DF0DF6E0001E22BE151E25DAF
:1013A000F1E32FEC1DF0E151E627A82BE651D06FB9
:1013B000D16BE751D05DE851D159CCE3D7C052F0A1
:1013C000D8C053F079D0905120EE9BF0DF6274D0FA
:1013D00052C0D9F053C0DAF070D89EC0E3F014D0F8
:1013E0009E519F08E325D96EDA6ADF50CE6FE35134
:1013F00077EC1DF00001D06F9E51AC08E325D96E4B
:10140000DA6AD0C0DFFFE32B95510F0BD06FD16BA1
:101410009E51D027000ED123FC0ED025D26FFF0E97
:10142000D121D36FE351D46FD56BD551800AD66FDC
:10143000D251D45DD351800AD659D2E3D9C052F0EB
:10144000DAC053F0070EA46F95510F0B800FA36FF6
:1014500040D89EC0ABF074D59951010A01E148D53E
:10146000030A01E148D5040A01E148D50E0A01E169
:1014700048D5010A01E148D5020A01E168D5070A09
:1014800001E17ED51B0A01E113D60F0A01E127D63F
:10149000010A01E177D6040A01E1A0D6030A01E1BD
:1014A000ADD6010A01E1BAD63E0A01E118D7040A15
:1014B00001E126D7030A87E012009D519CC0D0F0BD
:1014C000D16BD0C0D1F0D06BD011526ED151536ED0
:1014D0001200A56BA66B270EA76FA86B9CC0A9F086
:1014E0009DC0AAF01200070EA46FA56BA66B1A0E82
:1014F000A76F1A0CE9C0A8F0010EEB6F010C73EC9A
:101500001EF0096A430E086E000E0A6A59EC1CF0C0
:1015100073EC1EF0096A440E086E000E0A6A59EC5C
:101520001CF073EC1EF0096A4D0E086E980E0A6EE0
:1015300059EC1CF073EC1EF0096A4E0E086E980E02
:101540000A6E59EC1CF073EC1EF0096A4F0E086E1F
:10155000980E0A6E59EC1CF073EC1EF0096A500EDE
:10156000086E980E0A6E59EC1CF073EC1EF0096AB6
:10157000510E086E980E0A6E59EC1CF073EC1EF0BA
:10158000096A520E086E980E0A6E59EC1CF073EC44
:101590001EF0096A530E086E980E0A6E59EC1CF084
:1015A00073EC1EF0096A540E086E980E0A6E59EC20
:1015B0001CF073EC1EF0096A550E086E000E0A6AE4
:1015C00059EC1CF073EC1EF0096A560E086E000E02
:1015D0000A6A59EC1CF073EC1EF0096A570E086E8B
:1015E000000E0A6A59EC1CF073EC1EF0096A580EE2
:1015F000086E000E0A6A59EC1CF073EC1EF0096AC2
:10160000590E086E000E0A6A59EC1CF073EC1EF0BD
:10161000096A5A0E086E000E0A6A59EC1CF073EC47
:101620001EF0096A5B0E086E000E0A6A59EC1CF087
:1016300073EC1EF0096A5C0E086E000E0A6A59EC23
:101640001CF073EC1EF0096A5D0E086E000E0A6A4B
:1016500059EC1CF073EC1EF0096A5E0E086E000E69
:101660000A6A59EC1CF073EC1EF0096A5F0E086EF2
:10167000000E0A6A59EC1CF073EC1EF0096A600E49
:10168000086E000E0A6A59EC1CF073EC1EF0096A31
:10169000610E086E000E0A6A59EC1CF073EC1EF025
:1016A000096A620E086E000E0A6A59EC1CF073ECAF
:1016B0001EF0096A630E086E000E0A6A59EC1CF0EF
:1016C00073EC1EF0096A640E086E000E0A6A59EC8B
:1016D0001CF073EC1EF0096A650E086E000E0A6AB3
:1016E00059EC1CF073EC1EF0096A660E086E000ED1
:1016F0000A6A59EC1CF073EC1EF0096A670E086E5A
:10170000000E0A6A59EC1CF073EC1EF0096A680EB0
:10171000086E000E0A6A59EC1CF073EC1EF0096AA0
:10172000690E086E000E0A6A59EC1CF073EC1EF08C
:10173000096A6A0E086E000E0A6A59EC1CF073EC16
:101740001EF0096A6B0E086E000E0A6A59EC1CF056
:1017500073EC1EF0096A6C0E086E000E0A6A59ECF2
:101760001CF073EC1EF0096A6D0E086E000E0A6A1A
:1017700059EC1CF073EC1EF0096A6E0E086E000E38
:101780000A6A59EC1CF073EC1EF0096A6F0E086EC1
:10179000000E0A6A59EC1CF073EC1EF0096A700E18
:1017A000086E000E0A6A59EC1CF073EC1EF0096A10
:1017B000710E086E000E0A6A59EC1CF073EC1EF0F4
:1017C000096A720E086E000E0A6A59EC1CF073EC7E
:1017D0001EF0096A730E086E000E0A6A59EC1CF0BE
:1017E00073EC1EF0096A740E086E000E0A6A59EC5A
:1017F0001CF073EC1EF0096A750E086E000E0A6A82
:1018000059EC1CF073EC1EF0096A760E086E000E9F
:101810000A6A59EC1CF073EC1EF0096A770E086E28
:10182000000E0A6A59EC1CF073EC1EF0096A780E7F
:10183000086E000E0A6A59EC1CF073EC1EF0096A7F
:10184000790E086E000E0A6A59EC1CF073EC1EF05B
:10185000096A7A0E086E000E0A6A59EC1CF073ECE5
:101860001EF0096A7B0E086E000E0A6A59EC1CF025
:1018700073EC1EF0096A7C0E086E000E0A6A59ECC1
:101880001CF073EC1EF0096A7D0E086E000E0A6AE9
:1018900059EC1CF073EC1EF0096A7E0E086E000E07
:1018A0000A6A59EC1CF073EC1EF0096A7F0E086E90
:1018B000000E0A6A59EC1CF073EC1EF0096A800EE7
:1018C000086E000E0A6A59EC1CF073EC1EF0096AEF
:1018D000810E086E000E0A6A59EC1CF073EC1EF0C3
:1018E000096A820E086E000E0A6A59EC1CF073EC4D
:1018F0001EF0096A830E086E000E0A6A59EC1CF08D
:1019000073EC1EF0096A840E086E000E0A6A59EC28
:101910001CF00E6A0F6A73EC1EF00F500EC00CF034
:101920000D6AD8900C360D36D8900C360D36D890FE
:101930000C360D360C26000E0D228B0E0C24086E74
:10194000000E0D20096E000E0A6A59EC1CF00F2AD9
:10195000070E0F64E0D70E2A060E0E64DBD7060CC6
:1019600036683768386839683A6A3B6A3C6A3D6A63
:10197000436A435072D9440E1224086E000E13209D
:10198000096E3FEC1EF0146E14AE1AD1435065D9A7
:10199000470E1224086E000E1320096E3FEC1EF055
:1019A00068D9450E1924086E000E1A20096E3FEC06
:1019B0001EF034D93FEC1EF0226E020E221622C019
:1019C00023F0246A256A266A170ED8902336243617
:1019D00025362636E82EF9D71C5065D9FF0E2B1078
:1019E000316E2C50326E2D50336E2E50346E43506B
:1019F00034D9480E1224086E000E1320096E3FECF5
:101A00001EF037D9460E1924086E000E1A20096EF2
:101A10003FEC1EF003D93FEC1EF0226E010E2216A1
:101A200022C023F0246A256A266A23C026F0256A8C
:101A3000246A236A1C5037D943502F6E306AD890DD
:101A40002F363036D8902F363036D8902F36303665
:101A5000430E2F24086E000E3020096E3FEC1EF05E
:101A60002B103E6E2C503F6E2D50406E2E50416E0E
:101A7000436608D03EC03AF03FC03BF040C03CF067
:101A800041C03DF0315036163250371633503816BB
:101A900034503916426A42503EC012F03FC013F033
:101AA00040C014F041C015F0E82A05D0D890153296
:101AB000143213321232E82EF9D7010E12164250A8
:101AC0003AC016F03BC017F03CC018F03DC019F00A
:101AD000E82A05D0D8901932183217321632E82E7B
:101AE000F9D71650010B121810E042C012F0FDD8C1
:101AF00001D000D9122EFDD7131C156E141C166EC2
:101B0000176A16BE17061750E6D8422A1F0E4264FF
:101B1000C2D73E503A163F503B1640503C164150FB
:101B20003D16435042E0426A43C012F04350136EE8
:101B3000146AD89013361436D89013361436D890C9
:101B400013361436430E1324086E000E1420096E4B
:101B50003FEC1EF0156E122A02D0D8901532122ECC
:101B6000FCD7010E151643C016F035C017F0162A23
:101B700002D0D8901732162EFCD71750010B15182B
:101B800010E043C012F0B1D801D0B4D8122EFDD766
:101B900013C015F014C016F0000E16BEFF0E176E1F
:101BA0009AD8422A070E4264BFD7435056D8430EF4
:101BB0001224086E000E1320096E3FEC1EF0356EE5
:101BC000432A060E4364D5D6800EEBEC1DF00F01C0
:101BD0000F0E096E1C0E086E36C00AF037C00BF0EF
:101BE00038C00CF039C00DF0010E0E6EABEC16F0E3
:101BF0000D01D4830F010F0E096E040E086E3AC05A
:101C00000AF03BC00BF03CC00CF03DC00DF0010EE3
:101C10000E6EABEC16F0000EEBEF1DF01B6E1BC052
:101C20001CF01D6A1E6A1F6A1DC01FF01CC01EF03A
:101C30001D6A1C6A4350206E216AD89020362136D6
:101C4000D89020362136D89020362136440E2024D4
:101C5000086E000E2120096E1200126E136AD890D1
:101C600012361336D89012361336D89012361336F1
:101C70001200146E14C015F0166A176A186A17C09D
:101C800018F016C017F015C016F0156A4350196EFB
:101C90001A6AD89019361A36D89019361A36D8904A
:101CA00019361A3612002310276E1D502410286E84
:101CB0001E502510296E1F5026102A6E1550271011
:101CC0002B6E165028102C6E175029102D6E1850A0
:101CD0002A102E6E1200186E155036161650371632
:101CE00017503816185039161200010E136E146A68
:101CF000122A1200D890133614361200CE6BD06B15
:101D0000070ED06501D01FD12DD93FEC1EF0000188
:101D1000CF6FCFAF16D1D051020DF350600FD96EF7
:101D2000DA6ADE50DD1028E00FD9DE06000EDD5A3B
:101D30000BD9DE50DD103CE115D93FEC1EF000015F
:101D4000CB6FCBA535D0D0C0CBF0010ECC6FCB2B59
:101D500002D0D890CC37CB2FFCD7CC51516E000E8F
:101D600032EC19F0CFA324D0010EC46F020EC56F60
:101D7000D0519CEC1BF01CD0650ED025086E096A72
:101D8000000E09223FEC1EF00001CC6FCB6B660EFB
:101D9000D025086E096A000E09223FEC1EF00001F2
:101DA000CB27000ECC23D0D8CBC0DEFFCCC0DDFFCC
:101DB000D0C0CBF0010ECC6FCB2B02D0D890CC375B
:101DC000CB2FFCD7CC518A1501E1BBD0C4D8DE5053
:101DD000DD1001E1A5D0BFD8DE06000EDD5ABBD86C
:101DE000DE50DD102EE0ADD08AA802D08A9825D032
:101DF0008A88010ECE6F33D08AA202D08A921DD07B
:101E00008A82F7D78AA002D08A9017D08A80F1D729
:101E10008BAE02D08B9E11D08B8EEBD78BAC02D0C9
:101E20008B9C0BD08B8CE5D78BAA02D08B9A05D0DC
:101E30008B8ADFD78BA803D08B98CE6B10D08B8882
:101E4000D8D7D051D1E0010AD7E0030ADBE0010A7C
:101E5000DFE0070AE3E0010AE7E0030AEBE089D8E4
:101E60003FEC1EF00001CC6FCB6B8CD83FEC1EF02A
:101E70000001CB27000ECC236ED8CBC0DEFFCCC038
:101E8000DDFFCE513AE06ED83FEC1EF00001CB6F83
:101E9000CBA520D0D051020D650EF324086E000EA4
:101EA000F420096E3FEC1EF00001CC6FCB6BD051DB
:101EB000020D660EF324086E000EF420096E3FEC4E
:101EC0001EF00001CB27000ECC233ED8CBC0DEFF96
:101ED000CCC0DDFFCFA707D0140EC46F030EC56FB3
:101EE000D0519CEC1BF0CFAB2CD0140EC46F190E4C
:101EF000C56FD0519CEC1BF024D0CFA907D0140E95
:101F0000C46F040EC56FD0519CEC1BF0CFAD19D03F
:101F1000140EC46F180EC56FD0519CEC1BF011D07D
:101F200031D83FEC1EF00001CB6F23D83FEC1EF000
:101F30000001CD6FCC6BCB51CC25706F000ECD2145
:101F4000716FD02BDDD61200D051020DF350600F0F
:101F5000D96EDA6A1200D051020DF350700FD96EAB
:101F6000DA6A12004D0ED025086E096A000E0922A9
:101F7000000CD051020D550EF324086E000EF42013
:101F8000096E1200D051020D560EF324086E000E99
:101F9000F420096E1200E8CFC9F0CB6BCBC0C6F0BD
:101FA000010EC76FC62B02D0D890C737C62FFCD7FB
:101FB000C751511401E11FD1C9A70CD0780ECB2510
:101FC000086E096A000E09223FEC1EF000019D19FF
:101FD00001E011D14D0ECB25086E096A000E0922D1
:101FE0003FEC1EF00001CA6FCAAF05D1E0D08A886D
:101FF000096A4D0E086E3FEC1EF00001C66FC6A5C3
:10200000E8D0096A660E086E3FEC1EF00001C66F4C
:10201000096A650E086E3FEC1EF00001C86FC76BC1
:10202000C651C725606F000EC821616FD2D08A8269
:10203000096A4E0E086E3FEC1EF00001C66FC6A581
:10204000C8D0096A680E086E3FEC1EF00001C66F2A
:10205000096A670E086E3FEC1EF00001C86FC76B7F
:10206000C651C725626F000EC821636FB2D08A8047
:10207000096A4F0E086E3FEC1EF00001C66FC6A540
:10208000A8D0096A6A0E086E3FEC1EF00001C66F08
:10209000096A690E086E3FEC1EF00001C86FC76B3D
:1020A000C651C725646F000EC821656F92D08B8E14
:1020B000096A500E086E3FEC1EF00001C66FC6A5FF
:1020C00088D0096A6C0E086E3FEC1EF00001C66FE6
:1020D000096A6B0E086E3FEC1EF00001C86FC76BFB
:1020E000C651C725666F000EC821676F72D08B8CF2
:1020F000096A510E086E3FEC1EF00001C66FC6A5BE
:1021000068D0096A6E0E086E3FEC1EF00001C66FC3
:10211000096A6D0E086E3FEC1EF00001C86FC76BB8
:10212000C651C725686F000EC821696F52D08B8ACF
:10213000096A520E086E3FEC1EF00001C66FC6A57C
:1021400048D0096A700E086E3FEC1EF00001C66FA1
:10215000096A6F0E086E3FEC1EF00001C86FC76B76
:10216000C651C7256A6F000EC8216B6F32D08B88AD
:10217000096A530E086E3FEC1EF00001C66FC6A53B
:1021800028D0096A720E086E3FEC1EF00001C66F7F
:10219000096A710E086E3FEC1EF00001C86FC76B34
:1021A000C651C7256C6F000EC8216D6F12D0CB5180
:1021B00001E11DD7010A01E13AD7030A01E157D72E
:1021C000010A01E174D7070A92E0010AB0E0030AAC
:1021D000CEE0CAA707D0140EC46F030EC56FCB5153
:1021E0009CEC1BF0CAAB07D0140EC46F190EC56F60
:1021F000CB519CEC1BF0CB2B070ECB65CFD6070C3D
:1022000000019851971101E102D1DC6B01D98C0ECC
:10221000CC25086E000ECD21096E3FEC1EF00001AA
:10222000DB6FDBAFEFD0DBAD18D0DC51CC6FCD6B0B
:10223000D890CC37CD37D890CC37CD37D890CC3755
:10224000CD378B0ECC25086E000ECD21096E3FECEC
:102250001EF000019A1901E0D5D0DBA90BD09C2912
:1022600009E0096A430E086E3FEC1EF000019C195C
:1022700001E0C8D0DBA70BD09D2909E0096A440E14
:10228000086E3FEC1EF000019D1901E0BBD0DC514F
:10229000080D8E0EF324086E000EF420096E3FEC3C
:1022A0001EF00001CC6FDB51010BCE6FCD6BCC511A
:1022B000CD25CF6F000ECE21D06FDC51080D8D0ED5
:1022C000F324086E000EF420096E3FEC1EF00001AE
:1022D000CC6FDB51020BCE6FCD6BCC51CD25D16FC6
:1022E000000ECE21D26F94D8900ECC25086E000E31
:1022F000CD21096E3FEC1EF00001D36F89D88F0EFF
:10230000CC25086E000ECD21096E3FEC1EF00001B9
:10231000D46F20EE97F0DECFCCF0DDCFCDF0CF51F3
:10232000CC1BD051CD1BD151CC17D251CD17CD5193
:10233000CC1168E19951D319D4154FE063D0000155
:1023400067D873D83FEC1EF00001D56FD5C051F0AF
:10235000DB51CBEC0FF056D000015AD866D83FECD9
:102360001EF00001D66FD6C051F0DB5132EC19F0EF
:1023700049D000014DD859D83FEC1EF00001D76F6D
:10238000D7C00AF0DB5120EC13F03CD0000140D85C
:102390004CD83FEC1EF00001D86FD8C051F0DB5193
:1023A00035EC17F02FD0000133D83FD83FEC1EF0AA
:1023B0000001D96FD9C00CF0DB5164EC1BF022D0C6
:1023C000000126D832D83FEC1EF00001DA6FDAC0E7
:1023D00051F0DB518CEC15F015D01AD8910ECC25AC
:1023E000086E000ECD21096E3FEC1EF0010AA7E039
:1023F000030AB2E0010ABDE0070AE2E00E0AC6E005
:102400001A0AD1E00001DC2B060EDC65FFD61200B3
:10241000DC51CC6FCD6BD890CC37CD37D890CC3742
:10242000CD37D890CC37CD371200920ECC25086E20
:10243000000ECD21096E1200E8CF14F0546A7750D7
:10244000C00B166E166632D060AE12D0A49074AE79
:1024500006D01150D96EDA6A000EDB86749E60A039
:1024600002D0548001D054900F0E196E600E1AD015
:102470000F0150AF19D0A49274AC06D01150D96E90
:10248000DA6A000EDB86749C5051070B546E020E04
:10249000546005D01150D96EDA6A000EDB8E0F0E33
:1024A000196E500E186E65D0000EC2D01650400A3C
:1024B00046E160AE04D00F0E196E600E3ED00F01E3
:1024C00050AF04D00F0E196E500E37D00D01F8B575
:1024D00007D00E0120AF04D00E0E196E200E2DD0A5
:1024E0000D01F8B707D00E0130AF04D00E0E196EF3
:1024F000300E23D00D01F8B907D00E0140AF04D043
:102500000E0E196E400E19D00D01F8BB05D00E014C
:1025100050AF02D00E0ED7D70D01F8BD05D00E0179
:1025200060AF02D00E0EC8D70D01F8BFBDD70E01A7
:1025300070AFBAD70E0E196E700E186E0AD074AE48
:10254000B3D76F50070B29EC1BF008C018F009C077
:1025500019F018C0D9FF19C0DAFFDF501F0B546EF5
:10256000A49274AC06D01150D96EDA6A000EDB86E4
:10257000749C18C012F019C013F01150D96EDA6AA9
:10258000DF6A20EE05F055D81050D96EDA6A175080
:102590000F0BDF6E17AC05D01150D96EDA6A000E42
:1025A000DB8C20EE02F045D817A608D01150D96E6A
:1025B000DA6A000EDB8A010E176E01D0176A18283E
:1025C000086E000E1920096E14C00AF017C00BF037
:1025D0001CEC16F0060E1826000E19221050D96EAB
:1025E000DA6ADF50176E156A0DD018C0D9FF19C00E
:1025F000DAFF0F50E16EE26ADFCFE7FF184A192ACF
:102600000F2A152A1750155CF0E3A4AE06D011501E
:10261000D96EDA6A000EDB88A49E12C0D9FF13C0FF
:10262000DAFF7F0EDF161650800AD8B4749E010EB2
:1026300012001850D9261950DA22DF50176E1200F6
:10264000E8CF0EF0106A10C00BF0010E0C6E0B2AD2
:1026500002D0D8900C360B2EFCD70C500A1401E196
:10266000D2D00EA60CD0780E1024086E096A000E87
:1026700009223FEC1EF000019D1901E0C4D04D0E6F
:102680001024086E096A000E09223FEC1EF00F6E3E
:102690000FAEB9D0A8D08A9800018A81096A560E77
:1026A000086E3FEC1EF00B6E096A550E086E3FEC8B
:1026B0001EF00D6E0C6A0B500C240001706F000EA2
:1026C0000D20716FA0D08A9200018A83096A580E8A
:1026D000086E3FEC1EF00B6E096A570E086E3FEC59
:1026E0001EF00D6E0C6A0B500C240001726F000E70
:1026F0000D20736F88D08A9000018A85096A5A0E6E
:10270000086E3FEC1EF00B6E096A590E086E3FEC26
:102710001EF00D6E0C6A0B500C240001746F000E3D
:102720000D20756F70D08B9E00018A87096A5C0E40
:10273000086E3FEC1EF00B6E096A5B0E086E3FECF4
:102740001EF00D6E0C6A0B500C240001766F000E0B
:102750000D20776F58D08B9C00018A89096A5E0E24
:10276000086E3FEC1EF00B6E096A5D0E086E3FECC2
:102770001EF00D6E0C6A0B500C240001786F000ED9
:102780000D20796F40D08B9A00018A8B096A600E08
:10279000086E3FEC1EF00B6E096A5F0E086E3FEC90
:1027A0001EF00D6E0C6A0B500C2400017A6F000EA7
:1027B0000D207B6F28D08B9800018A8D096A620EEC
:1027C000086E3FEC1EF00B6E096A610E086E3FEC5E
:1027D0001EF00D6E0C6A0B500C2400017C6F000E75
:1027E0000D207D6F10D0105001E155D7010A01E195
:1027F0006AD7030A80E0010A96E0070AACE0010A02
:10280000C2E0030AD8E0102A070E10641CD7070C98
:10281000E8CF1CF01B6A1C50800A04E155C01BF075
:10282000556AB3D01C50810A02E1010E75D01C50CC
:10283000820A02E1050E70D01C50830A02E11B6A75
:10284000A4D01C50940A03E17EEC1EF065D01C500D
:10285000950A03E17DEC1EF05FD01C50960A03E15F
:102860007CEC1EF059D0890E1C6005D01C507C0FEA
:1028700022EC1EF051D0880E1C6408D0910E1C6012
:1028800005D01C50770F18EC1EF046D01C50910A52
:1028900003E190C01BF079D01C50930A03E152C0B1
:1028A0001BF073D01C50920A02E1535035D01C50DB
:1028B000970A03E17BEC1EF02FD01C50980A03E12D
:1028C0007AEC1EF029D01C50990A03E179EC1EF035
:1028D00023D0990E1C6422D09E0E1C601FD060EC89
:1028E0001EF00BC014F00AC013F009C012F008C0AB
:1028F00011F01C50660F196E195049D811C00DF017
:1029000012C00EF013C00FF014C010F0E82A01D06E
:1029100048D8E82EFDD724D01B6E37D09D0E1C64FE
:1029200021D0A20E1C601ED05BEC1EF00BC018F074
:102930000AC017F009C016F008C015F01C50620F4D
:102940001A6E1A5024D815C00DF016C00EF017C01C
:102950000FF018C010F0E82A01D023D8E82EFDD7D8
:102960000D50DAD7CF0E1C6408D0E00E1C6005D0E5
:102970001C50300F2CEC1EF0CFD7DF0E1C6405D09E
:102980001C50200FDFEC1DF0C7D71B5012000308AE
:102990000C6ED8900C36D8900C36D8900C360C5063
:1029A0001200D89010320F320E320D3212000F0E7C
:1029B0001C6E400E1B6E0F0E1E6E300E1D6E0F0E27
:1029C000206E200E1F6E0E0E226E200E216E0E0E39
:1029D000246E300E236E0E0E266E400E256E0E0EE9
:1029E000286E500E276E0E0E2A6E600E296E0E0E89
:1029F0002C6E700E2B6E7750C00B2D6E2D6602D094
:102A0000020E01D0080E2E6E0D01D890F831306EF6
:102A1000346A7DD03450020DF3501B0FD96EDA6A40
:102A2000DECF35F0DDCF36F035C031F036C032F0D4
:102A3000020E346404D0D890303230A067D035C054
:102A4000D9FF36C0DAFFDF501A6E1AB65FD035C034
:102A5000D9FF36C0DAFFFC0EDF1619C01AF0030EDC
:102A60001A1635C0D9FF36C0DAFF1A50DF1219AC7A
:102A700004D018504009336E02D018C033F020EE55
:102A800005F03550D9263650DA2233C0DFFF19AAB7
:102A900003D0010E336E01D0336A3528086E000E64
:102AA0003620096E12C00AF013C00BF014C00CF0EF
:102AB00015C00DF033C00EF0ABEC16F0060E352647
:102AC000000E36222F6A0FD016C0D9FF17C0DAFFCA
:102AD00035C0E1FF36C0E2FFDFCFE7FF164A172A15
:102AE000354A362A2F2A18502F5CEEE331C0D9FF21
:102AF00032C0DAFFDF501A6E1AB406D031C0D9FFE7
:102B000032C0DAFF000EDB86010E05D0342A2E50CB
:102B1000345C80E3000E1200E8CFC8F0CA6BCB6BC8
:102B2000CBC0C6F0010EC76FC62B02D0D890C737F6
:102B3000C62FFCD7C75151147AE0C8A70BD0780E26
:102B4000CB25086E096A000E09223FEC1EF0000139
:102B50009D196DE14D0ECB25086E096A000E092204
:102B60003FEC1EF00001C96F2DD08AA802D08A98D0
:102B700025D08A88010ECA6F33D08AA202D08A92E9
:102B80001DD08A82F7D78AA002D08A9017D08A8077
:102B9000F1D78BAE02D08B9E11D08B8EEBD78BAC46
:102BA00002D08B9C0BD08B8CE5D78BAA02D08B9A52
:102BB00005D08B8ADFD78BA803D08B98CA6B10D037
:102BC0008B88D8D7CB51D1E0010AD7E0030ADBE0EC
:102BD000010ADFE0070AE3E0010AE7E0030AEBE0AD
:102BE000CA5113E0C9A707D0140EC46F030EC56FF6
:102BF000CB519CEC1BF0C9AB1AD0140EC46F190E4C
:102C0000C56FCB519CEC1BF012D0C9A907D0140E94
:102C1000C46F040EC56FCB519CEC1BF0C9AD07D03F
:102C2000140EC46F180EC56FCB519CEC1BF0CB2B50
:102C3000070ECB6575D7070C0AC00EF00B662BD0BC
:102C40000E50D96E62D80C36D8900C36D8900C3411
:102C5000DF6E0E50D96EDA6AD92ADA6A73D8D89044
:102C60000C320D2EFCD70C5059D8050E0D6ED89095
:102C70000C320D2EFCD70E50D96EDA6A0C50DF12D2
:102C80003DD8DF6A0E50D96EDA6A030ED926DA6AA9
:102C9000000EDF6E32D032D855D8D8900C360D2EBB
:102CA000FCD70C50DF6E0E50D96EDA6A030ED926AF
:102CB0002CD80C32D8900C32D8900C302FD8030E70
:102CC0000C161CD80C50DF1208C0D9FF09C0DAFF5F
:102CD000DF500C6ED8900C32D8900C32D8900C3259
:102CE0001C0E0C160BD80C50DF1222D8E12AE26A17
:102CF000DFCFE7FF1DD8DFCFE7FF12000E50D96E00
:102D0000DA6A020ED926DA6A1200DA6A08C0E1FF2E
:102D100009C0E2FFE7500C6ED8901200DF6E084A3F
:102D2000092A08C0D9FF09C0DAFFDF500C6E120073
:102D3000084A092A08C0D9FF09C0DAFF0E50E16E1F
:102D4000E26A120008C0E1FF09C0E2FFE7500C6E22
:102D5000050E0D6E050C0A0E116E0E6622D0115076
:102D6000D96EDA6ADF500F6ED8900F32D8900F32DA
:102D7000D8900F3062D8D92ADA6A72D8D8900F3634
:102D8000102EFCD708C0D9FF46D86AD8D8900F3685
:102D9000102EFCD70F5008C0D9FF09C0DAFFDF6E34
:102DA00039D0115042D8050E106ED8900F32102E27
:102DB000FCD70F5042D8030E49D80F3608C0D9FFB0
:102DC0002AD8020E43D80F34E00B08C0D9FF09C03F
:102DD000DAFFDF6E08C0D9FF09C0DAFF000EDB861C
:102DE000115023D8030E0F1608C0D9FF14D8D92AC2
:102DF000DA6A08C0E1FF09C0E2FFDFCFE7FF084A57
:102E0000092A1150D96EDA6A08C0E1FF09C0E2FF51
:102E1000DFCFE7FF120009C0DAFF0F50DF12084AC8
:102E2000092A1150D96EDA6A1200D96EDA6A020ED6
:102E3000D926DA6ADF500F6E120008C0D9FF09C028
:102E4000DAFFDF6E1150D96EDA6A1200D926DA6A1B
:102E5000DF500F6ED8900F36D8900F36D8901200F2
:102E6000DF500F6E050E106E050CE8CFC8F0C96B71
:102E7000CB6BCBC0C6F0010EC76FC62B02D0D8906B
:102E8000C737C62FFCD7C751511470E0C8A70BD065
:102E9000780ECB25086E096A000E09223FEC1EF061
:102EA00000019D1963E14D0ECB25086E096A000EE5
:102EB00009223FEC1EF00001CA6F23D0000E8AB831
:102EC000010EC96F2CD0000E8AB2010EC96F27D037
:102ED000000E8AB0010EC96F22D0000E8BBE010E0B
:102EE000C96F1DD0000E8BBC010EC96F18D0000E2B
:102EF0008BBA010EC96F13D0000E8BB8010EC96FCB
:102F00000ED0CB51DBE0010ADEE0030AE1E0010A6A
:102F1000E4E0070AE7E0010AEAE0030AEDE0C9514C
:102F200013E0CAA907D0140EC46F040EC56FCB51AD
:102F30009CEC1BF0CAAD1AD0140EC46F180EC56FEE
:102F4000CB519CEC1BF012D0CAA907D0140EC46F51
:102F5000040EC56FCB519CEC1BF0CAAD07D0140E0C
:102F6000C46F180EC56FCB519CEC1BF0CB2B070E1A
:102F7000CB657FD7070CE8CF16F0101C156E830EBB
:102F800016640ED0890E16600BD010C00CF01650CF
:102F90007C0FB6EC1DF016507C0F22EC1EF069D0B1
:102FA0001650920A0DE11050126E116A5250136EB3
:102FB000146A1110526E12501410536E535059D09F
:102FC0001650930A0BE1116A5350126E10501110F3
:102FD000526E1250536E52C015F04ED0880E1664C9
:102FE00019D0910E166016D053C011F011C012F016
:102FF000136A122802E1522802E0101C3AD010C0D5
:103000000CF01650770F09EC1DF01650770F18ECE6
:103010001EF02FD0CF0E166417D0E00E166014D01D
:1030200053C011F011C012F0136A1228E6E15228C1
:10303000E4E110C00CF01650300F1CEC1DF01650DF
:10304000300F2CEC1EF015D01650A20AD6E110500D
:10305000550A04E1846B856B550E0BD01050AA0AFB
:103060000BE1E80E845D030E855905E26FEC1EF05E
:10307000AA0E156E01D0156A155012000001806B62
:10308000816B826B836B8B6B896B886B8A6B0C6A31
:103090000C50020DF350700FD96EDA6ADE6ADD6AE9
:1030A0000C50020DF350600FD96EDA6ADE6ADD6AE9
:1030B0000C2A070E0C64ECD70C6A4D0E0C24086E1B
:1030C000096A000E09223FEC1EF00A6E0AA027D002
:1030D0000CC00AF0010E0B6E0A2A02D0D8900B36F3
:1030E0000A2EFCD70B5000018A13550E0C24086ED3
:1030F000096A000E09223FEC1EF00B6E0A6A560E9A
:103100000C24086E096A000E09223FEC1EF031D82B
:10311000700FD96EDA6A0AC0DEFF0BC0DDFF520EF7
:103120000C24086E096A000E09223FEC1EF00A6E9C
:103130000AA41AD06F0E0C24086E096A000E092228
:103140003FEC1EF00B6E0A6A700E0C24086E096AC2
:10315000000E09223FEC1EF00CD8600FD96EDA6A1F
:103160000AC0DEFF0BC0DDFF0C2A060E0C64A5D7DB
:10317000060C0A26000E0B220C50020DF350000123
:1031800012003AEC1CF054EC1DF0000904E17FEC55
:103190000AF03EEC18F0F9EC1BF00400FA0E000106
:1031A0008E650ED091050CE0906973EC1EF0096AF3
:1031B000010E086EFF0E0A6859EC1CF0F9EC1BF0CA
:1031C000956BCDEC1CF01CD0902903E1010E916FA2
:1031D00023D0030E916F98EC1DF01ED08FEC19F0E8
:1031E0001BD095AF19D098519711D8B473EC07F054
:1031F00000EC11F011D076EC1EF00ED0916B0CD0DB
:1032000000019151E1E0010AE9E0030AE4E0010A6A
:10321000E8E0070AF0E0F2D7E90E0001805D030E56
:103220008159000E8259000E83590BE3806B816B2C
:10323000826B836BD2EC1BF09151030AD8B47EEC05
:103240000EF03B0E8B650BD08B6B892B3B0E89658B
:1032500002D0896B882B170E886501D0886B78ECBB
:103260001EF09BD7E8CFC8F0CA6BCAC0C6F0010EEB
:10327000C76FC62B02D0D890C737C62FFCD7C7510F
:10328000511448E0C8A70BD0780ECA25086E096A09
:10329000000E09223FEC1EF000019D193BE14D0E8E
:1032A000CA25086E096A000E09223FEC1EF00001D3
:1032B000C96FC9AF2FD00ED08A981AD08A9218D071
:1032C0008A9016D08B9E14D08B9C12D08B9A10D0E3
:1032D0008B980ED0CA51F0E0010AF0E0030AF0E04A
:1032E000010AF0E0070AF0E0010AF0E0030AF0E06A
:1032F000C9A907D0140EC46F040EC56FCA519CEC47
:103300001BF0C9AD07D0140EC46F180EC56FCA519B
:103310009CEC1BF0CA2B070ECA65A7D7070C53D02D
:10332000572810E0810EA36FA46BA56BA66B020E4D
:10333000A76F57C0A8F02FEC1DF0010E926F866B9F
:10334000876B48D0040E916F810EA36FA869070E9A
:10335000A46FA56BA66B030EA76F2FEC1DF03AD0E0
:1033600095AF0FD09851971135E19951030A32E189
:10337000576603D0020E916FE2D7572A926B936B78
:1033800029D0E90E865D030E875924E3932B020EA4
:10339000936517D0576605D0572A926B866B876B5B
:1033A000EED757C090F0030E916F926B90510DECD9
:1033B0001EF0400E02EC1EF00001936B98EC1DF025
:1033C00009D0926B07D000019251AAE0010AC8E02F
:1033D000030AF7E1956B120041C0B0F0B16BB26B1C
:1033E000B36BB2C0B3F0B1C0B2F0B0C0B1F0B06B6B
:1033F0003F50B46F4050B56FB66BB76BB5C0B7F008
:10340000B4C0B6F0B56BB46B43C0B8F0B96BBA6B6F
:10341000BB6B1A0ED890B837B937BA37BB37E82E1E
:10342000F9D7B451B811BC6FB551B911BD6FB651D0
:10343000BA11BE6FB751BB11BF6FB051BC11C06F95
:10344000B151BD11C16FB251BE11C26FB351BF11A5
:10345000C36F4250C011476EC151486EC251496E90
:10346000C3514A6E47C037F048C038F049C039F000
:103470004AC03AF044C03BF045C03CF046C03DF085
:103480008BEC1CF00009000ED8A4010E1200E8CF4E
:103490000BF00A6A0B6606D0096A430E086E3FEC11
:1034A0001EF04DD00B0406E1096A440E086E3FEC95
:1034B0001EF045D0010E0B6434D00A0E0B6031D0E3
:1034C0001ED0000E8AB8010E3AD0000E8AB2010E4C
:1034D00036D0000E8AB0010E32D0000E8BBE010E27
:1034E0002ED0000E8BBC010E2AD0000E8BBA010E1E
:1034F00026D0000E8BB8010E22D00A6A21D00B50C4
:10350000020ADFE0010AE1E0070AE3E0010AE5E080
:10351000030AE7E0010AE9E00F0AEBE0010AEDE047
:103520000FD0090E0B640CD0800E0B6009D0430E37
:103530000B24086E096A000E09223FEC1EF00A6E89
:103540000A501200800EEBEC1DF0090E706EFC0E9E
:10355000716E010E726E200E736E778E779C606AAC
:103560000F01506B0E01206B306B406B506B606B2A
:10357000706BE00E0D01F86F0F01006B080E016F0C
:10358000026B036B046BE80E056F1A0E066F076B78
:10359000030E0D01D46FD56BE06B110EE16FE26F7E
:1035A000E36BE46BE56BE66BE76B540EF06F050EB7
:1035B000F16FF26BF26B0F0E0F01186FE00E196FC7
:1035C0001A6B1B6B19870F0E1C6FE00E1D6F1E69A7
:1035D0001F6B1D87000EEBEF1DF0E8CF27F021C019
:1035E0001AF022C01BF0280EA2EC1CF0000902E128
:1035F000000E2ED01F50D96EDA6A28C0DFFF1E5091
:10360000D96EDA6A29C0DFFF2A50236E010E2B140F
:10361000246E2750D96EDA6A23C0DEFF24C0DDFF96
:103620002050D96EDA6A28C023F029C024F02AC0BD
:1036300025F02BC026F01B0E05D0D890263225325F
:1036400024322332E82EF9D72350070BDF6E010E08
:103650001200E8CF0BF024D00F0E0D6E600E1ED0BE
:103660000F010F0E0D6E500E19D00E010E0E0D6EC5
:10367000200E14D00E010E0E0D6E300E0FD00E0166
:103680000E0E0D6E400E0AD00E010E0EEBD70E017F
:103690000E0EE3D70E010E0E0D6E700E0C6E0FD0D7
:1036A0000B50DAE0010ADCE0030ADFE0010AE2E0A5
:1036B000070AE5E0010AE8E0030AE9E0EBD70CC0FD
:1036C00008F00DC009F01200E8CF0FF0116A11C028
:1036D0000DF0010E0E6E0D2A02D0D8900E360D2E72
:1036E000FCD70E500C1423E00FA60BD0780E11243B
:1036F000086E096A000E09223FEC1EF000019D19B8
:1037000016E14D0E1124086E096A000E09223FECE5
:103710001EF0106E73EC1EF04D0E1124086E096A37
:10372000000E092210507F0B0A6E59EC1CF0112A72
:10373000070E1164CCD7070CE8CF50F050C04DF005
:10374000D89050344B6E4C6A4C36750E4B24086E34
:10375000000E4C20096E3FEC1EF04E6ED890503497
:103760004B6E4C6A4C36760E4B24086E000E4C2085
:10377000096E3FEC1EF04F6E0001C4C03FF0406A7E
:10378000C5C041F090C042F0030E436E446E4D0E32
:10379000456E000E466E0F0E466E5F0E4564466A1D
:1037A000ECEF19F0942B3B0E94650DD0946B8F2B9E
:1037B0009151030A08E151EC1EF00001C46F56EC70
:1037C0001EF0F6EC1CF03B0E8F6502D08F6B8D2B3C
:1037D000170E8D6501D08D6B9151030A09E18C2B79
:1037E0008CC04DF00F0E4D16020E4D5CD8B08C6B98
:1037F0001200020E566E65EC1EF00001906F90678D
:1038000001D09069956B966B976B986B996BA36BD6
:10381000A46BA56BA66BA76B556A576A916B926BED
:10382000936B526A536A866B876B846B856B946B60
:103830008F6B8D6B12006AEC1EF0000916E100011F
:1038400095510F0B050A15E16AEC1EF000019B195A
:1038500010E09B5102EC1EF000019069FF0E0DEC90
:103860001EF0010E0001916F04D000019B5102EC8B
:103870001EF012003EEC18F0926A806A080E936EF9
:10388000816A010E946E826A920EA7EC1DF0FB0E07
:10389000096E1D0E086E36EC1EF08A988A928A9088
:1038A0008B9E8B9C8B9A8B98A2EC1AF0F28CF28EEA
:1038B000120008C0A9FF0AC0A8FFA69EA69CA68465
:1038C000000EF2BE010E0B6EF29E550EA76EAA0EF2
:1038D000A76EA682A6B2FED70BB002D0F29E01D090
:1038E000F28EA694120095510F0B0D6E0D5012E042
:1038F000905120EE9BF0DF620DD00D0405E0010E2B
:103900000D6408D09C6706D09069FF0E0DEC1EF088
:10391000F9EC1BF0120037C012F038C013F039C0B8
:1039200014F03AC015F03CC016F03DC017F03BC093
:1039300018F0200E196ED7EC14F00009ECE000012D
:10394000A36B010CE8CF1CF095AF02D0000E0FD096
:103950001BC00FF01AC010F01D0E116E1C501CEC95
:1039600012F00009F3E01DAC1DAAF0D7010E120001
:1039700095C04CF00F0E4C164C040EE1905120EE09
:103980009BF0DF6209D0800EA36FA46BA56BA66BC2
:10399000030EA76F2FEC1DF0120095BF12D0990EE9
:1039A0001E6E9A0E1F6E960E206E950E216E9B0E49
:1039B000226E970EEDEC1AF02C6E2C5002E00001F6
:1039C000958F1200E8CF09F0080E0A6E0B6AD890A6
:1039D00009340B340B6ED890093608500B5C02E3A7
:1039E00008500B5E0A2EF3D70B501200E8CF4CF0B4
:1039F000830E0001A36F070EA46FA66B140EA56FB4
:103A0000090EA76FA86B4CC0A9F0C4C0AAF02FEF95
:103A10001DF0E8CF0DF0070E0D6401D00CD073EC53
:103A20001EF00B0E0D24086E096A000E09220CC050
:103A30000AF059EC1CF01200E8CF0DF00F0E0D64E7
:103A400001D00CD073EC1EF0130E0D24086E096A21
:103A5000000E09220CC00AF059EC1CF01200A5C09F
:103A60003FF0A6C040F0A7C041F090C042F0A4C013
:103A700043F0A3510F0B446E000E466EA80E456E28
:103A8000ECEF19F095510F0B020A0DE1905120EE69
:103A90009BF0DF6208D09CC090F090510DEC1EF0BE
:103AA000400E02EC1EF012006AEC1EF0C00B400A41
:103AB00002E1010E0AD0FF0E0DEC1EF0000E02EC2A
:103AC0001EF0A00EF7EC1DF0000E120000EE60F0EC
:103AD000500EEE6AE806FDE100EE52F0070EEE6AC7
:103AE000E806FDE1000EF86E0001C1EF18F0E8CF26
:103AF000CFF07F0ECF6506D0CEC010F0CF51BBEC1B
:103B000017F005D0CEC051F0CF5111EC03F01200E8
:103B1000070EA86F480EA96F020E086E0850A80F76
:103B2000D96EDA6ADF6A082A070E0864F7D7070C2D
:103B3000810E0001A36FA46BA56BA66B020EA76F8D
:103B400090C0A8F02FEC1DF0010E566E010CE8CFCE
:103B500008F008507F0BD56ED76AD66AF29408AE8B
:103B600002D0F28A01D0F29AD58E1200E8CF0DF081
:103B700073EC1EF0060E0D24086E096A000E092271
:103B80000CC00AF059EF1CF0E8CF0CF00C0409E16E
:103B900073EC1EF0096A086AFF0E0A6859EC1CF003
:103BA000FF001200E8CF1DF07F0E1D6404D01D50F1
:103BB00008EC14F003D01D5047EC1AF01200E8CFC7
:103BC00009F00950000F086E08C0F6FF060EF76EE8
:103BD0000800F5501200E8CF08F01F0E6F160850CD
:103BE0006F126F50E00B0818D8B41200FAD7E8CF64
:103BF0000CF073EC1EF0096A030E086E0CC00AF09C
:103C000059EF1CF0E8CF0CF073EC1EF0096A020EBD
:103C1000086E0CC00AF059EF1CF0E8CF0CF073EC02
:103C20001EF0096A010E086E0CC00AF059EF1CF074
:103C3000E8CF0AF00B0E0A24086E096A000E09226A
:103C40003FEF1EF0E8CF0AF0060E0A24086E096A5C
:103C5000000E09223FEF1EF0E8CF0AF0130E0A24EF
:103C6000086E096A000E09223FEF1EF008C00AF034
:103C700009C00BF00BC0D7FF0AC0D6FF120008C066
:103C8000A9FFA69CA69EA68000F000F0A8501200F6
:103C900001C003F002C004F004C0D7FF03C0D6FF88
:103CA0001200096A440E086E3FEF1EF0096A430EC7
:103CB000086E3FEF1EF0086A096A0A6A0B6A120072
:103CC000086A096A0A6A0B6A1200096A010E086E1C
:103CD0003FEF1EF0096A020E086E3FEF1EF07FEC08
:103CE0000AF03EEF18F0A6A21200FDD7566A1200A5
:0E3CF0001200010C080C010C000C010C010C60
:020000040020DA
:08000000FFFFFFFFFFFFFFFF00
:020000040030CA
:0E000000FF061C1EFF8281FF0FC00FE00F40A5
:00000001FF
