:020000040000FA
:06000000E2EF3CF01200EB
:060008001CEF02F01200E3
:06042A000100027A00004F
:08043000B800000021000000EB
:08043800F2A43AD01D0EE66E9D
:10044000FB0EE66E9AEC3CF0E552E5520001832B80
:10045000000E84230001A62BA723A823A923AA2BDF
:10046000AB23AC23AD2382B003D00001852B02D097
:100470000001856B0001862B020E0001825D0BE1FD
:1004800000018651640807E282A202D0829201D064
:100490008282866B0CD00001820504E18282000119
:1004A000866B05D0825103E182920001866BF29443
:1004B0009EAC4AD03C0EC214200A3AE0040A2FE057
:1004C000240A24E0040A19E00C0A0EE0200A03E0E2
:1004D000290EC26E36D0C4CF99F0C3CF9AF0090E60
:1004E000C26E0001A5812DD0C4CF9BF0C3CF9CF07C
:1004F000050EC26E0001A58324D0C4CF9DF0C3CFEA
:100500009EF0010EC26E0001A5851BD0C4CF9FF0E6
:10051000C3CFA0F0250EC26E0001A58712D0C4CFB4
:10052000A1F0C3CFA2F0210EC26E0001A58909D0AF
:10053000C4CFA3F0C3CFA4F0290EC26E0001A58BD7
:1005400000D0FEEC3CF09E9C00D01200D9CFE6FF1C
:10055000E1CFD9FFE6529CEC0CF064EC23F00009EB
:1005600002E10EEC0DF042EC23F004000001855195
:10057000006E016A013404E20050FA08000E0154D2
:1005800010E2000163050DE000016069E668010EFC
:10059000E66EE66AECEC3BF0E552E552E55242ECE1
:1005A00023F00001666B17EC2AF000016351040A86
:1005B00035E0070A1BE0010A16E0030A11E0010A10
:1005C00001E02FD0FF0E0001605D04E10001010E8B
:1005D000636F05D00001030E636F10EC24F024D08C
:1005E0007EEC23F021D010EC24F01ED0000166AF89
:1005F00014D000016851691103E1E6EC25F00DD03B
:100600001E0E0001681902E1000E691906E11A0EBA
:1006100000016A5D02E162EC11F006D07BEC23F090
:1006200003D00001636B00D0D880E80E0001A6550E
:10063000030EA755000EA855000EA95523E2000190
:10064000A66BA76BA86BA96B19EC0AF00001AE2B87
:10065000030E0001635D0DE1DF6A060EDF5C09E257
:10066000DF50EA6AAF0FE96E000EEA22EF2ADF2AB6
:10067000F4D70001AE513C0802E20001AE6B92ECEF
:1006800024F006D872D7E552E552E7CFD9FF120021
:10069000D9CFE6FFE1CFD9FF160EE126010EDB6AC6
:1006A000060EF36E010EDBCFF4FFF350F45C02E3B1
:1006B0007AEF07F0010EF36EDB5004E0D890F336CA
:1006C000E806FCE1F3500001A51502E176EF07F022
:1006D000010EDB50E8244F0FE66EE66A12EC3CF0A8
:1006E000E552E552026E036A02C003F0026A02C0DC
:1006F000E6FF03C0E6FF010EDB50E824500FE66E74
:10070000E66A12EC3CF0E552E552E552E7CF03F021
:10071000E552E7CF02F000010224006E000E032034
:10072000016E020E00C0DBFF030E01C0DBFF006A9A
:10073000400E016E1C0E026E460E036E00C0E6FFF8
:1007400001C0E6FF02C0E6FF03C0E6FF020EDBCFFA
:1007500028F0030EDBCF29F0F3EC32F027C00CF0C9
:1007600028C00DF029C00EF02AC00FF0330E2C6EF9
:10077000130E2D6E950E2E6EC30E2F6E0CC027F02D
:100780000DC028F00EC029F00FC02AF09FEC33F006
:1007900027C008F028C009F029C00AF02AC00BF0D1
:1007A00008C0E6FF09C0E6FF0AC0E6FF0BC0E6FF8F
:1007B00010EC30F0E552E552E552E552E552E7CF54
:1007C00003F0E552E7CF02F0E552E7CF01F0E55242
:1007D000E7CF00F026C004F027C005F028C006F0DF
:1007E00029C007F004C02CF005C02DF006C02EF083
:1007F00007C02FF000C027F001C028F002C029F088
:1008000003C02AF0F2EC33F0080E27C0DBFF090E1C
:1008100028C0DBFF0A0E29C0DBFF0B0E2AC0DBFF5E
:10082000046A056AA00E066E400E076E010EDB50CC
:10083000E824EA6A990FE96E000EEA22EF500E6E84
:100840000F6A0EC00FF00E6A010EDB50E824010F94
:10085000EA6A990FE96E000EEA22EF5000010E24B9
:100860000C6E000E0F200D6E0CC028F00DC029F08C
:10087000F5EC32F027C008F028C009F029C00AF0D2
:100880002AC00BF008C02CF009C02DF00AC02EF0D1
:100890000BC02FF004C027F005C028F006C029F0D7
:1008A00007C02AF0F2EC33F027C000F028C001F0B6
:1008B00029C002F02AC003F02C6A200E2D6E800E93
:1008C0002E6E440E2F6E00C027F001C028F002C02B
:1008D00029F003C02AF09FEC33F0100E27C0DBFF95
:1008E000110E28C0DBFF120E29C0DBFF130E2AC039
:1008F000DBFF046A500E056E430E066E470E076E50
:10090000276A400E286E1C0E296E460E2A6E100EA7
:10091000DBCF2CF0110EDBCF2DF0120EDBCF2EF043
:10092000130EDBCF2FF0F2EC33F027C008F028C015
:1009300009F029C00AF02AC00BF008C02CF009C049
:100940002DF00AC02EF00BC02FF004C027F005C018
:1009500028F006C029F007C02AF008EC33F0100E8A
:10096000DBCF2CF0110EDBCF2DF0120EDBCF2EF0F3
:10097000130EDBCF2FF09FEC33F027C000F028C020
:1009800001F029C002F02AC003F0040E00C0DBFF12
:10099000050E01C0DBFF060E02C0DBFF070E03C021
:1009A000DBFF020EDBCF28F0030EDBCF29F0F3ECE8
:1009B00032F027C000F028C001F029C002F02AC0A0
:1009C00003F000C0E6FF01C0E6FF02C0E6FF03C07F
:1009D000E6FF040EDBCF27F0050EDBCF28F0060E76
:1009E000DBCF29F0070EDBCF2AF0080EDBCF2CF08F
:1009F000090EDBCF2DF00A0EDBCF2EF00B0EDBCF76
:100A00002FF09FEC33F027C008F028C009F029C070
:100A10000AF02AC00BF008C0E6FF09C0E6FF0AC0D2
:100A2000E6FF0BC0E6FFA8EC35F0E552E552E552D3
:100A3000E552E552E7CF03F0E552E7CF02F0E55289
:100A4000E7CF01F0E552E7CF00F026C004F027C061
:100A500005F028C006F029C007F004C02CF005C03E
:100A60002DF006C02EF007C02FF000C027F001C007
:100A700028F002C029F003C02AF09FEC33F00C0EDE
:100A800027C0DBFF0D0E28C0DBFF0E0E29C0DBFFE9
:100A90000F0E2AC0DBFF0C0EDBCF00F00D0EDBCFFC
:100AA00001F00E0EDBCF02F00F0EDBCF03F0330EA2
:100AB0002C6E930E2D6E880E2E6E430E2F6E00C080
:100AC00027F001C028F002C029F003C02AF008EC8A
:100AD00033F00C0E27C0DBFF0D0E28C0DBFF0E0E1F
:100AE00029C0DBFF0F0E2AC0DBFF010EEA6ADB34F0
:100AF000FE0BEA36E96E8D0EE926000EEA22EECFF5
:100B00000AF0EFCF0BF00AC028F00BC029F0F5EC8B
:100B100032F027C006F028C007F029C008F02AC02C
:100B200009F00C0EDBCF14F00D0EDBCF15F00E0E1E
:100B3000DBCF16F00F0EDBCF17F02C6A2D6AC80E34
:100B40002E6E420E2F6E14C027F015C028F016C06E
:100B500029F017C02AF0F2EC33F027C010F028C0BB
:100B600011F029C012F02AC013F006C0E6FF07C03A
:100B7000E6FF08C0E6FF09C0E6FF10C0E6FF11C0AF
:100B8000E6FF12C0E6FF13C0E6FF010EDBCFE6FF73
:100B900056EC0CF0E552E552E7CF13F0E552E7CF03
:100BA00012F0E552E7CF11F0E552E7CF10F0E55231
:100BB000E7CF09F0E552E7CF08F0E552E7CF07F0BD
:100BC000E552E7CF06F0F3CF1CF0F4CF1DF01CC0C8
:100BD00028F01DC029F0F5EC32F027C018F028C02D
:100BE00019F029C01AF02AC01BF018C02CF019C047
:100BF0002DF01AC02EF01BC02FF010C027F011C02E
:100C000028F012C029F013C02AF009EC33F027C0F5
:100C10000CF028C00DF029C00EF02AC00FF00CC057
:100C20002CF00DC02DF00EC02EF00FC02FF006C01E
:100C300027F007C028F008C029F009C02AF009EC05
:100C400033F027C002F028C003F029C004F02AC006
:100C500005F02C6A2D6A2E6A400E2F6E02C027F016
:100C600003C028F004C029F005C02AF09FEC33F03F
:100C70008CEC34F028C000F029C001F0010EEA6AC3
:100C8000DB34FE0BEA36E96E8D0EE926000EEA2211
:100C900000C0EEFF01C0EDFF010EEA6ADB34FE0B7F
:100CA000EA36E96E8D0EE926000EEA22EECF00F05C
:100CB000EFCF01F000C0E6FF01C0E6FF010EDB5000
:100CC000E8247F0FE66EE66A12EC3CF0E552E5524E
:100CD000E552E7CF01F0E552E7CF00F0046E056A78
:100CE00004C005F0046A00C0E6FF01C0E6FF04C0CE
:100CF000E6FF05C0E6FF010EDB50E824800FE66E3C
:100D0000E66A12EC3CF0E552E552E552E7CF05F019
:100D1000E552E7CF04F0E552E7CF01F0E552E7CF27
:100D200000F000010424026E000E0520036E015045
:100D30000318E8AE02D0033404D00250005C035024
:100D4000015839E2010EEA6ADB34FE0BEA36E96E3D
:100D50008D0EE926000EEA22EECF00F0EFCF01F073
:100D600001C000F0016A0050E66E010EDB50E8247D
:100D70007F0FE66EE66AECEC3BF0E552E552E55299
:100D8000010EEA6ADB34FE0BEA36E96E8D0EE926C7
:100D9000000EEA22EECF00F0EFCF01F00050E66E39
:100DA000010EDB50E824800FE66EE66AECEC3BF0C7
:100DB000E552E552E552010EEA6ADB34FE0BEA36F3
:100DC000E96E8D0EE926000EEA22EECF00F0EFCF9D
:100DD00001F000C0E6FF01C0E6FF010EDB50E82491
:100DE0008B0FE66EE66A12EC3CF0E552E552E552F6
:100DF000E7CF01F0E552E7CF00F0046E056A04C0CA
:100E000005F0046A00C0E6FF01C0E6FF04C0E6FF8B
:100E100005C0E6FF010EDB50E8248C0FE66EE66AA3
:100E200012EC3CF0E552E552E552E7CF05F0E55211
:100E3000E7CF04F0E552E7CF01F0E552E7CF00F04D
:100E400000010424026E000E0520036E03500118F9
:100E5000E8AE02D0013404D00050025C01500358C7
:100E600039E2010EEA6ADB34FE0BEA36E96E8D0EDA
:100E7000E926000EEA22EECF00F0EFCF01F001C02C
:100E800000F0016A0050E66E010EDB50E8248B0F83
:100E9000E66EE66AECEC3BF0E552E552E552010EF7
:100EA000EA6ADB34FE0BEA36E96E8D0EE926000EA7
:100EB000EA22EECF00F0EFCF01F00050E66E010E17
:100EC000DB50E8248C0FE66EE66AECEC3BF0E55272
:100ED000E552E552010EF36EDB5004E0D890F33694
:100EE000E806FCE1F350E81C0001A517010EDB2A1F
:100EF00050EF03F0030E0001635D01E090D2010E9C
:100F0000DB6A060EF36E010EDBCFF4FFF350F45CE8
:100F100001E385D2010EF36EDB5004E0D890F33686
:100F2000E806FCE1F3500001B61501E176D0010EB0
:100F3000DB50E8245B0FE66EE66A12EC3CF0E5520B
:100F4000E552046E056A04C005F0046A04C0E6FFB9
:100F500005C0E6FF010EDB50E8245C0FE66EE66A92
:100F600012EC3CF0E552E552E552E7CF05F0E552D0
:100F7000E7CF04F000010424026E000E0520036E8A
:100F800002C0E6FF03C0E6FF010EDB50970FE66EDE
:100F9000E66A12EC3CF0E552E552E552E7CF03F089
:100FA000E552E7CF02F0640DF35000010224006E19
:100FB000000E0320016E140E00C0DBFF150E01C0F1
:100FC000DBFF010EEA6ADB34FE0BEA36E96E8D0EBA
:100FD000E926000EEA22EECF00F0EFCF01F0140E6A
:100FE000DBCF02F0150EDBCF03F003500118E8AEA3
:100FF00002D0013404D00050025C015003580CE2CE
:10100000010EF36EDB5004E0D890F336E806FCE105
:10101000F350E81C0001B617BDD0010EDB50E824E8
:101020005B0FE66EE66A12EC3CF0E552E552026EAA
:10103000036A02C003F0026A02C0E6FF03C0E6FFD3
:10104000010EDB50E8245C0FE66EE66A12EC3CF021
:10105000E552E552E552E7CF03F0E552E7CF02F063
:1010600000010224006E000E0320016E140E00C069
:10107000DBFF150E01C0DBFF010EEA6ADB34FE0B5D
:10108000EA36E96E8D0EE926000EEA22EECF00F078
:10109000EFCF01F0140EDBCF02F0150EDBCF03F023
:1010A00001500318E8AE02D0033404D00250005CB3
:1010B000035001586FE2010EF36EDB5004E0D8904C
:1010C000F336E806FCE1F3500001B613B5810001E8
:1010D0006281010EDB50430FE66EE66A12EC3CF0D3
:1010E000E552E552080B56E0010E0001766F776B72
:1010F000020E786F756B830E746F010EDB50430F19
:10110000E66EE66A12EC3CF0E552E552200B18E080
:10111000010EDB50430FE66EE66A12EC3CF0E5523E
:10112000E552400B07E01E0E0001766F776B050E4F
:10113000786F06D01E0E0001766F776B060E786F03
:10114000010EDBCF79F0DB50E824730FE66EE66A20
:1011500012EC3CF0E552E55200017A6F010EDB50D3
:10116000E824740FE66EE66A12EC3CF0E552E552B4
:1011700000017B6FEEEC29F000090CE1010EF36E2B
:10118000DB5004E0D890F336E806FCE1F350E81CAD
:101190000001B617010EF36EDB5004E0D890F33671
:1011A000E806FCE1F3500001B71501E178D0010E2B
:1011B000DB50E824670FE66EE66A12EC3CF0E5527D
:1011C000E552046E056A04C005F0046A04C0E6FF37
:1011D00005C0E6FF010EDB50E824680FE66EE66A04
:1011E00012EC3CF0E552E552E552E7CF05F0E5524E
:1011F000E7CF04F000010424026E000E0520036E08
:1012000002C0E6FF03C0E6FF010EDB50970FE66E5B
:10121000E66A12EC3CF0E552E552E552E7CF03F006
:10122000E552E7CF02F0640DF350066E076A0650F0
:10123000025C006E07500358016E140E00C0DBFF05
:10124000150E01C0DBFF010EEA6ADB34FE0BEA3645
:10125000E96E8D0EE926000EEA22EECF00F0EFCF08
:1012600001F0140EDBCF02F0150EDBCF03F00150BE
:101270000318E8AE02D0033404D00250005C0350DF
:1012800001580CE2010EF36EDB5004E0D890F33607
:10129000E806FCE1F350E81C0001B717BDD0010ED1
:1012A000DB50E824670FE66EE66A12EC3CF0E5528C
:1012B000E552026E036A02C003F0026A02C0E6FF52
:1012C00003C0E6FF010EDB50E824680FE66EE66A15
:1012D00012EC3CF0E552E552E552E7CF03F0E5525F
:1012E000E7CF02F000010224006E000E0320016E21
:1012F000140E00C0DBFF150E01C0DBFF010EEA6A11
:10130000DB34FE0BEA36E96E8D0EE926000EEA228A
:10131000EECF00F0EFCF01F0140EDBCF02F0150E90
:10132000DBCF03F003500118E8AE02D0013404D043
:101330000050025C015003586FE2010EF36EDB5067
:1013400004E0D890F336E806FCE1F3500001B7134F
:10135000B58300016283010EDB50430FE66EE66A3F
:1013600012EC3CF0E552E552100B56E0010E000184
:10137000766F776B020E786F756B830E746F010E4C
:10138000DB50430FE66EE66A12EC3CF0E552E552A4
:10139000200B18E0010EDB50430FE66EE66A12ECFC
:1013A0003CF0E552E552400B07E01E0E0001766F5F
:1013B000776B060E786F06D01E0E0001766F776B86
:1013C000050E786F010EDBCF79F0DB50E824730F48
:1013D000E66EE66A12EC3CF0E552E55200017A6FE7
:1013E000010EDB50E824740FE66EE66A12EC3CF066
:1013F000E552E55200017B6FEEEC29F000090CE1AB
:10140000010EF36EDB5004E0D890F336E806FCE101
:10141000F350E81C0001B717010EDB2A72D5160E37
:10142000E15C02E2E16AE552E16EE552E7CFD9FF05
:101430001200D9CFE6FFE1CFD9FF020EE126030E5D
:101440000001635D01E004D1010EDB6A060EF36E5C
:10145000010EDBCFF4FFF350F45C01E3F9D0010E91
:10146000DB50490FE66EE66A12EC3CF0E552E552BD
:10147000DF6EDF501CE0010EDB50EA6AAF0FE96E51
:10148000000EEA22EFCF00F0DF50D88000540FE2C8
:10149000010EDBCFE6FFE6D8E552000908E0010EB9
:1014A000DB50EA6AAF0FE96E000EEA22EF6A010E26
:1014B000DB50430FE66EE66A12EC3CF0E552E55273
:1014C000800B01E1C2D0010EF36EDB5004E0D89036
:1014D000F336E806FCE1F3500001B61555E0010EC5
:1014E000DB50430FE66EE66A12EC3CF0E552E55243
:1014F000080B4AE00001756B830E746F010EDB5020
:10150000430FE66EE66A12EC3CF0E552E552200B22
:1015100019E0010EDB50430FE66EE66A12EC3CF078
:10152000E552E552400B07E01E0E0001766F776B27
:10153000050E786F06D01E0E0001766F776B060ED3
:10154000786F06D0010E0001766F776B020E786F10
:10155000010EDBCF79F0DB50E824730FE66EE66A0C
:1015600012EC3CF0E552E55200017A6F010EDB50BF
:10157000E824740FE66EE66A12EC3CF0E552E552A0
:1015800000017B6FEEEC29F0010EF36EDB5004E0FE
:10159000D890F336E806FCE1F3500001B71555E0AA
:1015A000010EDB50430FE66EE66A12EC3CF0E552AA
:1015B000E552100B4AE00001756B830E746F010E4B
:1015C000DB50430FE66EE66A12EC3CF0E552E55262
:1015D000200B19E0010EDB50430FE66EE66A12ECB9
:1015E0003CF0E552E552400B07E01E0E0001766F1D
:1015F000776B060E786F06D01E0E0001766F776B44
:10160000050E786F06D0010E0001766F776B020E23
:10161000786F010EDBCF79F0DB50E824730FE66EB4
:10162000E66A12EC3CF0E552E55200017A6F010ED9
:10163000DB50E824740FE66EE66A12EC3CF0E552EB
:10164000E55200017B6FEEEC29F0010EDB2AFED69D
:10165000020EE15C02E2E16AE552E16EE552E7CF9B
:10166000D9FF1200D9CFE6FFE1CFD9FF0001030E69
:10167000756F840E746F0A0E766F776B060E786F37
:10168000FE0EDBCFE6FFDB50430FE66EE66A12ECA0
:101690003CF0E552E552030B080DF3508009E5528A
:1016A000E7100001796F020E7A6FFE0EDB50430FD8
:1016B000E66EE66A12EC3CF0E552E552030BE66E8C
:1016C000FE0EEA6ADB34FE0BEA36E96E8D0EE92681
:1016D000000EEA22EECFE6FFEFCFE6FF0FD8E5528D
:1016E000E552E552EEEC29F0000902E1000E02D0CD
:1016F000010E00D0E552E7CFD9FF1200D9CFE6FFA7
:10170000E1CFD9FF060EE126FC0EDB5029E1FD0EEC
:10171000DBCF28F0FE0EDBCF29F0F5EC32F027C04E
:1017200000F028C001F029C002F02AC003F000C078
:10173000E6FF01C0E6FF02C0E6FF03C0E6FFDFEC04
:1017400038F0E552E552E552E55226C0DEFF27C0EB
:10175000DEFF28C0DEFF29C0DDFFDD52DD5241D0B3
:10176000020E006EFC0EDB50005C29E1FD0EDBCFAB
:1017700028F0FE0EDBCF29F0F5EC32F027C000F0A8
:1017800028C001F029C002F02AC003F000C0E6FF23
:1017900001C0E6FF02C0E6FF03C0E6FF25EC38F01B
:1017A000E552E552E552E55226C0DEFF27C0DEFFD6
:1017B00028C0DEFF29C0DDFFDD52DD5212D0FD0E54
:1017C000DBCF28F0FE0EDBCF29F0F5EC32F027C09E
:1017D000DEFF28C0DEFF29C0DEFF2AC0DDFFDD52AC
:1017E000DD52DECF27F0DECF28F0DECF29F0DDCFCF
:1017F0002AF0DD52DD528CEC34F0040E28C0DBFF01
:10180000050E29C0DBFFD9CFE9FFDACFEAFFEECF23
:1018100000F0EECF01F0EECF02F0EFCF03F02C6A34
:101820002D6A2E6A2F6A00C027F001C028F002C07E
:1018300029F003C02AF0BBEC34F0010A12E10001E8
:101840007A8F28682968040EDBCF2DF0050EDBCFD8
:101850002EF05FEC34F0040E26C0DBFF050E27C02F
:10186000DBFF040EDBCF00F0050EDBCF01F0000E36
:101870000016FF0E011601C000F0016A00C07BF0E7
:10188000E76E040EDBCF00F0050EDBCF01F0E75072
:101890000016016A00C07CF0060EE15C02E2E16A1B
:1018A000E552E16EE552E7CFD9FF1200D9CFE6FF4E
:1018B000E1CFD9FF020EE126FE0EDB50E8249E0F99
:1018C000E66EE66A12EC3CF0E552E552026E036AFF
:1018D00002C003F0026A02C0E6FF03C0E6FFFE0E8C
:1018E000DB50E8249F0FE66EE66A12EC3CF0E5520E
:1018F000E552E552E7CF03F0E552E7CF02F00001F1
:101900000224006E000E0320016E00C0DEFF01C045
:10191000DDFFDECF00F0DDCF01F000C0F3FF01C03E
:10192000F4FF020EE15C03E200D0E16AE552E16EF1
:10193000E552E7CFD9FF1200D9CFE6FFE1CFD9FFBB
:10194000080EE1262FD8070E926E1B0E936E010E25
:10195000946E826A920EE66EB6EC3CF0E5521D0E75
:10196000E66EFB0EE66E9AEC3CF0E552E5520F0E89
:10197000E66E840EE66EEF0EE66E30EC3CF0E5525D
:10198000E552E5524BEC2AF0F28EFEEC3CF0080EEC
:10199000E15C03E200D0E16AE552E16EE552E7CF97
:1019A000D9FF1200D9CFE6FFE1CFD9FFE6520001FF
:1019B000A66BA76BA86BA96BAE6BB56BDF6ADFCFAD
:1019C00000F0060EE76E0018E8AE02D0E73402D051
:1019D000E750005C1AE2DFCFE9FFEA6AE9BEEA6895
:1019E000AF0EE926000EEA22EF6ADFCFE9FFEA6ACE
:1019F000E9BEEA68D890E936EA368D0EE926000E8F
:101A0000EA22EE6AED6ADF2ADAD70001A56BB66B2F
:101A1000B76BE552E552E7CFD9FF1200010EE66E33
:101A2000430EE66EE66AECEC3BF0E552E552E55219
:101A3000010EE66E440EE66EE66AECEC3BF0E55213
:101A4000E552E552010EE66E450EE66EE66AECECF6
:101A50003BF0E552E552E552010EE66E460EE66EAB
:101A6000E66AECEC3BF0E552E552E552010EE66E1B
:101A7000470EE66EE66AECEC3BF0E552E552E552C5
:101A8000010EE66E480EE66EE66AECEC3BF0E552BF
:101A9000E552E552030EE66E490EE66EE66AECECA0
:101AA0003BF0E552E552E552E66A4A0EE66EE66A1A
:101AB000ECEC3BF0E552E552E552030EE66E4B0EC0
:101AC000E66EE66AECEC3BF0E552E552E552E66A7A
:101AD0004C0EE66EE66AECEC3BF0E552E552E55260
:101AE000E66A4D0EE66EE66AECEC3BF0E552E55236
:101AF000E552E66A4E0EE66EE66AECEC3BF0E55225
:101B0000E552E5520F0EE66E4F0EE66EE66AECEC1D
:101B10003BF0E552E552E552680EE66E500EE66E79
:101B2000E66AECEC3BF0E552E552E5520D0EE66E4E
:101B3000510EE66EE66AECEC3BF0E552E552E552FA
:101B40007F0EE66E520EE66EE66AECEC3BF0E55276
:101B5000E552E5520D0EE66E530EE66EE66AECECCB
:101B60003BF0E552E552E5527F0EE66E540EE66E0E
:101B7000E66AECEC3BF0E552E552E5520D0EE66EFE
:101B8000550EE66EE66AECEC3BF0E552E552E552A6
:101B90007F0EE66E560EE66EE66AECEC3BF0E55222
:101BA000E552E5520D0EE66E570EE66EE66AECEC77
:101BB0003BF0E552E552E5527F0EE66E580EE66EBA
:101BC000E66AECEC3BF0E552E552E5520D0EE66EAE
:101BD000590EE66EE66AECEC3BF0E552E552E55252
:101BE0007F0EE66E5A0EE66EE66AECEC3BF0E552CE
:101BF000E552E552800EE66E5B0EE66EE66AECECB0
:101C00003BF0E552E552E552E6685C0EE66EE66AA8
:101C1000ECEC3BF0E552E552E552800EE66E5D0ECF
:101C2000E66EE66AECEC3BF0E552E552E552E6681A
:101C30005E0EE66EE66AECEC3BF0E552E552E552EC
:101C4000800EE66E5F0EE66EE66AECEC3BF0E55267
:101C5000E552E552E668600EE66EE66AECEC3BF0B3
:101C6000E552E552E552800EE66E610EE66EE66ADA
:101C7000ECEC3BF0E552E552E552E668620EE66EAA
:101C8000E66AECEC3BF0E552E552E552800EE66E7A
:101C9000630EE66EE66AECEC3BF0E552E552E55287
:101CA000E668640EE66EE66AECEC3BF0E552E5525F
:101CB000E552800EE66E650EE66EE66AECEC3BF0F1
:101CC000E552E552E552E668660EE66EE66AECEC31
:101CD0003BF0E552E552E5527F0EE66E670EE66E8A
:101CE000E66AECEC3BF0E552E552E552E668680E38
:101CF000E66EE66AECEC3BF0E552E552E5527F0E0B
:101D0000E66E690EE66EE66AECEC3BF0E552E552F3
:101D1000E552E6686A0EE66EE66AECEC3BF0E552E8
:101D2000E552E5527F0EE66E6B0EE66EE66AECEC6F
:101D30003BF0E552E552E552E6686C0EE66EE66A67
:101D4000ECEC3BF0E552E552E5527F0EE66E6D0E8F
:101D5000E66EE66AECEC3BF0E552E552E552E668E9
:101D60006E0EE66EE66AECEC3BF0E552E552E552AB
:101D70007F0EE66E6F0EE66EE66AECEC3BF0E55227
:101D8000E552E552E668700EE66EE66AECEC3BF072
:101D9000E552E552E5527F0EE66E710EE66EE66A9A
:101DA000ECEC3BF0E552E552E552E668720EE66E69
:101DB000E66AECEC3BF0E552E552E552E66A730E5A
:101DC000E66EE66AECEC3BF0E552E552E552E66A77
:101DD000740EE66EE66AECEC3BF0E552E552E55235
:101DE000E66A750EE66EE66AECEC3BF0E552E5520B
:101DF000E552E66A760EE66EE66AECEC3BF0E552FA
:101E0000E552E552E66A770EE66EE66AECEC3BF0E8
:101E1000E552E552E552E66A780EE66EE66AECECCB
:101E20003BF0E552E552E552E66A790EE66EE66A67
:101E3000ECEC3BF0E552E552E552E66A7A0EE66ECE
:101E4000E66AECEC3BF0E552E552E552E66A7B0EC1
:101E5000E66EE66AECEC3BF0E552E552E552E66AE6
:101E60007C0EE66EE66AECEC3BF0E552E552E5529C
:101E7000E66A7D0EE66EE66AECEC3BF0E552E55272
:101E8000E552E66A7E0EE66EE66AECEC3BF0E55261
:101E9000E552E5527F0EE66EE66EE66AECEC3BF04C
:101EA000E552E552E552E668800EE66EE66AECEC35
:101EB0003BF0E552E552E5527F0EE66E810EE66E8E
:101EC000E66AECEC3BF0E552E552E552E668820E3C
:101ED000E66EE66AECEC3BF0E552E552E5527F0E29
:101EE000E66E830EE66EE66AECEC3BF0E552E552F8
:101EF000E552E668840EE66EE66AECEC3BF0E552ED
:101F0000E552E5527F0EE66E850EE66EE66AECEC73
:101F10003BF0E552E552E552E668860EE66EE66A6B
:101F2000ECEC3BF0E552E552E5527F0EE66E870E93
:101F3000E66EE66AECEC3BF0E552E552E552E66807
:101F4000880EE66EE66AECEC3BF0E552E552E552AF
:101F50007F0EE66E890EE66EE66AECEC3BF0E5522B
:101F6000E552E552E6688A0EE66EE66AECEC3BF076
:101F7000E552E552E552800EE66E8B0EE66EE66A9D
:101F8000ECEC3BF0E552E552E552E66A8C0EE66E6B
:101F9000E66AECEC3BF0E552E552E552800EE66E67
:101FA0008D0EE66EE66AECEC3BF0E552E552E5524A
:101FB000E66A8E0EE66EE66AECEC3BF0E552E55220
:101FC000E552800EE66E8F0EE66EE66AECEC3BF0B4
:101FD000E552E552E552E66A900EE66EE66AECECF2
:101FE0003BF0E552E552E552800EE66E910EE66E4C
:101FF000E66AECEC3BF0E552E552E552E66A920EF9
:10200000E66EE66AECEC3BF0E552E552E552800EF6
:10201000E66E930EE66EE66AECEC3BF0E552E552B6
:10202000E552E66A940EE66EE66AECEC3BF0E552A9
:10203000E552E552800EE66E950EE66EE66AECEC31
:102040003BF0E552E552E552E66A960EE66EE66A28
:10205000ECEC3BF0E552E552E552020EE66E970ECF
:10206000E66EE66AECEC3BF0E552E552E552020E14
:10207000E66E980EE66EE66AECEC3BF0E552E55251
:10208000E552020EE66E990EE66EE66AECEC3BF067
:10209000E552E552E552020EE66E9A0EE66EE66AEB
:1020A000ECEC3BF0E552E552E552020EE66E9B0E7B
:1020B000E66EE66AECEC3BF0E552E552E552020EC4
:1020C000E66E9C0EE66EE66AECEC3BF0E552E552FD
:1020D000E552E66A9E0EE66EE66AECEC3BF0E552EF
:1020E000E552E552E66A9F0EE66EE66AECEC3BF0DE
:1020F000E552E552E552E66AA00EE66EE66AECECC1
:102100003BF0E552E552E552E66AA10EE66EE66A5C
:10211000ECEC3BF0E552E552E552E66AA20EE66EC3
:10212000E66AECEC3BF0E552E552E552E66AA30EB6
:10213000E66EE66AECEC3BF0E552E552E552E66A03
:10214000A40EE66EE66AECEC3BF0E552E552E55291
:10215000E66AA50EE66EE66AECEC3BF0E552E55267
:10216000E552E66AA60EE66EE66AECEC3BF0E55256
:10217000E552E552E66AA70EE66EE66AECEC3BF045
:10218000E552E552E552E66AA80EE66EE66AECEC28
:102190003BF0E552E552E552E66AA90EE66EE66AC4
:1021A000ECEC3BF0E552E552E5521200D9CFE6FFE8
:1021B000E1CFD9FF020EE126FC0EDB5035E1FD0E2A
:1021C000DBCF28F0FE0EDBCF29F0F5EC32F027C094
:1021D00004F028C005F029C006F02AC007F004C0AA
:1021E000E6FF05C0E6FF06C0E6FF07C0E6FFDFEC3E
:1021F00038F0E552E552E552E55226C000F027C01E
:1022000001F028C002F029C003F000C027F001C08F
:1022100028F002C029F003C02AF08CEC34F028C06A
:10222000DEFF29C0DDFF40D0020E006EFC0EDB5049
:10223000005C35E1FD0EDBCF28F0FE0EDBCF29F090
:10224000F5EC32F027C004F028C005F029C006F0F4
:102250002AC007F004C0E6FF05C0E6FF06C0E6FF9F
:1022600007C0E6FF25EC38F0E552E552E552E552AD
:1022700026C000F027C001F028C002F029C003F0FA
:1022800000C027F001C028F002C029F003C02AF0E6
:102290008CEC34F028C0DEFF29C0DDFF05D0FD0E38
:1022A000DBCFDEFFDBCFDDFFDF50006E020EE15C37
:1022B00003E200D0E16AE552E16E0050E552E7CF5B
:1022C000D9FF1200D9CFE6FFE1CFD9FF050EE126F5
:1022D000DF6A060EDF5C3AE2FF0E00016D5D0CE185
:1022E000DF50E824730FE66EE66A12EC3CF0E5522C
:1022F000E55200016D5D28E0FF0E6E5D0CE1DF50E0
:10230000E824740FE66EE66A12EC3CF0E552E55202
:1023100000016E5D19E00001AA6BAB6BAC6BAD6B9D
:10232000DFCFE6FF32EC0BF0E55200090DE1D8807B
:10233000E80E0001AA55030EAB55000EAC55000E79
:10234000AD5501E201D0ECD7DF2AC3D7050EE15C21
:1023500002E2E16AE552E16EE552E7CFD9FF1200F1
:10236000D9CFE6FFE1CFD9FF060EE126430EE66E98
:10237000E66A12EC3CF0E552E552030BE76E050EFF
:10238000E7CFDBFFFE0EDB50750A02E1B1EF16F07E
:10239000010A02E1AEEF16F0070A02E1A5EF16F01E
:1023A000010A02E19CEF16F0030A02E193EF16F036
:1023B000010A02E18AEF16F01F0A02E181EF16F02E
:1023C000010A02E178EF16F0030A02E16FEF16F05E
:1023D000010A02E166EF16F0070A02E15DEF16F06E
:1023E000010A02E154EF16F0030A02E14BEF16F086
:1023F000010A02E142EF16F00F0A02E139EF16F08E
:10240000010A02E130EF16F0030A02E127EF16F0AD
:10241000010A02E11EEF16F0070A02E115EF16F0BD
:10242000010A01E1F9D3030A01E1EDD3010A01E157
:10243000E1D33F0A01E1D5D3010A01E1C9D3030A7F
:1024400001E1BDD3010A01E1B1D3070A01E1A5D33E
:10245000010A01E199D3030A01E18DD3010A01E1E7
:1024600081D30F0A01E175D3010A01E169D3030A9F
:1024700001E15DD3010A01E151D3070A01E145D32E
:10248000010A01E139D3030A01E12DD3010A01E177
:1024900021D31F0A01E115D3010A01E109D3030A7F
:1024A00001E1FDD2010A01E1F1D2070A01E1E5D221
:1024B000010A01E1D9D2030A01E1CDD2010A01E109
:1024C000C1D20F0A01E1B5D2010A01E1A9D2030A82
:1024D00001E19DD2010A01E191D2070A01E185D211
:1024E000010A01E179D2030A01E16DD2010A01E199
:1024F00061D27F0A01E155D2010A01E149D2030A02
:1025000001E13DD2010A01E131D2070A01E125D200
:10251000010A01E119D2030A01E10DD2010A01E128
:1025200001D20F0A01E1F5D1010A01E1E9D1030A63
:1025300001E1DDD1010A01E1D1D1070A01E1C5D1F3
:10254000010A01E1B9D1030A01E1ADD1010A01E1BA
:10255000A1D11F0A01E195D1010A01E189D1030A44
:1025600001E17DD1010A01E171D1070A01E165D1E3
:10257000010A01E159D1030A01E14DD1010A01E14A
:1025800041D10F0A01E135D1010A01E129D13F0A08
:1025900001E11DD1010A01E111D10F0A01E105D1CB
:1025A000010A01E1F9D0030A01E1EDD0010A01E1DC
:1025B000E1D0070A01E1DAD0010A01E1CAD0030A39
:1025C00001E1C3D0010A01E1B3D01F0A01E1ACD09F
:1025D000010A01E19CD0030A01E195D0010A01E161
:1025E00085D0070A01E17ED0010A6FE0030A69E0A5
:1025F000010A5AE00F0A4FE0010A44E0030A39E0F9
:10260000010A2EE0070A23E0010A18E0030A0DE0A0
:10261000010A02E0DF6AB0D3410EE66EE66A12EC10
:102620003CF0E552E552DF6EA7D3420EE66EE66A55
:1026300012EC3CF0E552E552DF6E9ED3430EE66E9F
:10264000E66A12EC3CF0E552E552DF6E95D3440E9B
:10265000E66EE66A12EC3CF0E552E552DF6E8CD392
:10266000450EE66EE66A12EC3CF0E552E552DF6E8E
:1026700083D3460EE66EE66A12EC3CF0E552E55274
:10268000DF6E7AD3470EE66EE66A12EC3CF0E55256
:10269000E552DF6E71D3480EE66EE66A12EC3CF04E
:1026A000E552E552DF6E68D3000E00018D15006E15
:1026B000FF0E8E15016E01C000F0016A0050DF6E42
:1026C0005BD300018D51DF6E57D3000E00018F15D3
:1026D000006EFF0E9015016E01C000F0016A0050FF
:1026E000DF6E4AD300018F51DF6E46D3000E00012A
:1026F0009115006EFF0E9215016E01C000F0016A87
:102700000050DF6E39D300019151DF6E35D3000EDA
:1027100000019315006EFF0E9415016E01C000F0CC
:10272000016A0050DF6E28D300019351DF6E24D37D
:10273000000E00019515006EFF0E9615016E01C08A
:1027400000F0016A0050DF6E17D300019551DF6E73
:1027500013D3000E00019515006EFF0E9615016E45
:1027600001C000F0016A0050DF6E06D300019551F0
:10277000DF6E02D3490EE66EE66A12EC3CF0E552DB
:10278000E552DF6EF9D24A0EE66EE66A12EC3CF0D4
:10279000E552E552DF6EF0D24B0EE66EE66A12ECC1
:1027A0003CF0E552E552DF6EE7D24C0EE66EE66A8B
:1027B00012EC3CF0E552E552DF6EDED24D0EE66ED5
:1027C000E66A12EC3CF0E552E552DF6ED5D24E0ED1
:1027D000E66EE66A12EC3CF0E552E552DF6ECCD2D2
:1027E0004F0EE66EE66A12EC3CF0E552E552DF6E03
:1027F000C3D2500EE66EE66A12EC3CF0E552E552AA
:10280000DF6EBAD2510EE66EE66A12EC3CF0E5528B
:10281000E552DF6EB1D2520EE66EE66A12EC3CF083
:10282000E552E552DF6EA8D2530EE66EE66A12EC70
:102830003CF0E552E552DF6E9FD2540EE66EE66A3A
:1028400012EC3CF0E552E552DF6E96D2550EE66E84
:10285000E66A12EC3CF0E552E552DF6E8DD2560E80
:10286000E66EE66A12EC3CF0E552E552DF6E84D289
:10287000570EE66EE66A12EC3CF0E552E552DF6E6A
:102880007BD2580EE66EE66A12EC3CF0E552E55259
:10289000DF6E72D2590EE66EE66A12EC3CF0E5523B
:1028A000E552DF6E69D25A0EE66EE66A12EC3CF033
:1028B000E552E552DF6E60D25B0EE66EE66A12EC20
:1028C0003CF0E552E552DF6E57D25C0EE66EE66AEA
:1028D00012EC3CF0E552E552DF6E4ED25D0EE66E34
:1028E000E66A12EC3CF0E552E552DF6E45D25E0E30
:1028F000E66EE66A12EC3CF0E552E552DF6E3CD241
:102900005F0EE66EE66A12EC3CF0E552E552DF6ED1
:1029100033D2600EE66EE66A12EC3CF0E552E55208
:10292000DF6E2AD2610EE66EE66A12EC3CF0E552EA
:10293000E552DF6E21D2620EE66EE66A12EC3CF0E2
:10294000E552E552DF6E18D2630EE66EE66A12ECCF
:102950003CF0E552E552DF6E0FD2640EE66EE66A99
:1029600012EC3CF0E552E552DF6E06D2650EE66EE3
:10297000E66A12EC3CF0E552E552DF6EFDD1660EE0
:10298000E66EE66A12EC3CF0E552E552DF6EF4D1F9
:10299000670EE66EE66A12EC3CF0E552E552DF6E39
:1029A000EBD1680EE66EE66A12EC3CF0E552E552B9
:1029B000DF6EE2D1690EE66EE66A12EC3CF0E5529B
:1029C000E552DF6ED9D16A0EE66EE66A12EC3CF093
:1029D000E552E552DF6ED0D16B0EE66EE66A12EC80
:1029E0003CF0E552E552DF6EC7D16C0EE66EE66A4A
:1029F00012EC3CF0E552E552DF6EBED16D0EE66E94
:102A0000E66A12EC3CF0E552E552DF6EB5D16E0E8F
:102A1000E66EE66A12EC3CF0E552E552DF6EACD1B0
:102A20006F0EE66EE66A12EC3CF0E552E552DF6EA0
:102A3000A3D1700EE66EE66A12EC3CF0E552E55268
:102A4000DF6E9AD1710EE66EE66A12EC3CF0E5524A
:102A5000E552DF6E91D1720EE66EE66A12EC3CF042
:102A6000E552E552DF6E88D1730EE66EE66A12EC2F
:102A70003CF0E552E552DF6E7FD1740EE66EE66AF9
:102A800012EC3CF0E552E552DF6E76D1730EE66E45
:102A9000E66A12EC3CF0E552E552DF6E6DD1740E41
:102AA000E66EE66A12EC3CF0E552E552DF6E64D168
:102AB000730EE66EE66A12EC3CF0E552E552DF6E0C
:102AC0005BD1740EE66EE66A12EC3CF0E552E5521C
:102AD000DF6E52D1730EE66EE66A12EC3CF0E55200
:102AE000E552DF6E49D1740EE66EE66A12EC3CF0F8
:102AF000E552E552DF6E40D1730EE66EE66A12ECE7
:102B00003CF0E552E552DF6E37D1740EE66EE66AB0
:102B100012EC3CF0E552E552DF6E2ED1730EE66EFC
:102B2000E66A12EC3CF0E552E552DF6E25D1740EF8
:102B3000E66EE66A12EC3CF0E552E552DF6E1CD11F
:102B40007F0EE66EE66A12EC3CF0E552E552DF6E6F
:102B500013D1800EE66EE66A12EC3CF0E552E552C7
:102B6000DF6E0AD1810EE66EE66A12EC3CF0E552A9
:102B7000E552DF6E01D1820EE66EE66A12EC3CF0A1
:102B8000E552E552DF6EF8D0830EE66EE66A12EC8F
:102B90003CF0E552E552DF6EEFD0840EE66EE66A59
:102BA00012EC3CF0E552E552DF6EE6D0850EE66EA3
:102BB000E66A12EC3CF0E552E552DF6EDDD0860E9F
:102BC000E66EE66A12EC3CF0E552E552DF6ED4D0D8
:102BD000870EE66EE66A12EC3CF0E552E552DF6ED7
:102BE000CBD0880EE66EE66A12EC3CF0E552E55278
:102BF000DF6EC2D0890EE66EE66A12EC3CF0E5525A
:102C0000E552DF6EB9D08A0EE66EE66A12EC3CF051
:102C1000E552E552DF6EB0D08B0EE66EE66A12EC3E
:102C20003CF0E552E552DF6EA7D08C0EE66EE66A08
:102C300012EC3CF0E552E552DF6E9ED08D0EE66E52
:102C4000E66A12EC3CF0E552E552DF6E95D08E0E4E
:102C5000E66EE66A12EC3CF0E552E552DF6E8CD08F
:102C60008F0EE66EE66A12EC3CF0E552E552DF6E3E
:102C700083D0900EE66EE66A12EC3CF0E552E55227
:102C8000DF6E7AD0910EE66EE66A12EC3CF0E55209
:102C9000E552DF6E71D0920EE66EE66A12EC3CF001
:102CA000E552E552DF6E68D0930EE66EE66A12ECEE
:102CB0003CF0E552E552DF6E5FD0940EE66EE66AB8
:102CC00012EC3CF0E552E552DF6E56D0950EE66E02
:102CD000E66A12EC3CF0E552E552DF6E4DD0960EFE
:102CE000E66EE66A12EC3CF0E552E552DF6E44D047
:102CF000970EE66EE66A12EC3CF0E552E552DF6EA6
:102D00003BD0980EE66EE66A12EC3CF0E552E552D6
:102D1000DF6E32D0990EE66EE66A12EC3CF0E552B8
:102D2000E552DF6E29D09A0EE66EE66A12EC3CF0B0
:102D3000E552E552DF6E20D09B0EE66EE66A12EC9D
:102D40003CF0E552E552DF6E17D09C0EE66EE66A67
:102D500012EC3CF0E552E552DF6E0ED0D8C0DFFF3A
:102D60000BD09E0E0001D825E66EE66A12EC3CF010
:102D7000E552E552DF6E00D0DF50006E060EE15CDA
:102D800003E200D0E16AE552E16E0050E552E7CF80
:102D9000D9FF1200D9CFE6FFE1CFD9FF050EE1261A
:102DA000430EE66EE66A12EC3CF0E552E552030B88
:102DB000E76E040EE7CFDBFFFD0EDB1CDF6EFE0EC1
:102DC000DB50750A02E15DEF20F0010A02E14FEFEE
:102DD00020F0070A02E13BEF20F0010A02E127EFB1
:102DE00020F0030A02E113EF20F0010A02E100EFF4
:102DF00020F01F0A02E1ECEF1FF0010A02E1D8EF18
:102E00001FF0030A02E1BCEF1FF0010A02E1A0EF8C
:102E10001FF0070A02E184EF1FF0010A02E168EFE8
:102E20001FF0030A02E14CEF1FF0010A02E130EF4C
:102E30001FF00F0A02E114EF1FF0010A02E1F8EFA0
:102E40001EF0030A02E1DCEF1EF0010A02E1C0EF0E
:102E50001EF0070A02E1A4EF1EF0010A02E188EF6A
:102E60001EF0030A02E16CEF1EF0010A02E150EFCE
:102E70001EF03F0A02E134EF1EF0010A02E118EFF2
:102E80001EF0030A02E1FCEF1DF0010A02E1E0EF8F
:102E90001DF0070A02E1C4EF1DF0010A02E1A8EFEC
:102EA0001DF0030A02E18CEF1DF0010A02E170EF50
:102EB0001DF00F0A02E155EF1DF0010A02E13AEFA1
:102EC0001DF0030A02E126EF1DF0010A02E112EFF4
:102ED0001DF0070A02E1FEEF1CF0010A02E1EAEF31
:102EE0001CF0030A02E1D6EF1CF0010A02E1C2EF76
:102EF0001CF01F0A02E1AEEF1CF0010A02E19AEF9A
:102F00001CF0030A02E186EF1CF0010A02E172EFF5
:102F10001CF0070A02E15DEF1CF0010A02E148EF34
:102F20001CF0030A02E133EF1CF0010A02E11EEF7C
:102F30001CF00F0A02E109EF1CF0010A02E1F4EFB4
:102F40001BF0030A02E1DFEF1BF0010A02E1CAEF06
:102F50001BF0070A02E1B5EF1BF0010A01E1F0D313
:102F6000030A01E1D8D3010A01E1C0D37F0A01E1DC
:102F7000A8D3010A01E190D3030A01E178D3010A41
:102F800001E160D3070A01E148D3010A01E130D32E
:102F9000030A01E118D3010A01E100D30F0A01E19C
:102FA000E8D2010A01E1D0D2030A01E1B8D2010A54
:102FB00001E1A0D2070A01E188D2010A01E170D241
:102FC000030A01E158D2010A01E140D21F0A01E1DE
:102FD00028D2010A01E110D2030A01E1F8D1010A65
:102FE00001E1E0D1070A01E1C8D1010A01E1B0D154
:102FF000030A01E198D1010A01E180D10F0A01E140
:1030000068D1010A01E150D13F0A01E138D1010A3A
:1030100001E120D10F0A01E108D1010A01E1F0D05C
:10302000030A01E1D8D0010A01E1C0D0130A01E18D
:10303000A8D0010A01E190D0030A01E178D0010A89
:1030400061E0070A4AE0010A33E0030A1CE0010AD2
:1030500005E0FD0EDB1CDF6E75EF20F0FD0EDBCF13
:10306000E6FF410EE66EE66AECEC3BF0E552E55217
:10307000E552410EE66EE66A12EC3CF0E552E5528E
:10308000DF6E75EF20F0FD0EDBCFE6FF420EE66E41
:10309000E66AECEC3BF0E552E552E552420EE66E94
:1030A000E66A12EC3CF0E552E552DF6E75EF20F077
:1030B000FD0EDBCFE6FF430EE66EE66AECEC3BF07E
:1030C000E552E552E552430EE66EE66A12EC3CF03C
:1030D000E552E552DF6E75EF20F0FD0EDBCFE6FF27
:1030E000440EE66EE66AECEC3BF0E552E552E55242
:1030F000440EE66EE66A12EC3CF0E552E552DF6EF5
:1031000075EF20F0FD0EDBCFE6FF450EE66EE66ABA
:10311000ECEC3BF0E552E552E552450EE66EE66A10
:1031200012EC3CF0E552E552DF6E75EF20F0FD0E3B
:10313000DBCFE6FF460EE66EE66AECEC3BF0E552CE
:10314000E552E552460EE66EE66A12EC3CF0E552B8
:10315000E552DF6E75EF20F0FD0EDBCFE6FF470E88
:10316000E66EE66AECEC3BF0E552E552E552470EBE
:10317000E66EE66A12EC3CF0E552E552DF6E75EF62
:1031800020F0FD0EDBCFE6FF480EE66EE66AECECC3
:103190003BF0E552E552E552480EE66EE66A12EC67
:1031A0003CF0E552E552DF6E75EF20F0FD0EDBCF0F
:1031B000E6FF490EE66EE66AECEC3BF0E552E552BE
:1031C000E552490EE66EE66A12EC3CF0E552E55235
:1031D000DF6E75EF20F0FD0EDBCFE6FF4A0EE66EE8
:1031E000E66AECEC3BF0E552E552E5524A0EE66E3B
:1031F000E66A12EC3CF0E552E552DF6E75EF20F026
:10320000FD0EDBCFE6FF4B0EE66EE66AECEC3BF024
:10321000E552E552E5524B0EE66EE66A12EC3CF0E2
:10322000E552E552DF6E75EF20F0FD0EDBCFE6FFD5
:103230004C0EE66EE66AECEC3BF0E552E552E552E8
:103240004C0EE66EE66A12EC3CF0E552E552DF6E9B
:1032500075EF20F0FD0EDBCFE6FF4D0EE66EE66A61
:10326000ECEC3BF0E552E552E5524D0EE66EE66AB7
:1032700012EC3CF0E552E552DF6E75EF20F0FD0EEA
:10328000DBCFE6FF4E0EE66EE66AECEC3BF0E55275
:10329000E552E5524E0EE66EE66A12EC3CF0E5525F
:1032A000E552DF6E75EF20F0FD0EDBCFE6FF4F0E2F
:1032B000E66EE66AECEC3BF0E552E552E5524F0E65
:1032C000E66EE66A12EC3CF0E552E552DF6E75EF11
:1032D00020F0FD0EDBCFE6FF500EE66EE66AECEC6A
:1032E0003BF0E552E552E552500EE66EE66A12EC0E
:1032F0003CF0E552E552DF6E75EF20F0FD0EDBCFBE
:10330000E6FF510EE66EE66AECEC3BF0E552E55264
:10331000E552510EE66EE66A12EC3CF0E552E552DB
:10332000DF6E75EF20F0FD0EDBCFE6FF520EE66E8E
:10333000E66AECEC3BF0E552E552E552520EE66EE1
:10334000E66A12EC3CF0E552E552DF6E75EF20F0D4
:10335000FD0EDBCFE6FF530EE66EE66AECEC3BF0CB
:10336000E552E552E552530EE66EE66A12EC3CF089
:10337000E552E552DF6E75EF20F0FD0EDBCFE6FF84
:10338000540EE66EE66AECEC3BF0E552E552E5528F
:10339000540EE66EE66A12EC3CF0E552E552DF6E42
:1033A00075EF20F0FD0EDBCFE6FF550EE66EE66A08
:1033B000ECEC3BF0E552E552E552550EE66EE66A5E
:1033C00012EC3CF0E552E552DF6E75EF20F0FD0E99
:1033D000DBCFE6FF560EE66EE66AECEC3BF0E5521C
:1033E000E552E552560EE66EE66A12EC3CF0E55206
:1033F000E552DF6E75EF20F0FD0EDBCFE6FF570ED6
:10340000E66EE66AECEC3BF0E552E552E552570E0B
:10341000E66EE66A12EC3CF0E552E552DF6E75EFBF
:1034200020F0FD0EDBCFE6FF580EE66EE66AECEC10
:103430003BF0E552E552E552580EE66EE66A12ECB4
:103440003CF0E552E552DF6E75EF20F0FD0EDBCF6C
:10345000E6FF590EE66EE66AECEC3BF0E552E5520B
:10346000E552590EE66EE66A12EC3CF0E552E55282
:10347000DF6E75EF20F0FD0EDBCFE6FF5A0EE66E35
:10348000E66AECEC3BF0E552E552E5525A0EE66E88
:10349000E66A12EC3CF0E552E552DF6E75EF20F083
:1034A000FD0EDBCFE6FF5B0EE66EE66AECEC3BF072
:1034B000E552E552E5525B0EE66EE66A12EC3CF030
:1034C000E552E552DF6E75EF20F0FD0EDBCFE6FF33
:1034D0005C0EE66EE66AECEC3BF0E552E552E55236
:1034E0005C0EE66EE66A12EC3CF0E552E552DF6EE9
:1034F00075EF20F0FD0EDBCFE6FF5D0EE66EE66AAF
:10350000ECEC3BF0E552E552E5525D0EE66EE66A04
:1035100012EC3CF0E552E552DF6E75EF20F0FD0E47
:10352000DBCFE6FF5E0EE66EE66AECEC3BF0E552C2
:10353000E552E5525E0EE66EE66A12EC3CF0E552AC
:10354000E552DF6E75EF20F0FD0EDBCFE6FF5F0E7C
:10355000E66EE66AECEC3BF0E552E552E5525F0EB2
:10356000E66EE66A12EC3CF0E552E552DF6E75EF6E
:1035700020F0FD0EDBCFE6FF600EE66EE66AECECB7
:103580003BF0E552E552E552600EE66EE66A12EC5B
:103590003CF0E552E552DF6E75EF20F0FD0EDBCF1B
:1035A000E6FF610EE66EE66AECEC3BF0E552E552B2
:1035B000E552610EE66EE66A12EC3CF0E552E55229
:1035C000DF6E75EF20F0FD0EDBCFE6FF620EE66EDC
:1035D000E66AECEC3BF0E552E552E552620EE66E2F
:1035E000E66A12EC3CF0E552E552DF6E75EF20F032
:1035F000FD0EDBCFE6FF630EE66EE66AECEC3BF019
:10360000E552E552E552630EE66EE66A12EC3CF0D6
:10361000E552E552DF6E75EF20F0FD0EDBCFE6FFE1
:10362000640EE66EE66AECEC3BF0E552E552E552DC
:10363000640EE66EE66A12EC3CF0E552E552DF6E8F
:1036400075EF20F0FD0EDBCFE6FF650EE66EE66A55
:10365000ECEC3BF0E552E552E552650EE66EE66AAB
:1036600012EC3CF0E552E552DF6E75EF20F0FD0EF6
:10367000DBCFE6FF660EE66EE66AECEC3BF0E55269
:10368000E552E552660EE66EE66A12EC3CF0E55253
:10369000E552DF6E75EF20F0FD0EDBCFE6FF670E23
:1036A000E66EE66AECEC3BF0E552E552E552670E59
:1036B000E66EE66A12EC3CF0E552E552DF6E75EF1D
:1036C00020F0FD0EDBCFE6FF680EE66EE66AECEC5E
:1036D0003BF0E552E552E552680EE66EE66A12EC02
:1036E0003CF0E552E552DF6E75EF20F0FD0EDBCFCA
:1036F000E6FF690EE66EE66AECEC3BF0E552E55259
:10370000E552690EE66EE66A12EC3CF0E552E552CF
:10371000DF6E75EF20F0FD0EDBCFE6FF6A0EE66E82
:10372000E66AECEC3BF0E552E552E5526A0EE66ED5
:10373000E66A12EC3CF0E552E552DF6E75EF20F0E0
:10374000FD0EDBCFE6FF6B0EE66EE66AECEC3BF0BF
:10375000E552E552E5526B0EE66EE66A12EC3CF07D
:10376000E552E552DF6E75EF20F0FD0EDBCFE6FF90
:103770006C0EE66EE66AECEC3BF0E552E552E55283
:103780006C0EE66EE66A12EC3CF0E552E552DF6E36
:1037900075EF20F0FD0EDBCFE6FF6D0EE66EE66AFC
:1037A000ECEC3BF0E552E552E5526D0EE66EE66A52
:1037B00012EC3CF0E552E552DF6E75EF20F0FD0EA5
:1037C000DBCFE6FF6E0EE66EE66AECEC3BF0E55210
:1037D000E552E5526E0EE66EE66A12EC3CF0E552FA
:1037E000E552DF6E75EF20F0FD0EDBCFE6FF6F0ECA
:1037F000E66EE66AECEC3BF0E552E552E5526F0E00
:10380000E66EE66A12EC3CF0E552E552DF6E75EFCB
:1038100020F0FD0EDBCFE6FF700EE66EE66AECEC04
:103820003BF0E552E552E552700EE66EE66A12ECA8
:103830003CF0E552E552DF6E75EF20F0FD0EDBCF78
:10384000E6FF710EE66EE66AECEC3BF0E552E552FF
:10385000E552710EE66EE66A12EC3CF0E552E55276
:10386000DF6E75EF20F0FD0EDBCFE6FF720EE66E29
:10387000E66AECEC3BF0E552E552E552720EE66E7C
:10388000E66A12EC3CF0E552E552DF6E75EF20F08F
:10389000FD0EDBCFE6FF730EE66EE66AECEC3BF066
:1038A000E552E552E552730EE66EE66A12EC3CF024
:1038B000E552E552DF6E75EF20F0FD0EDBCFE6FF3F
:1038C000740EE66EE66AECEC3BF0E552E552E5522A
:1038D000740EE66EE66A12EC3CF0E552E552DF6EDD
:1038E00075EF20F0FD0EDBCFE6FF750EE66EE66AA3
:1038F000ECEC3BF0E552E552E552750EE66EE66AF9
:1039000012EC3CF0E552E552DF6EEFD3FD0EDBCF5B
:10391000E6FF760EE66EE66AECEC3BF0E552E55229
:10392000E552760EE66EE66A12EC3CF0E552E552A0
:10393000DF6EDBD3FD0EDBCFE6FF770EE66EE66AC9
:10394000ECEC3BF0E552E552E552770EE66EE66AA6
:1039500012EC3CF0E552E552DF6EC7D3FD0EDBCF33
:10396000E6FF780EE66EE66AECEC3BF0E552E552D7
:10397000E552780EE66EE66A12EC3CF0E552E5524E
:10398000DF6EB3D3FD0EDBCFE6FF790EE66EE66A9F
:10399000ECEC3BF0E552E552E552790EE66EE66A54
:1039A00012EC3CF0E552E552DF6E9FD3FD0EDBCF0B
:1039B000E6FF7A0EE66EE66AECEC3BF0E552E55285
:1039C000E5527A0EE66EE66A12EC3CF0E552E552FC
:1039D000DF6E8BD3FD0EDBCFE6FF7B0EE66EE66A75
:1039E000ECEC3BF0E552E552E5527B0EE66EE66A02
:1039F00012EC3CF0E552E552DF6E77D3FD0EDBCFE3
:103A0000E6FF7C0EE66EE66AECEC3BF0E552E55232
:103A1000E5527C0EE66EE66A12EC3CF0E552E552A9
:103A2000DF6E63D3FD0EDBCFE6FF7D0EE66EE66A4A
:103A3000ECEC3BF0E552E552E5527D0EE66EE66AAF
:103A400012EC3CF0E552E552DF6E4FD3FD0EDBCFBA
:103A5000E6FF7E0EE66EE66AECEC3BF0E552E552E0
:103A6000E5527E0EE66EE66A12EC3CF0E552E55257
:103A7000DF6E3BD37F0EE66EE66EE66AECEC3BF063
:103A8000E552E552E552E668800EE66EE66AECEC39
:103A90003BF0E552E552E5527F0EE66EE66A12EC27
:103AA0003CF0E552E552DF6E20D37F0EE66EE66E07
:103AB000E66AECEC3BF0E552E552E552E668800E32
:103AC000E66EE66AECEC3BF0E552E552E552800E1C
:103AD000E66EE66A12EC3CF0E552E552DF6E05D385
:103AE0007F0EE66E810EE66EE66AECEC3BF0E55288
:103AF000E552E552E668820EE66EE66AECEC3BF0D3
:103B0000E552E552E552810EE66EE66A12EC3CF0B3
:103B1000E552E552DF6EE9D27F0EE66E810EE66E6B
:103B2000E66AECEC3BF0E552E552E552E668820EBF
:103B3000E66EE66AECEC3BF0E552E552E552820EA9
:103B4000E66EE66A12EC3CF0E552E552DF6ECDD24D
:103B50007F0EE66E830EE66EE66AECEC3BF0E55215
:103B6000E552E552E668840EE66EE66AECEC3BF060
:103B7000E552E552E552830EE66EE66A12EC3CF041
:103B8000E552E552DF6EB1D27F0EE66E830EE66E31
:103B9000E66AECEC3BF0E552E552E552E668840E4D
:103BA000E66EE66AECEC3BF0E552E552E552840E37
:103BB000E66EE66A12EC3CF0E552E552DF6E95D215
:103BC0007F0EE66E850EE66EE66AECEC3BF0E552A3
:103BD000E552E552E668860EE66EE66AECEC3BF0EE
:103BE000E552E552E552850EE66EE66A12EC3CF0CF
:103BF000E552E552DF6E79D27F0EE66E850EE66EF7
:103C0000E66AECEC3BF0E552E552E552E668860EDA
:103C1000E66EE66AECEC3BF0E552E552E552860EC4
:103C2000E66EE66A12EC3CF0E552E552DF6E5DD2DC
:103C30007F0EE66E870EE66EE66AECEC3BF0E55230
:103C4000E552E552E668880EE66EE66AECEC3BF07B
:103C5000E552E552E552870EE66EE66A12EC3CF05C
:103C6000E552E552DF6E41D27F0EE66E870EE66EBC
:103C7000E66AECEC3BF0E552E552E552E668880E68
:103C8000E66EE66AECEC3BF0E552E552E552880E52
:103C9000E66EE66A12EC3CF0E552E552DF6E25D2A4
:103CA0007F0EE66E890EE66EE66AECEC3BF0E552BE
:103CB000E552E552E6688A0EE66EE66AECEC3BF009
:103CC000E552E552E552890EE66EE66A12EC3CF0EA
:103CD000E552E552DF6E09D27F0EE66E890EE66E82
:103CE000E66AECEC3BF0E552E552E552E6688A0EF6
:103CF000E66EE66AECEC3BF0E552E552E5528A0EE0
:103D0000E66EE66A12EC3CF0E552E552DF6EEDD16C
:103D1000800EE66E8B0EE66EE66AECEC3BF0E5524A
:103D2000E552E552E66A8B0EE66EE66AECEC3BF095
:103D3000E552E552E5528B0EE66EE66A12EC3CF077
:103D4000E552E552DF6ED1D1800EE66E8B0EE66E47
:103D5000E66AECEC3BF0E552E552E552E66A8B0E82
:103D6000E66EE66AECEC3BF0E552E552E5528C0E6D
:103D7000E66EE66A12EC3CF0E552E552DF6EB5D134
:103D8000800EE66E8D0EE66EE66AECEC3BF0E552D8
:103D9000E552E552E66A8D0EE66EE66AECEC3BF023
:103DA000E552E552E5528D0EE66EE66A12EC3CF005
:103DB000E552E552DF6E99D1800EE66E8D0EE66E0D
:103DC000E66AECEC3BF0E552E552E552E66A8D0E10
:103DD000E66EE66AECEC3BF0E552E552E5528E0EFB
:103DE000E66EE66A12EC3CF0E552E552DF6E7DD1FC
:103DF000800EE66E8F0EE66EE66AECEC3BF0E55266
:103E0000E552E552E66A8F0EE66EE66AECEC3BF0B0
:103E1000E552E552E5528F0EE66EE66A12EC3CF092
:103E2000E552E552DF6E61D1800EE66E8F0EE66ED2
:103E3000E66AECEC3BF0E552E552E552E66A8F0E9D
:103E4000E66EE66AECEC3BF0E552E552E552900E88
:103E5000E66EE66A12EC3CF0E552E552DF6E45D1C3
:103E6000800EE66E910EE66EE66AECEC3BF0E552F3
:103E7000E552E552E66A910EE66EE66AECEC3BF03E
:103E8000E552E552E552910EE66EE66A12EC3CF020
:103E9000E552E552DF6E29D1800EE66E910EE66E98
:103EA000E66AECEC3BF0E552E552E552E66A910E2B
:103EB000E66EE66AECEC3BF0E552E552E552920E16
:103EC000E66EE66A12EC3CF0E552E552DF6E0DD18B
:103ED000800EE66E930EE66EE66AECEC3BF0E55281
:103EE000E552E552E66A930EE66EE66AECEC3BF0CC
:103EF000E552E552E552930EE66EE66A12EC3CF0AE
:103F0000E552E552DF6EF1D0800EE66E930EE66E5E
:103F1000E66AECEC3BF0E552E552E552E66A930EB8
:103F2000E66EE66AECEC3BF0E552E552E552940EA3
:103F3000E66EE66A12EC3CF0E552E552DF6ED5D053
:103F4000800EE66E8B0EE66EE66AECEC3BF0E55218
:103F5000E552E552E66A8B0EE66EE66AECEC3BF063
:103F6000E552E552E552950EE66EE66A12EC3CF03B
:103F7000E552E552DF6EB9D0800EE66E8B0EE66E2E
:103F8000E66AECEC3BF0E552E552E552E66A8B0E50
:103F9000E66EE66AECEC3BF0E552E552E552960E31
:103FA000E66EE66A12EC3CF0E552E552DF6E9DD01B
:103FB000FD0EDBCFE6FF970EE66EE66AECEC3BF01B
:103FC000E552E552E552970EE66EE66A12EC3CF0D9
:103FD000E552E552DF6E89D0FD0EDBCFE6FF980E8D
:103FE000E66EE66AECEC3BF0E552E552E552980EDF
:103FF000E66EE66A12EC3CF0E552E552DF6E75D0F3
:10400000FD0EDBCFE6FF990EE66EE66AECEC3BF0C8
:10401000E552E552E552990EE66EE66A12EC3CF086
:10402000E552E552DF6EFD0EDBCFE6FF9A0EE66E3F
:10403000E66AECEC3BF0E552E552E5529A0EE66E8C
:10404000E66A12EC3CF0E552E552DF6E4ED0FD0E12
:10405000DBCFE6FF9B0EE66EE66AECEC3BF0E5524A
:10406000E552E5529B0EE66EE66A12EC3CF0E55234
:10407000E552DF6E3AD0FD0EDBCFE6FF9C0EE66E1A
:10408000E66AECEC3BF0E552E552E5529C0EE66E3A
:10409000E66A12EC3CF0E552E552DF6E26D00C0EDB
:1040A000F36EFD0EDBCFF4FFF350F45C05E2FD0E82
:1040B000DB500001D86FDF6E18D0FD0EDBCFE6FFBE
:1040C0009E0E0001D825E66EE66AECEC3BF0E55268
:1040D000E552E5529E0E0001D825E66EE66A12EC26
:1040E0003CF0E552E552DF6E00D0DF50006E050E69
:1040F000E15C03E200D0E16AE552E16E0050E55276
:10410000E7CFD9FF1200010E00D01200000E00D040
:104110001200000E00D01200D9CFE6FFE1CFD9FF88
:10412000FE0EDB50110FE66EE66A12EC3CF0E55233
:10413000E55200D0E552E7CFD9FF1200D9CFE6FF14
:10414000E1CFD9FFFE0EDB50EA6AB80FE96E000E30
:10415000EA22EF5000D0E552E7CFD9FF1200D9CFC5
:10416000E6FFE1CFD9FFFE0EDB50040FE66EE66AF4
:1041700012EC3CF0E552E55200D0E552E7CFD9FF12
:104180001200D9CFE6FFE1CFD9FFFD0EDBCFE6FF6E
:10419000FE0EDB50040FE66EE66AECEC3BF0E552F7
:1041A000E552E552E552E7CFD9FF1200D9CFE6FF3D
:1041B000E1CFD9FFFE0EDB50090FE66EE66A12EC86
:1041C0003CF0E552E55200D0E552E7CFD9FF1200AE
:1041D000D9CFE6FFE1CFD9FFFD0EDBCFE6FFFE0E24
:1041E000DB50090FE66EE66AECEC3BF0E552E55277
:1041F000E552E552E7CFD9FF1200010E00D01200C0
:10420000080E00D01200D9CFE6FFE1CFD9FFE65269
:10421000DF6A080EDF5C0FE2DF50E76EFD0EDBCFDA
:10422000E9FFFE0EDBCFEAFFE750E926000EEA22A7
:10423000EF6ADF2AEED7E552E552E7CFD9FF120049
:104240000001030E756F830E746F766B776B0A0E29
:10425000786F796B7A6B7B6BEEEF29F0010E00D0F3
:104260001200410EE66EE66A12EC3CF0E552E552B1
:1042700000D01200420EE66EE66A12EC3CF0E55207
:10428000E55200D01200E668000EE66EE66AECEC3D
:104290003BF0E552E552E552FF001200010EE66EDA
:1042A000E66A12EC3CF0E552E55200D01200D9CF9C
:1042B000E6FFE1CFD9FFFE0EDBCFE6FF010EE66E93
:1042C000E66AECEC3BF0E552E552E552E552E7CF09
:1042D000D9FF1200020EE66EE66A12EC3CF0E552DF
:1042E000E55200D01200D9CFE6FFE1CFD9FFFE0E94
:1042F000DBCFE6FF020EE66EE66AECEC3BF0E55241
:10430000E552E552E552E7CFD9FF1200D9CFE6FFDB
:10431000E1CFD9FFFE0EDBCFE6FF030EE66EE66AC5
:10432000ECEC3BF0E552E552E552E552E7CFD9FF20
:104330001200030EE66EE66A12EC3CF0E552E5521E
:1043400000D01200D9CFE6FFE1CFD9FF040EE1265D
:10435000FA0EDBCF00F0016A026A036A1A0E1F0B25
:1043600007E0D8900036013602360336E806F9E158
:10437000FD0EDBCF04F0FE0EDBCF05F0066A076A08
:10438000100E1F0B07E0D8900436053606360736A8
:10439000E806F9E10450001205500112065002121D
:1043A00007500312FC0EDBCF08F0096A0A6A0B6A99
:1043B000080E1F0B07E0D890083609360A360B3670
:1043C000E806F9E108500012095001120A500212E1
:1043D0000B500312FB0EDBCF0CF00D6A0E6A0F6A56
:1043E0000C5000120D5001120E5002120F50031209
:1043F00000C0DFFF010E01C0DBFF020E02C0DBFFC9
:10440000030E03C0DBFFF70EDBCFE6FFF80EDBCFBA
:10441000E6FFF90EDBCFE6FFD9CFE9FFDACFEAFFFF
:10442000EECFE6FFEECFE6FFEECFE6FFEFCFE6FF03
:10443000C1D8006E070EE15E0050000904E10001E2
:10444000612B000E02D0010E00D0006E040EE15C64
:1044500002E2E16AE552E16E0050E552E7CFD9FF92
:104460001200D9CFE6FFE1CFD9FF040EE126F30E0B
:10447000DBCFE6FFF40EDBCFE6FFF50EDBCFE6FF8A
:10448000F60EDBCFE6FFD9CFE6FFDACFE6FFC1D8E5
:10449000006E060EE15E0050000902E1000E7ED0C3
:1044A000D9CFE9FFDACFEAFFEECF00F0EECF01F08F
:1044B000EECF02F0EFCF03F00050E66EF90EDBCF47
:1044C000E9FFFA0EDBCFEAFFE552E750EF6ED9CFF6
:1044D000E9FFDACFEAFFEECF00F0EECF01F0EECF4A
:1044E00002F0EFCF03F0080ED8900332023201320F
:1044F0000032E806F9E10050E66EFB0EDBCFE9FF83
:10450000FC0EDBCFEAFFE552E750EF6ED9CFE9FFB3
:10451000DACFEAFFEECF04F0EECF05F0EECF06F0F3
:10452000EFCF07F006C000F007C001F00001026AFB
:10453000036A010E0116026A036AFD0EDBCFE9FF72
:10454000FE0EDBCFEAFF00C0EEFF01C0EDFF1A0E4A
:10455000046ED9CFE9FFDACFEAFF04501F0BEECF8C
:1045600000F0EECF01F0EECF02F0EECF03F007E067
:10457000D8900332023201320032E806F9E1070E28
:104580000016016A026A036AF70EDBCFE9FFF80E34
:10459000DBCFEAFF00C0EFFF010E00D0006E040E7B
:1045A000E15C02E2E16AE552E16E0050E552E7CFDC
:1045B000D9FF1200D9CFE6FFE1CFD9FF200EE66E7A
:1045C000FA0EDBCFE6FFF80EDBCFE6FFF90EDBCF0E
:1045D000E6FFD950FB0FE96EFF0EDA20EA6EEECF50
:1045E000E6FFEECFE6FFEECFE6FFEFCFE6FF98EC7B
:1045F0002AF0006E080EE15E0050000902E1000E94
:1046000004D00001746B010E00D0E552E7CFD9FF52
:104610001200D9CFE6FFE1CFD9FFE652000166AF25
:1046200002D0000E2AD0D9CFE6FFDACFE6FFFB0E8C
:10463000DBCFE6FFFC0EDBCFE6FFF90EDBCFE6FFBC
:10464000FA0EDBCFE6FFFD0EDBCFE6FFFE0EDBCF83
:10465000E6FF03EC2CF0006E080EE15E005000094E
:104660000AE0DFAC02D0000E08D0DFBA02D0000EA4
:1046700004D0010E02D0000E00D0E552E552E7CF83
:04468000D9FF12004C
:0C4684000001020E826F4EEC21F00001DC
:10469000606F605101E16069666B676B686B696BA5
:1046A0006A6B746B756B766B776B786B616B626B37
:1046B000816B636B646B656B876B886B836B846BDF
:1046C0008A6B8B6B8C6B12006AEC21F0C00B40087C
:1046D00002E1010E0FD0E66857EC21F0E552E66AE0
:1046E00073EC21F0E552900EE66E86EC21F0E55277
:1046F000000E00D012000001826B12000001645114
:10470000020A61E0030A26E0010A02E0646B5CD061
:10471000FF0E815D11E0810E746F756B766B776BA8
:10472000020E786F81C079F0EEEC29F00001010EE5
:10473000646F836B846B0DD0040E636F810E746F96
:104740007969070E756F766B776B030E786FEEECF9
:1047500029F03AD066AF11D0685169110DE1030E0E
:104760006A5D0AE1815105E1020E636F836B846B20
:1047700003D0812B646B656B25D0E80ED880835500
:10478000030E84551FE2652B655103081AE281511F
:1047900005E1812B646B836B846B12D081C060F068
:1047A000030E636F646B60C0E6FF57EC21F0E552C7
:1047B000400EE66E73EC21F0E5520001656B30D8D7
:1047C00001D0646B01D000D00001666B12000001C3
:1047D00066AF19D06851691115E1060E6A5D12E1E4
:1047E000FF0E6C5D0FE16DC060F060C0E6FF57EC3E
:1047F00021F0E552400EE66E73EC21F0E552000127
:10480000030E636F0CD0E80ED8808355030E8455D9
:1048100006E26069E66857EC21F0E55233DF1200EA
:104820000001810E746F756B766B776B020E786F7B
:1048300060C079F0EEEC29F00001010E826F1200E9
:10484000D9CFE6FFE1CFD9FF0001830E746F070EC9
:10485000756F140E766F776B090E786F796BFE0E9D
:10486000DBCF7AF0FD0EDBCF7BF0EEEC29F0E552EA
:10487000E7CFD9FF1200050E006E0F0E000166157E
:10488000005C13E16AEC21F000016C5D0EE06CC08D
:10489000E6FF73EC21F0E55200016069E66857EC31
:1048A00021F0E5520001010E636F1200020E006E4E
:1048B0000F0E00016615005C0FE16C51605D0CE1AC
:1048C0006DC060F060C0E6FF57EC21F0E552400E8D
:1048D000E66E73EC21F0E5521200010E006E0F0E31
:1048E00000016615005C09E16C51605D06E16069DC
:1048F000E66857EC21F0E552C5DE1200010E006EAD
:104900000F0E00016615005C0CE16C51605D09E161
:10491000800E746F756B766B776B030E786FEEECB1
:1049200029F0120000018A2B8A513B080EE28A6BA3
:104930008B2B030E635D09E13AEC21F0E66E31EC5E
:1049400021F0E66E7DDFE552E55200018B513B0818
:1049500002E28B6B8C2B8C51170801E28C6B030EDF
:10496000635D08E1892B0F0E8915006E020E005C55
:1049700001E3896B1200D9CFE6FFE1CFD9FF800EAA
:10498000F36EFE0EDBCFF4FFF350F45C07E3FE0E94
:10499000DBCFE6FF0ED8E55208D007D0FE0EDBCF06
:1049A000E6FFB0EC11F0E55200D0E552E7CFD9FFB9
:1049B0001200D9CFE6FFE1CFD9FFE652DF6A800EC1
:1049C00000016D5D04E162C0DFFF626B7ED0810E8D
:1049D0006D5D03E1010EDF6E78D0820E6D5D03E147
:1049E000050EDF6E72D0830E6D5D02E1DF6A6DD061
:1049F000940E6D5D04E183EC20F0DF6E66D0950EC1
:104A00006D5D04E186EC20F0DF6E5FD0960E6D5D8B
:104A100004E189EC20F0DF6E58D0890E6D5D08E26C
:104A2000840E6D5DE66EAFEC20F0E552DF6E4DD08A
:104A30006D5188080BE2910E6D5D08E2890E6D5D87
:104A4000E66ED6EC20F0E552DF6E3FD0910E6D5D44
:104A500003E160C0DFFF39D0930E6D5D03E1875144
:104A6000DF6E33D0920E6D5D06E188C000F0016A02
:104A70000050DF6E2AD0970E6D5D04E1FDEC20F052
:104A8000DF6E23D0980E6D5D04E100EC21F0DF6E47
:104A90001CD0990E6D5D04E12EEC21F0DF6E15D077
:104AA0006D51CF080BE2E00E6D5D08E2D00E6D5D3A
:104AB000E66E8CEC20F0E552DF6E07D0E00E6D5D07
:104AC000E66E9EEC20F0E552DF6EDF5000D0E5523E
:104AD000E552E7CFD9FF1200D9CFE6FFE1CFD9FFEA
:104AE000800EF36EFE0EDBCFF4FFF350F45C0BE3AD
:104AF000FD0EDBCFE6FFFE0EDBCFE6FF13D8E5525F
:104B0000E5520CD00BD0FD0EDBCFE6FFFE0EDBCF67
:104B1000E6FFCAEC16F0E552E55200D0E552E7CFC9
:104B2000D9FF1200D9CFE6FFE1CFD9FFE652FD0E43
:104B3000DB1CDF6E00016D51830815E2890E6D5D8F
:104B400012E26EC0E6FF840E6D5DE66EC1EC20F0F1
:104B5000E552E552840E00016D5DE66EAFEC20F08B
:104B6000E552DF6E2CD0920E6D5D17E1000E8715B9
:104B7000006EFF0E8815016E6EC002F002C003F0D9
:104B8000026A00500210876F01500310886F88C0BE
:104B900000F0016A0050DF6E12D0930E6D5D0CE1E3
:104BA000FF0E8715006E016A6E510010876F01C0FD
:104BB00088F08751DF6E03D0FD0EDB1CDF6EDF5007
:104BC00000D0E552E552E7CFD9FF1200D9CFE6FF7A
:104BD000E1CFD9FF150EE12600016851691101E00E
:104BE000F3D36A51260A01E19ED3030A01E152D3AD
:104BF000060A01E14CD3020A01E134D33E0A01E185
:104C00006ED2010A01E14DD2030A01E12CD2040A5D
:104C100001E1D5D1010A01E169D10F0A01E1CBD04F
:104C20001B0A01E17FD0070A44E0020A11E0010AF1
:104C30000DE00E0A09E0040A05E0030A01E0C4D30E
:104C40001ADEC2D35BDEC0D331DEBED346DEBCD3B8
:104C5000020E006E0F0E6615005C2AE16C51605D5D
:104C600027E1800E6D5D13E2030E756F820E746F87
:104C7000766B776B0A0E786F6DC079F06DC0E6FFCA
:104C8000B0EC11F0E55200017A6FA8DB11D0030EF1
:104C9000756F820E746F766B776B0A0E786F6DC0CE
:104CA00079F06DC0E6FF85DEE55200017A6F96DB94
:104CB0008BD3030E006E0F0E6615005C32E16C5153
:104CC000605D2FE1800E6D5D16E2030E756F820E42
:104CD000746F766B776B0A0E786F6DC079F06EC06B
:104CE000E6FF6DC0E6FFCAEC16F0E552E5520001A2
:104CF0007A6F74DB16D0030E756F820E746F766B4D
:104D0000776B0A0E786F60C079F06DC079F06EC075
:104D1000E6FF6DC0E6FF06DFE552E55200017A6F5F
:104D20005DDB52D36C51605D05E1090E6D5D02E102
:104D300043EC21F000016C51605D3CE16D053AE10E
:104D4000E66A8CEC20F0E55200016E5D33E1030E63
:104D5000E66E8CEC20F0E55200016F5D2BE1050E54
:104D6000E66E8CEC20F0E5520001705D23E1070E49
:104D7000E66E8CEC20F0E5520001715D1BE188C00D
:104D800000F0016A7251026E036A0250001802E1DB
:104D9000035001180FE1FF0E8715046E056A735169
:104DA000066E076A0650041802E10750051802E172
:104DB00043EC21F009D36C390F0B030A6DE0010AB3
:104DC00049E0030A25E0010A02E0896B87D0E66A20
:104DD0008CEC20F0E55200016D5D19E1010EE66EEC
:104DE0008CEC20F0E55200016E5D11E1020EE66EE2
:104DF0008CEC20F0E55200016F5D09E1030EE66ED8
:104E00008CEC20F0E5520001705D01E1898966D0EB
:104E1000040EE66E8CEC20F0E55200016D5D19E1A8
:104E2000050EE66E8CEC20F0E55200016E5D11E19E
:104E3000060EE66E8CEC20F0E55200016F5D09E194
:104E4000070EE66E8CEC20F0E5520001705D01E18A
:104E5000898B44D0080EE66E8CEC20F0E552000100
:104E60006D5D19E1090EE66E8CEC20F0E552000153
:104E70006E5D11E10A0EE66E8CEC20F0E552000149
:104E80006F5D09E10B0EE66E8CEC20F0E55200013F
:104E9000705D01E1898D22D00C0EE66E8CEC20F065
:104EA000E55200016D5D19E10D0EE66E8CEC20F00F
:104EB000E55200016E5D11E10E0EE66E8CEC20F005
:104EC000E55200016F5D09E10F0EE66E8CEC20F0FB
:104ED000E5520001705D01E1898F00D0F00E006E97
:104EE0008915005C02E142EC23F06ED26C51605DEA
:104EF00065E1010EDB6A020E6DC0DBFF030E6EC0C2
:104F0000DBFFDF6A030EDB50DF5C58E2020EDB5092
:104F1000DF24E66E30DDE552E66E070E006E00C05F
:104F20002EF0DFCF29F0F0EC3CF02528EA6A790F6B
:104F3000E96E000EEA22E552E750EF6E070E006EB2
:104F400000C02EF0DFCF29F0F0EC3CF02550060831
:104F500004E0030EDB04DF5C2FE1070E006E00C0EF
:104F60002EF0DFCF29F0F0EC3CF02550060806E1EA
:104F7000070EF36E040EF3CFDBFF0DD0070E006EAD
:104F800000C02EF0DFCF29F0F0EC3CF02528E76ED2
:104F9000040EE7CFDBFFDB50800F010F0001746FC1
:104FA000030E756F766B776B1A0E786F010EDBCF81
:104FB00079F014DA010EDB2ADF2AA4D705D26C516E
:104FC000605D50E1060E6DC0DBFF020E665D070BF3
:104FD000E76E070EE7CFDBFF050EDB6A070EDB503F
:104FE000F36E050EDBCFF4FFF350F45C2DE2050EFB
:104FF000DB50020FEA6A6C0FE96E000EEA22EF50F6
:10500000E66E050EDBCFE6FF060EDB50E552E72429
:10501000E66E62DDE552E552050EDBCFE6FF060ED9
:10502000DB50E552E724E66EA6DCE552E66E050E9F
:10503000DB28EA6A790FE96E000EEA22E552E750B2
:10504000EF6E050EDB2ACAD70001030E756F766B73
:10505000776B1A0E786F796B070EDB50800F010F9C
:10506000746FBCD9B1D16C51605D1AE1030E756FDC
:10507000820E746F766B776B0A0E786F6DC079F065
:105080006DC0E6FFB0EC11F0E552010FE66E6DC0A9
:10509000E6FFCAEC16F0E552E55200017A6F9ED9A0
:1050A00093D16C51605D1AE1030E756F820E746FBF
:1050B000766B776B0A0E786F6DC079F06DC0E6FF86
:1050C000B0EC11F0E552FF0FE66E6DC0E6FFCAECE2
:1050D00016F0E552E55200017A6F80D975D16C5116
:1050E000605D04E0FF0E6C5D01E0BBD00A0EDB6A80
:1050F000030E756F880E746F766B776B200E786F6A
:10510000080EDB6A030EF36E080EDBCFF4FFF350DC
:10511000F45C38E2080EDBCF79F0010EF36E090E75
:10512000F3CFDBFF080EF36E090EDBCFF4FFF35075
:10513000F45C1FE20F0E006E0A0EDBCFF3FFDB2ADA
:10514000F350005CE66E8CEC20F0E552E66E090E42
:10515000DB50EA6A790FE96E000EEA22E552E75069
:10516000EF6E0A0EDB50100801E203D0090EDB2AB5
:10517000D9D70A0EDB50100801E204D02FD9080E4F
:10518000DB2AC0D7090EDB6A050EF36E090EDBCFF2
:10519000F4FFF350F45C27E2090EDBCFE6FF9EEC50
:1051A00020F0E552000813E2090EDBCFE6FF9EEC8B
:1051B00020F0E552E66E090EDB50030FEA6A790F24
:1051C000E96E000EEA22E552E750EF6E09D0090EB3
:1051D000DB50030FEA6A790FE96E000EEA22EF6AEC
:1051E000090EDB2AD1D7FAD8050EF36E0A0EF3CFDB
:1051F000DBFF030EF36E080EF3CFDBFF070EF36E3B
:10520000080EDBCFF4FFF350F45C2BE2080EDBCF8B
:1052100079F0010EF36E090EF3CFDBFF080EF36E8B
:10522000090EDBCFF4FFF350F45C17E20A0EDBCF7C
:10523000F3FFDB2AF350E66E9EEC20F0E552E66EBB
:10524000090EDB50EA6A790FE96E000EEA22E55298
:10525000E750EF6E090EDB2AE1D7C0D8080EDB2A33
:10526000CDD7B2D06C51605D11E1030E756F870E22
:10527000746F766B776B220E786F790EE66E000E88
:10528000E66E03EC21F0E552E552A8D89DD020EC63
:1052900021F09AD06C51605D45E10E0E6DC0DBFFD0
:1052A0000F0E6EC0DBFF0C0E87C0DBFF0D0E88C03B
:1052B000DBFF6F51060802E2060E6F6F030E756F7B
:1052C000830E6F25746F766B776B270E786F0B0EDE
:1052D0006EC0DBFF6E516F25F36E0B0EDBCFF4FF5C
:1052E000F350F45C18E20B0EDBCFE6FFBBEC24F0CE
:1052F000E552E66E0B0EDB500001D8806E55030FB1
:10530000EA6A790FE96E000EEA22E552E750EF6E85
:105310000B0EDB2ADFD70C0EDBCF87F00D0EDBCFB9
:1053200088F05CD851D06C51605D4DE1130E6DC0BA
:10533000DBFF140E6EC0DBFF110E87C0DBFF120E09
:1053400088C0DBFF030E756F830E6F25746F766B5D
:10535000776B270E786F100E6EC0DBFF6E516F25D6
:10536000F36E100EDBCFF4FFF350F45C25E2100E69
:10537000DB50D8806E55040FEA6A6C0FE96E000EA0
:10538000EA22EF50E66E100EDBCFE6FF6CEC25F064
:10539000E552E552E66E100EDB500001D8806E55E6
:1053A000030FEA6A790FE96E000EEA22E552E75030
:1053B000EF6E100EDB2AD2D7110EDBCF87F0120E64
:1053C000DBCF88F00BD800D0150EE15C02E2E16A79
:1053D000E552E16EE552E7CFD9FF1200D9CFE6FFE3
:1053E000E1CFD9FFE652790EE66E000EE66E0F0EA3
:1053F00000017415E66E75C0E6FF60C0E6FF78C078
:10540000E6FF76C0E6FF77C0E6FFA2EC21F0006E73
:10541000080EE15E0050DF6EDF5002E10001612BFB
:10542000DF5000D0E552E552E7CFD9FF1200D9CFC7
:10543000E6FFE1CFD9FFE652000166AF02D0010ED0
:1054400025D06C0EE66E000EE66E660EE66E000E61
:10545000E66E670EE66E000EE66E6B0EE66E000EF2
:10546000E66E6A0EE66E000EE66E680EE66E000EE2
:10547000E66E31EC22F0006E0C0EE15E0050DF6E45
:10548000DF5002E00001668FDF5000D0E552E552A8
:06549000E7CFD9FF120076
:0A549600800EE66E93DBE552090E6E
:1054A000706EFC0E716E010E726E200E736E778E32
:1054B000779C606A0F01506B0E01206B306B406B64
:1054C000506B606B706B0D01E00EF86F0F01006B9D
:1054D000080E016F026B036B046BE80E056F1A0E6A
:1054E000066F076B0D01030ED46FD56BE06B110EC9
:1054F000E16FE26FE36BE46BE56BE66BE76B540E19
:10550000F06F050EF16FF26BF26B0F010F0E186F5B
:10551000E00E196F1A6B1B6B19870F0E1C6FE00ED4
:105520001D6F1E691F6B1D87E66A4BDBE55212007B
:10553000D9CFE6FFE1CFD9FF1C0EE126D950080FE5
:10554000E96EDACFEAFF400EEE6E0F0EED6ED95027
:105550000A0FE96EDACFEAFF300EEE6E0F0EED6E37
:10556000D9500C0FE96EDACFEAFF200EEE6E0F0E67
:10557000ED6ED9500E0FE96EDACFEAFF200EEE6E17
:105580000E0EED6ED950100FE96EDACFEAFF300E35
:10559000EE6E0E0EED6ED950120FE96EDACFEAFF05
:1055A000400EEE6E0E0EED6ED950140FE96EDACF8E
:1055B000EAFF500EEE6E0E0EED6ED950160FE96E2C
:1055C000DACFEAFF600EEE6E0E0EED6ED950180FB8
:1055D000E96EDACFEAFF700EEE6E0E0EED6EC00EC3
:1055E0007714DF6EDF5004E1DE52020EDD6E03D071
:1055F000DE52080EDD6E0D01F8417F0BE76E1B0ECB
:10560000E7CFDBFF020EDB6A010EDB50F36E020E0A
:10561000DBCFF4FFF350F45C01E3E7D0D950080F7F
:10562000006EDACF01F0020EDB50020D0050F324C1
:10563000E96E0150F420EA6E040EEECFDBFF050E9A
:10564000EDCFDBFF040EDBCF28F0050EDBCF29F01A
:10565000060E28C0DBFF070E29C0DBFF020EDB5061
:10566000020810E21B0EDBCFF3FFF390F342F3CFFF
:10567000DBFFD9501B0FE96EDACFEAFFEF50010BC9
:1056800001E1B0D0040EDBCFE9FF050EDBCFEAFF6E
:10569000EF50080B01E0A6D0FC0E006E040EDBCF2D
:1056A000E9FF050EDBCFEAFF0050EF16F70EDB50E7
:1056B000030B006E040EDBCFE9FF050EDBCFEAFF24
:1056C0000050EF12F70EDBAC08D0F80EDB504009AB
:1056D000E76E1A0EE7CFDBFF06D0F80EDB50E76E61
:1056E0001A0EE7CFDBFF050EE76E040EDBCFE9FFF6
:1056F000050EDBCFEAFFE750E926000EEA221A0E7C
:10570000DBCFEFFFF70EDBAA06D0010EF36E1A0E09
:10571000F3CFDBFF02D01A0EDB6ADBCFE6FFD950F6
:10572000FB0FE96EFF0EDA20EA6EEECFE6FFEECF5A
:10573000E6FFEECFE6FFEFCFE6FF010EE76E040EC9
:10574000DBCF00F0050EDBCF01F0E7500026000EA6
:10575000012200C0E6FF01C0E6FF48DA026E070E34
:10576000E15E0250D950040FE96EDACFEAFF060E6F
:10577000EE26000EED22030EDB6AF80EDB50F36E10
:10578000030EDBCFF4FFF350F45C1AE2F90EDBCF2B
:10579000E9FFDB2AFA0EDBCFEAFF01E3DB2AEF5059
:1057A000E66E040EDBCFE9FFDB2A050EDBCFEAFF56
:1057B00001E3DB2AE552E750EF6E030EDB2ADDD76B
:1057C000060EDBCFE9FF070EDBCFEAFFEF50040B3D
:1057D00007E1060EDBCFE9FF070EDBCFEAFFEF861E
:1057E000010E05D0020EDB2A0FD7000E00D0006E8E
:1057F0001C0EE15C02E2E16AE552E16E0050E55206
:10580000E7CFD9FF1200D9CFE6FFE1CFD9FF070ECE
:10581000E1260001E56BC00E7714DF6EDF5046E134
:1058200060AE1AD0A49074AE08D0F70EDBCFE9FFBB
:10583000F80EDBCFEAFFEF86749EE5916050010B16
:1058400001E0E581D950010FE96EDACFEAFF600E81
:10585000EE6E0F0EED6E28D00F0150AF23D0A49244
:1058600074AC08D0F70EDBCFE9FFF80EDBCFEAFF10
:10587000EF86749C070E50150001E56F020EE55D82
:1058800007E2F70EDBCFE9FFF80EDBCFEAFFEF8E82
:10589000D950010FE96EDACFEAFF500EEE6E0F0E0F
:1058A000ED6E02D0000E81D1B3D09DD0400EDF5CF2
:1058B00001E089D060AE0AD0D950010FE96EDACF8D
:1058C000EAFF600EEE6E0F0EED6E7BD00F0150AF53
:1058D0000AD0D950010FE96EDACFEAFF500EEE6E12
:1058E0000F0EED6E6ED00D01F851040B0EE10E019E
:1058F0002051800B0AE0D950010FE96EDACFEAFFA0
:10590000200EEE6E0E0EED6E5CD00D01F851080B00
:105910000EE10E013051800B0AE0D950010FE96E03
:10592000DACFEAFF300EEE6E0E0EED6E4AD00D01AC
:10593000F851100B0EE10E014051800B0AE0D950D6
:10594000010FE96EDACFEAFF400EEE6E0E0EED6E3D
:1059500038D00D01F851200B0EE10E015051800B93
:105960000AE0D950010FE96EDACFEAFF500EEE6E71
:105970000E0EED6E26D00D01F851400B0EE10E011A
:105980006051800B0AE0D950010FE96EDACFEAFFCF
:10599000600EEE6E0E0EED6E14D00D01F851800B00
:1059A0000EE10E017051800B0AE0D950010FE96E33
:1059B000DACFEAFF700EEE6E0E0EED6E02D0000E24
:1059C000F4D011D010D074AE0CD0070E6F14E66E68
:1059D000D6DAE552DE52F3CFDEFFF4CFDDFFDD5243
:1059E00002D0000EE2D0010EDBCFE9FF020EDBCFCA
:1059F000EAFFEF501F0B0001E56FA49274AC08D0D2
:105A0000F70EDBCFE9FFF80EDBCFEAFFEF86749CE1
:105A1000010EDBCF28F0020EDBCF29F0030E28C0E9
:105A2000DBFF040E29C0DBFFF70EDBCFE9FFF80E2A
:105A3000DBCFEAFFEF6A050EE76E010EDBCFE9FF71
:105A4000020EDBCFEAFFE750E926000EEA22060E3F
:105A5000EFCFDBFFDB500F0BE66EF90EDBCFE9FF7C
:105A6000FA0EDBCFEAFFE552E750EF6ED950060F92
:105A7000E96EDACFEAFFEF50400B07E0F70EDBCF1D
:105A8000E9FFF80EDBCFEAFFEF8C020EE76E010EA6
:105A9000DBCFE9FF020EDBCFEAFFE750E926000E7D
:105AA000EA22060EEFCFDBFFD950060FE96EDACF00
:105AB000EAFFEF50080B0DE0F70EDBCFE9FFF80E21
:105AC000DBCFEAFFEF8A010EF36E060EF3CFDBFFAA
:105AD00002D0060EDB6ADBCFE6FFFD0EDBCFE6FF72
:105AE000FE0EDBCFE6FF010EE76EDBCF00F0020E0D
:105AF000DBCF01F0E7500026000E012200C0E6FFD8
:105B000001C0E6FF53D9026E050EE15E0250D95086
:105B1000010FE96EDACFEAFF060EEE26000EED2247
:105B2000F90EDBCFE9FFFA0EDBCFEAFF060EEFCF6F
:105B3000DBFF050EDB6A060EDB50F36E050EDBCFD6
:105B4000F4FFF350F45C1AE2010EDBCFE9FFDB2A2D
:105B5000020EDBCFEAFF01E3DB2AEF50E66EFB0E1D
:105B6000DBCFE9FFDB2AFC0EDBCFEAFF01E3DB2A18
:105B7000E552E750EF6E050EDB2ADDD7A4AE08D064
:105B8000F70EDBCFE9FFF80EDBCFEAFFEF88A49E2C
:105B9000030EDBCFE9FF040EDBCFEAFFEF9E800EA2
:105BA000DF5C01E1749E010E00D0006E070EE15C27
:105BB00002E2E16AE552E16E0050E552E7CFD9FF1B
:105BC0001200D9CFE6FFE1CFD9FF1F0E6F16FE0EF0
:105BD000DB506F12E00E6F14006EFE0EDB50005CA7
:105BE00001E0F8D7E552E7CFD9FF1200D9CFE6FFA1
:105BF000E1CFD9FF020EE126D950F90F006EFF0E5A
:105C0000DA20016E00C0DEFF01C0DDFFF80EDB50C0
:105C10003BE1DECFE9FFDDCFEAFFEF50E840E840AF
:105C2000E8401F0BE66EFD0EDBCFE9FFFE0EDBCF7B
:105C3000EAFFE552E750EF6EDECFE9FFDDCFEAFF86
:105C4000EE52EF50200DF3CF00F0FD0EDBCFE9FF59
:105C5000FE0EDBCFEAFF0050EF12FD0EDB2AFE0E38
:105C600001E3DB2ADECFE9FFDDCFEAFFEF50200DB5
:105C7000F350E66EFD0EDBCFE9FFFE0EDBCFEAFF51
:105C8000E552E750EF6E88D0DECFE9FFDDCFEAFFC7
:105C9000020EE926000EEA22EF50E00BE838E84059
:105CA000E66EFD0EDBCFE9FFFE0EDBCFEAFFE5522D
:105CB000E750EF6EDECFE9FFDDCFEAFF030EE92606
:105CC000000EEA22EF50080DF3CF00F0FD0EDBCFFF
:105CD000E9FFFE0EDBCFEAFF0050EF12FD0EDB2ADC
:105CE000FE0E01E3DB2ADECFE9FFDDCFEAFF020E85
:105CF000E926000EEA22EF50080DF350E00BE66EA5
:105D0000FD0EDBCFE9FFFE0EDBCFEAFFE552E750E9
:105D1000EF6EFD0EDBCFE9FFFE0EDBCFEAFFEF8675
:105D2000DECFE9FFDDCFEAFF020EE926000EEA2210
:105D3000EF50030B006EFD0EDBCFE9FFFE0EDBCF55
:105D4000EAFF0050EF12FD0EDB2AFE0E01E3DB2A14
:105D5000DECFE9FFDDCFEAFFEE52EF50E66EFD0E3B
:105D6000DBCFE9FFFE0EDBCFEAFFE552E750EF6E37
:105D7000FD0EDB2AFE0E01E3DB2ADECFE9FFDDCFDD
:105D8000EAFFEF50E66EFD0EDBCFE9FFFE0EDBCF44
:105D9000EAFFE552E750EF6E020EE15C02E2E16AD3
:105DA000E552E16EE552E7CFD9FF1200D9CFE6FF09
:105DB000E1CFD9FF020EE126FB0EDBCFDEFFDBCF0A
:105DC000DDFFFA0EDB504DE1FD0EDBCFE9FFFE0EED
:105DD000DBCFEAFFEF50080DF350E66EDECFE9FFB0
:105DE000DDCFEAFFE552E750EF6EFD0EDBCFE9FFB6
:105DF000FE0EDBCFEAFFEF50E00BE838E840E66E3E
:105E0000DECFE9FFDDCFEAFFEE52E552E750EF6E5D
:105E1000FD0EDB2AFE0E01E3DB2AFD0EDBCFE9FFE0
:105E2000FE0EDBCFEAFFEF50E00BE838E840006EF3
:105E3000DECFE9FFDDCFEAFF0050EF12DECFE9FF52
:105E4000DDCFEAFF020EE926000EEA22EF6ADECF7E
:105E5000E9FFDDCFEAFF030EE926000EEA22EF6A32
:105E600084D0FD0EDBCFE9FFFE0EDBCFEAFFEF5063
:105E7000200DF350E66EDECFE9FFDDCFEAFF020E24
:105E8000E926000EEA22E552E750EF6EFD0EDBCF69
:105E9000E9FFFE0EDBCFEAFFEF50E840E840E840C4
:105EA0001F0BE66EDECFE9FFDDCFEAFF030EE9262A
:105EB000000EEA22E552E750EF6EFD0EDB2AFE0EE1
:105EC00001E3DB2AFD0EDBCFE9FFFE0EDBCFEAFFAD
:105ED000EF50030B006EDECFE9FFDDCFEAFF020ECD
