:040800005DEF04F0B4
:10081800D8CF05F0E8CF06F0E0CF07F0F2A401D07A
:1008280001D040D0FB0E026E1D0E016E54EC22F07A
:100838000001884B892B864B872B010E8027000EE1
:100848008123000E8223000E8323844B852B82A0F4
:1008580001D001D002D0906B01D0902B582A56506D
:10086800020AD8A401D001D00ED0640E586401D079
:1008780001D009D082A201D001D002D0829201D049
:100888008282586A0ED05604D8A401D001D003D071
:100898008282586A06D0566601D001D002D0829270
:1008A800586AF29407C0E0FF06C0E8FF05C0D8FF09
:1008B800100072EF21F07777772E6575726F736F7E
:1008C800757263652E73652F70617269735F30315D
:1008D800302E786D6C000000E8CFCFF0CB6BCE6B7C
:1008E800511CCD6FCF6710D07FEC22F0096A430E00
:1008F800086E51C00AF07CEC20F0096A430E086EBD
:100908004BEC22F033EF09F0CF0510E17FEC22F039
:10091800096A440E086E51C00AF07CEC20F0096A9E
:10092800440E086E4BEC22F033EF09F0010ECF6550
:1009380085D10A0ECF6182D14B0ECF25086E096A88
:10094800000E09224BEC22F00001C86FC8BF61D12C
:100958004CEF09F0010ECB6F510428E18A88000E94
:100968008AB8010ECD6F010ECE6F096A4D0E086E62
:100978004BEC22F00001C86FC8A54CEF09F0096ADA
:10098800660E086E4BEC22F00001C86F096A650E0E
:10099800086E4BEC22F00001CA6FC96BC851C9251B
:1009A800606F000ECA21616F4CEF09F051664CEF81
:1009B80009F08A98000E8AB8010ECD6FCE6B4CEF05
:1009C80009F0010ECB6F51041EE18A82000E8AB233
:1009D800010ECD6F010ECE6F096A4E0E086E4BECFC
:1009E80022F00001C86FC8A54CEF09F0096A680E2B
:1009F800086E4BEC22F00001C86F096A670E086E9A
:100A08004BEC22F09FD151664CEF09F08A92000E10
:100A18008AB2010ECD6FD2D7010ECB6F510428E1F7
:100A28008A80000E8AB0010ECD6F010ECE6F096A62
:100A38004F0E086E4BEC22F00001C86FC8A54CEFB2
:100A480009F0096A6A0E086E4BEC22F00001C86FC3
:100A5800096A690E086E4BEC22F00001CA6FC96B77
:100A6800C851C925646F000ECA21656F4CEF09F0A3
:100A780051664CEF09F08A90000E8AB0010ECD6FD6
:100A88009DD7010ECB6F510426E18B8E000E8BBED5
:100A9800010ECD6F010ECE6F096A500E086E4BEC39
:100AA80022F00001C86FC8A5F3D3096A6C0E086E5E
:100AB8004BEC22F00001C86F096A6B0E086E4BEC14
:100AC80022F00001CA6FC96BC851C925666F000EB4
:100AD800CA21676FDDD35166DBD38B9E000E8BBEB8
:100AE800010ECD6F6BD7010ECB6F510426E18B8CB5
:100AF800000E8BBC010ECD6F010ECE6F096A510E30
:100B0800086E4BEC22F00001C86FC8A5C1D3096A72
:100B18006E0E086E4BEC22F00001C86F096A6D0E6C
:100B2800086E4BEC22F00001CA6FC96BC851C92589
:100B3800686F000ECA21696FABD35166A9D38B9C2D
:100B4800000E8BBC010ECD6F39D7010ECB6F51044F
:100B580026E18B8A000E8BBA010ECD6F010ECE6F87
:100B6800096A520E086E4BEC22F00001C86FC8A546
:100B78008FD3096A700E086E4BEC22F00001C86F23
:100B8800096A6F0E086E4BEC22F00001CA6FC96B40
:100B9800C851C9256A6F000ECA216B6F79D3516697
:100BA80077D38B9A000E8BBA010ECD6F07D7010E43
:100BB800CB6F510426E18B88000E8BB8010ECD6FE8
:100BC800010ECE6F096A530E086E4BEC22F000013D
:100BD800C86FC8A55DD3096A720E086E4BEC22F087
:100BE8000001C86F096A710E086E4BEC22F0000113
:100BF800CA6FC96BC851C9256C6F000ECA216D6FC9
:100C080047D3516645D38B98000E8BB8010ECD6F34
:100C1800D5D6CF51020A01E19DD6010A01E1D1D60C
:100C2800070A01E1F9D6010A01E12BD7030A01E11C
:100C38005AD7010A8AE00F0ABAE02AD3090ECF650B
:100C4800BED1120ECF61BBD1A4D17FEC22F0430EEE
:100C58000001CF25086E096A000E092251C00AF06A
:100C68007CEC20F0430E0001CF25086E096A000EC7
:100C780009224BEC22F00001CD6F51A019D08A98BF
:100C8800CE6B8C81096A560E086E4BEC22F000017F
:100C9800C86F096A550E086E4BEC22F00001CA6F46
:100CA800C96BC851C925706F000ECA21716F03D076
:100CB8008C918A98CE6B51B462D6EAD27FEC22F03E
:100CC800430E0001CF25086E096A000E092251C0A3
:100CD8000AF07CEC20F0430E0001CF25086E096A6B
:100CE800000E09224BEC22F00001CD6F51A019D063
:100CF8008A92CE6B8C83096A560E086E4BEC22F0F2
:100D08000001C86F096A550E086E4BEC22F000010D
:100D1800CA6FC96BC851C925726F000ECA21736F9B
:100D280003D08C938A92CE6B51A4B2D2096A660E14
:100D3800086E4BEC22F00001C86F096A650E086E58
:100D48004BEC22F00001CA6FC96BC851C925626F0C
:100D5800000ECA21636F9CD27FEC22F0430E000183
:100D6800CF25086E096A000E092251C00AF07CECF2
:100D780020F0430E0001CF25086E096A000E0922F3
:100D88004BEC22F00001CD6F51A019D08A90CE6BA8
:100D98008C85096A5A0E086E4BEC22F00001C86F68
:100DA800096A590E086E4BEC22F00001CA6FC96B34
:100DB800C851C925746F000ECA21756F03D08C9570
:100DC8008A90CE6B51B43DD663D27FEC22F0430EAD
:100DD8000001CF25086E096A000E092251C00AF0E9
:100DE8007CEC20F0430E0001CF25086E096A000E46
:100DF80009224BEC22F00001CD6F51A019D08B9E37
:100E0800CE6B8C87096A5C0E086E4BEC22F00001F1
:100E1800C86F096A5B0E086E4BEC22F00001CA6FBE
:100E2800C96BC851C925766F000ECA21776F03D0E8
:100E38008C978B9ECE6B51B438D62AD27FEC22F099
:100E4800430E0001CF25086E096A000E092251C021
:100E58000AF07CEC20F0430E0001CF25086E096AE9
:100E6800000E09224BEC22F00001CD6F51A019D0E1
:100E78008B9CCE6B8C89096A5E0E086E4BEC22F057
:100E88000001C86F096A5D0E086E4BEC22F0000184
:100E9800CA6FC96BC851C925786F000ECA21796F0E
:100EA80003D08C998B9CCE6B51B431D6F1D17FECA9
:100EB80022F0430E0001CF25086E096A000E0922B0
:100EC80051C00AF07CEC20F0430E0001CF25086EDB
:100ED800096A000E09224BEC22F00001CD6F51A0E7
:100EE80019D08B9ACE6B8C8B096A600E086E4BEC0E
:100EF80022F00001C86F096A5F0E086E4BEC22F001
:100F08000001CA6FC96BC851C9257A6F000ECA2182
:100F18007B6F03D08C9B8B9ACE6B51B42AD6B8D1F9
:100F28007FEC22F0430E0001CF25086E096A000EFF
:100F3800092251C00AF07CEC20F0430E0001CF25B5
:100F4800086E096A000E09224BEC22F00001CD6FF1
:100F580051A019D08B98CE6B8C8D096A620E086EE1
:100F68004BEC22F00001C86F096A610E086E4BEC69
:100F780022F00001CA6FC96BC851C9257C6F000EE9
:100F8800CA217D6F03D08C9D8B9ECE6B51B423D626
:100F98007FD1CF510A0A01E158D6010A01E18ED664
:100FA800070A01E1D9D6010A01E10FD7030A01E1D5
:100FB80045D7010A01E17BD71F0AB2E069D1110EBA
:100FC800CF65E1D0220ECF61DED07FEC22F0430E58
:100FD8000001CF25086E096A000E092251C00AF0E7
:100FE8007CEC20F0430E0001CF25086E096A000E44
:100FF80009224BEC22F00001CD6FB0D0096A560EE1
:10100800086E4BEC22F00001C86F096A550E086E95
:101018004BEC22F00001CA6FC96BC851C925706F2B
:10102800000ECA21716F34D1096A580E086E4BEC54
:1010380022F00001C86F096A570E086E4BEC22F0C7
:101048000001CA6FC96BC851C925726F000ECA2149
:10105800736F1ED1096A5A0E086E4BEC22F000011C
:10106800C86F096A590E086E4BEC22F00001CA6F6E
:10107800C96BC851C925746F000ECA21756F08D194
:10108800096A5C0E086E4BEC22F00001C86F096A11
:101098005B0E086E4BEC22F00001CA6FC96BC85199
:1010A800C925766F000ECA21776FF2D0096A5E0EE5
:1010B800086E4BEC22F00001C86F096A5D0E086EDD
:1010C8004BEC22F00001CA6FC96BC851C925786F73
:1010D800000ECA21796FDCD0096A600E086E4BECED
:1010E80022F00001C86F096A5F0E086E4BEC22F00F
:1010F8000001CA6FC96BC851C9257A6F000ECA2191
:101108007B6FC6D0096A620E086E4BEC22F00001B4
:10111800C86F096A610E086E4BEC22F00001CA6FB5
:10112800C96BC851C9257C6F000ECA217D6FB0D02C
:10113800096A640E086E4BEC22F00001C86F096A58
:10114800630E086E4BEC22F00001CA6FC96BC851E0
:10115800C9257E6F000ECA217F6F9AD0CF51130A1E
:1011680001E14CD7060A01E15FD7020A01E172D713
:101178000E0A86E0020A9AE0060AAEE0020AC2E017
:101188003E0AD6E085D0210ECF654DD0320ECF6114
:101198004AD07FEC22F0430E0001CF25086E096A81
:1011A800000E092251C00AF07CEC20F0430E000129
:1011B800CF25086E096A000E09224BEC22F00001C7
:1011C800CD6F16D0096A740E086E4BEC22F0000140
:1011D800C86F096A730E086E4BEC22F00001CA6FE3
:1011E800C96BC851C9256E6F000ECA216F6F50D0E8
:1011F800CF51230A02E1C3EF04F0060A02E1FAEF35
:1012080004F0020A01E11DD40E0A01E14ED4020ADB
:1012180001E17DD4060A01E1ACD4020A01E1DBD484
:101228001E0AD0E035D0310ECF651CD0420ECF61FA
:1012380019D07FEC22F0430E0001CF25086E096A11
:10124800000E092251C00AF07CEC20F0430E000188
:10125800CF25086E096A000E09224BEC22F0000126
:10126800CD6F16D0470ECF6513D0800ECF6110D04A
:101278007FEC22F0430E0001CF25086E096A000EAC
:10128800092251C00AF07CEC20F0A4EC0CF0DED767
:10129800CB5135E04B0ECF25086E096A000E0922A6
:1012A8004BEC22F00001CC6FCE5115E0CCA708D052
:1012B800140EC66F030EC76FCF51FE0F9AEC1FF0C6
:1012C800CCAB1DD0140EC66F190EC76FCF51FE0FD1
:1012D8009AEC1FF014D0CCA908D0140EC66F040ED7
:1012E800C76FCF51FE0F9AEC1FF0CCAD08D0140E8B
:1012F800C66F180EC76FCF51FE0F9AEC1FF0CD5175
:1013080012009A51991101E1E9D219D33EEC20F06B
:1013180016D3C4EC20F013D34EEC21F010D396EC86
:1013280020F00DD397510F0B020A01E008D3925118
:1013380020EE9DF0DF6203D3800E9E6112D09E5195
:101348002EEC1EF00001AB6F9EC0AAF0030EA66F34
:10135800820EA56FA76BA86B0A0EA96F3BEC21F054
:10136800EED29E5158EC17F0EDD797510F0B030AA8
:1013780001E0E5D2925120EE9DF0DF62E0D2800ECE
:101388009E6106D09FC051F09E5170EC04F0DBD7EF
:101398009FC048F09E510CEC1CF0D4D7925120EE1F
:1013A8009DF0DF62CCD2000E38EC22F000019F19CC
:1013B80001E0C5D2030E38EC22F00001A01901E0CB
:1013C800BED2050E38EC22F00001A11901E0B7D217
:1013D800070E38EC22F00001A21901E0B0D25350F8
:1013E800A31901E0ACD2525020EEA4F0DF62A7D2DC
:1013F8009E51D0EC21F0A3D2000E38EC22F000016F
:101408009E1973E1010E38EC22F000019F196DE17D
:10141800020E38EC22F00001A01967E1030E38EC47
:1014280022F00001A11961E18E895FD0040E38EC29
:1014380022F000019E1959E1050E38EC22F0000156
:101448009F1953E1060E38EC22F00001A0194DE176
:10145800070E38EC22F00001A11947E18E8B45D028
:10146800080E38EC22F000019E193FE1090E38EC15
:1014780022F000019F1939E10A0E38EC22F0000130
:10148800A01933E10B0E38EC22F00001A1192DE16F
:101498008E8D2BD00C0E38EC22F000019E1925E120
:1014A8000D0E38EC22F000019F191FE10E0E38ECEA
:1014B80022F00001A01919E10F0E38EC22F000010A
:1014C800A11913E18E8F11D08E6B0FD09D390F0BA0
:1014D800D26FD36BD351F8E1D2518EE0010AA6E066
:1014E800030ABEE0010AD6E0EFD78E51F00BF00AEE
:1014F80001E025D21CEC20F022D2925120EE9DF082
:10150800DF621DD2DE6B9EC0DDF09FC0E0F0EC6BA9
:1015180047D0070E086EEC51EEEC20F00001D26FB8
:10152800D251AB0FD96EDA6ADD51EC25DEEC21F031
:10153800DF6E070E086E0001EC51EEEC20F0060A93
:101548000BE0FF0E0001E025D26FD36BFF0ED32313
:10155800EC51D219D31123E1070E086E0001EC51AA
:10156800EEEC20F0060A03E1070E000109D0070E91
:10157800086E0001EC51EEEC20F00001D26FD22988
:10158800DF6FDF51810FA56F070EA66FA76BA86BE2
:101598001A0EA96FDEC0AAF03BEC21F0DE2BEC2B73
:1015A800E051EC5D01E3CBD1B4D7925120EE9DF030
:1015B800DF62C5D19EC0E1F09751FE0F070BE26FC5
:1015C800E76B16D0E7519F0FD96EDA6ADF50D06FFC
:1015D800E151E72583EC21F00001E751AB0FD96E0B
:1015E800DA6AE151E725DEEC21F0DF6E0001E72B36
:1015F800E251E75DE7E3070EA66FA76BA86B1A0E2B
:10160800A96FAA6BE251810FA56FA8D6925120EE5F
:101618009DF0DF6294D19E512EEC1EF00001D26F36
:10162800D229516E9E5170EC04F08DD6925120EE65
:101638009DF0DF6284D19E512EEC1EF00001D26F26
:10164800D205516E9E5170EC04F07DD69D519219D1
:1016580003E09D2901E073D1E66B030EA66F880EA7
:10166800A56FA76BA86B200EA96FEB6BEBC0AAF058
:10167800010EED6FED51AA0FD96EDA6AE6510F0827
:1016880038EC22F0DF6E0001E62B100EE66501D083
:1016980004D0ED2B070EED65EDD7100EE66501D0F1
:1016A80006D03BEC21F0EB2B020EEB65DFD7ED6BA0
:1016B800ED51EBEC21F0000908E0ED51AD0FD96ECA
:1016C800DA6AED51EBEC21F005D0ED51AD0FD96E92
:1016D800DA6A000EDF6EED2B040EED65E9D73BEC00
:1016E80021F0050EE66F030EEB6FEBC0AAF0010EBA
:1016F800ED6FED51AA0FD96EDA6AE651EBEC21F0E5
:10170800DF6EE62BED2B070EED65F3D73BEC21F0F2
:10171800EB2B060EEB65E9D712D1925120EE9DF026
:10172800DF620DD1030EA66F870EA56FA76BA86B9E
:10173800220EA96FAA0E94EC21F010D6925120EE39
:101748009DF0DF62FCD0E86B97C0D2F00F0ED21785
:10175800040ED25D12E3A1C0E9F0EA6BEA51E91187
:1017680003E1010EEA6FE96B010EE95D010EEA592A
:1017780007E3010EEA6F000E02D0EA6B010EE96F73
:1017880052C0D9F053C0DAF09F519EC0D2F0D36B4B
:10179800D2C0D3F0D26BD211526ED351536E070E12
:1017A800A66FA76BA86B270EA96FAA6B9EC0ABF09C
:1017B8009FC0ACF0E851E95DD26F000EEA59D36FD3
:1017C800040ED25D000ED35902E3040E02D0E85194
:1017D800E95DE36FE351840FA56FA051E825AD6F74
:1017E800E46B0CD0E451AE0FD96EDA6AA051E8254B
:1017F800E425DEEC21F0DF6E0001E42BE351E45D2B
:10180800F1E33BEC21F0E351E827AA2BE851D26F32
:10181800D36BE951D25DEA51D359CCE3D9C052F028
:10182800DAC053F08CD0925120EE9DF0DF6287D061
:1018380052C0DBF053C0DCF09F519EC0D2F0D36B96
:10184800D2C0D3F0D26BD211526ED351536EA0C016
:10185800E5F014D0A051A108E525D96EDA6ADF5069
:10186800D06FE55183EC21F00001D26FA051AE0892
:10187800E525D96EDA6AD2C0DFFFE52B97510F0B49
:10188800D26FD36BA051D227000ED323FC0ED225E2
:10189800D46FFF0ED321D56FE551D66FD76BD751D3
:1018A800800AD86FD451D65DD551800AD859D2E371
:1018B800DBC052F0DCC053F0070EA66F97510F0B38
:1018C800800FA56FA76BA86B270EA96FAA6B9EC088
:1018D800ABF09FC0ACF0A0C0ADF040D59B51010A61
:1018E80001E114D5030A01E114D5040A01E114D574
:1018F8000E0A01E114D5010A01E114D5020A01E139
:1019080034D5070A01E14AD51B0A01E1DFD50F0AE0
:1019180001E1F3D5010A01E148D6040A01E176D6CE
:10192800030A01E183D6010A01E190D63E0A01E1EA
:10193800F4D6040A01E102D7030A01E174D71200C0
:1019480036683768386839683A6A3B6A3C6A3D6A7B
:10195800436A4350126E136AD89012361336D890E1
:1019680012361336D89012361336440E1224086EE7
:10197800000E1320096E4BEC22F0146E14AEE8D161
:101988004350126E136AD89012361336D890123616
:101998001336D89012361336470E1224086E000EEE
:1019A8001320096E4BEC22F0146E14C015F0166A61
:1019B800176A186A17C018F016C017F015C016F085
:1019C800156A4350196E1A6AD89019361A36D89083
:1019D80019361A36D89019361A36450E1924086E53
:1019E800000E1A20096E4BEC22F01B6E1BC01CF077
:1019F8001D6A1E6A1F6A1DC01FF01CC01EF01D6AEA
:101A08001C6A4350206E216AD89020362136D8901F
:101A180020362136D89020362136440E2024086EF0
:101A2800000E2120096E4BEC22F0226E020E2216C7
:101A380022C023F0246A256A266A170ED890233616
:101A4800243625362636E82EF9D71C502310276E63
:101A58001D502410286E1E502510296E1F50261068
:101A68002A6E155027102B6E165028102C6E175002
:101A780029102D6E18502A102E6EFF0E2B10316E65
:101A88002C50326E2D50336E2E50346E4350126EE1
:101A9800136AD89012361336D89012361336D89067
:101AA80012361336480E1224086E000E1320096EE3
:101AB8004BEC22F0146E14C015F0166A176A186AF7
:101AC80017C018F016C017F015C016F0156A435065
:101AD800196E1A6AD89019361A36D89019361A36E5
:101AE800D89019361A36460E1924086E000E1A2098
:101AF800096E4BEC22F01B6E1BC01CF01D6A1E6A9F
:101B08001F6A1DC01FF01CC01EF01D6A1C6A4350CE
:101B1800206E216AD89020362136D890203621367A
:101B2800D89020362136440E2024086E000E21203D
:101B3800096E4BEC22F0226E010E221622C023F011
:101B4800246A256A266A23C026F0256A246A236A3D
:101B58001C502310276E1D502410286E1E5025106F
:101B6800296E1F5026102A6E155027102B6E1650FE
:101B780028102C6E175029102D6E18502A102E6E12
:101B880043502F6E306AD8902F363036D8902F3683
:101B98003036D8902F363036430E2F24086E000E7C
:101BA8003020096E4BEC22F02B103E6E2C503F6E0D
:101BB8002D50406E2E50416E436608D03EC03AF01C
:101BC8003FC03BF040C03CF041C03DF031503616BC
:101BD800325037163350381634503916426A42504C
:101BE8003EC012F03FC013F040C014F041C015F0E1
:101BF800E82A05D0D8901532143213321232E82E62
:101C0800F9D7010E121642503AC016F03BC017F031
:101C18003CC018F03DC019F0E82A05D0D890193218
:101C2800183217321632E82EF9D71650010B12184F
:101C38001DE042C012F0010E136E146A122A03D07E
:101C4800D89013361436122EFBD7131C156E141C9D
:101C5800166E176A16BE17061750186E15503616E8
:101C6800165037161750381618503916422A1F0EB4
:101C78004264B5D73E503A163F503B1640503C168A
:101C880041503D1643504FE0426A43C012F0435062
:101C9800136E146AD89013361436D8901336143647
:101CA800D89013361436430E1324086E000E1420F1
:101CB800096E4BEC22F0156E122A02D0D89015321C
:101CC800122EFCD7010E151643C016F035C017F0BA
:101CD800162A02D0D8901732162EFCD71750010BAF
:101CE80015181DE043C012F0010E136E146A122A73
:101CF80003D0D89013361436122EFBD713C015F024
:101D080014C016F0000E16BEFF0E176E186E155092
:101D18003616165037161750381618503916422AE4
:101D2800070E4264B2D74350126E136AD890123627
:101D38001336D89012361336D89012361336430E0F
:101D48001224086E000E1320096E4BEC22F0356E3B
:101D5800432A060E4364FDD5800EF7EC21F00F01EF
:101D68000F0E096E1C0E086E36C00AF037C00BF055
:101D780038C00CF039C00DF0010E0E6E3FEC1AF0B1
:101D88000D01D4830F010F0E096E040E086E3AC0C0
:101D98000AF03BC00BF03CC00CF03DC00DF0010E4A
:101DA8000E6E3FEC1AF0000EF7EF21F07FEC22F0F8
:101DB800096A430E086E000E0A6A7CEC20F07FEC7C
:101DC80022F0096A440E086E000E0A6A7CEC20F0C4
:101DD8007FEC22F0096A4D0E086E980E0A6E7CECB4
:101DE80020F07FEC22F0096A4E0E086E980E0A6EFB
:101DF8007CEC20F07FEC22F0096A4F0E086E980EFA
:101E08000A6E7CEC20F07FEC22F0096A500E086E16
:101E1800980E0A6E7CEC20F07FEC22F0096A510ED5
:101E2800086E980E0A6E7CEC20F07FEC22F0096AAE
:101E3800520E086E980E0A6E7CEC20F07FEC22F0B1
:101E4800096A530E086E980E0A6E7CEC20F07FEC3F
:101E580022F0096A540E086E980E0A6E7CEC20F087
:101E68007FEC22F0096A550E086E000E0A6A7CECB7
:101E780020F07FEC22F0096A560E086E000E0A6AFE
:101E88007CEC20F07FEC22F0096A570E086E000EF9
:101E98000A6A7CEC20F07FEC22F0096A580E086E82
:101EA800000E0A6A7CEC20F07FEC22F0096A590ED9
:101EB800086E000E0A6A7CEC20F07FEC22F0096ABA
:101EC8005A0E086E000E0A6A7CEC20F07FEC22F0B5
:101ED800096A5B0E086E000E0A6A7CEC20F07FEC43
:101EE80022F0096A5C0E086E000E0A6A7CEC20F08B
:101EF8007FEC22F0096A5D0E086E000E0A6A7CEC1F
:101F080020F07FEC22F0096A5E0E086E000E0A6A65
:101F18007CEC20F07FEC22F0096A5F0E086E000E60
:101F28000A6A7CEC20F07FEC22F0096A600E086EE9
:101F3800000E0A6A7CEC20F07FEC22F0096A610E40
:101F4800086E000E0A6A7CEC20F07FEC22F0096A29
:101F5800620E086E000E0A6A7CEC20F07FEC22F01C
:101F6800096A630E086E000E0A6A7CEC20F07FECAA
:101F780022F0096A640E086E000E0A6A7CEC20F0F2
:101F88007FEC22F0096A650E086E000E0A6A7CEC86
:101F980020F07FEC22F0096A660E086E000E0A6ACD
:101FA8007CEC20F07FEC22F0096A670E086E000EC8
:101FB8000A6A7CEC20F07FEC22F0096A680E086E51
:101FC800000E0A6A7CEC20F07FEC22F0096A690EA8
:101FD800086E000E0A6A7CEC20F07FEC22F0096A99
:101FE8006A0E086E000E0A6A7CEC20F07FEC22F084
:101FF800096A6B0E086E000E0A6A7CEC20F07FEC12
:1020080022F0096A6C0E086E000E0A6A7CEC20F059
:102018007FEC22F0096A6D0E086E000E0A6A7CECED
:1020280020F07FEC22F0096A6E0E086E000E0A6A34
:102038007CEC20F07FEC22F0096A6F0E086E000E2F
:102048000A6A7CEC20F07FEC22F0096A700E086EB8
:10205800000E0A6A7CEC20F07FEC22F0096A710E0F
:10206800086E000E0A6A7CEC20F07FEC22F0096A08
:10207800720E086E000E0A6A7CEC20F07FEC22F0EB
:10208800096A730E086E000E0A6A7CEC20F07FEC79
:1020980022F0096A740E086E000E0A6A7CEC20F0C1
:1020A8007FEC22F0096A750E086E000E0A6A7CEC55
:1020B80020F07FEC22F0096A760E086E000E0A6A9C
:1020C8007CEC20F07FEC22F0096A770E086E000E97
:1020D8000A6A7CEC20F07FEC22F0096A780E086E20
:1020E800000E0A6A7CEC20F07FEC22F0096A790E77
:1020F800086E000E0A6A7CEC20F07FEC22F0096A78
:102108007A0E086E000E0A6A7CEC20F07FEC22F052
:10211800096A7B0E086E000E0A6A7CEC20F07FECE0
:1021280022F0096A7C0E086E000E0A6A7CEC20F028
:102138007FEC22F0096A7D0E086E000E0A6A7CECBC
:1021480020F07FEC22F0096A7E0E086E000E0A6A03
:102158007CEC20F07FEC22F0096A7F0E086E000EFE
:102168000A6A7CEC20F07FEC22F0096A800E086E87
:10217800000E0A6A7CEC20F07FEC22F0096A810EDE
:10218800086E000E0A6A7CEC20F07FEC22F0096AE7
:10219800820E086E000E0A6A7CEC20F07FEC22F0BA
:1021A800096A830E086E000E0A6A7CEC20F07FEC48
:1021B80022F0096A840E086E000E0A6A7CEC20F090
:1021C800466A476A7FEC22F0475046C044F0456AA9
:1021D800D89044364536D89044364536D89044365B
:1021E80045364426000E45228B0E4424086E000E08
:1021F8004520096E000E0A6A7CEC20F0472A070E7B
:102208004764E0D7462A060E4664DBD7A4EF0CF0F5
:1022180000019A51991101E179D1DE6BDE51CE6F3F
:10222800CF6BD890CE37CF37D890CE37CF37D8901E
:10223800CE37CF378C0ECE25086E000ECF21096E13
:102248004BEC22F00001DD6FDDAF5BD1DDAD18D0C6
:10225800DE51CE6FCF6BD890CE37CF37D890CE37F0
:10226800CF37D890CE37CF378B0ECE25086E000EDD
:10227800CF21096E4BEC22F000019C1901E041D1FD
:10228800DE51080D8E0EF324086E000EF420096E40
:102298004BEC22F00001CE6FDD51010BD06FCF6BFC
:1022A800CE51CF25D16F000ED021D26FDE51080D4F
:1022B8008D0EF324086E000EF420096E4BEC22F00C
:1022C8000001CE6FDD51020BD06FCF6BCE51CF2501
:1022D800D36F000ED021D46FDE51CE6FCF6BD89064
:1022E800CE37CF37D890CE37CF37D890CE37CF37F5
:1022F800900ECE25086E000ECF21096E4BEC22F011
:102308000001D56FDE51CE6FCF6BD890CE37CF3767
:10231800D890CE37CF37D890CE37CF378F0ECE253F
:10232800086E000ECF21096E4BEC22F00001D66F2B
:1023380020EE99F0DECFCEF0DDCFCFF0D151CE1B1D
:10234800D251CF1BD351CE17D451CF17CF51CE1165
:1023580001E0D7D09B51D519D61501E1AFD0D1D026
:102368000001DE51CE6FCF6BD890CE37CF37D890E3
:10237800CE37CF37D890CE37CF37920ECE25086ECE
:10238800000ECF21096E4BEC22F00001D76FD7C0A9
:1023980051F0DD5104EC14F0B4D00001DE51CE6FE1
:1023A800CF6BD890CE37CF37D890CE37CF37D8909D
:1023B800CE37CF37920ECE25086E000ECF21096E8C
:1023C8004BEC22F00001D86FD8C051F0DD518FECF2
:1023D8001CF097D00001DE51CE6FCF6BD890CE376E
:1023E800CF37D890CE37CF37D890CE37CF37920E59
:1023F800CE25086E000ECF21096E4BEC22F00001AD
:10240800D96FD9C00AF0DD5158EC16F07AD0000126
:10241800DE51CE6FCF6BD890CE37CF37D890CE372E
:10242800CF37D890CE37CF37920ECE25086E000E14
:10243800CF21096E4BEC22F00001DA6FDAC051F0BF
:10244800DD51E7EC1AF05DD00001DE51CE6FCF6BA5
:10245800D890CE37CF37D890CE37CF37D890CE3721
:10246800CF37920ECE25086E000ECF21096E4BECA9
:1024780022F00001DB6FDBC00CF0DD5189EC1EF0AF
:1024880040D00001DE51CE6FCF6BD890CE37CF371A
:10249800D890CE37CF37D890CE37CF37920ECE25BB
:1024A800086E000ECF21096E4BEC22F00001DC6FA4
:1024B800DCC051F0DD5196EC19F023D0DE51CE6F1F
:1024C800CF6BD890CE37CF37D890CE37CF37D8907C
:1024D800CE37CF37910ECE25086E000ECF21096E6C
:1024E8004BEC22F0010A01E13BD7030A01E155D781
:1024F800010A01E16FD7070AC4E00E0A88E01A0A48
:10250800A3E00001DE2B060EDE6588D61200D06B34
:10251800D26B070ED26501D072D14D0ED225086E4E
:10252800096A000E09224BEC22F00001D16FD1AFED
:1025380064D1D251020DF350600FD96EDA6ADE50C1
:10254800DD1037E0D251020DF350600FD96EDA6A10
:10255800DE06000EDD5AD251020DF350600FD96E1F
:10256800DA6ADE50DD1046E14D0ED225086E096AA2
:10257800000E09224BEC22F00001CD6FCDA53AD018
:10258800D2C0CDF0010ECE6FCD2B02D0D890CE3771
:10259800CD2FFCD7CE51516E000E8FEC1CF0D1A37D
:1025A80029D0010EC66F020EC76FD2519AEC1FF0E8
:1025B80021D0650ED225086E096A000E09224BEC5F
:1025C80022F00001CE6FCD6B660ED225086E096A27
:1025D800000E09224BEC22F00001CD27000ECE237D
:1025E800D251020DF350600FD96EDA6ACDC0DEFF0A
:1025F800CEC0DDFFD2C0CDF0010ECE6FCD2B02D004
:10260800D890CE37CD2FFCD7CE518C1501E1F5D01F
:10261800D251020DF350700FD96EDA6ADE50DD1018
:1026280001E1CCD0D251020DF350700FD96EDA6AA5
:10263800DE06000EDD5AD251020DF350700FD96E2E
:10264800DA6ADE50DD102EE0D8D08AA802D08A9847
:1026580025D08A88010ED06F33D08AA202D08A9200
:102668001DD08A82F7D78AA002D08A9017D08A8094
:10267800F1D78BAE02D08B9E11D08B8EEBD78BAC63
:1026880002D08B9C0BD08B8CE5D78BAA02D08B9A6F
:1026980005D08B8ADFD78BA803D08B98D06B10D04E
:1026A8008B88D8D7D251D1E0010AD7E0030ADBE002
:1026B800010ADFE0070AE3E0010AE7E0030AEBE0CA
:1026C800D251020D550EF324086E000EF420096E47
:1026D8004BEC22F00001CE6FCD6BD251020D560E9D
:1026E800F324086E000EF420096E4BEC22F0000172
:1026F800CD27000ECE23D251020DF350700FD96EA4
:10270800DA6ACDC0DEFFCEC0DDFFD05144E04D0E09
:10271800D225086E096A000E09224BEC22F000014E
:10272800CD6FCDA525D0D251020D650EF324086ECC
:10273800000EF420096E4BEC22F00001CE6FCD6B39
:10274800D251020D660EF324086E000EF420096EB5
:102758004BEC22F00001CD27000ECE23D251020D02
:10276800F350600FD96EDA6ACDC0DEFFCEC0DDFF50
:10277800D1A707D0140EC66F030EC76FD2519AECBB
:102788001FF0D1AB3AD0140EC66F190EC76FD251D5
:102798009AEC1FF032D0D1A907D0140EC66F040EE0
:1027A800C76FD2519AEC1FF0D1AD27D0140EC66F67
:1027B800180EC76FD2519AEC1FF01FD0D251020DDC
:1027C800560EF324086E000EF420096E4BEC22F02E
:1027D8000001CD6FD251020D550EF324086E000E84
:1027E800F420096E4BEC22F00001CF6FCE6BCD5177
:1027F800CE25706F000ECF21716FD22B8AD61200B2
:10280800E8CFCBF0CD6BCDC0C8F0010EC96FC82B97
:1028180002D0D890C937C82FFCD7C951511401E14B
:1028280037D1CBA911D0D890CD35C86FC96BC9376E
:10283800750EC825086E000EC921096E4BEC22F0F2
:1028480000019E1901E024D1CBA711D0D890CD3535
:10285800C86FC96BC937760EC825086E000EC92126
:10286800096E4BEC22F000019F1901E011D14D0EC9
:10287800CD25086E096A000E09224BEC22F00001F2
:10288800CC6FCCAF05D1E0D08A88096A4D0E086EAE
:102898004BEC22F00001C86FC8A5E8D0096A660EA3
:1028A800086E4BEC22F00001C86F096A650E086ECD
:1028B8004BEC22F00001CA6FC96BC851C925606F83
:1028C800000ECA21616FD2D08A82096A4E0E086E44
:1028D8004BEC22F00001C86FC8A5C8D0096A680E81
:1028E800086E4BEC22F00001C86F096A670E086E8B
:1028F8004BEC22F00001CA6FC96BC851C925626F41
:10290800000ECA21636FB2D08A80096A4F0E086E22
:102918004BEC22F00001C86FC8A5A8D0096A6A0E5E
:10292800086E4BEC22F00001C86F096A690E086E48
:102938004BEC22F00001CA6FC96BC851C925646FFE
:10294800000ECA21656F92D08B8E096A500E086EF0
:102958004BEC22F00001C86FC8A588D0096A6C0E3C
:10296800086E4BEC22F00001C86F096A6B0E086E06
:102978004BEC22F00001CA6FC96BC851C925666FBC
:10298800000ECA21676F72D08B8C096A510E086ECF
:102998004BEC22F00001C86FC8A568D0096A6E0E1A
:1029A800086E4BEC22F00001C86F096A6D0E086EC4
:1029B8004BEC22F00001CA6FC96BC851C925686F7A
:1029C800000ECA21696F52D08B8A096A520E086EAE
:1029D8004BEC22F00001C86FC8A548D0096A700EF8
:1029E800086E4BEC22F00001C86F096A6F0E086E82
:1029F8004BEC22F00001CA6FC96BC851C9256A6F38
:102A0800000ECA216B6F32D08B88096A530E086E8C
:102A18004BEC22F00001C86FC8A528D0096A720ED5
:102A2800086E4BEC22F00001C86F096A710E086E3F
:102A38004BEC22F00001CA6FC96BC851C9256C6FF5
:102A4800000ECA216D6F12D0CD5101E11DD7010AC8
:102A580001E13AD7030A01E157D7010A01E174D726
:102A6800070A92E0010AB0E0030ACEE0CCA707D03B
:102A7800140EC66F030EC76FCD519AEC1FF0CCAB86
:102A880007D0140EC66F190EC76FCD519AEC1FF000
:102A9800CD2B070ECD65B7D6070CE8CF14F0546AD6
:102AA8007750C00B166E166632D060AE12D0A49066
:102AB80074AE06D01150D96EDA6A000EDB86749EA9
:102AC80060A002D0548001D054900F0E196E600E91
:102AD8001AD00F0150AF19D0A49274AC06D011507F
:102AE800D96EDA6A000EDB86749C5051070B546E5F
:102AF800020E546005D01150D96EDA6A000EDB8ED2
:102B08000F0E196E500E186E65D0000ECCD01650F0
:102B1800400A46E160AE04D00F0E196E600E3ED03A
:102B28000F0150AF04D00F0E196E500E37D00D01A3
:102B3800F8B507D00E0120AF04D00E0E196E200E86
:102B48002DD00D01F8B707D00E0130AF04D00E0E0E
:102B5800196E300E23D00D01F8B907D00E0140AF21
:102B680004D00E0E196E400E19D00D01F8BB05D019
:102B78000E0150AF02D00E0ED7D70D01F8BD05D00B
:102B88000E0160AF02D00E0EC8D70D01F8BFBDD739
:102B98000E0170AFBAD70E0E196E700E186E0AD0ED
:102BA80074AEB3D76F50070B5FEC1FF008C018F076
:102BB80009C019F018C0D9FF19C0DAFFDF501F0B80
:102BC800546EA49274AC06D01150D96EDA6A000E15
:102BD800DB86749C18C012F019C013F01150D96E1E
:102BE800DA6ADF6A20EE05F01850D9261950DA2281
:102BF800DF50176E1050D96EDA6A17500F0BDF6E60
:102C080017AC05D01150D96EDA6A000EDB8C20EEB5
:102C180002F01850D9261950DA22DF50176E17A67D
:102C280008D01150D96EDA6A000EDB8A010E176ED1
:102C380001D0176A1828086E000E1920096E14C0F2
:102C48000AF017C00BF0E4EC18F0060E1826000E78
:102C580019221050D96EDA6ADF50176E156A0DD036
:102C680018C0D9FF19C0DAFF0F50E16EE26ADFCF52
:102C7800E7FF184A192A0F2A152A1750155CF0E39E
:102C8800A4AE06D01150D96EDA6A000EDB88A49E75
:102C980012C0D9FF13C0DAFF7F0EDF161650800A64
:102CA800D8B4749E010E1200E8CF0FF0106A10C05D
:102CB8000BF0010E0C6E0B2A02D0D8900C360B2E9E
:102CC800FCD70C500A1401E1EAD00FA811D0D89013
:102CD80010340B6E0C6A0C36750E0B24086E000E41
:102CE8000C20096E4BEC22F000019E1901E0D7D0B0
:102CF8000FA611D0D89010340B6E0C6A0C36760ED5
:102D08000B24086E000E0C20096E4BEC22F000011B
:102D18009F1901E0C4D04D0E1024086E096A000EF8
:102D280009224BEC22F00E6E0EAEB9D0A8D08A98CC
:102D380000018C81096A560E086E4BEC22F00B6E6E
:102D4800096A550E086E4BEC22F00D6E0C6A0B509A
:102D58000C240001706F000E0D20716FA0D08A92B4
:102D680000018C83096A580E086E4BEC22F00B6E3A
:102D7800096A570E086E4BEC22F00D6E0C6A0B5068
:102D88000C240001726F000E0D20736F88D08A909A
:102D980000018C85096A5A0E086E4BEC22F00B6E06
:102DA800096A590E086E4BEC22F00D6E0C6A0B5036
:102DB8000C240001746F000E0D20756F70D08B9E6F
:102DC80000018C87096A5C0E086E4BEC22F00B6ED2
:102DD800096A5B0E086E4BEC22F00D6E0C6A0B5004
:102DE8000C240001766F000E0D20776F58D08B9C55
:102DF80000018C89096A5E0E086E4BEC22F00B6E9E
:102E0800096A5D0E086E4BEC22F00D6E0C6A0B50D1
:102E18000C240001786F000E0D20796F40D08B9A3A
:102E280000018C8B096A600E086E4BEC22F00B6E69
:102E3800096A5F0E086E4BEC22F00D6E0C6A0B509F
:102E48000C2400017A6F000E0D207B6F28D08B9820
:102E580000018C8D096A620E086E4BEC22F00B6E35
:102E6800096A610E086E4BEC22F00D6E0C6A0B506D
:102E78000C2400017C6F000E0D207D6F10D01050C7
:102E880001E155D7010A01E16AD7030A80E0010A86
:102E980096E0070AACE0010AC2E0030AD8E0102A6B
:102EA800070E106404D7070CE8CF1CF01B6A1C50EF
:102EB800800A04E155C01BF0556ACBD01C50810A2A
:102EC80002E1010E81D01C50820A02E1050E7CD07D
:102ED8001C50830A02E11B6ABCD01C50940A03E10F
:102EE8008AEC22F071D01C50950A03E189EC22F09B
:102EF8006BD01C50960A03E188EC22F065D0890E4D
:102F08001C6005D01C507C0F2EEC22F05DD0880E82
:102F18001C6408D0910E1C6005D01C50770F24EC5F
:102F280022F052D01C50910A03E192C01BF091D0BC
:102F38001C50930A03E152C01BF08BD01C50920A1C
:102F480002E1535041D01C50970A03E187EC22F06C
:102F58003BD01C50980A03E186EC22F035D01C5077
:102F6800990A03E185EC22F02FD0990E1C642ED02B
:102F78009E0E1C602BD06CEC22F00BC014F00AC023
:102F880013F009C012F008C011F01C50660F196E3A
:102F9800195003080C6ED8900C36D8900C36D8907F
:102FA8000C360C5011C00DF012C00EF013C00FF00B
:102FB80014C010F0E82A05D0D89010320F320E3223
:102FC8000D32E82EF9D730D01B6E43D09D0E1C640D
:102FD8002DD0A20E1C602AD067EC22F00BC018F08E
:102FE8000AC017F009C016F008C015F01C50620F8F
:102FF8001A6E1A5003080C6ED8900C36D8900C36FE
:10300800D8900C360C5015C00DF016C00EF017C035
:103018000FF018C010F0E82A05D0D89010320F32FF
:103028000E320D32E82EF9D70D50CED7CF0E1C64D4
:1030380008D0E00E1C6005D01C50300F38EC22F090
:10304800C3D7DF0E1C6405D01C50200FEBEC21F019
:10305800BBD71B5012000F0E1C6E400E1B6E0F0EBE
:103068001E6E300E1D6E0F0E206E200E1F6E0E0E81
:10307800226E200E216E0E0E246E300E236E0E0E62
:10308800266E400E256E0E0E286E500E276E0E0E02
:103098002A6E600E296E0E0E2C6E700E2B6E7750F7
:1030A800C00B2D6E2D6602D0020E01D0080E2E6EBA
:1030B8000D01D890F831306E346A7DD03450020D4D
:1030C800F3501B0FD96EDA6ADECF35F0DDCF36F05C
:1030D80035C031F036C032F0020E346404D0D890D6
:1030E800303230A067D035C0D9FF36C0DAFFDF50A4
:1030F8001A6E1AB65FD035C0D9FF36C0DAFFFC0E9B
:10310800DF1619C01AF0030E1A1635C0D9FF36C0DB
:10311800DAFF1A50DF1219AC04D018504009336E88
:1031280002D018C033F020EE05F03550D9263650BD
:10313800DA2233C0DFFF19AA03D0010E336E01D0A3
:10314800336A3528086E000E3620096E12C00AF060
:1031580013C00BF014C00CF015C00DF033C00EF006
:103168003FEC1AF0060E3526000E36222F6A0FD0D5
:1031780016C0D9FF17C0DAFF35C0E1FF36C0E2FF3D
:10318800DFCFE7FF164A172A354A362A2F2A185062
:103198002F5CEEE331C0D9FF32C0DAFFDF501A6E80
:1031A8001AB406D031C0D9FF32C0DAFF000EDB8670
:1031B800010E05D0342A2E50345C80E3000E120034
:1031C8000AC00EF00B6646D00E50D96EDA6A08C0F7
:1031D800E1FF09C0E2FFE7500C6ED8900C36D8909A
:1031E8000C36D8900C34DF6E0E50D96EDA6AD92AB4
:1031F800DA6A08C0E1FF09C0E2FFE7500C6E050E6D
:103208000D6ED8900C320D2EFCD70C50DF6E084A8C
:10321800092A08C0D9FF09C0DAFFDF500C6E050E75
:103228000D6ED8900C320D2EFCD70E50D96EDA6A7E
:103238000C50DF120E50D96EDA6A020ED926DA6AFD
:10324800DF6A0E50D96EDA6A030ED926DA6A000EE2
:10325800DF6E67D00E50D96EDA6A020ED926DA6AA6
:1032680008C0E1FF09C0E2FFE7500C6E050E0D6EC5
:10327800D8900C360D2EFCD70C50DF6E0E50D96E40
:10328800DA6A030ED926DA6A08C0E1FF09C0E2FF4C
:10329800E7500C6ED8900C32D8900C32D8900C3085
:1032A800DF6E084A092A08C0D9FF09C0DAFFDF50D3
:1032B8000C6E030E0C160E50D96EDA6A020ED92661
:1032C800DA6A0C50DF1208C0D9FF09C0DAFFDF50F4
:1032D8000C6ED8900C32D8900C32D8900C321C0E50
:1032E8000C160E50D96EDA6A020ED926DA6A0C501C
:1032F800DF12084A092A08C0D9FF09C0DAFF0E50B0
:10330800E16EE26AE12AE26ADFCFE7FF084A092AAA
:1033180008C0D9FF09C0DAFF0E50E16EE26ADFCFBC
:10332800E7FF1200E8CFCAF0CC6BCD6BCDC0C8F078
:10333800010EC96FC82B02D0D890C937C82FFCD747
:10334800C951511401E192D0CAA911D0D890CD35F4
:10335800C86FC96BC937750EC825086E000EC9211C
:10336800096E4BEC22F000019E1901E07FD0CAA73C
:1033780010D0D890CD35C86FC96BC937760EC8251F
:10338800086E000EC921096E4BEC22F000019F194E
:103398006DE14D0ECD25086E096A000E09224BEC31
:1033A80022F00001CB6F2DD08AA802D08A9825D0B0
:1033B8008A88010ECC6F33D08AA202D08A921DD09F
:1033C8008A82F7D78AA002D08A9017D08A80F1D74C
:1033D8008BAE02D08B9E11D08B8EEBD78BAC02D0EC
:1033E8008B9C0BD08B8CE5D78BAA02D08B9A05D0FF
:1033F8008B8ADFD78BA803D08B98CC6B10D08B88A7
:10340800D8D7CD51D1E0010AD7E0030ADBE0010AA1
:10341800DFE0070AE3E0010AE7E0030AEBE0CC514A
:1034280013E0CBA707D0140EC66F030EC76FCD519C
:103438009AEC1FF0CBAB1AD0140EC66F190EC76FDB
:10344800CD519AEC1FF012D0CBA907D0140EC66F3D
:10345800040EC76FCD519AEC1FF0CBAD07D0140EF8
:10346800C66F180EC76FCD519AEC1FF0CD2B070E03
:10347800CD655CD7070C0A0E116E0E6637D0115059
:10348800D96EDA6ADF500F6ED8900F32D8900F32AB
:10349800D8900F3008C0D9FF09C0DAFFDF6E11508D
:1034A800D96EDA6AD92ADA6ADF500F6E050E106E05
:1034B800D8900F36102EFCD708C0D9FF09C0DAFF04
:1034C8000F50DF12084A092A1150D96EDA6ADF5004
:1034D8000F6E050E106ED8900F36102EFCD70F50B9
:1034E80008C0D9FF09C0DAFFDF6E6CD01150D96E61
:1034F800DA6A020ED926DA6ADF500F6E050E106EF0
:10350800D8900F32102EFCD70F5008C0D9FF09C031
:10351800DAFFDF6E1150D96EDA6A030ED926DA6A3D
:10352800DF500F6ED8900F36D8900F36D8900F36E0
:1035380008C0D9FF09C0DAFF0F50DF12084A092A6C
:103548001150D96EDA6A020ED926DA6ADF500F6E88
:10355800D8900F36D8900F36D8900F34E00B08C0AB
:10356800D9FF09C0DAFFDF6E08C0D9FF09C0DAFF4A
:10357800000EDB861150D96EDA6A020ED926DA6A95
:10358800DF500F6E030E0F1608C0D9FF09C0DAFF0F
:103598000F50DF12084A092A1150D96EDA6AD92A5F
:1035A800DA6A08C0E1FF09C0E2FFDFCFE7FF084A97
:1035B800092A1150D96EDA6A08C0E1FF09C0E2FF92
:1035C800DFCFE7FF1200E8CFCAF0CB6BCD6BCDC0E1
:1035D800C8F0010EC96FC82B02D0D890C937C82FC0
:1035E800FCD7C951511401E187D0CAA910D0D8908D
:1035F800CD35C86FC96BC937750EC825086E000E62
:10360800C921096E4BEC22F000019E1975E1CAA789
:1036180010D0D890CD35C86FC96BC937760EC8257C
:10362800086E000EC921096E4BEC22F000019F19AB
:1036380063E14D0ECD25086E096A000E09224BEC98
:1036480022F00001CC6F23D0000E8AB8010ECB6F98
:103658002CD0000E8AB2010ECB6F27D0000E8AB094
:10366800010ECB6F22D0000E8BBE010ECB6F1DD08A
:10367800000E8BBC010ECB6F18D0000E8BBA010E5A
:10368800CB6F13D0000E8BB8010ECB6F0ED0CD517F
:10369800DBE0010ADEE0030AE1E0010AE4E0070AF0
:1036A800E7E0010AEAE0030AEDE0CB5113E0CCA918
:1036B80007D0140EC66F040EC76FCD519AEC1FF0D9
:1036C800CCAD1AD0140EC66F180EC76FCD519AEC38
:1036D8001FF012D0CCA907D0140EC66F040EC76F06
:1036E800CD519AEC1FF0CCAD07D0140EC66F180E52
:1036F800C76FCD519AEC1FF0CD2B070ECD6567D75C
:10370800070C0001806B816B826B836B8D6B8B6BFD
:103718008A6B8C6B0C6A0C50020DF350700FD96ECB
:10372800DA6ADE6ADD6A0C50020DF350600FD96E5A
:10373800DA6ADE6ADD6A0C2A070E0C64ECD70C6ABA
:103748004D0E0C24086E096A000E09224BEC22F07B
:103758000A6E0AA02DD00CC00AF0010E0B6E0A2AC0
:1037680002D0D8900B360A2EFCD70B5000018C13D0
:10377800550E0C24086E096A000E09224BEC22F043
:103788000B6E0A6A560E0C24086E096A000E09228E
:103798004BEC22F00A26000E0B220C50020DF350BF
:1037A8000001700FD96EDA6A0AC0DEFF0BC0DDFFB8
:1037B800520E0C24086E096A000E09224BEC22F006
:1037C8000A6E0AA420D06F0E0C24086E096A000E37
:1037D80009224BEC22F00B6E0A6A700E0C24086E5C
:1037E800096A000E09224BEC22F00A26000E0B2271
:1037F8000C50020DF3500001600FD96EDA6A0AC04E
:10380800DEFF0BC0DDFF0C2A060E0C6499D7060CF0
:10381800E8CF4EF0481C4D6E830E4E640ED0890ED4
:103828004E600BD048C00CF04E507C0FC2EC21F01B
:103838004E507C0F2EEC22F069D04E50920A0DE1CA
:1038480048504A6E496A52504B6E4C6A4910526E43
:103858004A504C10536E535059D04E50930A0BE1B6
:10386800496A53504A6E48504910526E4A50536E36
:1038780052C04DF04ED0880E4E6419D0910E4E6055
:1038880016D053C049F049C04AF04B6A4A2802E1B1
:10389800522802E0481C3AD048C00CF04E50770F2E
:1038A80015EC21F04E50770F24EC22F02FD0CF0EDC
:1038B8004E6417D0E00E4E6014D053C049F049C092
:1038C8004AF04B6A4A28E6E15228E4E148C00CF085
:1038D8004E50300F28EC21F04E50300F38EC22F0CB
:1038E80015D04E50A20AD6E14850550A04E1866B1D
:1038F800876B550E0BD04850AA0A0BE1E80E865D7F
:10390800030E875905E27BEC22F0AA0E4D6E01D01A
:103918004D6A4D501200E8CFCAF0CC6BCCC0C8F04D
:10392800010EC96FC82B02D0D890C937C82FFCD751
:10393800C95151145FE0CAA910D0D890CC35C86FCE
:10394800C96BC937750EC825086E000EC921096EE6
:103958004BEC22F000019E194DE1CAA710D0D89077
:10396800CC35C86FC96BC937760EC825086E000EEE
:10397800C921096E4BEC22F000019F193BE14D0E65
:10398800CC25086E096A000E09224BEC22F00001D2
:10399800CB6FCBAF2FD00ED08A981AD08A9218D07E
:1039A8008A9016D08B9E14D08B9C12D08B9A10D0F4
:1039B8008B980ED0CC51F0E0010AF0E0030AF0E059
:1039C800010AF0E0070AF0E0010AF0E0030AF0E07B
:1039D800CBA907D0140EC66F040EC76FCC519AEC52
:1039E8001FF0CBAD07D0140EC66F180EC76FCC51A1
:1039F8009AEC1FF0CC2B070ECC6590D7070C5DEC2A
:103A080020F060EC21F0000904E1DAEC0EF085EC1E
:103A18001BF0A4EC0CF01CEC20F00400FA0E0001E2
:103A280090650ED093050CE092697FEC22F0096A4C
:103A3800010E086EFF0E0A687CEC20F01CEC20F0EA
:103A4800976BD9EC20F01CD0922903E1010E936FFB
:103A580023D0030E936FA4EC21F01ED076EC1DF05A
:103A68001BD097AF19D09A519911D8B485EC09F0A9
:103A78000CEC11F011D082EC22F00ED0936B0CD02C
:103A880000019351E1E0010AE9E0030AE4E0010AD8
:103A9800E8E0070AF0E0F2D7E90E0001805D030EC6
:103AA8008159000E8259000E83590BE3806B816B9C
:103AB800826B836BD0EC1FF09351030AD8B48BEC64
:103AC80012F03B0E8D650BD08D6B8B2B3B0E8B65EF
:103AD80002D08B6B8A2B170E8A6501D08A6B84EC17
:103AE80022F09BD753D0572810E0810EA56FA66B04
:103AF800A76BA86B020EA96F57C0AAF03BEC21F088
:103B0800010E946F886B896B48D0040E936F810EF9
:103B1800A56FAA69070EA66FA76BA86B030EA96FFE
:103B28003BEC21F03AD097AF0FD09A51991135E17B
:103B38009B51030A32E1576603D0020E936FE2D716
:103B4800572A946B956B29D0E90E885D030E895925
:103B580024E3952B020E956517D0576605D0572A92
:103B6800946B886B896BEED757C092F0030E936FF6
:103B7800946B925119EC22F0400E0EEC22F00001E9
:103B8800956BA4EC21F009D0946B07D000019451F7
:103B9800AAE0010AC8E0030AF7E1976B120041C0E6
:103BA800B2F0B36BB46BB56BB4C0B5F0B3C0B4F0DE
:103BB800B2C0B3F0B26B3F50B66F4050B76FB86B3E
:103BC800B96BB7C0B9F0B6C0B8F0B76BB66B43C045
:103BD800BAF0BB6BBC6BBD6B1A0ED890BA37BB374B
:103BE800BC37BD37E82EF9D7B651BA11BE6FB751F9
:103BF800BB11BF6FB851BC11C06FB951BD11C16FB6
:103C0800B251BE11C26FB351BF11C36FB451C011CD
:103C1800C46FB551C111C56F4250C211476EC3512F
:103C2800486EC451496EC5514A6E47C037F048C006
:103C380038F049C039F04AC03AF044C03BF045C0BA
:103C48003CF046C03DF0F7EC1FF00009000ED8A488
:103C5800010E1200E8CF0BF00A6A0B6606D0096A5B
:103C6800430E086E4BEC22F04DD00B0406E1096AB6
:103C7800440E086E4BEC22F045D0010E0B6434D094
:103C88000A0E0B6031D01ED0000E8AB8010E3AD051
:103C9800000E8AB2010E36D0000E8AB0010E32D064
:103CA800000E8BBE010E2ED0000E8BBC010E2AD04A
:103CB800000E8BBA010E26D0000E8BB8010E22D052
:103CC8000A6A21D00B50020ADFE0010AE1E0070A84
:103CD800E3E0010AE5E0030AE7E0010AE9E00F0A88
:103CE800EBE0010AEDE00FD0090E0B640CD0800E5A
:103CF8000B6009D0430E0B24086E096A000E0922D6
:103D08004BEC22F00A6E0A501200E8CF10F0116A4C
:103D180011C00DF0010E0E6E0D2A02D0D8900E368D
:103D28000D2EFCD70E500C143AE010A810D0D890E5
:103D380011340D6E0E6A0E36750E0D24086E000EC7
:103D48000E20096E4BEC22F000019E1928E110A606
:103D580010D0D89011340D6E0E6A0E36760E0D24E2
:103D6800086E000E0E20096E4BEC22F000019F1920
:103D780016E14D0E1124086E096A000E09224BEC5B
:103D880022F00F6E7FEC22F04D0E1124086E096AA6
:103D9800000E09220F507F0B0A6E7CEC20F0112ACE
:103DA800070E1164B5D7070C800EF7EC21F0090E49
:103DB800706EFC0E716E010E726E200E736E778E31
:103DC800779C606A0F01506B0E01206B306B406B63
:103DD800506B606B706BE00E0D01F86F0F01006B9C
:103DE800080E016F026B036B046BE80E056F1A0E69
:103DF800066F076B030E0D01D46FD56BE06B110EC8
:103E0800E16FE26FE36BE46BE56BE66BE76B540E17
:103E1800F06F050EF16FF26BF26B0F0E0F01186F5A
:103E2800E00E196F1A6B1B6B19870F0E1C6FE00ED3
:103E38001D6F1E691F6B1D87000EF7EF21F0E8CF7D
:103E480027F021C01AF022C01BF0280EAEEC20F09B
:103E5800000902E1000E2ED01F50D96EDA6A28C080
:103E6800DFFF1E50D96EDA6A29C0DFFF2A50236EA1
:103E7800010E2B14246E2750D96EDA6A23C0DEFF98
:103E880024C0DDFF2050D96EDA6A28C023F029C08B
:103E980024F02AC025F02BC026F01B0E05D0D890A0
:103EA8002632253224322332E82EF9D72350070B45
:103EB800DF6E010E1200E8CF0BF024D00F0E0D6E4E
:103EC800600E1ED00F010F0E0D6E500E19D00E0190
:103ED8000E0E0D6E200E14D00E010E0E0D6E300E4D
:103EE8000FD00E010E0E0D6E400E0AD00E010E0EF2
:103EF800EBD70E010E0EE3D70E010E0E0D6E700EEF
:103F08000C6E0FD00B50DAE0010ADCE0030ADFE0A8
:103F1800010AE2E0070AE5E0010AE8E0030AE9E04D
:103F2800EBD70CC008F00DC009F01200E8CF50F034
:103F380050C04DF0D89050344B6E4C6A4C36750ECC
:103F48004B24086E000E4C20096E4BEC22F04E6E8E
:103F5800D89050344B6E4C6A4C36760E4B24086E13
:103F6800000E4C20096E4BEC22F04F6E0001C6C0CB
:103F78003FF0406AC7C041F092C042F0030E436E62
:103F8800446E4D0E456E000E466E0F0E466E5F0E69
:103F98004564466AD3EF1DF0962B3B0E96650DD00F
:103FA800966B912B9351030A08E15DEC22F0000116
:103FB800C66F62EC22F002EC21F03B0E916502D054
:103FC800916B8F2B170E8F6501D08F6B9351030A5E
:103FD80009E18E2B8EC04DF00F0E4D16020E4D5C72
:103FE800D8B08E6B12003E6A846B856B17D037C0D1
:103FF80012F038C013F039C014F03AC015F03CC0C4
:1040080016F03DC017F03BC018F0200E196E2FECCB
:1040180018F0000903E0010E3E6E06D0E80E00011C
:10402800845D030E8559E3E30001A56B3E50120041
:10403800020E566E71EC22F00001926F926701D069
:104048009269976B986B996B9A6B9B6BA56BA66B38
:10405800A76BA86BA96B556A576A936B946B956BA2
:10406800526A536A886B896B866B876B966B916B08
:104078008F6B120076EC22F0000916E100019751CF
:104088000F0B050A15E176EC22F000019D1910E0EE
:104098009D510EEC22F000019269FF0E19EC22F0FE
:1040A800010E0001936F04D000019D510EEC22F027
:1040B800120085EC1BF0926A806A080E936E816A82
:1040C800010E946E826A920EB3EC21F0FB0E096E1B
:1040D8001D0E086E42EC22F08A988A928A908B9E76
:1040E8008B9C8B9A8B98D8EC1EF0F28CF28E120077
:1040F80008C0A9FF0AC0A8FFA69EA69CA684000E19
:10410800F2BE010E0B6EF29E550EA76EAA0EA76E9A
:10411800A682A6B2FED70BB002D0F29E01D0F28ED4
:10412800A694120097510F0B0D6E0D5012E092518C
:1041380020EE9DF0DF620DD00D0405E0010E0D6448
:1041480008D09E6706D09269FF0E19EC22F01CEC8D
:1041580020F01200E8CF1CF097AF02D0000E0FD06D
:104168001BC00FF01AC010F01D0E116E1C5051EC40
:1041780015F00009F3E01DAC1DAAF0D7010E1200DE
:1041880097C04CF00F0E4C164C040EE1925120EEE5
:104198009DF0DF6209D0800EA56FA66BA76BA86B98
:1041A800030EA96F3BEC21F0120097BF12D09B0EB3
:1041B8001E6E9C0E1F6E980E206E970E216E9D0E21
:1041C800226E990E23EC1FF02C6E2C5002E0000199
:1041D800978F1200E8CF09F0080E0A6E0B6AD89084
:1041E80009340B340B6ED890093608500B5C02E387
:1041F80008500B5E0A2EF3D70B501200E8CF4CF094
:10420800830E0001A56F070EA66FA86B140EA76F8B
:10421800090EA96FAA6B4CC0ABF0C6C0ACF03BEF5F
:1042280021F0E8CF0DF0070E0D6401D00CD07FEC23
:1042380022F00B0E0D24086E096A000E09220CC02C
:104248000AF07CEC20F01200E8CF0DF00F0E0D64A0
:1042580001D00CD07FEC22F0130E0D24086E096AF1
:10426800000E09220CC00AF07CEC20F01200A7C056
:104278003FF0A8C040F0A9C041F092C042F0A6C0EB
:1042880043F0A5510F0B446E000E466EAA0E456E04
:10429800D3EF1DF097510F0B020A0DE1925120EE5A
:1042A8009DF0DF6208D09EC092F0925119EC22F086
:1042B800400E0EEC22F0120076EC22F0C00B400A01
:1042C80002E1010E0AD0FF0E19EC22F0000E0EECEE
:1042D80022F0A00E03EC22F0000E120000EE60F0B7
:1042E800520EEE6AE806FDE100EE52F0070EEE6AA5
:1042F800E806FDE1000EF86E000103EF1DF0E8CFBF
:10430800D1F07F0ED16506D0D0C048F0D1510CEC69
:104318001CF005D0D0C051F0D15170EC04F012005F
:10432800070EAA6F480EAB6F020E086E0850AA0F50
:10433800D96EDA6ADF6A082A070E0864F7D7070C0D
:10434800810E0001A56FA66BA76BA86B020EA96F63
:1043580092C0AAF03BEC21F0010E566E010CE8CF9A
:1043680008F008507F0BD56ED76AD66AF29408AE6B
:1043780002D0F28A01D0F29AD58E1200E8CF0DF061
:104388007FEC22F0060E0D24086E096A000E092241
:104398000CC00AF07CEF20F0E8CF0CF00C0409E127
:1043A8007FEC22F0096A086AFF0E0A687CEC20F0AC
:1043B800FF001200E8CF1DF07F0E1D6404D01D50D1
:1043C80058EC17F003D01D502EEC1EF01200E8CF69
:1043D80009F00950BE0F086E08C0F6FF080EF76E08
:1043E8000800F5501200E8CF08F01F0E6F160850AD
:1043F8006F126F50E00B0818D8B41200FAD7E8CF44
:104408000CF07FEC22F0096A030E086E0CC00AF06B
:104418007CEF20F0E8CF0CF07FEC22F0096A020E66
:10442800086E0CC00AF07CEF20F0E8CF0CF07FECAF
:1044380022F0096A010E086E0CC00AF07CEF20F029
:10444800E8CF0AF00B0E0A24086E096A000E09224A
:104458004BEF22F0E8CF0AF0060E0A24086E096A2C
:10446800000E09224BEF22F0E8CF0AF0130E0A24BF
:10447800086E096A000E09224BEF22F008C00AF004
:1044880009C00BF00BC0D7FF0AC0D6FF120008C046
:10449800A9FFA69CA69EA68000F000F0A8501200D6
:1044A80001C003F002C004F004C0D7FF03C0D6FF68
:1044B8001200096A440E086E4BEF22F0096A430E97
:1044C800086E4BEF22F0086A096A0A6A0B6A120042
:1044D800086A096A0A6A0B6A1200096A010E086EFC
:1044E8004BEF22F0096A020E086E4BEF22F0DAEC6D
:1044F8000EF085EF1BF0A6A21200FDD7566A120037
:0E4508001200010C080C010C020C010C010C3D
:020000040020DA
:08000000FFFFFFFFFFFFFFFF00
:020000040030CA
:0E000000FF061D0FFF8295FF0F800FE00F40DF
:00000001FF
