:040800005CEF04F0B5
:10081800D8CF05F0E8CF06F0E0CF07F0F2A401D07A
:1008280001D03FD0FB0E026E1D0E016E43EC22F08C
:100838000001864B872B844B852B010E8027000EE9
:100848008123000E8223000E83238C2B82A001D0EB
:1008580001D002D08F6B01D08F2B582A5650020A34
:10086800D8A401D001D00ED0640E586401D001D0B4
:1008780009D082A201D001D002D0829201D0828216
:10088800586A0ED05604D8A401D001D003D0828271
:10089800586A06D0566601D001D002D08292586AB2
:1008A800F29407C0E0FF06C0E8FF05C0D8FF1000BB
:1008B80061EF21F07777772E6575726F736F7572B8
:1008C80063652E73652F70617269735F3031302EE6
:1008D800786D6C000000E8CFCEF0CA6BCD6B511C70
:1008E800CC6FCE6710D06EEC22F0096A430E086E0A
:1008F80051C00AF053EC20F0096A430E086E3AEC36
:1009080022F032EF09F0CE0510E16EEC22F0096A10
:10091800440E086E51C00AF053EC20F0096A440EE8
:10092800086E3AEC22F032EF09F0010ECE6585D15F
:100938000A0ECE6182D14B0ECE25086E096A000ED2
:1009480009223AEC22F00001C76FC7BF61D14BEF13
:1009580009F0010ECA6F510428E18A88000E8AB88E
:10096800010ECC6F010ECD6F096A4D0E086E3AEC80
:1009780022F00001C76FC7A54BEF09F0096A660EA0
:10098800086E3AEC22F00001C76F096A650E086E1E
:100998003AEC22F00001C96FC86BC751C825606FD7
:1009A800000EC921616F4BEF09F051664BEF09F05A
:1009B8008A98000E8AB8010ECC6FCD6B4BEF09F008
:1009C800010ECA6F51041EE18A82000E8AB2010E1E
:1009D800CC6F010ECD6F096A4E0E086E3AEC22F00C
:1009E8000001C76FC7A54BEF09F0096A680E086ECA
:1009F8003AEC22F00001C76F096A670E086E3AECFC
:100A080022F09FD151664BEF09F08A92000E8AB20C
:100A1800010ECC6FD2D7010ECA6F510428E18A802B
:100A2800000E8AB0010ECC6F010ECD6F096A4F0E11
:100A3800086E3AEC22F00001C76FC7A54BEF09F02A
:100A4800096A6A0E086E3AEC22F00001C76F096A5B
:100A5800690E086E3AEC22F00001C96FC86BC751E5
:100A6800C825646F000EC921656F4BEF09F0516608
:100A78004BEF09F08A90000E8AB0010ECC6F9DD71B
:100A8800010ECA6F510426E18B8E000E8BBE010E3B
:100A9800CC6F010ECD6F096A500E086E3AEC22F049
:100AA8000001C76FC7A5F3D3096A6C0E086E3AEC4C
:100AB80022F00001C76F096A6B0E086E3AEC22F04B
:100AC8000001C96FC86BC751C825666F000EC921E0
:100AD800676FDDD35166DBD38B9E000E8BBE010E94
:100AE800CC6F6BD7010ECA6F510426E18B8C000EB8
:100AF8008BBC010ECC6F010ECD6F096A510E086ECA
:100B08003AEC22F00001C76FC7A5C1D3096A6E0E7F
:100B1800086E3AEC22F00001C76F096A6D0E086E84
:100B28003AEC22F00001C96FC86BC751C825686F3D
:100B3800000EC921696FABD35166A9D38B9C000EF7
:100B48008BBC010ECC6F39D7010ECA6F510426E158
:100B58008B8A000E8BBA010ECC6F010ECD6F096A1D
:100B6800520E086E3AEC22F00001C76FC7A58FD36A
:100B7800096A700E086E3AEC22F00001C76F096A24
:100B88006F0E086E3AEC22F00001C96FC86BC751AE
:100B9800C8256A6F000EC9216B6F79D3516677D368
:100BA8008B9A000E8BBA010ECC6F07D7010ECA6F55
:100BB800510426E18B88000E8BB8010ECC6F010E14
:100BC800CD6F096A530E086E3AEC22F00001C76F28
:100BD800C7A55DD3096A720E086E3AEC22F00001CF
:100BE800C76F096A710E086E3AEC22F00001C96FEE
:100BF800C86BC751C8256C6F000EC9216D6F47D3EC
:100C0800516645D38B98000E8BB8010ECC6FD5D6A4
:100C1800CE51020A01E19DD6010A01E1D1D6070AA7
:100C280001E1F9D6010A01E12BD7030A01E15AD7FC
:100C3800010A8AE00F0ABAE02AD3090ECE65BED1AE
:100C4800120ECE61BBD1A4D16EEC22F0430E00018E
:100C5800CE25086E096A000E092251C00AF053EC2D
:100C680020F0430E0001CE25086E096A000E092205
:100C78003AEC22F00001CC6F51A019D08A98CD6BC4
:100C88008A81096A560E086E3AEC22F00001C76F95
:100C9800096A550E086E3AEC22F00001C96FC86B5C
:100CA800C751C825706F000EC921716F03D08A9192
:100CB8008A98CD6B51B462D6EAD26EEC22F0430E1C
:100CC8000001CE25086E096A000E092251C00AF0FB
:100CD80053EC20F0430E0001CE25086E096A000E81
:100CE80009223AEC22F00001CC6F51A019D08A9267
:100CF800CD6B8A83096A560E086E3AEC22F0000121
:100D0800C76F096A550E086E3AEC22F00001C96FE8
:100D1800C86BC751C825726F000EC921736F03D005
:100D28008A938A92CD6B51A4B2D2096A660E086E74
:100D38003AEC22F00001C76F096A650E086E3AECBA
:100D480022F00001C96FC86BC751C825626F000E39
:100D5800C921636F9CD26EEC22F0430E0001CE25B0
:100D6800086E096A000E092251C00AF053EC20F0FF
:100D7800430E0001CE25086E096A000E09223AECDE
:100D880022F00001CC6F51A019D08A90CD6B8A85D2
:100D9800096A5A0E086E3AEC22F00001C76F096A18
:100DA800590E086E3AEC22F00001C96FC86BC751A2
:100DB800C825746F000EC921756F03D08A958A9073
:100DC800CD6B51B43DD663D26EEC22F0430E0001D8
:100DD800CE25086E096A000E092251C00AF053ECAC
:100DE80020F0430E0001CE25086E096A000E092284
:100DF8003AEC22F00001CC6F51A019D08B9ECD6B3C
:100E08008A87096A5C0E086E3AEC22F00001C76F07
:100E1800096A5B0E086E3AEC22F00001C96FC86BD4
:100E2800C751C825766F000EC921776F03D08A97FE
:100E38008B9ECD6B51B438D62AD26EEC22F0430E7D
:100E48000001CE25086E096A000E092251C00AF079
:100E580053EC20F0430E0001CE25086E096A000EFF
:100E680009223AEC22F00001CC6F51A019D08B9CDA
:100E7800CD6B8A89096A5E0E086E3AEC22F0000191
:100E8800C76F096A5D0E086E3AEC22F00001C96F5F
:100E9800C86BC751C825786F000EC921796F03D078
:100EA8008A998B9CCD6B51B431D6F1D16EEC22F07E
:100EB800430E0001CE25086E096A000E092251C0B2
:100EC8000AF053EC20F0430E0001CE25086E096AA3
:100ED800000E09223AEC22F00001CC6F51A019D083
:100EE8008B9ACD6B8A8B096A600E086E3AEC22F0F9
:100EF8000001C76F096A5F0E086E3AEC22F0000124
:100F0800C96FC86BC751C8257A6F000EC9217B6F9E
:100F180003D08A9B8B9ACD6B51B42AD6B8D16EEC8C
:100F280022F0430E0001CE25086E096A000E092240
:100F380051C00AF053EC20F0430E0001CE25086E94
:100F4800096A000E09223AEC22F00001CC6F51A088
:100F580019D08B98CD6B8A8D096A620E086E3AECAF
:100F680022F00001C76F096A610E086E3AEC22F0A0
:100F78000001C96FC86BC751C8257C6F000EC92115
:100F88007D6F03D08A9D8B9ECD6B51B423D67FD1C4
:100F9800CE510A0A01E158D6010A01E18ED6070AA4
:100FA80001E1D9D6010A01E10FD7030A01E145D7CA
:100FB800010A01E17BD71F0AB2E069D1110ECE65A3
:100FC800E1D0220ECE61DED06EEC22F0430E00019D
:100FD800CE25086E096A000E092251C00AF053ECAA
:100FE80020F0430E0001CE25086E096A000E092282
:100FF8003AEC22F00001CC6FB0D0096A560E086EA8
:101008003AEC22F00001C76F096A550E086E3AECF7
:1010180022F00001C96FC86BC751C825706F000E58
:10102800C921716F34D1096A580E086E3AEC22F062
:101038000001C76F096A570E086E3AEC22F00001EA
:10104800C96FC86BC751C825726F000EC921736F6D
:101058001ED1096A5A0E086E3AEC22F00001C76FD9
:10106800096A590E086E3AEC22F00001C96FC86B84
:10107800C751C825746F000EC921756F08D1096A58
:101088005C0E086E3AEC22F00001C76F096A5B0E2D
:10109800086E3AEC22F00001C96FC86BC751C82529
:1010A800766F000EC921776FF2D0096A5E0E086E5E
:1010B8003AEC22F00001C76F096A5D0E086E3AEC3F
:1010C80022F00001C96FC86BC751C825786F000EA0
:1010D800C921796FDCD0096A600E086E3AEC22F0FB
:1010E8000001C76F096A5F0E086E3AEC22F0000132
:1010F800C96FC86BC751C8257A6F000EC9217B6FAD
:10110800C6D0096A620E086E3AEC22F00001C76F79
:10111800096A610E086E3AEC22F00001C96FC86BCB
:10112800C751C8257C6F000EC9217D6FB0D0096AF0
:10113800640E086E3AEC22F00001C76F096A630E6C
:10114800086E3AEC22F00001C96FC86BC751C82578
:101158007E6F000EC9217F6F9AD0CE51130A01E12C
:101168004CD7060A01E15FD7020A01E172D70E0ADD
:1011780086E0020A9AE0060AAEE0020AC2E03E0AE7
:10118800D6E085D0210ECE654DD0320ECE614AD044
:101198006EEC22F0430E0001CE25086E096A000E9F
:1011A800092251C00AF053EC20F0430E0001CE256D
:1011B800086E096A000E09223AEC22F00001CC6F91
:1011C80016D0096A740E086E3AEC22F00001C76F57
:1011D800096A730E086E3AEC22F00001C96FC86BF9
:1011E800C751C8256E6F000EC9216F6F50D0CE5100
:1011F800230A02E1C2EF04F0060A02E1F9EF04F063
:10120800020A01E11DD40E0A01E14ED4020A01E1ED
:101218007DD4060A01E1ACD4020A01E1DBD41E0A3E
:10122800D0E035D0310ECE651CD0420ECE6119D03B
:101238006EEC22F0430E0001CE25086E096A000EFE
:10124800092251C00AF053EC20F0430E0001CE25CC
:10125800086E096A000E09223AEC22F00001CC6FF0
:1012680016D0470ECE6513D0800ECE6110D06EEC2E
:1012780022F0430E0001CE25086E096A000E0922ED
:1012880051C00AF053EC20F0A3EC0CF0DED7CA51A1
:1012980035E04B0ECE25086E096A000E09223AEC9D
:1012A80022F00001CB6FCD5115E0CBA708D0140E6A
:1012B800C56F030EC66FCE51FE0F96EC1FF0CBAB79
:1012C8001DD0140EC56F190EC66FCE51FE0F96ECC9
:1012D8001FF014D0CBA908D0140EC56F040EC66F2A
:1012E800CE51FE0F96EC1FF0CBAD08D0140EC56F93
:1012F800180EC66FCE51FE0F96EC1FF0CC5112009F
:101308009951981101E1E9D219D315EC20F016D3BF
:10131800B3EC20F013D33DEC21F010D36DEC20F0AA
:101328000DD396510F0B020A01E008D3915120EE1C
:101338009CF0DF6203D3800E9D6112D09D512AEC90
:101348001EF00001AA6F9DC0A9F0030EA56F820EC2
:10135800A46FA66BA76B0A0EA86F2AEC21F0EED239
:101368009D5156EC17F0EDD796510F0B030A01E08B
:10137800E5D2915120EE9CF0DF62E0D2800E9D61B3
:1013880006D09EC051F09D516FEC04F0DBD79EC093
:1013980010F09D510AEC1CF0D4D7915120EE9CF02E
:1013A800DF62CCD2000E27EC22F000019E1901E08A
:1013B800C5D2030E27EC22F000019F1901E0BED22E
:1013C800050E27EC22F00001A01901E0B7D2070EA4
:1013D80027EC22F00001A11901E0B0D25350A21964
:1013E80001E0ACD2525020EEA3F0DF62A7D29D51AB
:1013F800BFEC21F0A3D2000E27EC22F000019D19CA
:1014080073E1010E27EC22F000019E196DE1020E36
:1014180027EC22F000019F1967E1030E27EC22F068
:101428000001A01961E18D895FD0040E27EC22F03C
:1014380000019D1959E1050E27EC22F000019E19C3
:1014480053E1060E27EC22F000019F194DE1070E2B
:1014580027EC22F00001A01947E18D8B45D0080E3A
:1014680027EC22F000019D193FE1090E27EC22F03C
:1014780000019E1939E10A0E27EC22F000019F199C
:1014880033E10B0E27EC22F00001A0192DE18D8D20
:101498002BD00C0E27EC22F000019D1925E10D0E32
:1014A80027EC22F000019E191FE10E0E27EC22F016
:1014B80000019F1919E10F0E27EC22F00001A01975
:1014C80013E18D8F11D08D6B0FD09C390F0BD16F1D
:1014D800D26BD251F8E1D1518EE0010AA6E0030A9D
:1014E800BEE0010AD6E0EFD78D51F00BF00A01E01B
:1014F80025D2F3EC1FF022D2915120EE9CF0DF624E
:101508001DD2DD6B9DC0DCF09EC0DFF0EB6B47D0D9
:10151800070E086EEB51DDEC20F00001D16FD151C0
:10152800AA0FD96EDA6ADC51EB25CDEC21F0DF6E1B
:10153800070E086E0001EB51DDEC20F0060A0BE007
:10154800FF0E0001DF25D16FD26BFF0ED223EB51C6
:10155800D119D21123E1070E086E0001EB51DDEC21
:1015680020F0060A03E1070E000109D0070E086EF5
:101578000001EB51DDEC20F00001D16FD129DE6FC5
:10158800DE51810FA46F070EA56FA66BA76B1A0E0D
:10159800A86FDDC0A9F02AEC21F0DD2BEB2BDF5181
:1015A800EB5D01E3CBD1B4D7915120EE9CF0DF6223
:1015B800C5D19DC0E0F09651FE0F070BE16FE66BB9
:1015C80016D0E6519E0FD96EDA6ADF50CF6FE05120
:1015D800E62572EC21F00001E651AA0FD96EDA6A0D
:1015E800E051E625CDEC21F0DF6E0001E62BE1515C
:1015F800E65DE7E3070EA56FA66BA76B1A0EA86F4B
:10160800A96BE151810FA46FA8D6915120EE9CF0EF
:10161800DF6294D19D512AEC1EF00001D16FD129CF
:10162800516E9D516FEC04F08DD6915120EE9CF0D7
:10163800DF6284D19D512AEC1EF00001D16FD105E3
:10164800516E9D516FEC04F07DD69C51911903E0C9
:101658009C2901E073D1E56B030EA56F880EA46F7A
:10166800A66BA76B200EA86FEA6BEAC0A9F0010E63
:10167800EC6FEC51A90FD96EDA6AE5510F0827EC27
:1016880022F0DF6E0001E52B100EE56501D004D0D5
:10169800EC2B070EEC65EDD7100EE56501D006D0F2
:1016A8002AEC21F0EA2B020EEA65DFD7EC6BEC514D
:1016B800DAEC21F0000908E0EC51AC0FD96EDA6AD7
:1016C800EC51DAEC21F005D0EC51AC0FD96EDA6AA6
:1016D800000EDF6EEC2B040EEC65E9D72AEC21F046
:1016E800050EE56F030EEA6FEAC0A9F0010EEC6F74
:1016F800EC51A90FD96EDA6AE551DAEC21F0DF6E08
:10170800E52BEC2B070EEC65F3D72AEC21F0EA2B3E
:10171800060EEA65E9D712D1915120EE9CF0DF62FE
:101728000DD1030EA56F870EA46FA66BA76B220EB3
:10173800A86FA90E83EC21F010D6915120EE9CF0F1
:10174800DF62FCD0E76B96C0D1F00F0ED117040E04
:10175800D15D12E3A0C0E8F0E96BE951E81103E1BB
:10176800010EE96FE86B010EE85D010EE95907E328
:10177800010EE96F000E02D0E96B010EE86F52C04E
:10178800D8F053C0D9F09E519DC0D1F0D26BD1C0D2
:10179800D2F0D16BD111526ED251536E070EA56F94
:1017A800A66BA76B270EA86FA96B9DC0AAF09EC059
:1017B800ABF0E751E85DD16F000EE959D26F040E26
:1017C800D15D000ED25902E3040E02D0E751E85D64
:1017D800E26FE251840FA46F9F51E725AC6FE36B72
:1017E8000CD0E351AD0FD96EDA6A9F51E725E32596
:1017F800CDEC21F0DF6E0001E32BE251E35DF1E374
:101808002AEC21F0E251E727A92BE751D16FD26BDF
:10181800E851D15DE951D259CCE3D8C052F0D9C0D2
:1018280053F08CD0915120EE9CF0DF6287D052C0EB
:10183800DAF053C0DBF09E519DC0D1F0D26BD1C01D
:10184800D2F0D16BD111526ED251536E9FC0E4F0D9
:1018580014D09F51A008E425D96EDA6ADF50CF6F03
:10186800E45172EC21F00001D16F9F51AD08E425DD
:10187800D96EDA6AD1C0DFFFE42B96510F0BD16F16
:10188800D26B9F51D127000ED223FC0ED125D36FE6
:10189800FF0ED221D46FE451D56FD66BD651800A92
:1018A800D76FD351D55DD451800AD759D2E3DAC066
:1018B80052F0DBC053F0070EA56F96510F0B800F47
:1018C800A46FA66BA76B270EA86FA96B9DC0AAF083
:1018D8009EC0ABF09FC0ACF040D59A51010A01E11F
:1018E80014D5030A01E114D5040A01E114D50E0A3E
:1018F80001E114D5010A01E114D5020A01E134D548
:10190800070A01E14AD51B0A01E1DFD50F0A01E107
:10191800F3D5010A01E148D6040A01E176D6030AA3
:1019280001E183D6010A01E190D63E0A01E1F4D62D
:10193800040A01E102D7030A01E174D712003668EC
:101948003768386839683A6A3B6A3C6A3D6A436A6C
:101958004350126E136AD89012361336D890123646
:101968001336D89012361336440E1224086E000E21
:101978001320096E3AEC22F0146E14AEE8D14350ED
:10198800126E136AD89012361336D8901236133660
:10199800D89012361336470E1224086E000E132004
:1019A800096E3AEC22F0146E14C015F0166A176A24
:1019B800186A17C018F016C017F015C016F0156A87
:1019C8004350196E1A6AD89019361A36D8901936B3
:1019D8001A36D89019361A36450E1924086E000E94
:1019E8001A20096E3AEC22F01B6E1BC01CF01D6A0F
:1019F8001E6A1F6A1DC01FF01CC01EF01D6A1C6AEB
:101A08004350206E216AD89020362136D89020364F
:101A18002136D89020362136440E2024086E000E38
:101A28002120096E3AEC22F0226E020E221622C004
:101A380023F0246A256A266A170ED890233624369E
:101A480025362636E82EF9D71C502310276E1D5050
:101A58002410286E1E502510296E1F5026102A6E3D
:101A6800155027102B6E165028102C6E1750291061
:101A78002D6E18502A102E6EFF0E2B10316E2C5022
:101A8800326E2D50336E2E50346E4350126E136AE0
:101A9800D89012361336D89012361336D89012369C
:101AA8001336480E1224086E000E1320096E3AEC05
:101AB80022F0146E14C015F0166A176A186A17C057
:101AC80018F016C017F015C016F0156A4350196EB5
:101AD8001A6AD89019361A36D89019361A36D89004
:101AE80019361A36460E1924086E000E1A20096E89
:101AF8003AEC22F01B6E1BC01CF01D6A1E6A1F6A9E
:101B08001DC01FF01CC01EF01D6A1C6A4350206EC9
:101B1800216AD89020362136D89020362136D890A0
:101B280020362136440E2024086E000E2120096E2E
:101B38003AEC22F0226E010E221622C023F0246A0B
:101B4800256A266A23C026F0256A246A236A1C505F
:101B58002310276E1D502410286E1E502510296E44
:101B68001F5026102A6E155027102B6E165028105D
:101B78002C6E175029102D6E18502A102E6E4350B7
:101B88002F6E306AD8902F363036D8902F363036B0
:101B9800D8902F363036430E2F24086E000E302092
:101BA800096E3AEC22F02B103E6E2C503F6E2D50F1
:101BB800406E2E50416E436608D03EC03AF03FC09A
:101BC8003BF040C03CF041C03DF031503616325039
:101BD80037163350381634503916426A42503EC0D0
:101BE80012F03FC013F040C014F041C015F0E82ACD
:101BF80005D0D8901532143213321232E82EF9D7A4
:101C0800010E121642503AC016F03BC017F03CC005
:101C180018F03DC019F0E82A05D0D89019321832CA
:101C280017321632E82EF9D71650010B12181DE09C
:101C380042C012F0010E136E146A122A03D0D89013
:101C480013361436122EFBD7131C156E141C166E81
:101C5800176A16BE17061750186E15503616165006
:101C680037161750381618503916422A1F0E426474
:101C7800B5D73E503A163F503B1640503C1641509F
:101C88003D1643504FE0426A43C012F04350136E72
:101C9800146AD89013361436D89013361436D89060
:101CA80013361436430E1324086E000E1420096EE2
:101CB8003AEC22F0156E122A02D0D8901532122E64
:101CC800FCD7010E151643C016F035C017F0162ABA
:101CD80002D0D8901732162EFCD71750010B1518C2
:101CE8001DE043C012F0010E136E146A122A03D0CD
:101CF800D89013361436122EFBD713C015F014C023
:101D080016F0000E16BEFF0E176E186E155036161A
:101D1800165037161750381618503916422A070E1B
:101D28004264B2D74350126E136AD89012361336F3
:101D3800D89012361336D89012361336430E122422
:101D4800086E000E1320096E3AEC22F0356E432A15
:101D5800060E4364FDD5800EE6EC21F00F010F0E50
:101D6800096E1C0E086E36C00AF037C00BF038C07A
:101D78000CF039C00DF0010E0E6E3DEC1AF00D019D
:101D8800D4830F010F0E096E040E086E3AC00AF0D4
:101D98003BC00BF03CC00CF03DC00DF0010E0E6EC8
:101DA8003DEC1AF0000EE6EF21F06EEC22F0096A25
:101DB800430E086E000E0A6A53EC20F06EEC22F017
:101DC800096A440E086E000E0A6A53EC20F06EECA5
:101DD80022F0096A4D0E086E980E0A6E53EC20F038
:101DE8006EEC22F0096A4E0E086E980E0A6E53ECDD
:101DF80020F06EEC22F0096A4F0E086E980E0A6EFB
:101E080053EC20F06EEC22F0096A500E086E980E22
:101E18000A6E53EC20F06EEC22F0096A510E086E3F
:101E2800980E0A6E53EC20F06EEC22F0096A520EFE
:101E3800086E980E0A6E53EC20F06EEC22F0096AD8
:101E4800530E086E980E0A6E53EC20F06EEC22F0DA
:101E5800096A540E086E980E0A6E53EC20F06EEC68
:101E680022F0096A550E086E000E0A6A53EC20F03B
:101E78006EEC22F0096A560E086E000E0A6A53ECE0
:101E880020F06EEC22F0096A570E086E000E0A6AFE
:101E980053EC20F06EEC22F0096A580E086E000E22
:101EA8000A6A53EC20F06EEC22F0096A590E086EAB
:101EB800000E0A6A53EC20F06EEC22F0096A5A0E02
:101EC800086E000E0A6A53EC20F06EEC22F0096AE4
:101ED8005B0E086E000E0A6A53EC20F06EEC22F0DE
:101EE800096A5C0E086E000E0A6A53EC20F06EEC6C
:101EF80022F0096A5D0E086E000E0A6A53EC20F0A3
:101F08006EEC22F0096A5E0E086E000E0A6A53EC47
:101F180020F06EEC22F0096A5F0E086E000E0A6A65
:101F280053EC20F06EEC22F0096A600E086E000E89
:101F38000A6A53EC20F06EEC22F0096A610E086E12
:101F4800000E0A6A53EC20F06EEC22F0096A620E69
:101F5800086E000E0A6A53EC20F06EEC22F0096A53
:101F6800630E086E000E0A6A53EC20F06EEC22F045
:101F7800096A640E086E000E0A6A53EC20F06EECD3
:101F880022F0096A650E086E000E0A6A53EC20F00A
:101F98006EEC22F0096A660E086E000E0A6A53ECAF
:101FA80020F06EEC22F0096A670E086E000E0A6ACD
:101FB80053EC20F06EEC22F0096A680E086E000EF1
:101FC8000A6A53EC20F06EEC22F0096A690E086E7A
:101FD800000E0A6A53EC20F06EEC22F0096A6A0ED1
:101FE800086E000E0A6A53EC20F06EEC22F0096AC3
:101FF8006B0E086E000E0A6A53EC20F06EEC22F0AD
:10200800096A6C0E086E000E0A6A53EC20F06EEC3A
:1020180022F0096A6D0E086E000E0A6A53EC20F071
:102028006EEC22F0096A6E0E086E000E0A6A53EC16
:1020380020F06EEC22F0096A6F0E086E000E0A6A34
:1020480053EC20F06EEC22F0096A700E086E000E58
:102058000A6A53EC20F06EEC22F0096A710E086EE1
:10206800000E0A6A53EC20F06EEC22F0096A720E38
:10207800086E000E0A6A53EC20F06EEC22F0096A32
:10208800730E086E000E0A6A53EC20F06EEC22F014
:10209800096A740E086E000E0A6A53EC20F06EECA2
:1020A80022F0096A750E086E000E0A6A53EC20F0D9
:1020B8006EEC22F0096A760E086E000E0A6A53EC7E
:1020C80020F06EEC22F0096A770E086E000E0A6A9C
:1020D80053EC20F06EEC22F0096A780E086E000EC0
:1020E8000A6A53EC20F06EEC22F0096A790E086E49
:1020F800000E0A6A53EC20F06EEC22F0096A7A0EA0
:10210800086E000E0A6A53EC20F06EEC22F0096AA1
:102118007B0E086E000E0A6A53EC20F06EEC22F07B
:10212800096A7C0E086E000E0A6A53EC20F06EEC09
:1021380022F0096A7D0E086E000E0A6A53EC20F040
:102148006EEC22F0096A7E0E086E000E0A6A53ECE5
:1021580020F06EEC22F0096A7F0E086E000E0A6A03
:1021680053EC20F06EEC22F0096A800E086E000E27
:102178000A6A53EC20F06EEC22F0096A810E086EB0
:10218800000E0A6A53EC20F06EEC22F0096A820E07
:10219800086E000E0A6A53EC20F06EEC22F0096A11
:1021A800830E086E000E0A6A53EC20F06EEC22F0E3
:1021B800096A840E086E000E0A6A53EC20F00E6A53
:1021C8000F6A6EEC22F00F500EC00CF00D6AD8901A
:1021D8000C360D36D8900C360D36D8900C360D3698
:1021E8000C26000E0D228B0E0C24086E000E0D20FE
:1021F800096E000E0A6A53EC20F00F2A070E0F64CE
:10220800E0D70E2A060E0E64DBD7060C00019951A2
:10221800981101E179D1DD6BDD51CD6FCE6BD8908E
:10222800CD37CE37D890CD37CE37D890CD37CE37BB
:102238008C0ECD25086E000ECE21096E3AEC22F0E8
:102248000001DC6FDCAF5BD1DCAD18D0DD51CD6FA8
:10225800CE6BD890CD37CE37D890CD37CE37D890F3
:10226800CD37CE378B0ECD25086E000ECE21096EE8
:102278003AEC22F000019B1901E041D1DD51080D33
:102288008E0EF324086E000EF420096E3AEC22F04C
:102298000001CD6FDC51010BCF6FCE6BCD51CE2538
:1022A800D06F000ECF21D16FDD51080D8D0EF324B4
:1022B800086E000EF420096E3AEC22F00001CD6F92
:1022C800DC51020BCF6FCE6BCD51CE25D26F000EF5
:1022D800CF21D36FDD51CD6FCE6BD890CD37CE37B0
:1022E800D890CD37CE37D890CD37CE37900ECD2574
:1022F800086E000ECE21096E3AEC22F00001D46F70
:10230800DD51CD6FCE6BD890CD37CE37D890CD3745
:10231800CE37D890CD37CE378F0ECD25086E000E2C
:10232800CE21096E3AEC22F00001D56F20EE98F02C
:10233800DECFCDF0DDCFCEF0D051CD1BD151CE1BAD
:10234800D251CD17D351CE17CE51CD1101E0D7D0F0
:102358009A51D419D51501E1AFD0D1D00001DD5182
:10236800CD6FCE6BD890CD37CE37D890CD37CE370E
:10237800D890CD37CE37920ECD25086E000ECE21DF
:10238800096E3AEC22F00001D66FD6C051F0DC514C
:1023980002EC14F0B4D00001DD51CD6FCE6BD890B3
:1023A800CD37CE37D890CD37CE37D890CD37CE373A
:1023B800920ECD25086E000ECE21096E3AEC22F061
:1023C8000001D76FD7C051F0DC518DEC1CF097D0CD
:1023D8000001DD51CD6FCE6BD890CD37CE37D89078
:1023E800CD37CE37D890CD37CE37920ECD25086E63
:1023F800000ECE21096E3AEC22F00001D86FD8C049
:102408000AF0DC5156EC16F07AD00001DD51CD6FA0
:10241800CE6BD890CD37CE37D890CD37CE37D89031
:10242800CD37CE37920ECD25086E000ECE21096E1F
:102438003AEC22F00001D96FD9C051F0DC51E5EC3B
:102448001AF05DD00001DD51CD6FCE6BD890CD373D
:10245800CE37D890CD37CE37D890CD37CE37920EED
:10246800CD25086E000ECE21096E3AEC22F000014F
:10247800DA6FDAC00CF0DC5185EC1EF040D00001B8
:10248800DD51CD6FCE6BD890CD37CE37D890CD37C4
:10249800CE37D890CD37CE37920ECD25086E000EA8
:1024A800CE21096E3AEC22F00001DB6FDBC051F05F
:1024B800DC5194EC19F023D0DD51CD6FCE6BD89060
:1024C800CD37CE37D890CD37CE37D890CD37CE3719
:1024D800910ECD25086E000ECE21096E3AEC22F041
:1024E800010A01E13BD7030A01E155D7010A01E1DD
:1024F8006FD7070AC4E00E0A88E01A0AA3E00001B1
:10250800DD2B060EDD6588D61200CF6BD16B070E6A
:10251800D16501D072D14D0ED125086E096A000E21
:1025280009223AEC22F00001D06FD0AF64D1D1512A
:10253800020DF350600FD96EDA6ADE50DD1037E015
:10254800D151020DF350600FD96EDA6ADE06000E23
:10255800DD5AD151020DF350600FD96EDA6ADE50A0
:10256800DD1046E14D0ED125086E096A000E0922DC
:102578003AEC22F00001CC6FCCA53AD0D1C0CCF017
:10258800010ECD6FCC2B02D0D890CD37CC2FFCD7F5
:10259800CD51516E000E8DEC1CF0D0A329D0010E48
:1025A800C56F020EC66FD15196EC1FF021D0650E93
:1025B800D125086E096A000E09223AEC22F00001C2
:1025C800CD6FCC6B660ED125086E096A000E092204
:1025D8003AEC22F00001CC27000ECD23D151020D98
:1025E800F350600FD96EDA6ACCC0DEFFCDC0DDFFD4
:1025F800D1C0CCF0010ECD6FCC2B02D0D890CD3706
:10260800CC2FFCD7CD518A1501E1F5D0D151020D5F
:10261800F350700FD96EDA6ADE50DD1001E1CCD0CC
:10262800D151020DF350700FD96EDA6ADE06000E32
:10263800DD5AD151020DF350700FD96EDA6ADE50AF
:10264800DD102EE0D8D08AA802D08A9825D08A88B2
:10265800010ECF6F33D08AA202D08A921DD08A820F
:10266800F7D78AA002D08A9017D08A80F1D78BAE8C
:1026780002D08B9E11D08B8EEBD78BAC02D08B9C6B
:102688000BD08B8CE5D78BAA02D08B9A05D08B8A7E
:10269800DFD78BA803D08B98CF6B10D08B88D8D777
:1026A800D151D1E0010AD7E0030ADBE0010ADFE0FB
:1026B800070AE3E0010AE7E0030AEBE0D151020D63
:1026C800550EF324086E000EF420096E3AEC22F041
:1026D8000001CD6FCC6BD151020D560EF324086E5C
:1026E800000EF420096E3AEC22F00001CC27000E0F
:1026F800CD23D151020DF350700FD96EDA6ACCC0D8
:10270800DEFFCDC0DDFFCF5144E04D0ED125086E70
:10271800096A000E09223AEC22F00001CC6FCCA520
:1027280025D0D151020D650EF324086E000EF42059
:10273800096E3AEC22F00001CD6FCC6BD151020D3D
:10274800660EF324086E000EF420096E3AEC22F0AF
:102758000001CC27000ECD23D151020DF350600F9C
:10276800D96EDA6ACCC0DEFFCDC0DDFFD0A707D0B6
:10277800140EC56F030EC66FD15196EC1FF0D0AB87
:102788003AD0140EC56F190EC66FD15196EC1FF0D2
:1027980032D0D0A907D0140EC56F040EC66FD15120
:1027A80096EC1FF0D0AD27D0140EC56F180EC66F6B
:1027B800D15196EC1FF01FD0D151020D560EF324C3
:1027C800086E000EF420096E3AEC22F00001CC6F7E
:1027D800D151020D550EF324086E000EF420096E37
:1027E8003AEC22F00001CE6FCD6BCC51CD25706F45
:1027F800000ECE21716FD12B8AD61200E8CFCAF015
:10280800CC6BCCC0C7F0010EC86FC72B02D0D890D4
:10281800C837C72FFCD7C851511401E137D1CAA90D
:1028280011D0D890CC35C76FC86BC837750EC7257F
:10283800086E000EC821096E3AEC22F000019D19BD
:1028480001E024D1CAA711D0D890CC35C76FC86B86
:10285800C837760EC725086E000EC821096E3AECF7
:1028680022F000019E1901E011D14D0ECC25086E11
:10287800096A000E09223AEC22F00001CB6FCBAFB7
:1028880005D1E0D08A88096A4D0E086E3AEC22F02C
:102898000001C76FC7A5E8D0096A660E086E3AEC52
:1028A80022F00001C76F096A650E086E3AEC22F043
:1028B8000001C96FC86BC751C825606F000EC921D8
:1028C800616FD2D08A82096A4E0E086E3AEC22F005
:1028D8000001C76FC7A5C8D0096A680E086E3AEC30
:1028E80022F00001C76F096A670E086E3AEC22F001
:1028F8000001C96FC86BC751C825626F000EC92196
:10290800636FB2D08A80096A4F0E086E3AEC22F0E3
:102918000001C76FC7A5A8D0096A6A0E086E3AEC0D
:1029280022F00001C76F096A690E086E3AEC22F0BE
:102938000001C96FC86BC751C825646F000EC92153
:10294800656F92D08B8E096A500E086E3AEC22F0B1
:102958000001C76FC7A588D0096A6C0E086E3AECEB
:1029680022F00001C76F096A6B0E086E3AEC22F07C
:102978000001C96FC86BC751C825666F000EC92111
:10298800676F72D08B8C096A510E086E3AEC22F090
:102998000001C76FC7A568D0096A6E0E086E3AECC9
:1029A80022F00001C76F096A6D0E086E3AEC22F03A
:1029B8000001C96FC86BC751C825686F000EC921CF
:1029C800696F52D08B8A096A520E086E3AEC22F06F
:1029D8000001C76FC7A548D0096A700E086E3AECA7
:1029E80022F00001C76F096A6F0E086E3AEC22F0F8
:1029F8000001C96FC86BC751C8256A6F000EC9218D
:102A08006B6F32D08B88096A530E086E3AEC22F04D
:102A18000001C76FC7A528D0096A720E086E3AEC84
:102A280022F00001C76F096A710E086E3AEC22F0B5
:102A38000001C96FC86BC751C8256C6F000EC9214A
:102A48006D6F12D0CC5101E11DD7010A01E13AD7CF
:102A5800030A01E157D7010A01E174D7070A92E096
:102A6800010AB0E0030ACEE0CBA707D0140EC56F69
:102A7800030EC66FCC5196EC1FF0CBAB07D0140EEB
:102A8800C56F190EC66FCC5196EC1FF0CC2B070EF4
:102A9800CC65B7D6070CE8CF14F0546A7750C00B52
:102AA800166E166632D060AE12D0A49074AE06D000
:102AB8001150D96EDA6A000EDB86749E60A002D0CF
:102AC800548001D054900F0E196E600E1AD00F0169
:102AD80050AF19D0A49274AC06D01150D96EDA6AEE
:102AE800000EDB86749C5051070B546E020E546026
:102AF80005D01150D96EDA6A000EDB8E0F0E196EF2
:102B0800500E186E65D0000ECCD01650400A46E123
:102B180060AE04D00F0E196E600E3ED00F0150AF9C
:102B280004D00F0E196E500E37D00D01F8B507D02E
:102B38000E0120AF04D00E0E196E200E2DD00D01FF
:102B4800F8B707D00E0130AF04D00E0E196E300E54
:102B580023D00D01F8B907D00E0140AF04D00E0EF6
:102B6800196E400E19D00D01F8BB05D00E0150AFFB
:102B780002D00E0ED7D70D01F8BD05D00E0160AFFB
:102B880002D00E0EC8D70D01F8BFBDD70E0170AF29
:102B9800BAD70E0E196E700E186E0AD074AEB3D76F
:102BA8006F50070B5BEC1FF008C018F009C019F054
:102BB80018C0D9FF19C0DAFFDF501F0B546EA4925A
:102BC80074AC06D01150D96EDA6A000EDB86749C9C
:102BD80018C012F019C013F01150D96EDA6ADF6A02
:102BE80020EE05F01850D9261950DA22DF50176E5A
:102BF8001050D96EDA6A17500F0BDF6E17AC05D07C
:102C08001150D96EDA6A000EDB8C20EE02F01850F3
:102C1800D9261950DA22DF50176E17A608D011509E
:102C2800D96EDA6A000EDB8A010E176E01D0176AB8
:102C38001828086E000E1920096E14C00AF017C073
:102C48000BF0E2EC18F0060E1826000E19221050B0
:102C5800D96EDA6ADF50176E156A0DD018C0D9FF21
:102C680019C0DAFF0F50E16EE26ADFCFE7FF184ABA
:102C7800192A0F2A152A1750155CF0E3A4AE06D0BE
:102C88001150D96EDA6A000EDB88A49E12C0D9FFF3
:102C980013C0DAFF7F0EDF161650800AD8B4749E70
:102CA800010E1200E8CF0FF0106A10C00BF0010EF1
:102CB8000C6E0B2A02D0D8900C360B2EFCD70C5079
:102CC8000A1401E1EAD00FA811D0D89010340B6E85
:102CD8000C6A0C36750E0B24086E000E0C20096E5B
:102CE8003AEC22F000019D1901E0D7D00FA611D0CF
:102CF800D89010340B6E0C6A0C36760E0B24086EC6
:102D0800000E0C20096E3AEC22F000019E1901E039
:102D1800C4D04D0E1024086E096A000E09223AEC40
:102D280022F00E6E0EAEB9D0A8D08A9800018A8122
:102D3800096A560E086E3AEC22F00B6E096A550EB7
:102D4800086E3AEC22F00D6E0C6A0B500C24000150
:102D5800706F000E0D20716FA0D08A9200018A83D7
:102D6800096A580E086E3AEC22F00B6E096A570E83
:102D7800086E3AEC22F00D6E0C6A0B500C24000120
:102D8800726F000E0D20736F88D08A9000018A85BB
:102D9800096A5A0E086E3AEC22F00B6E096A590E4F
:102DA800086E3AEC22F00D6E0C6A0B500C240001F0
:102DB800746F000E0D20756F70D08B9E00018A878E
:102DC800096A5C0E086E3AEC22F00B6E096A5B0E1B
:102DD800086E3AEC22F00D6E0C6A0B500C240001C0
:102DE800766F000E0D20776F58D08B9C00018A8972
:102DF800096A5E0E086E3AEC22F00B6E096A5D0EE7
:102E0800086E3AEC22F00D6E0C6A0B500C2400018F
:102E1800786F000E0D20796F40D08B9A00018A8B55
:102E2800096A600E086E3AEC22F00B6E096A5F0EB2
:102E3800086E3AEC22F00D6E0C6A0B500C2400015F
:102E48007A6F000E0D207B6F28D08B9800018A8D39
:102E5800096A620E086E3AEC22F00B6E096A610E7E
:102E6800086E3AEC22F00D6E0C6A0B500C2400012F
:102E78007C6F000E0D207D6F10D0105001E155D7EA
:102E8800010A01E16AD7030A80E0010A96E0070A0D
:102E9800ACE0010AC2E0030AD8E0102A070E106469
:102EA80004D7070CE8CF1CF01B6A1C50800A04E109
:102EB80055C01BF0556ACBD01C50810A02E1010EA7
:102EC80081D01C50820A02E1050E7CD01C50830A76
:102ED80002E11B6ABCD01C50940A03E179EC22F091
:102EE80071D01C50950A03E178EC22F06BD01C508D
:102EF800960A03E177EC22F065D0890E1C6005D0B4
:102F08001C507C0F1DEC22F05DD0880E1C6408D08C
:102F1800910E1C6005D01C50770F13EC22F052D094
:102F28001C50910A03E191C01BF091D01C50930AE8
:102F380003E152C01BF08BD01C50920A02E153509F
:102F480041D01C50970A03E176EC22F03BD01C508C
:102F5800980A03E175EC22F035D01C50990A03E178
:102F680074EC22F02FD0990E1C642ED09E0E1C609B
:102F78002BD05BEC22F00BC014F00AC013F009C090
:102F880012F008C011F01C50660F196E1950030892
:102F98000C6ED8900C36D8900C36D8900C360C5055
:102FA80011C00DF012C00EF013C00FF014C010F0D5
:102FB800E82A05D0D89010320F320E320D32E82EA2
:102FC800F9D730D01B6E43D09D0E1C642DD0A20EB5
:102FD8001C602AD056EC22F00BC018F00AC017F07B
:102FE80009C016F008C015F01C50620F1A6E1A506E
:102FF80003080C6ED8900C36D8900C36D8900C3646
:103008000C5015C00DF016C00EF017C00FF018C008
:1030180010F0E82A05D0D89010320F320E320D3257
:10302800E82EF9D70D50CED7CF0E1C6408D0E00E8D
:103038001C6005D01C50300F27EC22F0C3D7DF0EE0
:103048001C6405D01C50200FDAEC21F0BBD71B50B4
:1030580012000F0E1C6E400E1B6E0F0E1E6E300EF1
:103068001D6E0F0E206E200E1F6E0E0E226E200E8D
:10307800216E0E0E246E300E236E0E0E266E400E3E
:10308800256E0E0E286E500E276E0E0E2A6E600EDE
:10309800296E0E0E2C6E700E2B6E7750C00B2D6E97
:1030A8002D6602D0020E01D0080E2E6E0D01D890AA
:1030B800F831306E346A7DD03450020DF3501B0F56
:1030C800D96EDA6ADECF35F0DDCF36F035C031F0B3
:1030D80036C032F0020E346404D0D890303230A0BA
:1030E80067D035C0D9FF36C0DAFFDF501A6E1AB67E
:1030F8005FD035C0D9FF36C0DAFFFC0EDF1619C025
:103108001AF0030E1A1635C0D9FF36C0DAFF1A5066
:10311800DF1219AC04D018504009336E02D018C021
:1031280033F020EE05F03550D9263650DA2233C078
:10313800DFFF19AA03D0010E336E01D0336A352898
:10314800086E000E3620096E12C00AF013C00BF08C
:1031580014C00CF015C00DF033C00EF03DEC1AF0A1
:10316800060E3526000E36222F6A0FD016C0D9FF5C
:1031780017C0DAFF35C0E1FF36C0E2FFDFCFE7FF57
:10318800164A172A354A362A2F2A18502F5CEEE39A
:1031980031C0D9FF32C0DAFFDF501A6E1AB406D038
:1031A80031C0D9FF32C0DAFF000EDB86010E05D030
:1031B800342A2E50345C80E3000E12000AC00EF050
:1031C8000B6646D00E50D96EDA6A08C0E1FF09C016
:1031D800E2FFE7500C6ED8900C36D8900C36D89099
:1031E8000C34DF6E0E50D96EDA6AD92ADA6A08C052
:1031F800E1FF09C0E2FFE7500C6E050E0D6ED89096
:103208000C320D2EFCD70C50DF6E084A092A08C074
:10321800D9FF09C0DAFFDF500C6E050E0D6ED8908D
:103228000C320D2EFCD70E50D96EDA6A0C50DF1214
:103238000E50D96EDA6A020ED926DA6ADF6A0E50A3
:10324800D96EDA6A030ED926DA6A000EDF6E67D005
:103258000E50D96EDA6A020ED926DA6A08C0E1FF82
:1032680009C0E2FFE7500C6E050E0D6ED8900C36C3
:103278000D2EFCD70C50DF6E0E50D96EDA6A030E95
:10328800D926DA6A08C0E1FF09C0E2FFE7500C6EF0
:10329800D8900C32D8900C32D8900C30DF6E084A97
:1032A800092A08C0D9FF09C0DAFFDF500C6E030EE7
:1032B8000C160E50D96EDA6A020ED926DA6A0C504C
:1032C800DF1208C0D9FF09C0DAFFDF500C6ED890B2
:1032D8000C32D8900C32D8900C321C0E0C160E50B2
:1032E800D96EDA6A020ED926DA6A0C50DF12084A59
:1032F800092A08C0D9FF09C0DAFF0E50E16EE26A58
:10330800E12AE26ADFCFE7FF084A092A08C0D9FFA5
:1033180009C0DAFF0E50E16EE26ADFCFE7FF120064
:10332800E8CFC9F0CB6BCC6BCCC0C7F0010EC86F2F
:10333800C72B02D0D890C837C72FFCD7C851511413
:1033480001E192D0C9A911D0D890CC35C76FC86B0C
:10335800C837750EC725086E000EC821096E3AECED
:1033680022F000019D1901E07FD0C9A710D0D890A4
:10337800CC35C76FC86BC837760EC725086E000EE8
:10338800C821096E3AEC22F000019E196DE14D0E3C
:10339800CC25086E096A000E09223AEC22F00001D9
:1033A800CA6F2DD08AA802D08A9825D08A88010EA3
:1033B800CB6F33D08AA202D08A921DD08A82F7D7E7
:1033C8008AA002D08A9017D08A80F1D78BAE02D01B
:1033D8008B9E11D08B8EEBD78BAC02D08B9C0BD0F5
:1033E8008B8CE5D78BAA02D08B9A05D08B8ADFD736
:1033F8008BA803D08B98CB6B10D08B88D8D7CC51A7
:10340800D1E0010AD7E0030ADBE0010ADFE0070A9E
:10341800E3E0010AE7E0030AEBE0CB5113E0CAA7B7
:1034280007D0140EC56F030EC66FCC5196EC1FF073
:10343800CAAB1AD0140EC56F190EC66FCC5196ECD4
:103448001FF012D0CAA907D0140EC56F040EC66F9C
:10345800CC5196EC1FF0CAAD07D0140EC56F180EEC
:10346800C66FCC5196EC1FF0CC2B070ECC655CD701
:10347800070C0A0E116E0E6637D01150D96EDA6A33
:10348800DF500F6ED8900F32D8900F32D8900F308F
:1034980008C0D9FF09C0DAFFDF6E1150D96EDA6AA9
:1034A800D92ADA6ADF500F6E050E106ED8900F36E3
:1034B800102EFCD708C0D9FF09C0DAFF0F50DF1261
:1034C800084A092A1150D96EDA6ADF500F6E050EC4
:1034D800106ED8900F36102EFCD70F5008C0D9FFA9
:1034E80009C0DAFFDF6E6CD01150D96EDA6A020EAD
:1034F800D926DA6ADF500F6E050E106ED8900F329B
:10350800102EFCD70F5008C0D9FF09C0DAFFDF6EB4
:103518001150D96EDA6A030ED926DA6ADF500F6EB7
:10352800D8900F36D8900F36D8900F3608C0D9FFEC
:1035380009C0DAFF0F50DF12084A092A1150D96E64
:10354800DA6A020ED926DA6ADF500F6ED8900F3683
:10355800D8900F36D8900F34E00B08C0D9FF09C0B7
:10356800DAFFDF6E08C0D9FF09C0DAFF000EDB867C
:103578001150D96EDA6A020ED926DA6ADF500F6E58
:10358800030E0F1608C0D9FF09C0DAFF0F50DF126B
:10359800084A092A1150D96EDA6AD92ADA6A08C0A3
:1035A800E1FF09C0E2FFDFCFE7FF084A092A11500F
:1035B800D96EDA6A08C0E1FF09C0E2FFDFCFE7FF92
:1035C8001200E8CFC9F0CA6BCC6BCCC0C7F0010EB3
:1035D800C86FC72B02D0D890C837C72FFCD7C8519F
:1035E800511401E187D0C9A910D0D890CC35C76F44
:1035F800C86BC837750EC725086E000EC821096E3E
:103608003AEC22F000019D1975E1C9A710D0D890B5
:10361800CC35C76FC86BC837760EC725086E000E45
:10362800C821096E3AEC22F000019E1963E14D0EA3
:10363800CC25086E096A000E09223AEC22F0000136
:10364800CB6F23D0000E8AB8010ECA6F2CD0000EA3
:103658008AB2010ECA6F27D0000E8AB0010ECA6F57
:1036680022D0000E8BBE010ECA6F1DD0000E8BBC7F
:10367800010ECA6F18D0000E8BBA010ECA6F13D094
:10368800000E8BB8010ECA6F0ED0CC51DBE0010AD8
:10369800DEE0030AE1E0010AE4E0070AE7E0010AE4
:1036A800EAE0030AEDE0CA5113E0CBA907D0140EF3
:1036B800C56F040EC66FCC5196EC1FF0CBAD1AD077
:1036C800140EC56F180EC66FCC5196EC1FF012D0B1
:1036D800CBA907D0140EC56F040EC66FCC5196EC5B
:1036E8001FF0CBAD07D0140EC56F180EC66FCC51A6
:1036F80096EC1FF0CC2B070ECC6567D7070C0001A2
:10370800806B816B826B836B8B6B896B886B8A6B2D
:103718000C6A0C50020DF350700FD96EDA6ADE6A2B
:10372800DD6A0C50020DF350600FD96EDA6ADE6A5A
:10373800DD6A0C2A070E0C64ECD70C6A4D0E0C24BB
:10374800086E096A000E09223AEC22F00A6E0AA0F5
:103758002DD00CC00AF0010E0B6E0A2A02D0D890A8
:103768000B360A2EFCD70B5000018A13550E0C2479
:10377800086E096A000E09223AEC22F00B6E0A6AFA
:10378800560E0C24086E096A000E09223AEC22F043
:103798000A26000E0B220C50020DF3500001700F88
:1037A800D96EDA6A0AC0DEFF0BC0DDFF520E0C24A8
:1037B800086E096A000E09223AEC22F00A6E0AA481
:1037C80020D06F0E0C24086E096A000E09223AEC0C
:1037D80022F00B6E0A6A700E0C24086E096A000E3D
:1037E80009223AEC22F00A26000E0B220C50020D98
:1037F800F3500001600FD96EDA6A0AC0DEFF0BC011
:10380800DDFF0C2A060E0C6499D7060CE8CF16F0DB
:10381800101C156E830E16640ED0890E16600BD020
:1038280010C00CF016507C0FB1EC21F016507C0F34
:103838001DEC22F069D01650920A0DE11050126E5C
:10384800116A5250136E146A1110526E12501410ED
:10385800536E535059D01650930A0BE1116A5350C6
:10386800126E10501110526E1250536E52C015F055
:103878004ED0880E166419D0910E166016D053C01B
:1038880011F011C012F0136A122802E1522802E066
:10389800101C3AD010C00CF01650770F04EC21F031
:1038A8001650770F13EC22F02FD0CF0E166417D0D6
:1038B800E00E166014D053C011F011C012F0136A54
:1038C8001228E6E15228E4E110C00CF01650300F3F
:1038D80017EC21F01650300F27EC22F015D01650B7
:1038E800A20AD6E11050550A04E1846B856B550E87
:1038F8000BD01050AA0A0BE1E80E845D030E85591F
:1039080005E26AEC22F0AA0E156E01D0156A155070
:103918001200E8CFC9F0CB6BCBC0C7F0010EC86F5F
:10392800C72B02D0D890C837C72FFCD7C85151141D
:103938005FE0C9A910D0D890CB35C76FC86BC8371E
:10394800750EC725086E000EC821096E3AEC22F0E4
:1039580000019D194DE1C9A710D0D890CB35C76F8C
:10396800C86BC837760EC725086E000EC821096EC9
:103978003AEC22F000019E193BE14D0ECB25086E72
:10398800096A000E09223AEC22F00001CA6FCAAF98
:103998002FD00ED08A981AD08A9218D08A9016D032
:1039A8008B9E14D08B9C12D08B9A10D08B980ED0F3
:1039B800CB51F0E0010AF0E0030AF0E0010AF0E080
:1039C800070AF0E0010AF0E0030AF0E0CAA907D00C
:1039D800140EC56F040EC66FCB5196EC1FF0CAAD1E
:1039E80007D0140EC56F180EC66FCB5196EC1FF09A
:1039F800CB2B070ECB6590D7070C34EC20F04FEC9F
:103A080021F0000904E1D9EC0EF083EC1BF0F3EC93
:103A18001FF00400FA0E00018F650ED092050CE02D
:103A280091696EEC22F0096A010E086EFF0E0A68B1
:103A380053EC20F0F3EC1FF0966BC8EC20F01CD090
:103A4800912903E1010E926F23D0030E926F93EC3C
:103A580021F01ED072EC1DF01BD096AF19D09951F1
:103A68009811D8B484EC09F00AEC11F011D071EC7B
:103A780022F00ED0926B0CD000019251E1E0010AC5
:103A8800E9E0030AE4E0010AE8E0070AF0E0F2D717
:103A9800E90E0001805D030E8159000E8259000E67
:103AA80083590BE3806B816B826B836BCCEC1FF0CB
:103AB8009251030AD8B489EC12F03B0E8B650BD0F7
:103AC8008B6B892B3B0E896502D0896B882B170E6F
:103AD800886501D0886B73EC22F09BD753D05728A8
:103AE80010E0810EA46FA56BA66BA76B020EA86FE2
:103AF80057C0A9F02AEC21F0010E936F866B876BF3
:103B080048D0040E926F810EA46FA969070EA56FA5
:103B1800A66BA76B030EA86F2AEC21F03AD096AFDC
:103B28000FD09951981135E19A51030A32E157663D
:103B380003D0020E926FE2D7572A936B946B29D069
:103B4800E90E865D030E875924E3942B020E9465D3
:103B580017D0576605D0572A936B866B876BEED7BD
:103B680057C091F0030E926F936B915108EC22F0BD
:103B7800400EFDEC21F00001946B93EC21F009D08C
:103B8800936B07D000019351AAE0010AC8E0030A29
:103B9800F7E1966B120041C0B1F0B26BB36BB46B36
:103BA800B3C0B4F0B2C0B3F0B1C0B2F0B16B3F5023
:103BB800B56F4050B66FB76BB86BB6C0B8F0B5C04C
:103BC800B7F0B66BB56B43C0B9F0BA6BBB6BBC6BE7
:103BD8001A0ED890B937BA37BB37BC37E82EF9D7A1
:103BE800B551B911BD6FB651BA11BE6FB751BB11FE
:103BF800BF6FB851BC11C06FB151BD11C16FB25187
:103C0800BE11C26FB351BF11C36FB451C011C46F9D
:103C18004250C111476EC251486EC351496EC451DA
:103C28004A6E47C037F048C038F049C039F04AC03A
:103C38003AF044C03BF045C03CF046C03DF085EC4E
:103C480020F00009000ED8A4010E1200E8CF0BF0F6
:103C58000A6A0B6606D0096A430E086E3AEC22F02F
:103C68004DD00B0406E1096A440E086E3AEC22F0C6
:103C780045D0010E0B6434D00A0E0B6031D01ED033
:103C8800000E8AB8010E3AD0000E8AB2010E36D064
:103C9800000E8AB0010E32D0000E8BBE010E2ED05F
:103CA800000E8BBC010E2AD0000E8BBA010E26D056
:103CB800000E8BB8010E22D00A6A21D00B50020ADE
:103CC800DFE0010AE1E0070AE3E0010AE5E0030AB0
:103CD800E7E0010AE9E00F0AEBE0010AEDE00FD0A6
:103CE800090E0B640CD0800E0B6009D0430E0B2418
:103CF800086E096A000E09223AEC22F00A6E0A5090
:103D08001200E8CF10F0116A11C00DF0010E0E6E0E
:103D18000D2A02D0D8900E360D2EFCD70E500C145A
:103D28003AE010A810D0D89011340D6E0E6A0E36F5
:103D3800750E0D24086E000E0E20096E3AEC22F066
:103D480000019D1928E110A610D0D89011340D6EED
:103D58000E6A0E36760E0D24086E000E0E20096EC1
:103D68003AEC22F000019E1916E14D0E1124086E5E
:103D7800096A000E09223AEC22F00F6E6EEC22F06E
:103D88004D0E1124086E096A000E09220F507F0B90
:103D98000A6E53EC20F0112A070E1164B5D7070CF0
:103DA800800EE6EC21F0090E706EFC0E716E010EAD
:103DB800726E200E736E778E779C606A0F01506B5F
:103DC8000E01206B306B406B506B606B706BE00EBC
:103DD8000D01F86F0F01006B080E016F026B036B8A
:103DE800046BE80E056F1A0E066F076B030E0D01C4
:103DF800D46FD56BE06B110EE16FE26FE36BE46B90
:103E0800E56BE66BE76B540EF06F050EF16FF26B26
:103E1800F26B0F0E0F01186FE00E196F1A6B1B6B08
:103E280019870F0E1C6FE00E1D6F1E691F6B1D8713
:103E3800000EE6EF21F0E8CF27F021C01AF022C0EB
:103E48001BF0280E9DEC20F0000902E1000E2ED098
:103E58001F50D96EDA6A28C0DFFF1E50D96EDA6AA1
:103E680029C0DFFF2A50236E010E2B14246E275021
:103E7800D96EDA6A23C0DEFF24C0DDFF2050D96E78
:103E8800DA6A28C023F029C024F02AC025F02BC004
:103E980026F01B0E05D0D890263225322432233244
:103EA800E82EF9D72350070BDF6E010E1200E8CF7A
:103EB8000BF024D00F0E0D6E600E1ED00F010F0EEA
:103EC8000D6E500E19D00E010E0E0D6E200E14D070
:103ED8000E010E0E0D6E300E0FD00E010E0E0D6E71
:103EE800400E0AD00E010E0EEBD70E010E0EE3D7D0
:103EF8000E010E0E0D6E700E0C6E0FD00B50DAE028
:103F0800010ADCE0030ADFE0010AE2E0070AE5E073
:103F1800010AE8E0030AE9E0EBD70CC008F00DC09D
:103F280009F01200E8CF50F050C04DF0D89050344E
:103F38004B6E4C6A4C36750E4B24086E000E4C20A6
:103F4800096E3AEC22F04E6ED89050344B6E4C6AA3
:103F58004C36760E4B24086E000E4C20096E3AEC57
:103F680022F04F6E0001C5C03FF0406AC6C041F064
:103F780091C042F0030E436E446E4D0E456E000E26
:103F8800466E0F0E466E5F0E4564466ACFEF1DF013
:103F9800952B3B0E95650DD0956B902B9251030A8E
:103FA80008E14CEC22F00001C56F51EC22F0F1EC75
:103FB80020F03B0E906502D0906B8E2B170E8E650D
:103FC80001D08E6B9251030A09E18D2B8DC04DF003
:103FD8000F0E4D16020E4D5CD8B08D6B1200020EFE
:103FE800566E60EC22F00001916F916701D09169E3
:103FF800966B976B986B996B9A6BA46BA56BA66B7A
:10400800A76BA86B556A576A926B936B946B526A4D
:10401800536A866B876B846B856B956B906B8E6B25
:10402800120065EC22F0000916E1000196510F0B11
:10403800050A15E165EC22F000019C1910E09C517D
:10404800FDEC21F000019169FF0E08EC22F0010E51
:104058000001926F04D000019C51FDEC21F0120088
:1040680083EC1BF0926A806A080E936E816A010ED7
:10407800946E826A920EA2EC21F0FB0E096E1D0E60
:10408800086E31EC22F08A988A928A908B9E8B9CDB
:104098008B9A8B98D4EC1EF0F28CF28E120008C02A
:1040A800A9FF0AC0A8FFA69EA69CA684000EF2BE81
:1040B800010E0B6EF29E550EA76EAA0EA76EA68273
:1040C800A6B2FED70BB002D0F29E01D0F28EA69413
:1040D800120096510F0B0D6E0D5012E0915120EE0B
:1040E8009CF0DF620DD00D0405E0010E0D6408D0D0
:1040F8009D6706D09169FF0E08EC22F0F3EC1FF0E3
:1041080012008C6B37C012F038C013F039C014F0AD
:104118003AC015F03CC016F03DC017F03BC018F08F
:10412800200E196E2DEC18F00009ECE00001A46BCC
:10413800010CE8CF1CF096AF02D0000E0FD01BC0C8
:104148000FF01AC010F01D0E116E1C504FEC15F038
:104158000009F3E01DAC1DAAF0D7010E120096C0AD
:104168004CF00F0E4C164C040EE1915120EE9CF0D1
:10417800DF6209D0800EA46FA56BA66BA76B030E38
:10418800A86F2AEC21F0120096BF12D09A0E1E6E6C
:104198009B0E1F6E970E206E960E216E9C0E226E41
:1041A800980E1FEC1FF02C6E2C5002E00001968F29
:1041B8001200E8CF09F0080E0A6E0B6AD89009348D
:1041C8000B340B6ED890093608500B5C02E308508C
:1041D8000B5E0A2EF3D70B501200E8CF4CF0830E7B
:1041E8000001A46F070EA56FA76B140EA66F090E2A
:1041F800A86FA96B4CC0AAF0C5C0ABF02AEF21F09C
:10420800E8CF0DF0070E0D6401D00CD06EEC22F053
:104218000B0E0D24086E096A000E09220CC00AF064
:1042280053EC20F01200E8CF0DF00F0E0D6401D012
:104238000CD06EEC22F0130E0D24086E096A000EE5
:1042480009220CC00AF053EC20F01200A6C03FF07F
:10425800A7C040F0A8C041F091C042F0A5C043F00B
:10426800A4510F0B446E000E466EA90E456ECFEF9B
:104278001DF096510F0B020A0DE1915120EE9CF0B2
:10428800DF6208D09DC091F0915108EC22F0400EF9
:10429800FDEC21F0120065EC22F0C00B400A02E1AF
:1042A800010E0AD0FF0E08EC22F0000EFDEC21F002
:1042B800A00EF2EC21F0000E120000EE60F0510E9C
:1042C800EE6AE806FDE100EE52F0070EEE6AE80637
:1042D800FDE1000EF86E000101EF1DF0E8CFD0F00F
:1042E8007F0ED06506D0CFC010F0D0510AEC1CF07C
:1042F80005D0CFC051F0D0516FEC04F01200070E7A
:10430800A96F480EAA6F020E086E0850A90FD96E41
:10431800DA6ADF6A082A070E0864F7D7070C810EE5
:104328000001A46FA56BA66BA76B020EA86F91C0C6
:10433800A9F02AEC21F0010E566E010CE8CF08F026
:1043480008507F0BD56ED76AD66AF29408AE02D0B1
:10435800F28A01D0F29AD58E1200E8CF0DF06EECF9
:1043680022F0060E0D24086E096A000E09220CC000
:104378000AF053EF20F0E8CF0CF00C0409E16EECE2
:1043880022F0096A086AFF0E0A6853EC20F0FF0061
:104398001200E8CF1DF07F0E1D6404D01D5056ECAE
:1043A80017F003D01D502AEC1EF01200E8CF09F0D8
:1043B8000950BC0F086E08C0F6FF080EF76E08001B
:1043C800F5501200E8CF08F01F0E6F1608506F1254
:1043D8006F50E00B0818D8B41200FAD7E8CF0CF0E9
:1043E8006EEC22F0096A030E086E0CC00AF053EF57
:1043F80020F0E8CF0CF06EEC22F0096A020E086E8D
:104408000CC00AF053EF20F0E8CF0CF06EEC22F06D
:10441800096A010E086E0CC00AF053EF20F0E8CFCD
:104428000AF00B0E0A24086E096A000E09223AEFF8
:1044380022F0E8CF0AF0060E0A24086E096A000E78
:1044480009223AEF22F0E8CF0AF0130E0A24086E88
:10445800096A000E09223AEF22F008C00AF009C0E2
:104468000BF00BC0D7FF0AC0D6FF120008C0A9FF87
:10447800A69CA69EA68000F000F0A850120001C0DD
:1044880003F002C004F004C0D7FF03C0D6FF120037
:10449800096A440E086E3AEF22F0096A430E086E64
:1044A8003AEF22F0086A096A0A6A0B6A1200086A77
:1044B800096A0A6A0B6A1200096A010E086E3AEF65
:1044C80022F0096A020E086E3AEF22F0D9EC0EF0DB
:1044D80083EF1BF0A6A21200FDD7566A1200120045
:0C44E800010C080C010C010C010C010C73
:020000040020DA
:08000000FFFFFFFFFFFFFFFF00
:020000040030CA
:0E000000FF061D0FFF8295FF0F800FE00F40DF
:00000001FF
