:040800005CEF04F0B5
:10081800D8CF05F0E8CF06F0E0CF07F0F2A401D07A
:1008280001D03FD0FB0E026E1D0E016E44EC22F08B
:100838000001864B872B844B852B010E8027000EE9
:100848008123000E8223000E83238C2B82A001D0EB
:1008580001D002D08F6B01D08F2B582A5650020A34
:10086800D8A401D001D00ED0640E586401D001D0B4
:1008780009D082A201D001D002D0829201D0828216
:10088800586A0ED05604D8A401D001D003D0828271
:10089800586A06D0566601D001D002D08292586AB2
:1008A800F29407C0E0FF06C0E8FF05C0D8FF1000BB
:1008B80062EF21F07777772E6575726F736F7572B7
:1008C80063652E73652F70617269735F3031302EE6
:1008D800786D6C000000E8CFCEF0CA6BCD6B511C70
:1008E800CC6FCE6710D06FEC22F0096A430E086E09
:1008F80051C00AF054EC20F0096A430E086E3BEC34
:1009080022F032EF09F0CE0510E16FEC22F0096A0F
:10091800440E086E51C00AF054EC20F0096A440EE7
:10092800086E3BEC22F032EF09F0010ECE6585D15E
:100938000A0ECE6182D14B0ECE25086E096A000ED2
:1009480009223BEC22F00001C76FC7BF61D14BEF12
:1009580009F0010ECA6F510428E18A88000E8AB88E
:10096800010ECC6F010ECD6F096A4D0E086E3BEC7F
:1009780022F00001C76FC7A54BEF09F0096A660EA0
:10098800086E3BEC22F00001C76F096A650E086E1D
:100998003BEC22F00001C96FC86BC751C825606FD6
:1009A800000EC921616F4BEF09F051664BEF09F05A
:1009B8008A98000E8AB8010ECC6FCD6B4BEF09F008
:1009C800010ECA6F51041EE18A82000E8AB2010E1E
:1009D800CC6F010ECD6F096A4E0E086E3BEC22F00B
:1009E8000001C76FC7A54BEF09F0096A680E086ECA
:1009F8003BEC22F00001C76F096A670E086E3BECFA
:100A080022F09FD151664BEF09F08A92000E8AB20C
:100A1800010ECC6FD2D7010ECA6F510428E18A802B
:100A2800000E8AB0010ECC6F010ECD6F096A4F0E11
:100A3800086E3BEC22F00001C76FC7A54BEF09F029
:100A4800096A6A0E086E3BEC22F00001C76F096A5A
:100A5800690E086E3BEC22F00001C96FC86BC751E4
:100A6800C825646F000EC921656F4BEF09F0516608
:100A78004BEF09F08A90000E8AB0010ECC6F9DD71B
:100A8800010ECA6F510426E18B8E000E8BBE010E3B
:100A9800CC6F010ECD6F096A500E086E3BEC22F048
:100AA8000001C76FC7A5F3D3096A6C0E086E3BEC4B
:100AB80022F00001C76F096A6B0E086E3BEC22F04A
:100AC8000001C96FC86BC751C825666F000EC921E0
:100AD800676FDDD35166DBD38B9E000E8BBE010E94
:100AE800CC6F6BD7010ECA6F510426E18B8C000EB8
:100AF8008BBC010ECC6F010ECD6F096A510E086ECA
:100B08003BEC22F00001C76FC7A5C1D3096A6E0E7E
:100B1800086E3BEC22F00001C76F096A6D0E086E83
:100B28003BEC22F00001C96FC86BC751C825686F3C
:100B3800000EC921696FABD35166A9D38B9C000EF7
:100B48008BBC010ECC6F39D7010ECA6F510426E158
:100B58008B8A000E8BBA010ECC6F010ECD6F096A1D
:100B6800520E086E3BEC22F00001C76FC7A58FD369
:100B7800096A700E086E3BEC22F00001C76F096A23
:100B88006F0E086E3BEC22F00001C96FC86BC751AD
:100B9800C8256A6F000EC9216B6F79D3516677D368
:100BA8008B9A000E8BBA010ECC6F07D7010ECA6F55
:100BB800510426E18B88000E8BB8010ECC6F010E14
:100BC800CD6F096A530E086E3BEC22F00001C76F27
:100BD800C7A55DD3096A720E086E3BEC22F00001CE
:100BE800C76F096A710E086E3BEC22F00001C96FED
:100BF800C86BC751C8256C6F000EC9216D6F47D3EC
:100C0800516645D38B98000E8BB8010ECC6FD5D6A4
:100C1800CE51020A01E19DD6010A01E1D1D6070AA7
:100C280001E1F9D6010A01E12BD7030A01E15AD7FC
:100C3800010A8AE00F0ABAE02AD3090ECE65BED1AE
:100C4800120ECE61BBD1A4D16FEC22F0430E00018D
:100C5800CE25086E096A000E092251C00AF054EC2C
:100C680020F0430E0001CE25086E096A000E092205
:100C78003BEC22F00001CC6F51A019D08A98CD6BC3
:100C88008A81096A560E086E3BEC22F00001C76F94
:100C9800096A550E086E3BEC22F00001C96FC86B5B
:100CA800C751C825706F000EC921716F03D08A9192
:100CB8008A98CD6B51B462D6EAD26FEC22F0430E1B
:100CC8000001CE25086E096A000E092251C00AF0FB
:100CD80054EC20F0430E0001CE25086E096A000E80
:100CE80009223BEC22F00001CC6F51A019D08A9266
:100CF800CD6B8A83096A560E086E3BEC22F0000120
:100D0800C76F096A550E086E3BEC22F00001C96FE7
:100D1800C86BC751C825726F000EC921736F03D005
:100D28008A938A92CD6B51A4B2D2096A660E086E74
:100D38003BEC22F00001C76F096A650E086E3BECB8
:100D480022F00001C96FC86BC751C825626F000E39
:100D5800C921636F9CD26FEC22F0430E0001CE25AF
:100D6800086E096A000E092251C00AF054EC20F0FE
:100D7800430E0001CE25086E096A000E09223BECDD
:100D880022F00001CC6F51A019D08A90CD6B8A85D2
:100D9800096A5A0E086E3BEC22F00001C76F096A17
:100DA800590E086E3BEC22F00001C96FC86BC751A1
:100DB800C825746F000EC921756F03D08A958A9073
:100DC800CD6B51B43DD663D26FEC22F0430E0001D7
:100DD800CE25086E096A000E092251C00AF054ECAB
:100DE80020F0430E0001CE25086E096A000E092284
:100DF8003BEC22F00001CC6F51A019D08B9ECD6B3B
:100E08008A87096A5C0E086E3BEC22F00001C76F06
:100E1800096A5B0E086E3BEC22F00001C96FC86BD3
:100E2800C751C825766F000EC921776F03D08A97FE
:100E38008B9ECD6B51B438D62AD26FEC22F0430E7C
:100E48000001CE25086E096A000E092251C00AF079
:100E580054EC20F0430E0001CE25086E096A000EFE
:100E680009223BEC22F00001CC6F51A019D08B9CD9
:100E7800CD6B8A89096A5E0E086E3BEC22F0000190
:100E8800C76F096A5D0E086E3BEC22F00001C96F5E
:100E9800C86BC751C825786F000EC921796F03D078
:100EA8008A998B9CCD6B51B431D6F1D16FEC22F07D
:100EB800430E0001CE25086E096A000E092251C0B2
:100EC8000AF054EC20F0430E0001CE25086E096AA2
:100ED800000E09223BEC22F00001CC6F51A019D082
:100EE8008B9ACD6B8A8B096A600E086E3BEC22F0F8
:100EF8000001C76F096A5F0E086E3BEC22F0000123
:100F0800C96FC86BC751C8257A6F000EC9217B6F9E
:100F180003D08A9B8B9ACD6B51B42AD6B8D16FEC8B
:100F280022F0430E0001CE25086E096A000E092240
:100F380051C00AF054EC20F0430E0001CE25086E93
:100F4800096A000E09223BEC22F00001CC6F51A087
:100F580019D08B98CD6B8A8D096A620E086E3BECAE
:100F680022F00001C76F096A610E086E3BEC22F09F
:100F78000001C96FC86BC751C8257C6F000EC92115
:100F88007D6F03D08A9D8B9ECD6B51B423D67FD1C4
:100F9800CE510A0A01E158D6010A01E18ED6070AA4
:100FA80001E1D9D6010A01E10FD7030A01E145D7CA
:100FB800010A01E17BD71F0AB2E069D1110ECE65A3
:100FC800E1D0220ECE61DED06FEC22F0430E00019C
:100FD800CE25086E096A000E092251C00AF054ECA9
:100FE80020F0430E0001CE25086E096A000E092282
:100FF8003BEC22F00001CC6FB0D0096A560E086EA7
:101008003BEC22F00001C76F096A550E086E3BECF5
:1010180022F00001C96FC86BC751C825706F000E58
:10102800C921716F34D1096A580E086E3BEC22F061
:101038000001C76F096A570E086E3BEC22F00001E9
:10104800C96FC86BC751C825726F000EC921736F6D
:101058001ED1096A5A0E086E3BEC22F00001C76FD8
:10106800096A590E086E3BEC22F00001C96FC86B83
:10107800C751C825746F000EC921756F08D1096A58
:101088005C0E086E3BEC22F00001C76F096A5B0E2C
:10109800086E3BEC22F00001C96FC86BC751C82528
:1010A800766F000EC921776FF2D0096A5E0E086E5E
:1010B8003BEC22F00001C76F096A5D0E086E3BEC3D
:1010C80022F00001C96FC86BC751C825786F000EA0
:1010D800C921796FDCD0096A600E086E3BEC22F0FA
:1010E8000001C76F096A5F0E086E3BEC22F0000131
:1010F800C96FC86BC751C8257A6F000EC9217B6FAD
:10110800C6D0096A620E086E3BEC22F00001C76F78
:10111800096A610E086E3BEC22F00001C96FC86BCA
:10112800C751C8257C6F000EC9217D6FB0D0096AF0
:10113800640E086E3BEC22F00001C76F096A630E6B
:10114800086E3BEC22F00001C96FC86BC751C82577
:101158007E6F000EC9217F6F9AD0CE51130A01E12C
:101168004CD7060A01E15FD7020A01E172D70E0ADD
:1011780086E0020A9AE0060AAEE0020AC2E03E0AE7
:10118800D6E085D0210ECE654DD0320ECE614AD044
:101198006FEC22F0430E0001CE25086E096A000E9E
:1011A800092251C00AF054EC20F0430E0001CE256C
:1011B800086E096A000E09223BEC22F00001CC6F90
:1011C80016D0096A740E086E3BEC22F00001C76F56
:1011D800096A730E086E3BEC22F00001C96FC86BF8
:1011E800C751C8256E6F000EC9216F6F50D0CE5100
:1011F800230A02E1C2EF04F0060A02E1F9EF04F063
:10120800020A01E11DD40E0A01E14ED4020A01E1ED
:101218007DD4060A01E1ACD4020A01E1DBD41E0A3E
:10122800D0E035D0310ECE651CD0420ECE6119D03B
:101238006FEC22F0430E0001CE25086E096A000EFD
:10124800092251C00AF054EC20F0430E0001CE25CB
:10125800086E096A000E09223BEC22F00001CC6FEF
:1012680016D0470ECE6513D0800ECE6110D06FEC2D
:1012780022F0430E0001CE25086E096A000E0922ED
:1012880051C00AF054EC20F0A3EC0CF0DED7CA51A0
:1012980035E04B0ECE25086E096A000E09223BEC9C
:1012A80022F00001CB6FCD5115E0CBA708D0140E6A
:1012B800C56F030EC66FCE51FE0F97EC1FF0CBAB78
:1012C8001DD0140EC56F190EC66FCE51FE0F97ECC8
:1012D8001FF014D0CBA908D0140EC56F040EC66F2A
:1012E800CE51FE0F97EC1FF0CBAD08D0140EC56F92
:1012F800180EC66FCE51FE0F97EC1FF0CC5112009E
:101308009951981101E1E9D219D316EC20F016D3BE
:10131800B4EC20F013D33EEC21F010D36EEC20F0A7
:101328000DD396510F0B020A01E008D3915120EE1C
:101338009CF0DF6203D3800E9D6112D09D512BEC8F
:101348001EF00001AA6F9DC0A9F0030EA56F820EC2
:10135800A46FA66BA76B0A0EA86F2BEC21F0EED238
:101368009D5157EC17F0EDD796510F0B030A01E08A
:10137800E5D2915120EE9CF0DF62E0D2800E9D61B3
:1013880006D09EC051F09D516FEC04F0DBD79EC093
:1013980048F09D510BEC1CF0D4D7915120EE9CF0F5
:1013A800DF62CCD2000E28EC22F000019E1901E089
:1013B800C5D2030E28EC22F000019F1901E0BED22D
:1013C800050E28EC22F00001A01901E0B7D2070EA3
:1013D80028EC22F00001A11901E0B0D25350A21963
:1013E80001E0ACD2525020EEA3F0DF62A7D29D51AB
:1013F800C0EC21F0A3D2000E28EC22F000019D19C8
:1014080073E1010E28EC22F000019E196DE1020E35
:1014180028EC22F000019F1967E1030E28EC22F066
:101428000001A01961E18D895FD0040E28EC22F03B
:1014380000019D1959E1050E28EC22F000019E19C2
:1014480053E1060E28EC22F000019F194DE1070E2A
:1014580028EC22F00001A01947E18D8B45D0080E39
:1014680028EC22F000019D193FE1090E28EC22F03A
:1014780000019E1939E10A0E28EC22F000019F199B
:1014880033E10B0E28EC22F00001A0192DE18D8D1F
:101498002BD00C0E28EC22F000019D1925E10D0E31
:1014A80028EC22F000019E191FE10E0E28EC22F014
:1014B80000019F1919E10F0E28EC22F00001A01974
:1014C80013E18D8F11D08D6B0FD09C390F0BD16F1D
:1014D800D26BD251F8E1D1518EE0010AA6E0030A9D
:1014E800BEE0010AD6E0EFD78D51F00BF00A01E01B
:1014F80025D2F4EC1FF022D2915120EE9CF0DF624D
:101508001DD2DD6B9DC0DCF09EC0DFF0EB6B47D0D9
:10151800070E086EEB51DEEC20F00001D16FD151BF
:10152800AA0FD96EDA6ADC51EB25CEEC21F0DF6E1A
:10153800070E086E0001EB51DEEC20F0060A0BE006
:10154800FF0E0001DF25D16FD26BFF0ED223EB51C6
:10155800D119D21123E1070E086E0001EB51DEEC20
:1015680020F0060A03E1070E000109D0070E086EF5
:101578000001EB51DEEC20F00001D16FD129DE6FC4
:10158800DE51810FA46F070EA56FA66BA76B1A0E0D
:10159800A86FDDC0A9F02BEC21F0DD2BEB2BDF5180
:1015A800EB5D01E3CBD1B4D7915120EE9CF0DF6223
:1015B800C5D19DC0E0F09651FE0F070BE16FE66BB9
:1015C80016D0E6519E0FD96EDA6ADF50CF6FE05120
:1015D800E62573EC21F00001E651AA0FD96EDA6A0C
:1015E800E051E625CEEC21F0DF6E0001E62BE1515B
:1015F800E65DE7E3070EA56FA66BA76B1A0EA86F4B
:10160800A96BE151810FA46FA8D6915120EE9CF0EF
:10161800DF6294D19D512BEC1EF00001D16FD129CE
:10162800516E9D516FEC04F08DD6915120EE9CF0D7
:10163800DF6284D19D512BEC1EF00001D16FD105E2
:10164800516E9D516FEC04F07DD69C51911903E0C9
:101658009C2901E073D1E56B030EA56F880EA46F7A
:10166800A66BA76B200EA86FEA6BEAC0A9F0010E63
:10167800EC6FEC51A90FD96EDA6AE5510F0828EC26
:1016880022F0DF6E0001E52B100EE56501D004D0D5
:10169800EC2B070EEC65EDD7100EE56501D006D0F2
:1016A8002BEC21F0EA2B020EEA65DFD7EC6BEC514C
:1016B800DBEC21F0000908E0EC51AC0FD96EDA6AD6
:1016C800EC51DBEC21F005D0EC51AC0FD96EDA6AA5
:1016D800000EDF6EEC2B040EEC65E9D72BEC21F045
:1016E800050EE56F030EEA6FEAC0A9F0010EEC6F74
:1016F800EC51A90FD96EDA6AE551DBEC21F0DF6E07
:10170800E52BEC2B070EEC65F3D72BEC21F0EA2B3D
:10171800060EEA65E9D712D1915120EE9CF0DF62FE
:101728000DD1030EA56F870EA46FA66BA76B220EB3
:10173800A86FA90E84EC21F010D6915120EE9CF0F0
:10174800DF62FCD0E76B96C0D1F00F0ED117040E04
:10175800D15D12E3A0C0E8F0E96BE951E81103E1BB
:10176800010EE96FE86B010EE85D010EE95907E328
:10177800010EE96F000E02D0E96B010EE86F52C04E
:10178800D8F053C0D9F09E519DC0D1F0D26BD1C0D2
:10179800D2F0D16BD111526ED251536E070EA56F94
:1017A800A66BA76B270EA86FA96B9DC0AAF09EC059
:1017B800ABF0E751E85DD16F000EE959D26F040E26
:1017C800D15D000ED25902E3040E02D0E751E85D64
:1017D800E26FE251840FA46F9F51E725AC6FE36B72
:1017E8000CD0E351AD0FD96EDA6A9F51E725E32596
:1017F800CEEC21F0DF6E0001E32BE251E35DF1E373
:101808002BEC21F0E251E727A92BE751D16FD26BDE
:10181800E851D15DE951D259CCE3D8C052F0D9C0D2
:1018280053F08CD0915120EE9CF0DF6287D052C0EB
:10183800DAF053C0DBF09E519DC0D1F0D26BD1C01D
:10184800D2F0D16BD111526ED251536E9FC0E4F0D9
:1018580014D09F51A008E425D96EDA6ADF50CF6F03
:10186800E45173EC21F00001D16F9F51AD08E425DC
:10187800D96EDA6AD1C0DFFFE42B96510F0BD16F16
:10188800D26B9F51D127000ED223FC0ED125D36FE6
:10189800FF0ED221D46FE451D56FD66BD651800A92
:1018A800D76FD351D55DD451800AD759D2E3DAC066
:1018B80052F0DBC053F0070EA56F96510F0B800F47
:1018C800A46FA66BA76B270EA86FA96B9DC0AAF083
:1018D8009EC0ABF09FC0ACF040D59A51010A01E11F
:1018E80014D5030A01E114D5040A01E114D50E0A3E
:1018F80001E114D5010A01E114D5020A01E134D548
:10190800070A01E14AD51B0A01E1DFD50F0A01E107
:10191800F3D5010A01E148D6040A01E176D6030AA3
:1019280001E183D6010A01E190D63E0A01E1F4D62D
:10193800040A01E102D7030A01E174D712003668EC
:101948003768386839683A6A3B6A3C6A3D6A436A6C
:101958004350126E136AD89012361336D890123646
:101968001336D89012361336440E1224086E000E21
:101978001320096E3BEC22F0146E14AEE8D14350EC
:10198800126E136AD89012361336D8901236133660
:10199800D89012361336470E1224086E000E132004
:1019A800096E3BEC22F0146E14C015F0166A176A23
:1019B800186A17C018F016C017F015C016F0156A87
:1019C8004350196E1A6AD89019361A36D8901936B3
:1019D8001A36D89019361A36450E1924086E000E94
:1019E8001A20096E3BEC22F01B6E1BC01CF01D6A0E
:1019F8001E6A1F6A1DC01FF01CC01EF01D6A1C6AEB
:101A08004350206E216AD89020362136D89020364F
:101A18002136D89020362136440E2024086E000E38
:101A28002120096E3BEC22F0226E020E221622C003
:101A380023F0246A256A266A170ED890233624369E
:101A480025362636E82EF9D71C502310276E1D5050
:101A58002410286E1E502510296E1F5026102A6E3D
:101A6800155027102B6E165028102C6E1750291061
:101A78002D6E18502A102E6EFF0E2B10316E2C5022
:101A8800326E2D50336E2E50346E4350126E136AE0
:101A9800D89012361336D89012361336D89012369C
:101AA8001336480E1224086E000E1320096E3BEC04
:101AB80022F0146E14C015F0166A176A186A17C057
:101AC80018F016C017F015C016F0156A4350196EB5
:101AD8001A6AD89019361A36D89019361A36D89004
:101AE80019361A36460E1924086E000E1A20096E89
:101AF8003BEC22F01B6E1BC01CF01D6A1E6A1F6A9D
:101B08001DC01FF01CC01EF01D6A1C6A4350206EC9
:101B1800216AD89020362136D89020362136D890A0
:101B280020362136440E2024086E000E2120096E2E
:101B38003BEC22F0226E010E221622C023F0246A0A
:101B4800256A266A23C026F0256A246A236A1C505F
:101B58002310276E1D502410286E1E502510296E44
:101B68001F5026102A6E155027102B6E165028105D
:101B78002C6E175029102D6E18502A102E6E4350B7
:101B88002F6E306AD8902F363036D8902F363036B0
:101B9800D8902F363036430E2F24086E000E302092
:101BA800096E3BEC22F02B103E6E2C503F6E2D50F0
:101BB800406E2E50416E436608D03EC03AF03FC09A
:101BC8003BF040C03CF041C03DF031503616325039
:101BD80037163350381634503916426A42503EC0D0
:101BE80012F03FC013F040C014F041C015F0E82ACD
:101BF80005D0D8901532143213321232E82EF9D7A4
:101C0800010E121642503AC016F03BC017F03CC005
:101C180018F03DC019F0E82A05D0D89019321832CA
:101C280017321632E82EF9D71650010B12181DE09C
:101C380042C012F0010E136E146A122A03D0D89013
:101C480013361436122EFBD7131C156E141C166E81
:101C5800176A16BE17061750186E15503616165006
:101C680037161750381618503916422A1F0E426474
:101C7800B5D73E503A163F503B1640503C1641509F
:101C88003D1643504FE0426A43C012F04350136E72
:101C9800146AD89013361436D89013361436D89060
:101CA80013361436430E1324086E000E1420096EE2
:101CB8003BEC22F0156E122A02D0D8901532122E63
:101CC800FCD7010E151643C016F035C017F0162ABA
:101CD80002D0D8901732162EFCD71750010B1518C2
:101CE8001DE043C012F0010E136E146A122A03D0CD
:101CF800D89013361436122EFBD713C015F014C023
:101D080016F0000E16BEFF0E176E186E155036161A
:101D1800165037161750381618503916422A070E1B
:101D28004264B2D74350126E136AD89012361336F3
:101D3800D89012361336D89012361336430E122422
:101D4800086E000E1320096E3BEC22F0356E432A14
:101D5800060E4364FDD5800EE7EC21F00F010F0E4F
:101D6800096E1C0E086E36C00AF037C00BF038C07A
:101D78000CF039C00DF0010E0E6E3EEC1AF00D019C
:101D8800D4830F010F0E096E040E086E3AC00AF0D4
:101D98003BC00BF03CC00CF03DC00DF0010E0E6EC8
:101DA8003EEC1AF0000EE7EF21F06FEC22F0096A22
:101DB800430E086E000E0A6A54EC20F06FEC22F015
:101DC800096A440E086E000E0A6A54EC20F06FECA3
:101DD80022F0096A4D0E086E980E0A6E54EC20F037
:101DE8006FEC22F0096A4E0E086E980E0A6E54ECDB
:101DF80020F06FEC22F0096A4F0E086E980E0A6EFA
:101E080054EC20F06FEC22F0096A500E086E980E20
:101E18000A6E54EC20F06FEC22F0096A510E086E3D
:101E2800980E0A6E54EC20F06FEC22F0096A520EFC
:101E3800086E980E0A6E54EC20F06FEC22F0096AD6
:101E4800530E086E980E0A6E54EC20F06FEC22F0D8
:101E5800096A540E086E980E0A6E54EC20F06FEC66
:101E680022F0096A550E086E000E0A6A54EC20F03A
:101E78006FEC22F0096A560E086E000E0A6A54ECDE
:101E880020F06FEC22F0096A570E086E000E0A6AFD
:101E980054EC20F06FEC22F0096A580E086E000E20
:101EA8000A6A54EC20F06FEC22F0096A590E086EA9
:101EB800000E0A6A54EC20F06FEC22F0096A5A0E00
:101EC800086E000E0A6A54EC20F06FEC22F0096AE2
:101ED8005B0E086E000E0A6A54EC20F06FEC22F0DC
:101EE800096A5C0E086E000E0A6A54EC20F06FEC6A
:101EF80022F0096A5D0E086E000E0A6A54EC20F0A2
:101F08006FEC22F0096A5E0E086E000E0A6A54EC45
:101F180020F06FEC22F0096A5F0E086E000E0A6A64
:101F280054EC20F06FEC22F0096A600E086E000E87
:101F38000A6A54EC20F06FEC22F0096A610E086E10
:101F4800000E0A6A54EC20F06FEC22F0096A620E67
:101F5800086E000E0A6A54EC20F06FEC22F0096A51
:101F6800630E086E000E0A6A54EC20F06FEC22F043
:101F7800096A640E086E000E0A6A54EC20F06FECD1
:101F880022F0096A650E086E000E0A6A54EC20F009
:101F98006FEC22F0096A660E086E000E0A6A54ECAD
:101FA80020F06FEC22F0096A670E086E000E0A6ACC
:101FB80054EC20F06FEC22F0096A680E086E000EEF
:101FC8000A6A54EC20F06FEC22F0096A690E086E78
:101FD800000E0A6A54EC20F06FEC22F0096A6A0ECF
:101FE800086E000E0A6A54EC20F06FEC22F0096AC1
:101FF8006B0E086E000E0A6A54EC20F06FEC22F0AB
:10200800096A6C0E086E000E0A6A54EC20F06FEC38
:1020180022F0096A6D0E086E000E0A6A54EC20F070
:102028006FEC22F0096A6E0E086E000E0A6A54EC14
:1020380020F06FEC22F0096A6F0E086E000E0A6A33
:1020480054EC20F06FEC22F0096A700E086E000E56
:102058000A6A54EC20F06FEC22F0096A710E086EDF
:10206800000E0A6A54EC20F06FEC22F0096A720E36
:10207800086E000E0A6A54EC20F06FEC22F0096A30
:10208800730E086E000E0A6A54EC20F06FEC22F012
:10209800096A740E086E000E0A6A54EC20F06FECA0
:1020A80022F0096A750E086E000E0A6A54EC20F0D8
:1020B8006FEC22F0096A760E086E000E0A6A54EC7C
:1020C80020F06FEC22F0096A770E086E000E0A6A9B
:1020D80054EC20F06FEC22F0096A780E086E000EBE
:1020E8000A6A54EC20F06FEC22F0096A790E086E47
:1020F800000E0A6A54EC20F06FEC22F0096A7A0E9E
:10210800086E000E0A6A54EC20F06FEC22F0096A9F
:102118007B0E086E000E0A6A54EC20F06FEC22F079
:10212800096A7C0E086E000E0A6A54EC20F06FEC07
:1021380022F0096A7D0E086E000E0A6A54EC20F03F
:102148006FEC22F0096A7E0E086E000E0A6A54ECE3
:1021580020F06FEC22F0096A7F0E086E000E0A6A02
:1021680054EC20F06FEC22F0096A800E086E000E25
:102178000A6A54EC20F06FEC22F0096A810E086EAE
:10218800000E0A6A54EC20F06FEC22F0096A820E05
:10219800086E000E0A6A54EC20F06FEC22F0096A0F
:1021A800830E086E000E0A6A54EC20F06FEC22F0E1
:1021B800096A840E086E000E0A6A54EC20F0466A1A
:1021C800476A6FEC22F0475046C044F0456AD89001
:1021D80044364536D89044364536D8904436453648
:1021E8004426000E45228B0E4424086E000E45201E
:1021F800096E000E0A6A54EC20F0472A070E47645D
:10220800E0D7462A060E4664DBD7A3EF0CF00001A0
:102218009951981101E179D1DD6BDD51CD6FCE6B0C
:10222800D890CD37CE37D890CD37CE37D890CD3758
:10223800CE378C0ECD25086E000ECE21096E3BECF4
:1022480022F00001DC6FDCAF5BD1DCAD18D0DD51D2
:10225800CD6FCE6BD890CD37CE37D890CD37CE371F
:10226800D890CD37CE378B0ECD25086E000ECE21F7
:10227800096E3BEC22F000019B1901E041D1DD51D0
:10228800080D8E0EF324086E000EF420096E3BEC48
:1022980022F00001CD6FDC51010BCF6FCE6BCD5119
:1022A800CE25D06F000ECF21D16FDD51080D8D0ED8
:1022B800F324086E000EF420096E3BEC22F00001B6
:1022C800CD6FDC51020BCF6FCE6BCD51CE25D26FC7
:1022D800000ECF21D36FDD51CD6FCE6BD890CD37A7
:1022E800CE37D890CD37CE37D890CD37CE37900E61
:1022F800CD25086E000ECE21096E3BEC22F00001C0
:10230800D46FDD51CD6FCE6BD890CD37CE37D89006
:10231800CD37CE37D890CD37CE378F0ECD25086E36
:10232800000ECE21096E3BEC22F00001D56F20EEA5
:1023380098F0DECFCDF0DDCFCEF0D051CD1BD1510E
:10234800CE1BD251CD17D351CE17CE51CD1101E0AE
:10235800D7D09A51D419D51501E1AFD0D1D0000109
:10236800DD51CD6FCE6BD890CD37CE37D890CD37E5
:10237800CE37D890CD37CE37920ECD25086E000EC9
:10238800CE21096E3BEC22F00001D66FD6C051F089
:10239800DC5103EC14F0B4D00001DD51CD6FCE6BED
:1023A800D890CD37CE37D890CD37CE37D890CD37D7
:1023B800CE37920ECD25086E000ECE21096E3BEC6D
:1023C80022F00001D76FD7C051F0DC518EEC1CF021
:1023D80097D00001DD51CD6FCE6BD890CD37CE3779
:1023E800D890CD37CE37D890CD37CE37920ECD2571
:1023F800086E000ECE21096E3BEC22F00001D86F6A
:10240800D8C00AF0DC5157EC16F07AD00001DD5143
:10241800CD6FCE6BD890CD37CE37D890CD37CE375D
:10242800D890CD37CE37920ECD25086E000ECE212E
:10243800096E3BEC22F00001D96FD9C051F0DC5194
:10244800E6EC1AF05DD00001DD51CD6FCE6BD8906F
:10245800CD37CE37D890CD37CE37D890CD37CE3789
:10246800920ECD25086E000ECE21096E3BEC22F0AF
:102478000001DA6FDAC00CF0DC5186EC1EF040D0B7
:102488000001DD51CD6FCE6BD890CD37CE37D890C7
:10249800CD37CE37D890CD37CE37920ECD25086EB2
:1024A800000ECE21096E3BEC22F00001DB6FDBC091
:1024B80051F0DC5195EC19F023D0DD51CD6FCE6B86
:1024C800D890CD37CE37D890CD37CE37D890CD37B6
:1024D800CE37910ECD25086E000ECE21096E3BEC4D
:1024E80022F0010A01E13BD7030A01E155D7010AAD
:1024F80001E16FD7070AC4E00E0A88E01A0AA3E0D0
:102508000001DD2B060EDD6588D61200CF6BD16B7E
:10251800070ED16501D072D14D0ED125086E096A1A
:10252800000E09223BEC22F00001D06FD0AF64D13D
:10253800D151020DF350600FD96EDA6ADE50DD100A
:1025480037E0D151020DF350600FD96EDA6ADE061A
:10255800000EDD5AD151020DF350600FD96EDA6AC0
:10256800DE50DD1046E14D0ED125086E096A000ED9
:1025780009223BEC22F00001CC6FCCA53AD0D1C0A7
:10258800CCF0010ECD6FCC2B02D0D890CD37CC2F0C
:10259800FCD7CD51516E000E8EEC1CF0D0A329D083
:1025A800010EC56F020EC66FD15197EC1FF021D0F6
:1025B800650ED125086E096A000E09223BEC22F04F
:1025C8000001CD6FCC6B660ED125086E096A000E2E
:1025D80009223BEC22F00001CC27000ECD23D1517B
:1025E800020DF350600FD96EDA6ACCC0DEFFCDC0A1
:1025F800DDFFD1C0CCF0010ECD6FCC2B02D0D8902E
:10260800CD37CC2FFCD7CD518A1501E1F5D0D1516A
:10261800020DF350700FD96EDA6ADE50DD1001E159
:10262800CCD0D151020DF350700FD96EDA6ADE06A4
:10263800000EDD5AD151020DF350700FD96EDA6ACF
:10264800DE50DD102EE0D8D08AA802D08A9825D096
:102658008A88010ECF6F33D08AA202D08A921DD009
:102668008A82F7D78AA002D08A9017D08A80F1D7B9
:102678008BAE02D08B9E11D08B8EEBD78BAC02D059
:102688008B9C0BD08B8CE5D78BAA02D08B9A05D06C
:102698008B8ADFD78BA803D08B98CF6B10D08B8811
:1026A800D8D7D151D1E0010AD7E0030ADBE0010A0B
:1026B800DFE0070AE3E0010AE7E0030AEBE0D151B3
:1026C800020D550EF324086E000EF420096E3BEC43
:1026D80022F00001CD6FCC6BD151020D560EF324C0
:1026E800086E000EF420096E3BEC22F00001CC27A6
:1026F800000ECD23D151020DF350700FD96EDA6A56
:10270800CCC0DEFFCDC0DDFFCF5144E04D0ED1255A
:10271800086E096A000E09223BEC22F00001CC6F1A
:10272800CCA525D0D151020D650EF324086E000EFC
:10273800F420096E3BEC22F00001CD6FCC6BD15137
:10274800020D660EF324086E000EF420096E3BECB1
:1027580022F00001CC27000ECD23D151020DF350F9
:10276800600FD96EDA6ACCC0DEFFCDC0DDFFD0A71E
:1027780007D0140EC56F030EC66FD15197EC1FF02A
:10278800D0AB3AD0140EC56F190EC66FD15197EC65
:102798001FF032D0D0A907D0140EC56F040EC66F33
:1027A800D15197EC1FF0D0AD27D0140EC56F180E7D
:1027B800C66FD15197EC1FF01FD0D151020D560EA4
:1027C800F324086E000EF420096E3BEC22F00001A1
:1027D800CC6FD151020D550EF324086E000EF42073
:1027E800096E3BEC22F00001CE6FCD6BCC51CD25AC
:1027F800706F000ECE21716FD12B8AD61200E8CFF0
:10280800CAF0CC6BCCC0C7F0010EC86FC72B02D082
:10281800D890C837C72FFCD7C851511401E137D118
:10282800CAA911D0D890CC35C76FC86BC837750EF8
:10283800C725086E000EC821096E3BEC22F0000186
:102848009D1901E024D1CAA711D0D890CC35C76F03
:10285800C86BC837760EC725086E000EC821096EEA
:102868003BEC22F000019E1901E011D14D0ECC2560
:10287800086E096A000E09223BEC22F00001CB6FBA
:10288800CBAF05D1E0D08A88096A4D0E086E3BECC3
:1028980022F00001C76FC7A5E8D0096A660E086E66
:1028A8003BEC22F00001C76F096A650E086E3BEC2D
:1028B80022F00001C96FC86BC751C825606F000EB0
:1028C800C921616FD2D08A82096A4E0E086E3BEC2C
:1028D80022F00001C76FC7A5C8D0096A680E086E44
:1028E8003BEC22F00001C76F096A670E086E3BECEB
:1028F80022F00001C96FC86BC751C825626F000E6E
:10290800C921636FB2D08A80096A4F0E086E3BEC0A
:1029180022F00001C76FC7A5A8D0096A6A0E086E21
:102928003BEC22F00001C76F096A690E086E3BECA8
:1029380022F00001C96FC86BC751C825646F000E2B
:10294800C921656F92D08B8E096A500E086E3BECD8
:1029580022F00001C76FC7A588D0096A6C0E086EFF
:102968003BEC22F00001C76F096A6B0E086E3BEC66
:1029780022F00001C96FC86BC751C825666F000EE9
:10298800C921676F72D08B8C096A510E086E3BECB7
:1029980022F00001C76FC7A568D0096A6E0E086EDD
:1029A8003BEC22F00001C76F096A6D0E086E3BEC24
:1029B80022F00001C96FC86BC751C825686F000EA7
:1029C800C921696F52D08B8A096A520E086E3BEC96
:1029D80022F00001C76FC7A548D0096A700E086EBB
:1029E8003BEC22F00001C76F096A6F0E086E3BECE2
:1029F80022F00001C96FC86BC751C8256A6F000E65
:102A0800C9216B6F32D08B88096A530E086E3BEC74
:102A180022F00001C76FC7A528D0096A720E086E98
:102A28003BEC22F00001C76F096A710E086E3BEC9F
:102A380022F00001C96FC86BC751C8256C6F000E22
:102A4800C9216D6F12D0CC5101E11DD7010A01E1F6
:102A58003AD7030A01E157D7010A01E174D7070AF7
:102A680092E0010AB0E0030ACEE0CBA707D0140E2B
:102A7800C56F030EC66FCC5197EC1FF0CBAB07D0D8
:102A8800140EC56F190EC66FCC5197EC1FF0CC2BE6
:102A9800070ECC65B7D6070CE8CF14F0546A775008
:102AA800C00B166E166632D060AE12D0A49074AE0B
:102AB80006D01150D96EDA6A000EDB86749E60A0CB
:102AC80002D0548001D054900F0E196E600E1AD0A7
:102AD8000F0150AF19D0A49274AC06D01150D96E22
:102AE800DA6A000EDB86749C5051070B546E020E96
:102AF800546005D01150D96EDA6A000EDB8E0F0EC5
:102B0800196E500E186E65D0000ECCD01650400AC3
:102B180046E160AE04D00F0E196E600E3ED00F0174
:102B280050AF04D00F0E196E500E37D00D01F8B506
:102B380007D00E0120AF04D00E0E196E200E2DD036
:102B48000D01F8B707D00E0130AF04D00E0E196E84
:102B5800300E23D00D01F8B907D00E0140AF04D0D4
:102B68000E0E196E400E19D00D01F8BB05D00E01DE
:102B780050AF02D00E0ED7D70D01F8BD05D00E010B
:102B880060AF02D00E0EC8D70D01F8BFBDD70E0139
:102B980070AFBAD70E0E196E700E186E0AD074AEDA
:102BA800B3D76F50070B5CEC1FF008C018F009C0D2
:102BB80019F018C0D9FF19C0DAFFDF501F0B546E87
:102BC800A49274AC06D01150D96EDA6A000EDB8676
:102BD800749C18C012F019C013F01150D96EDA6A3B
:102BE800DF6A20EE05F01850D9261950DA22DF5096
:102BF800176E1050D96EDA6A17500F0BDF6E17ACCC
:102C080005D01150D96EDA6A000EDB8C20EE02F086
:102C18001850D9261950DA22DF50176E17A608D097
:102C28001150D96EDA6A000EDB8A010E176E01D0D8
:102C3800176A1828086E000E1920096E14C00AF0C9
:102C480017C00BF0E3EC18F0060E1826000E192238
:102C58001050D96EDA6ADF50176E156A0DD018C099
:102C6800D9FF19C0DAFF0F50E16EE26ADFCFE7FF44
:102C7800184A192A0F2A152A1750155CF0E3A4AE32
:102C880006D01150D96EDA6A000EDB88A49E12C0F5
:102C9800D9FF13C0DAFF7F0EDF161650800AD8B4AA
:102CA800749E010E1200E8CF0FF0106A10C00BF0EE
:102CB800010E0C6E0B2A02D0D8900C360B2EFCD7C6
:102CC8000C500A1401E1EAD00FA811D0D8901034A2
:102CD8000B6E0C6A0C36750E0B24086E000E0C2059
:102CE800096E3BEC22F000019D1901E0D7D00FA638
:102CF80011D0D89010340B6E0C6A0C36760E0B245B
:102D0800086E000E0C20096E3BEC22F000019E19A3
:102D180001E0C4D04D0E1024086E096A000E092285
:102D28003BEC22F00E6E0EAEB9D0A8D08A98000106
:102D38008A81096A560E086E3BEC22F00B6E096A0E
:102D4800550E086E3BEC22F00D6E0C6A0B500C24ED
:102D58000001706F000E0D20716FA0D08A920001E3
:102D68008A83096A580E086E3BEC22F00B6E096ADA
:102D7800570E086E3BEC22F00D6E0C6A0B500C24BB
:102D88000001726F000E0D20736F88D08A900001C9
:102D98008A85096A5A0E086E3BEC22F00B6E096AA6
:102DA800590E086E3BEC22F00D6E0C6A0B500C2489
:102DB8000001746F000E0D20756F70D08B9E00019E
:102DC8008A87096A5C0E086E3BEC22F00B6E096A72
:102DD8005B0E086E3BEC22F00D6E0C6A0B500C2457
:102DE8000001766F000E0D20776F58D08B9C000184
:102DF8008A89096A5E0E086E3BEC22F00B6E096A3E
:102E08005D0E086E3BEC22F00D6E0C6A0B500C2424
:102E18000001786F000E0D20796F40D08B9A000169
:102E28008A8B096A600E086E3BEC22F00B6E096A09
:102E38005F0E086E3BEC22F00D6E0C6A0B500C24F2
:102E480000017A6F000E0D207B6F28D08B9800014F
:102E58008A8D096A620E086E3BEC22F00B6E096AD5
:102E6800610E086E3BEC22F00D6E0C6A0B500C24C0
:102E780000017C6F000E0D207D6F10D0105001E115
:102E880055D7010A01E16AD7030A80E0010A96E0F2
:102E9800070AACE0010AC2E0030AD8E0102A070ECC
:102EA800106404D7070CE8CF1CF01B6A1C50800A7A
:102EB80004E155C01BF0556ACBD01C50810A02E1D1
:102EC800010E81D01C50820A02E1050E7CD01C50F4
:102ED800830A02E11B6ABCD01C50940A03E17AEC15
:102EE80022F071D01C50950A03E179EC22F06BD0E6
:102EF8001C50960A03E178EC22F065D0890E1C601C
:102F080005D01C507C0F1EEC22F05DD0880E1C648E
:102F180008D0910E1C6005D01C50770F14EC22F0DD
:102F280052D01C50910A03E191C01BF091D01C5063
:102F3800930A03E152C01BF08BD01C50920A02E1A5
:102F4800535041D01C50970A03E177EC22F03BD054
:102F58001C50980A03E176EC22F035D01C50990AEF
:102F680003E175EC22F02FD0990E1C642ED09E0E32
:102F78001C602BD05CEC22F00BC014F00AC013F0DC
:102F880009C012F008C011F01C50660F196E1950D4
:102F980003080C6ED8900C36D8900C36D8900C36A6
:102FA8000C5011C00DF012C00EF013C00FF014C079
:102FB80010F0E82A05D0D89010320F320E320D32B8
:102FC800E82EF9D730D01B6E43D09D0E1C642DD04F
:102FD800A20E1C602AD057EC22F00BC018F00AC0D1
:102FE80017F009C016F008C015F01C50620F1A6ED1
:102FF8001A5003080C6ED8900C36D8900C36D8901E
:103008000C360C5015C00DF016C00EF017C00FF09E
:1030180018C010F0E82A05D0D89010320F320E32BE
:103028000D32E82EF9D70D50CED7CF0E1C6408D03C
:10303800E00E1C6005D01C50300F28EC22F0C3D7DE
:10304800DF0E1C6405D01C50200FDBEC21F0BBD731
:103058001B5012000F0E1C6E400E1B6E0F0E1E6EC4
:10306800300E1D6E0F0E206E200E1F6E0E0E226E7D
:10307800200E216E0E0E246E300E236E0E0E266E5E
:10308800400E256E0E0E286E500E276E0E0E2A6EFE
:10309800600E296E0E0E2C6E700E2B6E7750C00BC4
:1030A8002D6E2D6602D0020E01D0080E2E6E0D0177
:1030B800D890F831306E346A7DD03450020DF35018
:1030C8001B0FD96EDA6ADECF35F0DDCF36F035C0AA
:1030D80031F036C032F0020E346404D0D890303269
:1030E80030A067D035C0D9FF36C0DAFFDF501A6E7E
:1030F8001AB65FD035C0D9FF36C0DAFFFC0EDF162E
:1031080019C01AF0030E1A1635C0D9FF36C0DAFFF7
:103118001A50DF1219AC04D018504009336E02D08F
:1031280018C033F020EE05F03550D9263650DA2293
:1031380033C0DFFF19AA03D0010E336E01D0336A02
:103148003528086E000E3620096E12C00AF013C02A
:103158000BF014C00CF015C00DF033C00EF03EECAF
:103168001AF0060E3526000E36222F6A0FD016C02A
:10317800D9FF17C0DAFF35C0E1FF36C0E2FFDFCF65
:10318800E7FF164A172A354A362A2F2A18502F5C85
:10319800EEE331C0D9FF32C0DAFFDF501A6E1AB43D
:1031A80006D031C0D9FF32C0DAFF000EDB86010E2F
:1031B80005D0342A2E50345C80E3000E12000AC079
:1031C8000EF00B6646D00E50D96EDA6A08C0E1FFE1
:1031D80009C0E2FFE7500C6ED8900C36D8900C3638
:1031E800D8900C34DF6E0E50D96EDA6AD92ADA6AB2
:1031F80008C0E1FF09C0E2FFE7500C6E050E0D6E36
:10320800D8900C320D2EFCD70C50DF6E084A092AD4
:1032180008C0D9FF09C0DAFFDF500C6E050E0D6E2D
:10322800D8900C320D2EFCD70E50D96EDA6A0C509D
:10323800DF120E50D96EDA6A020ED926DA6ADF6A10
:103248000E50D96EDA6A030ED926DA6A000EDF6EDE
:1032580067D00E50D96EDA6A020ED926DA6A08C02B
:10326800E1FF09C0E2FFE7500C6E050E0D6ED89025
:103278000C360D2EFCD70C50DF6E0E50D96EDA6A64
:10328800030ED926DA6A08C0E1FF09C0E2FFE75059
:103298000C6ED8900C32D8900C32D8900C30DF6E6F
:1032A800084A092A08C0D9FF09C0DAFFDF500C6EA6
:1032B800030E0C160E50D96EDA6A020ED926DA6A97
:1032C8000C50DF1208C0D9FF09C0DAFFDF500C6EBE
:1032D800D8900C32D8900C32D8900C321C0E0C16A8
:1032E8000E50D96EDA6A020ED926DA6A0C50DF124D
:1032F800084A092A08C0D9FF09C0DAFF0E50E16E52
:10330800E26AE12AE26ADFCFE7FF084A092A08C031
:10331800D9FF09C0DAFF0E50E16EE26ADFCFE7FF9E
:103328001200E8CFC9F0CB6BCC6BCCC0C7F0010E54
:10333800C86FC72B02D0D890C837C72FFCD7C85141
:10334800511401E192D0C9A911D0D890CC35C76FDA
:10335800C86BC837750EC725086E000EC821096EE0
:103368003BEC22F000019D1901E07FD0C9A710D0E5
:10337800D890CC35C76FC86BC837760EC725086E8E
:10338800000EC821096E3BEC22F000019E196DE188
:103398004D0ECC25086E096A000E09223BEC22F07E
:1033A8000001CA6F2DD08AA802D08A9825D08A88B1
:1033B800010ECB6F33D08AA202D08A921DD08A82A6
:1033C800F7D78AA002D08A9017D08A80F1D78BAE1F
:1033D80002D08B9E11D08B8EEBD78BAC02D08B9CFE
:1033E8000BD08B8CE5D78BAA02D08B9A05D08B8A11
:1033F800DFD78BA803D08B98CB6B10D08B88D8D70E
:10340800CC51D1E0010AD7E0030ADBE0010ADFE092
:10341800070AE3E0010AE7E0030AEBE0CB5113E017
:10342800CAA707D0140EC56F030EC66FCC5197EC10
:103438001FF0CAAB1AD0140EC56F190EC66FCC5147
:1034480097EC1FF012D0CAA907D0140EC56F040E4E
:10345800C66FCC5197EC1FF0CAAD07D0140EC56FDC
:10346800180EC66FCC5197EC1FF0CC2B070ECC650D
:103478005CD7070C0A0E116E0E6637D01150D96E44
:10348800DA6ADF500F6ED8900F32D8900F32D8908A
:103498000F3008C0D9FF09C0DAFFDF6E1150D96EAE
:1034A800DA6AD92ADA6ADF500F6E050E106ED890E4
:1034B8000F36102EFCD708C0D9FF09C0DAFF0F500D
:1034C800DF12084A092A1150D96EDA6ADF500F6EE6
:1034D800050E106ED8900F36102EFCD70F5008C06E
:1034E800D9FF09C0DAFFDF6E6CD01150D96EDA6AE5
:1034F800020ED926DA6ADF500F6E050E106ED890CC
:103508000F32102EFCD70F5008C0D9FF09C0DAFFC0
:10351800DF6E1150D96EDA6A030ED926DA6ADF50E7
:103528000F6ED8900F36D8900F36D8900F3608C047
:10353800D9FF09C0DAFF0F50DF12084A092A1150D3
:10354800D96EDA6A020ED926DA6ADF500F6ED89081
:103558000F36D8900F36D8900F34E00B08C0D9FF3B
:1035680009C0DAFFDF6E08C0D9FF09C0DAFF000E14
:10357800DB861150D96EDA6A020ED926DA6ADF5074
:103588000F6E030E0F1608C0D9FF09C0DAFF0F50DF
:10359800DF12084A092A1150D96EDA6AD92ADA6A7A
:1035A80008C0E1FF09C0E2FFDFCFE7FF084A092AA8
:1035B8001150D96EDA6A08C0E1FF09C0E2FFDFCF17
:1035C800E7FF1200E8CFC9F0CA6BCC6BCCC0C7F0DC
:1035D800010EC86FC72B02D0D890C837C72FFCD7A9
:1035E800C851511401E187D0C9A910D0D890CC3561
:1035F800C76FC86BC837750EC725086E000EC8217F
:10360800096E3BEC22F000019D1975E1C9A710D0A5
:10361800D890CC35C76FC86BC837760EC725086EEB
:10362800000EC821096E3BEC22F000019E1963E1EF
:103638004D0ECC25086E096A000E09223BEC22F0DB
:103648000001CB6F23D0000E8AB8010ECA6F2CD0B0
:10365800000E8AB2010ECA6F27D0000E8AB0010E82
:10366800CA6F22D0000E8BBE010ECA6F1DD0000E8D
:103678008BBC010ECA6F18D0000E8BBA010ECA6F30
:1036880013D0000E8BB8010ECA6F0ED0CC51DBE000
:10369800010ADEE0030AE1E0010AE4E0070AE7E0E4
:1036A800010AEAE0030AEDE0CA5113E0CBA907D00A
:1036B800140EC56F040EC66FCC5197EC1FF0CBAD3E
:1036C8001AD0140EC56F180EC66FCC5197EC1FF0A8
:1036D80012D0CBA907D0140EC56F040EC66FCC51FB
:1036E80097EC1FF0CBAD07D0140EC56F180EC66F40
:1036F800CC5197EC1FF0CC2B070ECC6567D7070C85
:103708000001806B816B826B836B8B6B896B886B21
:103718008A6B0C6A0C50020DF350700FD96EDA6A7E
:10372800DE6ADD6A0C50020DF350600FD96EDA6A5A
:10373800DE6ADD6A0C2A070E0C64ECD70C6A4D0EA3
:103748000C24086E096A000E09223BEC22F00A6E6E
:103758000AA02DD00CC00AF0010E0B6E0A2A02D066
:10376800D8900B360A2EFCD70B5000018A13550E41
:103778000C24086E096A000E09223BEC22F00B6E3D
:103788000A6A560E0C24086E096A000E09223BECE0
:1037980022F00A26000E0B220C50020DF3500001F5
:1037A800700FD96EDA6A0AC0DEFF0BC0DDFF520E59
:1037B8000C24086E096A000E09223BEC22F00A6EFE
:1037C8000AA420D06F0E0C24086E096A000E092284
:1037D8003BEC22F00B6E0A6A700E0C24086E096A24
:1037E800000E09223BEC22F00A26000E0B220C5098
:1037F800020DF3500001600FD96EDA6A0AC0DEFFCD
:103808000BC0DDFF0C2A060E0C6499D7060CE8CF16
:103818004EF0481C4D6E830E4E640ED0890E4E60DD
:103828000BD048C00CF04E507C0FB2EC21F04E503B
:103838007C0F1EEC22F069D04E50920A0DE14850E0
:103848004A6E496A52504B6E4C6A4910526E4A5041
:103858004C10536E535059D04E50930A0BE1496A9D
:1038680053504A6E48504910526E4A50536E52C0D7
:103878004DF04ED0880E4E6419D0910E4E6016D081
:1038880053C049F049C04AF04B6A4A2802E152281D
:1038980002E0481C3AD048C00CF04E50770F05ECB7
:1038A80021F04E50770F14EC22F02FD0CF0E4E643B
:1038B80017D0E00E4E6014D053C049F049C04AF00A
:1038C8004B6A4A28E6E15228E4E148C00CF04E5021
:1038D800300F18EC21F04E50300F28EC22F015D0A4
:1038E8004E50A20AD6E14850550A04E1846B856B14
:1038F800550E0BD04850AA0A0BE1E80E845D030E62
:10390800855905E26BEC22F0AA0E4D6E01D04D6A86
:103918004D501200E8CFC9F0CB6BCBC0C7F0010EF9
:10392800C86FC72B02D0D890C837C72FFCD7C8514B
:1039380051145FE0C9A910D0D890CB35C76FC86BB8
:10394800C837750EC725086E000EC821096E3BECF6
:1039580022F000019D194DE1C9A710D0D890CB35B0
:10396800C76FC86BC837760EC725086E000EC8210A
:10397800096E3BEC22F000019E193BE14D0ECB2570
:10398800086E096A000E09223BEC22F00001CA6F9A
:10399800CAAF2FD00ED08A981AD08A9218D08A909F
:1039A80016D08B9E14D08B9C12D08B9A10D08B98EB
:1039B8000ED0CB51F0E0010AF0E0030AF0E0010A72
:1039C800F0E0070AF0E0010AF0E0030AF0E0CAA913
:1039D80007D0140EC56F040EC66FCB5197EC1FF0BD
:1039E800CAAD07D0140EC56F180EC66FCB5197EC31
:1039F8001FF0CB2B070ECB6590D7070C35EC20F0CA
:103A080050EC21F0000904E1D9EC0EF084EC1BF035
:103A1800F4EC1FF00400FA0E00018F650ED0920539
:103A28000CE091696FEC22F0096A010E086EFF0E36
:103A38000A6854EC20F0F4EC1FF0966BC9EC20F007
:103A48001CD0912903E1010E926F23D0030E926FCF
:103A580094EC21F01ED073EC1DF01BD096AF19D05A
:103A680099519811D8B484EC09F00BEC11F011D0ED
:103A780072EC22F00ED0926B0CD000019251E1E072
:103A8800010AE9E0030AE4E0010AE8E0070AF0E0D5
:103A9800F2D7E90E0001805D030E8159000E8259AC
:103AA800000E83590BE3806B816B826B836BCDECCB
:103AB8001FF09251030AD8B48AEC12F03B0E8B65C2
:103AC8000BD08B6B892B3B0E896502D0896B882BB9
:103AD800170E886501D0886B74EC22F09BD753D001
:103AE800572810E0810EA46FA56BA66BA76B020E7A
:103AF800A86F57C0A9F02BEC21F0010E936F866BCD
:103B0800876B48D0040E926F810EA46FA969070EC7
:103B1800A56FA66BA76B030EA86F2BEC21F03AD00C
:103B280096AF0FD09951981135E19A51030A32E1B5
:103B3800576603D0020E926FE2D7572A936B946BA5
:103B480029D0E90E865D030E875924E3942B020ED3
:103B5800946517D0576605D0572A936B866B876B89
:103B6800EED757C091F0030E926F936B915109EC09
:103B780022F0400EFEEC21F00001946B94EC21F051
:103B880009D0936B07D000019351AAE0010AC8E05D
:103B9800030AF7E1966B120041C0B1F0B26BB36B48
:103BA800B46BB3C0B4F0B2C0B3F0B1C0B2F0B16B93
:103BB8003F50B56F4050B66FB76BB86BB6C0B8F032
:103BC800B5C0B7F0B66BB56B43C0B9F0BA6BBB6B99
:103BD800BC6B1A0ED890B937BA37BB37BC37E82E4A
:103BE800F9D7B551B911BD6FB651BA11BE6FB751FA
:103BF800BB11BF6FB851BC11C06FB151BD11C16FBE
:103C0800B251BE11C26FB351BF11C36FB451C011CD
:103C1800C46F4250C111476EC251486EC351496EBC
:103C2800C4514A6E47C037F048C038F049C039F02F
:103C38004AC03AF044C03BF045C03CF046C03DF0B5
:103C480086EC20F00009000ED8A4010E1200E8CF7F
:103C58000BF00A6A0B6606D0096A430E086E3BEC45
:103C680022F04DD00B0406E1096A440E086E3BECC5
:103C780022F045D0010E0B6434D00A0E0B6031D00F
:103C88001ED0000E8AB8010E3AD0000E8AB2010E7C
:103C980036D0000E8AB0010E32D0000E8BBE010E57
:103CA8002ED0000E8BBC010E2AD0000E8BBA010E4E
:103CB80026D0000E8BB8010E22D00A6A21D00B50F4
:103CC800020ADFE0010AE1E0070AE3E0010AE5E0B1
:103CD800030AE7E0010AE9E00F0AEBE0010AEDE078
:103CE8000FD0090E0B640CD0800E0B6009D0430E68
:103CF8000B24086E096A000E09223BEC22F00A6EBA
:103D08000A501200E8CF10F0116A11C00DF0010E30
:103D18000E6E0D2A02D0D8900E360D2EFCD70E50FE
:103D28000C143AE010A810D0D89011340D6E0E6A19
:103D38000E36750E0D24086E000E0E20096E3BEC33
:103D480022F000019D1928E110A610D0D890113456
:103D58000D6E0E6A0E36760E0D24086E000E0E20BD
:103D6800096E3BEC22F000019E1916E14D0E11245C
:103D7800086E096A000E09223BEC22F00F6E6FEC08
:103D880022F04D0E1124086E096A000E09220F5008
:103D98007F0B0A6E54EC20F0112A070E1164B5D778
:103DA800070C800EE7EC21F0090E706EFC0E716EA8
:103DB800010E726E200E736E778E779C606A0F010B
:103DC800506B0E01206B306B406B506B606B706BEF
:103DD800E00E0D01F86F0F01006B080E016F026B0A
:103DE800036B046BE80E056F1A0E066F076B030E64
:103DF8000D01D46FD56BE06B110EE16FE26FE36BD1
:103E0800E46BE56BE66BE76B540EF06F050EF16F34
:103E1800F26BF26B0F0E0F01186FE00E196F1A6B31
:103E28001B6B19870F0E1C6FE00E1D6F1E691F6B31
:103E38001D87000EE7EF21F0E8CF27F021C01AF028
:103E480022C01BF0280E9EEC20F0000902E1000EB3
:103E58002ED01F50D96EDA6A28C0DFFF1E50D96EE7
:103E6800DA6A29C0DFFF2A50236E010E2B14246E54
:103E78002750D96EDA6A23C0DEFF24C0DDFF205048
:103E8800D96EDA6A28C023F029C024F02AC025F0A8
:103E98002BC026F01B0E05D0D890263225322432AE
:103EA8002332E82EF9D72350070BDF6E010E1200DC
:103EB800E8CF0BF024D00F0E0D6E600E1ED00F0150
:103EC8000F0E0D6E500E19D00E010E0E0D6E200E37
:103ED80014D00E010E0E0D6E300E0FD00E010E0E08
:103EE8000D6E400E0AD00E010E0EEBD70E010E0E0F
:103EF800E3D70E010E0E0D6E700E0C6E0FD00B5028
:103F0800DAE0010ADCE0030ADFE0010AE2E0070A7E
:103F1800E5E0010AE8E0030AE9E0EBD70CC008F0A5
:103F28000DC009F01200E8CF50F050C04DF0D89005
:103F380050344B6E4C6A4C36750E4B24086E000E8E
:103F48004C20096E3BEC22F04E6ED89050344B6EEC
:103F58004C6A4C36760E4B24086E000E4C20096EC7
:103F68003BEC22F04F6E0001C5C03FF0406AC6C06E
:103F780041F091C042F0030E436E446E4D0E456E03
:103F8800000E466E0F0E466E5F0E4564466AD0EF11
:103F98001DF0952B3B0E95650DD0956B902B92518E
:103FA800030A08E14DEC22F00001C56F52EC22F043
:103FB800F2EC20F03B0E906502D0906B8E2B170E22
:103FC8008E6501D08E6B9251030A09E18D2B8DC04D
:103FD8004DF00F0E4D16020E4D5CD8B08D6B1200D1
:103FE800020E566E61EC22F00001916F916701D0CC
:103FF8009169966B976B986B996B9A6BA46BA56B91
:10400800A66BA76BA86B556A576A926B936B946BF8
:10401800526A536A866B876B846B856B956B906B62
:104028008E6B120066EC22F0000916E10001965131
:104038000F0B050A15E166EC22F000019C1910E04F
:104048009C51FEEC21F000019169FF0E09EC22F071
:10405800010E0001926F04D000019C51FEEC21F08A
:10406800120084EC1BF0926A806A080E936E816AD3
:10407800010E946E826A920EA3EC21F0FB0E096E7B
:104088001D0E086E32EC22F08A988A928A908B9ED6
:104098008B9C8B9A8B98D5EC1EF0F28CF28E1200CA
:1040A80008C0A9FF0AC0A8FFA69EA69CA684000E69
:1040B800F2BE010E0B6EF29E550EA76EAA0EA76EEB
:1040C800A682A6B2FED70BB002D0F29E01D0F28E25
:1040D800A694120096510F0B0D6E0D5012E09151DF
:1040E80020EE9CF0DF620DD00D0405E0010E0D649A
:1040F80008D09D6706D09169FF0E09EC22F0F4EC18
:104108001FF012008C6B37C012F038C013F039C0A2
:1041180014F03AC015F03CC016F03DC017F03BC093
:1041280018F0200E196E2EEC18F00009ECE00001D2
:10413800A46B010CE8CF1CF096AF02D0000E0FD094
:104148001BC00FF01AC010F01D0E116E1C5050EC61
:1041580015F00009F3E01DAC1DAAF0D7010E1200FE
:1041680096C04CF00F0E4C164C040EE1915120EE07
:104178009CF0DF6209D0800EA46FA56BA66BA76BBD
:10418800030EA86F2BEC21F0120096BF12D09A0EE6
:104198001E6E9B0E1F6E970E206E960E216E9C0E45
:1041A800226E980E20EC1FF02C6E2C5002E00001BD
:1041B800968F1200E8CF09F0080E0A6E0B6AD890A5
:1041C80009340B340B6ED890093608500B5C02E3A7
:1041D80008500B5E0A2EF3D70B501200E8CF4CF0B4
:1041E800830E0001A46F070EA56FA76B140EA66FB0
:1041F800090EA86FA96B4CC0AAF0C5C0ABF02BEF95
:1042080021F0E8CF0DF0070E0D6401D00CD06FEC53
:1042180022F00B0E0D24086E096A000E09220CC04C
:104228000AF054EC20F01200E8CF0DF00F0E0D64E8
:1042380001D00CD06FEC22F0130E0D24086E096A21
:10424800000E09220CC00AF054EC20F01200A6C09F
:104258003FF0A7C040F0A8C041F091C042F0A5C00F
:1042680043F0A4510F0B446E000E466EA90E456E26
:10427800D0EF1DF096510F0B020A0DE1915120EE7F
:104288009CF0DF6208D09DC091F0915109EC22F0BA
:10429800400EFEEC21F0120066EC22F0C00B400A42
:1042A80002E1010E0AD0FF0E09EC22F0000EFEEC2E
:1042B80021F0A00EF3EC21F0000E120000EE60F0E9
:1042C800510EEE6AE806FDE100EE52F0070EEE6AC6
:1042D800E806FDE1000EF86E000102EF1DF0E8CFE0
:1042E800D0F07F0ED06506D0CFC048F0D0510BEC8F
:1042F8001CF005D0CFC051F0D0516FEC04F0120083
:10430800070EA96F480EAA6F020E086E0850A90F73
:10431800D96EDA6ADF6A082A070E0864F7D7070C2D
:10432800810E0001A46FA56BA66BA76B020EA86F88
:1043380091C0A9F02BEC21F0010E566E010CE8CFCC
:1043480008F008507F0BD56ED76AD66AF29408AE8B
:1043580002D0F28A01D0F29AD58E1200E8CF0DF081
:104368006FEC22F0060E0D24086E096A000E092271
:104378000CC00AF054EF20F0E8CF0CF00C0409E16F
:104388006FEC22F0096A086AFF0E0A6854EC20F004
:10439800FF001200E8CF1DF07F0E1D6404D01D50F1
:1043A80057EC17F003D01D502BEC1EF01200E8CF8D
:1043B80009F00950BC0F086E08C0F6FF080EF76E2A
:1043C8000800F5501200E8CF08F01F0E6F160850CD
:1043D8006F126F50E00B0818D8B41200FAD7E8CF64
:1043E8000CF06FEC22F0096A030E086E0CC00AF09C
:1043F80054EF20F0E8CF0CF06FEC22F0096A020EBF
:10440800086E0CC00AF054EF20F0E8CF0CF06FEC07
:1044180022F0096A010E086E0CC00AF054EF20F071
:10442800E8CF0AF00B0E0A24086E096A000E09226A
:104438003BEF22F0E8CF0AF0060E0A24086E096A5C
:10444800000E09223BEF22F0E8CF0AF0130E0A24EF
:10445800086E096A000E09223BEF22F008C00AF034
:1044680009C00BF00BC0D7FF0AC0D6FF120008C066
:10447800A9FFA69CA69EA68000F000F0A8501200F6
:1044880001C003F002C004F004C0D7FF03C0D6FF88
:104498001200096A440E086E3BEF22F0096A430EC7
:1044A800086E3BEF22F0086A096A0A6A0B6A120072
:1044B800086A096A0A6A0B6A1200096A010E086E1C
:1044C8003BEF22F0096A020E086E3BEF22F0D9ECAE
:1044D8000EF084EF1BF0A6A21200FDD7566A120058
:0E44E8001200010C080C010C020C010C010C5E
:020000040020DA
:08000000FFFFFFFFFFFFFFFF00
:020000040030CA
:0E000000FF061D0FFF8295FF0F800FE00F40DF
:00000001FF
