:040800005FEF04F0B2
:10081800D8CF05F0E8CF06F0E0CF07F0F2A401D07A
:1008280001D042D0FB0E026E1D0E016E90EC25F039
:10083800544A552A0001864B872B010E8027000E4B
:100848008123000E8223000E8323844B852B82A0F4
:1008580001D001D003D0886B896B02D0884B892BDB
:10086800582A5650020AD8A401D001D00ED0640EDE
:10087800586401D001D009D082A201D001D002D0A1
:10088800829201D08282586A0ED05604D8A401D030
:1008980001D003D08282586A06D0566601D001D0B2
:1008A80002D08292586AF29407C0E0FF06C0E8FFBF
:0A08B80005C0D8FF1000C6EF24F0C1
:100F00007777772E6575726F736F757263652E7361
:100F1000652F70617269735F3031302E786D6C00AF
:100F20000000E8CFD2F0CE6BD16B511CD06FD267EE
:100F300010D0B6EC25F0096A440E086E51C00AF0D4
:100F4000B1EC23F0096A440E086E47EC25F054EF2B
:100F50000CF0D20510E1B6EC25F0096A450E086EDA
:100F600051C00AF0B1EC23F0096A450E086E47EC57
:100F700025F054EF0CF0010ED26585D10A0ED26136
:100F800082D14C0ED225086E096A000E092247EC68
:100F900025F00001CB6FCBBF61D16DEF0CF0010EDE
:100FA000CE6F510428E18A88000E8AB8010ED06FF6
:100FB000010ED16F096A4E0E086E47EC25F0000154
:100FC000CB6FCBA56DEF0CF0096A670E086E47EC8E
:100FD00025F00001CB6F096A660E086E47EC25F01C
:100FE0000001CD6FCC6BCB51CC25606F000ECD21B5
:100FF000616F6DEF0CF051666DEF0CF08A98000E8A
:101000008AB8010ED06FD16B6DEF0CF0010ECE6F70
:1010100051041EE18A82000E8AB2010ED06F010EC9
:10102000D16F096A4F0E086E47EC25F00001CB6FB7
:10103000CBA56DEF0CF0096A690E086E47EC25F040
:101040000001CB6F096A680E086E47EC25F09FD14E
:1010500051666DEF0CF08A92000E8AB2010ED06FCD
:10106000D2D7010ECE6F510428E18A80000E8AB0DB
:10107000010ED06F010ED16F096A500E086E47EC59
:1010800025F00001CB6FCBA56DEF0CF0096A6B0E5C
:10109000086E47EC25F00001CB6F096A6A0E086EF6
:1010A00047EC25F00001CD6FCC6BCB51CC25646FA4
:1010B000000ECD21656F6DEF0CF051666DEF0CF0F9
:1010C0008A90000E8AB0010ED06F9DD7010ECE6FB0
:1010D000510426E18B8E000E8BBE010ED06F010EE7
:1010E000D16F096A510E086E47EC25F00001CB6FF5
:1010F000CBA5F3D3096A6D0E086E47EC25F000010D
:10110000CB6F096A6C0E086E47EC25F00001CD6FBD
:10111000CC6BCB51CC25666F000ECD21676FDDD334
:101120005166DBD38B9E000E8BBE010ED06F6BD74A
:10113000010ECE6F510426E18B8C000E8BBC010E8C
:10114000D06F010ED16F096A520E086E47EC25F080
:101150000001CB6FCBA5C1D3096A6F0E086E47ECB7
:1011600025F00001CB6F096A6E0E086E47EC25F082
:101170000001CD6FCC6BCB51CC25686F000ECD211B
:10118000696FABD35166A9D38B9C000E8BBC010E4B
:10119000D06F39D7010ECE6F510426E18B8A000E35
:1011A0008BBA010ED06F010ED16F096A530E086E13
:1011B00047EC25F00001CB6FCBA58FD3096A710EE8
:1011C000086E47EC25F00001CB6F096A700E086EBF
:1011D00047EC25F00001CD6FCC6BCB51CC256A6F6D
:1011E000000ECD216B6F79D3516677D38B9A000EA9
:1011F0008BBA010ED06F07D7010ECE6F510426E1D6
:101200008B88000E8BB8010ED06F010ED16F096A6A
:10121000540E086E47EC25F00001CB6FCBA55DD3D3
:10122000096A730E086E47EC25F00001CB6F096A5E
:10123000720E086E47EC25F00001CD6FCC6BCB51E0
:10124000CC256C6F000ECD216D6F47D3516645D311
:101250008B98000E8BB8010ED06FD5D6D251020AF2
:1012600001E19DD6010A01E1D1D6070A01E1F9D6D3
:10127000010A01E12BD7030A01E15AD7010A8AE0EA
:101280000F0ABAE02AD3090ED265BED1120ED2617E
:10129000BBD1A4D1B6EC25F0440E0001D225086ED6
:1012A000096A000E092251C00AF0B1EC23F0440E85
:1012B0000001D225086E096A000E092247EC25F0CC
:1012C0000001D06F51A019D08A98D16B8D81096A25
:1012D000570E086E47EC25F00001CB6F096A560ED9
:1012E000086E47EC25F00001CD6FCC6BCB51CC25BF
:1012F000706F000ECD21716F03D08D918A98D16BE4
:1013000051B462D6EAD2B6EC25F0440E0001D225E3
:10131000086E096A000E092251C00AF0B1EC23F0F0
:10132000440E0001D225086E096A000E092247EC1E
:1013300025F00001D06F51A019D08A92D16B8D8316
:10134000096A570E086E47EC25F00001CB6F096A59
:10135000560E086E47EC25F00001CD6FCC6BCB51DB
:10136000CC25726F000ECD21736F03D08D938A92BE
:10137000D16B51A4B2D2096A670E086E47EC25F012
:101380000001CB6F096A660E086E47EC25F000017C
:10139000CD6FCC6BCB51CC25626F000ECD21636F2E
:1013A0009CD2B6EC25F0440E0001D225086E096AE5
:1013B000000E092251C00AF0B1EC23F0440E0001E6
:1013C000D225086E096A000E092247EC25F00001BB
:1013D000D06F51A019D08A90D16B8D85096A5B0EB0
:1013E000086E47EC25F00001CB6F096A5A0E086EB3
:1013F00047EC25F00001CD6FCC6BCB51CC25746F41
:10140000000ECD21756F03D08D958A90D16B51B4AC
:101410003DD663D2B6EC25F0440E0001D225086E0D
:10142000096A000E092251C00AF0B1EC23F0440E03
:101430000001D225086E096A000E092247EC25F04A
:101440000001D06F51A019D08B9ED16B8D87096A96
:101450005D0E086E47EC25F00001CB6F096A5C0E4B
:10146000086E47EC25F00001CD6FCC6BCB51CC253D
:10147000766F000ECD21776F03D08D978B9ED16B49
:1014800051B438D62AD2B6EC25F0440E0001D2254C
:10149000086E096A000E092251C00AF0B1EC23F06F
:1014A000440E0001D225086E096A000E092247EC9D
:1014B00025F00001D06F51A019D08B9CD16B8D8984
:1014C000096A5F0E086E47EC25F00001CB6F096AD0
:1014D0005E0E086E47EC25F00001CD6FCC6BCB5152
:1014E000CC25786F000ECD21796F03D08D998B9C20
:1014F000D16B51B431D6F1D1B6EC25F0440E0001D8
:10150000D225086E096A000E092251C00AF0B1EC1A
:1015100023F0440E0001D225086E096A000E09224C
:1015200047EC25F00001D06F51A019D08B9AD16BF8
:101530008D8B096A610E086E47EC25F00001CB6FB8
:10154000096A600E086E47EC25F00001CD6FCC6B88
:10155000CB51CC257A6F000ECD217B6F03D08D9BB4
:101560008B9AD16B51B42AD6B8D1B6EC25F0440E83
:101570000001D225086E096A000E092251C00AF046
:10158000B1EC23F0440E0001D225086E096A000E6A
:10159000092247EC25F00001D06F51A019D08B989B
:1015A000D16B8D8D096A630E086E47EC25F0000142
:1015B000CB6F096A620E086E47EC25F00001CD6F13
:1015C000CC6BCB51CC257C6F000ECD217D6F03D031
:1015D0008D9D8B9ED16B51B423D67FD1D2510A0AF7
:1015E00001E158D6010A01E18ED6070A01E1D9D6F8
:1015F000010A01E10FD7030A01E145D7010A01E120
:101600007BD71F0AB2E069D1110ED265E1D0220E5C
:10161000D261DED0B6EC25F0440E0001D225086E72
:10162000096A000E092251C00AF0B1EC23F0440E01
:101630000001D225086E096A000E092247EC25F048
:101640000001D06FB0D0096A570E086E47EC25F044
:101650000001CB6F096A560E086E47EC25F00001B9
:10166000CD6FCC6BCB51CC25706F000ECD21716F3F
:1016700034D1096A590E086E47EC25F00001CB6F92
:10168000096A580E086E47EC25F00001CD6FCC6B4F
:10169000CB51CC25726F000ECD21736F1ED1096A1C
:1016A0005B0E086E47EC25F00001CB6F096A5A0EFD
:1016B000086E47EC25F00001CD6FCC6BCB51CC25EB
:1016C000746F000ECD21756F08D1096A5D0E086E2A
:1016D00047EC25F00001CB6F096A5C0E086E47EC01
:1016E00025F00001CD6FCC6BCB51CC25766F000E71
:1016F000CD21776FF2D0096A5F0E086E47EC25F0B6
:101700000001CB6F096A5E0E086E47EC25F0000100
:10171000CD6FCC6BCB51CC25786F000ECD21796F7E
:10172000DCD0096A610E086E47EC25F00001CB6F32
:10173000096A600E086E47EC25F00001CD6FCC6B96
:10174000CB51CC257A6F000ECD217B6FC6D0096AB4
:10175000630E086E47EC25F00001CB6F096A620E3C
:10176000086E47EC25F00001CD6FCC6BCB51CC253A
:101770007C6F000ECD217D6FB0D0096A650E086EBA
:1017800047EC25F00001CB6F096A640E086E47EC48
:1017900025F00001CD6FCC6BCB51CC257E6F000EB8
:1017A000CD217F6F9AD0D251130A01E14CD7060A9E
:1017B00001E15FD7020A01E172D70E0A86E0020A50
:1017C0009AE0060AAEE0020AC2E03E0AD6E085D000
:1017D000210ED2654DD0320ED2614AD0B6EC25F042
:1017E000440E0001D225086E096A000E092251C07C
:1017F0000AF0B1EC23F0440E0001D225086E096A0C
:10180000000E092247EC25F00001D06F16D0096ABE
:10181000750E086E47EC25F00001CB6F096A740E57
:10182000086E47EC25F00001CD6FCC6BCB51CC2579
:101830006E6F000ECD216F6F50D0D251230A02E19E
:10184000E4EF07F0060A02E11BEF08F0020A01E1EB
:101850001DD40E0A01E14ED4020A01E17DD4060A2C
:1018600001E1ACD4020A01E1DBD41E0AD0E035D09C
:10187000310ED2651CD0420ED26119D0B6EC25F0E3
:10188000440E0001D225086E096A000E092251C0DB
:101890000AF0B1EC23F0440E0001D225086E096A6B
:1018A000000E092247EC25F00001D06F16D0470E3C
:1018B000D26513D0800ED26110D0B6EC25F0440E64
:1018C0000001D225086E096A000E092251C00AF0F3
:1018D000B1EC23F0D4EC0FF0DED7CE5135E04C0E56
:1018E000D225086E096A000E092247EC25F0000196
:1018F000CF6FD15115E0CFA708D0140EC96F030EDA
:10190000CA6FD251FE0FC6EC22F0CFAB1DD0140E21
:10191000C96F190ECA6FD251FE0FC6EC22F014D057
:10192000CFA908D0140EC96F040ECA6FD251FE0F92
:10193000C6EC22F0CFAD08D0140EC96F180ECA6FD6
:10194000D251FE0FC6EC22F0D05112009C519B11D7
:10195000D8A41200F7D2120031EF24F0CEEF23F01A
:1019600003EF24F099510F0B020AD8A412009451EE
:1019700020EE9FF0DF621200800EA06111D0A05116
:1019800001EC21F00001AE6FA0C0ADF0030EA86F16
:10199000820EA76FA96BAA6B0A0EAB6FE9EF23F05B
:1019A000A0517FEC1AF0EED799510F0B030AD8A47F
:1019B0001200945120EE9FF0DF621200800EA061B1
:1019C00006D0A1C051F0A05191EC07F0DCD7A1C026
:1019D00048F0A051ACEC1EF0D5D7945120EE9FF00A
:1019E000DF621200000E7DEC25F00001A119D8A4E1
:1019F0001200030E7DEC25F00001A219D8A41200FC
:101A0000050E7DEC25F00001A319D8A41200070EE5
:101A10007DEC25F00001A419D8A412005350A5199B
:101A2000D8A41200525020EEA6F0DF621200A0519E
:101A3000E4EF24F0000E7DEC25F00001A01973E125
:101A4000010E7DEC25F00001A1196DE1020E7DEC87
:101A500025F00001A21967E1030E7DEC25F00001DD
:101A6000A31961E191895FD0040E7DEC25F000019E
:101A7000A01959E1050E7DEC25F00001A11953E1F3
:101A8000060E7DEC25F00001A2194DE1070E7DEC5C
:101A900025F00001A31947E1918B45D0080E7DEC9C
:101AA00025F00001A0193FE1090E7DEC25F00001B1
:101AB000A11939E10A0E7DEC25F00001A21933E1EC
:101AC0000B0E7DEC25F00001A3192DE1918D2BD09B
:101AD0000C0E7DEC25F00001A01925E10D0E7DEC2A
:101AE00025F00001A1191FE10E0E7DEC25F000018B
:101AF000A21919E10F0E7DEC25F00001A31913E1E5
:101B0000918F11D0916B0FD09F390F0BD56FD66B82
:101B1000D651F8E1D5518EE0010AA6E0030ABEE0F5
:101B2000010AD6E0EFD79151F00BF00AD8B4FCECE3
:101B300022F01200945120EE9FF0DF621200E36B5E
:101B4000A0C0E2F0A1C0E5F0F16B48D0070E086E2E
:101B5000F15146EC24F00001D56FD551AE0FD96E8E
:101B6000DA6AE251F12553EC25F0DF6E070E086EBC
:101B70000001F15146EC24F0060A0BE0FF0E0001D3
:101B8000E525D56FD66BFF0ED623F151D519D611A9
:101B900024E1070E086E0001F15146EC24F0060A1C
:101BA00003E1070E000109D0070E086E0001F15194
:101BB00046EC24F00001D56FD529E46FE451810F84
:101BC000A76F070EA86FA96BAA6B1A0EAB6FE3C0C5
:101BD000ADF0E9EC23F00001E32BF12BE551F15DD1
:101BE000D8B01200B3D7945120EE9FF0DF621200FC
:101BF000A0C0E6F09951FE0F070BE76FEC6B16D013
:101C0000EC51A10FD96EDA6ADF50D36FE651EC25A3
:101C1000D5EC24F00001EC51AE0FD96EDA6AE65132
:101C2000EC2553EC25F0DF6E0001EC2BE751EC5D69
:101C3000E7E3070EA86FA96BAA6B1A0EAB6FAD6B2B
:101C4000E751810FA76FE9EF23F0945120EE9FF049
:101C5000DF621200A05101EC21F00001D56FD529FF
:101C6000516EA05191EC07F08ED6945120EE9FF06A
:101C7000DF621200A05101EC21F00001D56FD50503
:101C8000516EA05191EC07F07ED69F51941903E05C
:101C90009F29D8A41200EB6B030EA86F880EA76FC4
:101CA000A96BAA6B200EAB6FF06BF0C0ADF0010E0C
:101CB000F26FF251AD0FD96EDA6AEB510F087DEC7D
:101CC00025F0DF6E0001EB2B100EEB6501D004D088
:101CD000F22B070EF265EDD7100EEB6501D007D0A1
:101CE000E9EC23F00001F02B020EF065DED7F26B79
:101CF000F2511FEC25F0000908E0F251B00FD96E47
:101D0000DA6AF2511FEC25F005D0F251B00FD96E0E
:101D1000DA6A000EDF6EF22B040EF265E9D7E9EC09
:101D200023F0050E0001EB6F030EF06FF0C0ADF075
:101D3000010EF26FF251AD0FD96EDA6AEB511FEC62
:101D400025F0DF6EEB2BF22B070EF265F3D7E9ECF3
:101D500023F00001F02B060EF065E8D7060C945135
:101D600020EE9FF0DF621200030EA86F870EA76FB0
:101D7000A96BAA6B220EAB6FAD0EB6EC24F0E9EFA7
:101D800023F0945120EE9FF0DF621200ED6B99C0BA
:101D9000D5F00F0ED517040ED55D12E3A3C0EEF0FB
:101DA000EF6BEF51EE1103E1010EEF6FEE6B010EE1
:101DB000EE5D010EEF5907E3010EEF6F000E02D04A
:101DC000EF6B010EEE6F52C0DCF053C0DDF0A1519D
:101DD000A0C0D5F0D66BD5C0D6F0D56BD511526E5C
:101DE000D651536E070EA86FA96BAA6B270EAB6F67
:101DF000AD6BA0C0AEF0A1C0AFF0ED51EE5DD56F00
:101E0000000EEF59D66F040ED55D000ED65902E3D1
:101E1000040E02D0ED51EE5DE86FE851840FA76F1C
:101E2000A251ED25B06FE96B0CD0E951B10FD96E1D
:101E3000DA6AA251ED25E92553EC25F0DF6E0001A9
:101E4000E92BE851E95DF1E354C0DEF055C0DFF065
:101E5000E9EC23F0020E0001DE25D56F000EDF2134
:101E6000D66FD551545CD6515558F4E3E851ED275F
:101E7000AD2BED51D56FD66BEE51D55DEF51D659E7
:101E8000BCE3DCC052F0DDC053F01200945120EEF0
:101E90009FF0DF62120052C0E0F053C0E1F0A151A8
:101EA000A0C0D5F0D66BD5C0D6F0D56BD511526E8B
:101EB000D651536EA2C0EAF014D0A251A308EA256D
:101EC000D96EDA6ADF50D36FEA51D5EC24F0000105
:101ED000D56FA251B108EA25D96EDA6AD5C0DFFF05
:101EE000EA2B99510F0BD56FD66BA251D527000E57
:101EF000D623FC0ED525D76FFF0ED621D86FEA5119
:101F0000D96FDA6BDA51800ADB6FD751D95DD851BE
:101F1000800ADB59D2E3E0C052F0E1C053F0070E73
:101F2000A86F99510F0B800FA76FA96BAA6B270E93
:101F3000AB6FAD6BA0C0AEF0A1C0AFF0A2C0B0F06F
:101F4000E9EF23F09D51010A01E105D5030A01E102
:101F500003D5040A01E102D50E0A01E101D5010A07
:101F600001E100D5020A01E11FD5070A01E135D5DB
:101F70001B0A01E1C9D50F0A01E1DCD5010A01E123
:101F800032D6040A01E161D6030A01E16ED6010AE4
:101F900001E17BD63E0A01E1E2D6040A01E1F1D675
:101FA000030AD8A4120072D73668376838683968CF
:101FB0003A6A3B6A3C6A3D6A436A4350126E136A4E
:101FC000D89012361336D89012361336D89012366F
:101FD0001336450E1224086E000E1320096E47ECCE
:101FE00025F0146E14AEE8D14350126E136AD890E7
:101FF00012361336D89012361336D890123613365E
:10200000480E1224086E000E1320096E47EC25F0CE
:10201000146E14C015F0166A176A186A17C018F003
:1020200016C017F015C016F0156A4350196E1A6ADB
:10203000D89019361A36D89019361A36D8901936DB
:102040001A36460E1924086E000E1A20096E47EC47
:1020500025F01B6E1BC01CF01D6A1E6A1F6A1DC086
:102060001FF01CC01EF01D6A1C6A4350206E216ABE
:10207000D89020362136D89020362136D890203678
:102080002136450E2024086E000E2120096E47ECF3
:1020900025F0226E020E221622C023F0246A256A41
:1020A000266A170ED8902336243625362636E82E93
:1020B000F9D71C502310276E1D502410286E1E5077
:1020C0002510296E1F5026102A6E155027102B6ED2
:1020D000165028102C6E175029102D6E18502A10EB
:1020E0002E6EFF0E2B10316E2C50326E2D50336E33
:1020F0002E50346E4350126E136AD8901236133637
:10210000D89012361336D89012361336490E122450
:10211000086E000E1320096E47EC25F0146E14C0F3
:1021200015F0166A176A186A17C018F016C017F06B
:1021300015C016F0156A4350196E1A6AD8901936F0
:102140001A36D89019361A36D89019361A36470EDC
:102150001924086E000E1A20096E47EC25F01B6E3C
:102160001BC01CF01D6A1E6A1F6A1DC01FF01CC028
:102170001EF01D6A1C6A4350206E216AD8902036DA
:102180002136D89020362136D89020362136450E7B
:102190002024086E000E2120096E47EC25F0226EE7
:1021A000010E221622C023F0246A256A266A23C063
:1021B00026F0256A246A236A1C502310276E1D50BE
:1021C0002410286E1E502510296E1F5026102A6ECE
:1021D000155027102B6E165028102C6E17502910F2
:1021E0002D6E18502A102E6E43502F6E306AD890E4
:1021F0002F363036D8902F363036D8902F363036AE
:10220000440E2F24086E000E3020096E47EC25F096
:102210002B103E6E2C503F6E2D50406E2E50416E56
:10222000436608D03EC03AF03FC03BF040C03CF0AF
:1022300041C03DF031503616325037163350381603
:1022400034503916426A42503EC012F03FC013F07B
:1022500040C014F041C015F0E82A05D0D8901532DE
:10226000143213321232E82EF9D7010E12164250F0
:102270003AC016F03BC017F03CC018F03DC019F052
:10228000E82A05D0D8901932183217321632E82EC3
:10229000F9D71650010B12181DE042C012F0010EC2
:1022A000136E146A122A03D0D89013361436122EE5
:1022B000FBD7131C156E141C166E176A16BE170674
:1022C0001750186E15503616165037161750381608
:1022D00018503916422A1F0E4264B5D73E503A169E
:1022E0003F503B1640503C1641503D1643504FE086
:1022F000426A43C012F04350136E146AD8901336EA
:102300001436D89013361436D89013361436440E3B
:102310001324086E000E1420096E47EC25F0156E8C
:10232000122A02D0D8901532122EFCD7010E1516A3
:1023300043C016F035C017F0162A02D0D8901732D5
:10234000162EFCD71750010B15181DE043C012F0D4
:10235000010E136E146A122A03D0D8901336143665
:10236000122EFBD713C015F014C016F0000E16BEC7
:10237000FF0E176E186E155036161650371617507A
:10238000381618503916422A070E4264B2D7435005
:10239000126E136AD89012361336D890123613364E
:1023A000D89012361336440E1224086E000E1320F5
:1023B000096E47EC25F0356E432A060E4364FDD5C1
:1023C000800E3BEC25F00E010E0E096EFC0E086E21
:1023D00036C00AF037C00BF038C00CF039C00DF031
:1023E000010E0E6E64EC1DF00E0146830E0E096E9A
:1023F000E40E086E3AC00AF03BC00BF03CC00CF093
:102400003DC00DF0010E0E6E64EC1DF0000E3BEFB2
:1024100025F0B6EC25F0096A440E086E000E0A6A33
:10242000B1EC23F0B6EC25F0096A450E086E000EFB
:102430000A6AB1EC23F0B6EC25F0096A4E0E086E7C
:10244000980E0A6EB1EC23F0B6EC25F0096A4F0E37
:10245000086E980E0A6EB1EC23F0B6EC25F0096A0E
:10246000500E086E980E0A6EB1EC23F0B6EC25F013
:10247000096A510E086E980E0A6EB1EC23F0B6ECA4
:1024800025F0096A520E086E980E0A6EB1EC23F020
:10249000B6EC25F0096A530E086E980E0A6EB1EC80
:1024A00023F0B6EC25F0096A540E086E980E0A6EF9
:1024B000B1EC23F0B6EC25F0096A550E086E980EC3
:1024C0000A6EB1EC23F0B6EC25F0096A560E086EE0
:1024D000000E0A6AB1EC23F0B6EC25F0096A570E3B
:1024E000086E000E0A6AB1EC23F0B6EC25F0096A1A
:1024F000580E086E000E0A6AB1EC23F0B6EC25F017
:10250000096A590E086E000E0A6AB1EC23F0B6ECA7
:1025100025F0096A5A0E086E000E0A6AB1EC23F023
:10252000B6EC25F0096A5B0E086E000E0A6AB1EC83
:1025300023F0B6EC25F0096A5C0E086E000E0A6AFC
:10254000B1EC23F0B6EC25F0096A5D0E086E000EC2
:102550000A6AB1EC23F0B6EC25F0096A5E0E086E4B
:10256000000E0A6AB1EC23F0B6EC25F0096A5F0EA2
:10257000086E000E0A6AB1EC23F0B6EC25F0096A89
:10258000600E086E000E0A6AB1EC23F0B6EC25F07E
:10259000096A610E086E000E0A6AB1EC23F0B6EC0F
:1025A00025F0096A620E086E000E0A6AB1EC23F08B
:1025B000B6EC25F0096A630E086E000E0A6AB1ECEB
:1025C00023F0B6EC25F0096A640E086E000E0A6A64
:1025D000B1EC23F0B6EC25F0096A650E086E000E2A
:1025E0000A6AB1EC23F0B6EC25F0096A660E086EB3
:1025F000000E0A6AB1EC23F0B6EC25F0096A670E0A
:10260000086E000E0A6AB1EC23F0B6EC25F0096AF8
:10261000680E086E000E0A6AB1EC23F0B6EC25F0E5
:10262000096A690E086E000E0A6AB1EC23F0B6EC76
:1026300025F0096A6A0E086E000E0A6AB1EC23F0F2
:10264000B6EC25F0096A6B0E086E000E0A6AB1EC52
:1026500023F0B6EC25F0096A6C0E086E000E0A6ACB
:10266000B1EC23F0B6EC25F0096A6D0E086E000E91
:102670000A6AB1EC23F0B6EC25F0096A6E0E086E1A
:10268000000E0A6AB1EC23F0B6EC25F0096A6F0E71
:10269000086E000E0A6AB1EC23F0B6EC25F0096A68
:1026A000700E086E000E0A6AB1EC23F0B6EC25F04D
:1026B000096A710E086E000E0A6AB1EC23F0B6ECDE
:1026C00025F0096A720E086E000E0A6AB1EC23F05A
:1026D000B6EC25F0096A730E086E000E0A6AB1ECBA
:1026E00023F0B6EC25F0096A740E086E000E0A6A33
:1026F000B1EC23F0B6EC25F0096A750E086E000EF9
:102700000A6AB1EC23F0B6EC25F0096A760E086E81
:10271000000E0A6AB1EC23F0B6EC25F0096A770ED8
:10272000086E000E0A6AB1EC23F0B6EC25F0096AD7
:10273000780E086E000E0A6AB1EC23F0B6EC25F0B4
:10274000096A790E086E000E0A6AB1EC23F0B6EC45
:1027500025F0096A7A0E086E000E0A6AB1EC23F0C1
:10276000B6EC25F0096A7B0E086E000E0A6AB1EC21
:1027700023F0B6EC25F0096A7C0E086E000E0A6A9A
:10278000B1EC23F0B6EC25F0096A7D0E086E000E60
:102790000A6AB1EC23F0B6EC25F0096A7E0E086EE9
:1027A000000E0A6AB1EC23F0B6EC25F0096A7F0E40
:1027B000086E000E0A6AB1EC23F0B6EC25F0096A47
:1027C000800E086E000E0A6AB1EC23F0B6EC25F01C
:1027D000096A810E086E000E0A6AB1EC23F0B6ECAD
:1027E00025F0096A820E086E000E0A6AB1EC23F029
:1027F000B6EC25F0096A830E086E000E0A6AB1EC89
:1028000023F0B6EC25F0096A840E086E000E0A6A01
:10281000B1EC23F0B6EC25F0096A850E086E000EC7
:102820000A6AB1EC23F0466A476AB6EC25F04750D5
:1028300046C044F0456AD89044364536D890443670
:102840004536D890443645364426000E45228C0E37
:102850004424086E000E4520096E000E0A6AB1EC91
:1028600023F0472A070E4764E0D7462A060E46643F
:10287000DBD7D4EF0FF000019C519B11D8B41200AC
:10288000E16BE151D16FD26BD890D137D237D8906C
:10289000D137D237D890D137D2378D0ED125086EA7
:1028A000000ED221096E47EC25F00001E06FE0AF89
:1028B0005BD1E0AD18D0E151D16FD26BD890D13758
:1028C000D237D890D137D237D890D137D2378C0E73
:1028D000D125086E000ED221096E47EC25F00001CB
:1028E0009E1901E041D1E151080D8F0EF324086ECD
:1028F000000EF420096E47EC25F00001D16FE05185
:10290000010BD36FD26BD151D225D46F000ED321DE
:10291000D56FE151080D8E0EF324086E000EF420E1
:10292000096E47EC25F00001D16FE051020BD36F27
:10293000D26BD151D225D66F000ED321D76FE15182
:10294000D16FD26BD890D137D237D890D137D23718
:10295000D890D137D237910ED125086E000ED221F2
:10296000096E47EC25F00001D86FE151D16FD26BB1
:10297000D890D137D237D890D137D237D890D137F5
:10298000D237900ED125086E000ED221096E47EC89
:1029900025F00001D96F20EE9BF0DECFD1F0DDCF26
:1029A000D2F0D451D11BD551D21BD651D117D7510A
:1029B000D217D251D11101E0D7D09D51D819D915D4
:1029C00001E1AFD0D1D00001E151D16FD26BD890ED
:1029D000D137D237D890D137D237D890D137D237F4
:1029E000930ED125086E000ED221096E47EC25F01A
:1029F0000001DA6FDAC051F0E05132EC17F0B4D0D8
:102A00000001E151D16FD26BD890D137D237D89035
:102A1000D137D237D890D137D237930ED125086E1F
:102A2000000ED221096E47EC25F00001DB6FDBC000
:102A300051F0E05131EC20F097D00001E151D16F1D
:102A4000D26BD890D137D237D890D137D237D890EF
:102A5000D137D237930ED125086E000ED221096EE0
:102A600047EC25F00001DC6FDCC00AF0E0517FECA0
:102A700018F07AD00001E151D16FD26BD890D137E4
:102A8000D237D890D137D237D890D137D237930EAA
:102A9000D125086E000ED221096E47EC25F0000109
:102AA000DD6FDDC051F0E0510CEC1EF05DD0000197
:102AB000E151D16FD26BD890D137D237D890D1377E
:102AC000D237D890D137D237930ED125086E000E69
:102AD000D221096E47EC25F00001DE6FDEC00CF05C
:102AE000E051B6EC21F040D00001E151D16FD26B42
:102AF000D890D137D237D890D137D237D890D13774
:102B0000D237930ED125086E000ED221096E47EC04
:102B100025F00001DF6FDFC051F0E051BBEC1CF08D
:102B200023D0E151D16FD26BD890D137D237D89022
:102B3000D137D237D890D137D237920ED125086EFF
:102B4000000ED221096E47EC25F0010A01E13BD7C6
:102B5000030A01E155D7010A01E16FD7070AC4E072
:102B60000E0A88E01A0AA3E00001E12B060EE165D7
:102B700088D6060CD36BD56B070ED56501D0070C34
:102B80004E0ED525086E096A000E092247EC25F085
:102B90000001D46FD4AF64D1D551020DF350600F52
:102BA000D96EDA6ADE50DD1037E0D551020DF350F0
:102BB000600FD96EDA6ADE06000EDD5AD551020DBD
:102BC000F350600FD96EDA6ADE50DD1046E14E0E2A
:102BD000D525086E096A000E092247EC25F0000190
:102BE000D06FD0A53AD0D5C0D0F0010ED16FD02B88
:102BF00002D0D890D137D02FFCD7D151516E000ED2
:102C000031EC20F0D4A329D0010EC96F020ECA6F97
:102C1000D551C6EC22F021D0660ED525086E096A82
:102C2000000E092247EC25F00001D16FD06B670E32
:102C3000D525086E096A000E092247EC25F000012F
:102C4000D027000ED123D551020DF350600FD96E5D
:102C5000DA6AD0C0DEFFD1C0DDFFD5C0D0F0010EF2
:102C6000D16FD02B02D0D890D137D02FFCD7D151F3
:102C70008D1501E1F5D0D551020DF350700FD96ECD
:102C8000DA6ADE50DD1001E1CCD0D551020DF350EF
:102C9000700FD96EDA6ADE06000EDD5AD551020DCC
:102CA000F350700FD96EDA6ADE50DD102EE0D8D006
:102CB0008AA802D08A9825D08A88010ED36F33D093
:102CC0008AA202D08A921DD08A82F7D78AA002D027
:102CD0008A9017D08A80F1D78BAE02D08B9E11D00C
:102CE0008B8EEBD78BAC02D08B9C0BD08B8CE5D72B
:102CF0008BAA02D08B9A05D08B8ADFD78BA803D002
:102D00008B98D36B10D08B88D8D7D551D1E0010ADE
:102D1000D7E0030ADBE0010ADFE0070AE3E0010A8B
:102D2000E7E0030AEBE0D551020D560EF324086EDE
:102D3000000EF420096E47EC25F00001D16FD06B36
:102D4000D551020D570EF324086E000EF420096EC3
:102D500047EC25F00001D027000ED123D551020DFC
:102D6000F350700FD96EDA6AD0C0DEFFD1C0DDFF3C
:102D7000D35144E04E0ED525086E096A000E092293
:102D800047EC25F00001D06FD0A525D0D551020D1C
:102D9000660EF324086E000EF420096E47EC25F051
:102DA0000001D16FD06BD551020D670EF324086E70
:102DB000000EF420096E47EC25F00001D027000E2C
:102DC000D123D551020DF350600FD96EDA6AD0C00D
:102DD000DEFFD1C0DDFFD4A707D0140EC96F030EEC
:102DE000CA6FD551C6EC22F0D4AB3AD0140EC96FDD
:102DF000190ECA6FD551C6EC22F032D0D4A907D033
:102E0000140EC96F040ECA6FD551C6EC22F0D4ADB2
:102E100027D0140EC96F180ECA6FD551C6EC22F018
:102E20001FD0D551020D570EF324086E000EF4206A
:102E3000096E47EC25F00001D06FD551020D560EFA
:102E4000F324086E000EF420096E47EC25F0000113
:102E5000D26FD16BD051D125706F000ED221716F1E
:102E6000D52B8AD6E8CFCEF0D06BD0C0CBF0010EF8
:102E7000CC6FCB2B02D0D890CC37CB2FFCD7CC51FA
:102E8000511401E137D14E0ED025086E096A000EAB
:102E9000092247EC25F00001CF6FCFAF2BD1CEA98F
:102EA00011D0D890D035CB6FCC6BCC37760ECB25EC
:102EB000086E000ECC21096E47EC25F00001A01928
:102EC00001E018D1CEA7F2D0D890D035CB6FCC6B23
:102ED000CC37770ECB25086E000ECC21096E47EC5F
:102EE00025F00001A11901E005D1E0D08A88096A26
:102EF0004E0E086E47EC25F00001CB6FCBA5E8D055
:102F0000096A670E086E47EC25F00001CB6F096A6D
:102F1000660E086E47EC25F00001CD6FCC6BCB51EF
:102F2000CC25606F000ECD21616FD2D08A82096AF4
:102F30004F0E086E47EC25F00001CB6FCBA5C8D033
:102F4000096A690E086E47EC25F00001CB6F096A2B
:102F5000680E086E47EC25F00001CD6FCC6BCB51AD
:102F6000CC25626F000ECD21636FB2D08A80096AD2
:102F7000500E086E47EC25F00001CB6FCBA5A8D012
:102F8000096A6B0E086E47EC25F00001CB6F096AE9
:102F90006A0E086E47EC25F00001CD6FCC6BCB516B
:102FA000CC25646F000ECD21656F92D08B8E096A9F
:102FB000510E086E47EC25F00001CB6FCBA588D0F1
:102FC000096A6D0E086E47EC25F00001CB6F096AA7
:102FD0006C0E086E47EC25F00001CD6FCC6BCB5129
:102FE000CC25666F000ECD21676F72D08B8C096A7D
:102FF000520E086E47EC25F00001CB6FCBA568D0D0
:10300000096A6F0E086E47EC25F00001CB6F096A64
:103010006E0E086E47EC25F00001CD6FCC6BCB51E6
:10302000CC25686F000ECD21696F52D08B8A096A5A
:10303000530E086E47EC25F00001CB6FCBA548D0AE
:10304000096A710E086E47EC25F00001CB6F096A22
:10305000700E086E47EC25F00001CD6FCC6BCB51A4
:10306000CC256A6F000ECD216B6F32D08B88096A38
:10307000540E086E47EC25F00001CB6FCBA528D08D
:10308000096A730E086E47EC25F00001CB6F096AE0
:10309000720E086E47EC25F00001CD6FCC6BCB5162
:1030A000CC256C6F000ECD216D6F12D0D05101E197
:1030B0001DD7010A01E13AD7030A01E157D7010AF6
:1030C00001E174D7070A92E0010AB0E0030ACEE0FA
:1030D000CFA707D0140EC96F030ECA6FD051C6EC2C
:1030E00022F0CFAB07D0140EC96F190ECA6FD051A2
:1030F000C6EC22F0D02B070ED065B7D6070CE8CF70
:103100000FF0106A10C00BF0010E0C6E0B2A02D0EB
:10311000D8900C360B2EFCD70C500A1401E1EAD0E3
:103120004E0E1024086E096A000E092247EC25F0A5
:103130000E6E0EAEDFD00FA811D0D89010340B6EEB
:103140000C6A0C36760E0B24086E000E0C20096EED
:1031500047EC25F00001A01901E0CCD00FA6BAD0B1
:10316000D89010340B6E0C6A0C36770E0B24086E58
:10317000000E0C20096E47EC25F00001A11901E0BA
:10318000B9D0A8D08A9800018D81096A570E086EBF
:1031900047EC25F00B6E096A560E086E47EC25F0D9
:1031A0000D6E0C6A0B500C240001706F000E0D2088
:1031B000716FA0D08A9200018D83096A590E086E42
:1031C00047EC25F00B6E096A580E086E47EC25F0A7
:1031D0000D6E0C6A0B500C240001726F000E0D2056
:1031E000736F88D08A9000018D85096A5B0E086E26
:1031F00047EC25F00B6E096A5A0E086E47EC25F075
:103200000D6E0C6A0B500C240001746F000E0D2023
:10321000756F70D08B9E00018D87096A5D0E086EF8
:1032200047EC25F00B6E096A5C0E086E47EC25F042
:103230000D6E0C6A0B500C240001766F000E0D20F1
:10324000776F58D08B9C00018D89096A5F0E086EDC
:1032500047EC25F00B6E096A5E0E086E47EC25F010
:103260000D6E0C6A0B500C240001786F000E0D20BF
:10327000796F40D08B9A00018D8B096A610E086EC0
:1032800047EC25F00B6E096A600E086E47EC25F0DE
:103290000D6E0C6A0B500C2400017A6F000E0D208D
:1032A0007B6F28D08B9800018D8D096A630E086EA4
:1032B00047EC25F00B6E096A620E086E47EC25F0AC
:1032C0000D6E0C6A0B500C2400017C6F000E0D205B
:1032D0007D6F10D0105001E155D7010A01E16AD786
:1032E000030A80E0010A96E0070AACE0010AC2E0A6
:1032F000030AD8E0102A070E106404D7070CE8CFA1
:1033000014F08A6B7250C00B166E166633D060AE26
:1033100013D0779071AE06D01150D96EDA6A000ED4
:10332000DB86719E60A002D08A8102D000018A9162
:103330000F0E196E600E1CD00F0130AF000C77928B
:1033400071AC06D01150D96EDA6A000EDB86719C22
:103350003051070B00018A6F020E8A6105D01150AF
:10336000D96EDA6A000EDB8E0F010F0E196E300E69
:10337000186E5CD01650400A3EE160AE04D00F0ECD
:10338000196E600E36D00F0130AF04D00F0E196EDB
:10339000300E2FD00E017DA580AF04D00E0E196E19
:1033A000800E27D00E017DA790AF04D00E0E196EAF
:1033B000900E1FD00E017DA9A0AF04D00E0E196E85
:1033C000A00E17D00E017DABB0AF04D00E0E196E5B
:1033D000B00E0FD00E017DADC0AF04D00E0E196E31
:1033E000C00E07D00E017DAFD0AF000C0E0E196ECF
:1033F000D00E186E0AD071AE000C6F50070B4DEC5A
:1034000022F008C018F009C019F018C0D9FF19C07F
:10341000DAFFDF501F0B00018A6F779271AC06D084
:103420001150D96EDA6A000EDB86719C18C012F05A
:1034300019C013F01150D96EDA6ADF6A20EE05F078
:103440001850D9261950DA22DF50176E1050D96E55
:10345000DA6A17500F0BDF6E17AC05D01150D96E1A
:10346000DA6A000EDB8C20EE02F01850D9261950D3
:10347000DA22DF50176E17A608D01150D96EDA6A1B
:10348000000EDB8A010E176E01D0176A1828086E2D
:10349000000E1920096E14C00AF017C00BF009ECD9
:1034A0001CF0060E1826000E19221050D96EDA6A8A
:1034B000DF50176E156A0DD018C0D9FF19C0DAFF9A
:1034C0000F50E16EE26ADFCFE7FF184A192A0F2A90
:1034D000152A1750155CF0E377AE06D01150D96E5F
:1034E000DA6A000EDB88779E12C0D9FF13C0DAFFBC
:1034F0007F0EDF161650800AD8B4719E010CE8CFFB
:103500001CF01B6A1C50800A04E18FC01BF08F6BFB
:10351000CCD01C50810A02E1010E82D01C50820ADC
:1035200002E1060E7DD01C50830A03E190C01BF01F
:10353000BCD01C50940A03E1C3EC25F071D01C50A0
:10354000950A03E1C2EC25F06BD01C50960A03E10A
:10355000C1EC25F065D0890E1C6005D01C507C0F95
:1035600073EC25F05DD0880E1C6408D0910E1C60B1
:1035700005D01C50770F69EC25F052D01C50910AF1
:1035800003E194C01BF091D01C50930A03E152C098
:103590001BF08BD01C50920A02E1535041D01C50BA
:1035A000970A03E1C0EC25F03BD01C50980A03E1D8
:1035B000BFEC25F035D01C50990A03E1BEEC25F094
:1035C0002FD0990E1C642ED09E0E1C602BD0A8EC20
:1035D00025F00BC014F00AC013F009C012F008C0A7
:1035E00011F01C50660F196E195003080C6ED8901C
:1035F0000C36D8900C36D8900C360C5011C00DF00B
:1036000012C00EF013C00FF014C010F0E82A05D05D
:10361000D89010320F320E320D32E82EF9D730D05A
:103620001B6E43D09D0E1C642DD0A20E1C602AD0B0
:10363000A3EC25F00BC018F00AC017F009C016F073
:1036400008C015F01C50620F1A6E1A5003080C6E59
:10365000D8900C36D8900C36D8900C360C5015C03B
:103660000DF016C00EF017C00FF018C010F0E82AC9
:1036700005D0D89010320F320E320D32E82EF9D725
:103680000D50CED7CF0E1C6408D0E00E1C6005D0C4
:103690001C50300F7DEC25F0C3D7DF0E1C6405D025
:1036A0001C50200F1FEC25F0BBD71B5012000F0E33
:1036B0001C6E200E1B6E0F0E1E6E100E1D6E0F0E5A
:1036C000206E1F6A0E010E0E226E800E216E0E0EEF
:1036D000246E900E236E0E0E266EA00E256E0E0E1C
:1036E000286EB00E276E0E0E2A6EC00E296E0E0EBC
:1036F0002C6ED00E2B6E7250C00B2D6E2D6602D02C
:10370000020E01D0080E2E6ED8907D31306E346AD4
:103710007CD03450020DF3501B0FD96EDA6ADECF25
:1037200035F0DDCF36F035C031F036C032F0020E64
:10373000346404D0D890303230A066D035C0D9FF80
:1037400036C0DAFFDF501A6E1AB65ED035C0D9FF28
:1037500036C0DAFFFC0EDF1619C01AF0030E1A1677
:1037600035C0D9FF36C0DAFF1A50DF1219AC04D0C9
:1037700018504009336E02D018C033F020EE05F027
:103780003550D9263650DA2233C0DFFF19AA03D0CC
:10379000010E336E01D0336A3528086E000E3620D4
:1037A000096E12C00AF013C00BF014C00CF015C063
:1037B0000DF033C00EF064EC1DF0060E3526000E41
:1037C00036222F6A0FD016C0D9FF17C0DAFF35C0D6
:1037D000E1FF36C0E2FFDFCFE7FF164A172A354A7E
:1037E000362A2F2A18502F5CEEE331C0D9FF32C0A1
:1037F000DAFFDF501A6E1AB4010C31C0D9FF32C0A3
:10380000DAFF000EDB86010C342A2E50345C81E393
:10381000000C0AC00EF00B6646D00E50D96EDA6A64
:1038200008C0E1FF09C0E2FFE7500C6ED8900C36EB
:10383000D8900C36D8900C34DF6E0E50D96EDA6A00
:10384000D92ADA6A08C0E1FF09C0E2FFE7500C6E2E
:10385000050E0D6ED8900C320D2EFCD70C50DF6E7D
:10386000084A092A08C0D9FF09C0DAFFDF500C6EE8
:10387000050E0D6ED8900C320D2EFCD70E50D96E61
:10388000DA6A0C50DF120E50D96EDA6A020ED926AF
:10389000DA6ADF6A0E50D96EDA6A030ED926DA6A5E
:1038A000000EDF6E000C0E50D96EDA6A020ED926B9
:1038B000DA6A08C0E1FF09C0E2FFE7500C6E050EAE
:1038C0000D6ED8900C360D2EFCD70C50DF6E0E50BE
:1038D000D96EDA6A030ED926DA6A08C0E1FF09C098
:1038E000E2FFE7500C6ED8900C32D8900C32D89092
:1038F0000C30DF6E084A092A08C0D9FF09C0DAFF78
:10390000DF500C6E030E0C160E50D96EDA6A020EE2
:10391000D926DA6A0C50DF1208C0D9FF09C0DAFFD5
:10392000DF500C6ED8900C32D8900C32D8900C32FC
:103930001C0E0C160E50D96EDA6A020ED926DA6AFF
:103940000C50DF12084A092A08C0D9FF09C0DAFF63
:103950000E50E16EE26AE12AE26ADFCFE7FF084A31
:10396000092A08C0D9FF09C0DAFF0E50E16EE26AE9
:10397000DFCFE7FF1200E8CFCDF0CF6BD06BD0C028
:10398000CBF0010ECC6FCB2B02D0D890CC37CB2F05
:10399000FCD7CC51511401E192D0CDA911D0D890CF
:1039A000D035CB6FCC6BCC37760ECB25086E000EA6
:1039B000CC21096E47EC25F00001A01901E07FD071
:1039C000CDA710D0D890D035CB6FCC6BCC37770E3D
:1039D000CB25086E000ECC21096E47EC25F00001C6
:1039E000A1196DE14E0ED025086E096A000E09225C
:1039F00047EC25F00001CE6F2DD08AA802D08A981E
:103A000025D08A88010ECF6F33D08AA202D08A9245
:103A10001DD08A82F7D78AA002D08A9017D08A80D8
:103A2000F1D78BAE02D08B9E11D08B8EEBD78BACA7
:103A300002D08B9C0BD08B8CE5D78BAA02D08B9AB3
:103A400005D08B8ADFD78BA803D08B98CF6B10D093
:103A50008B88D8D7D051D1E0010AD7E0030ADBE048
:103A6000010ADFE0070AE3E0010AE7E0030AEBE00E
:103A7000CF5113E0CEA707D0140EC96F030ECA6F43
:103A8000D051C6EC22F0CEAB1AD0140EC96F190E6D
:103A9000CA6FD051C6EC22F012D0CEA907D0140EB6
:103AA000C96F040ECA6FD051C6EC22F0CEAD07D05C
:103AB000140EC96F180ECA6FD051C6EC22F0D02B6D
:103AC000070ED0655CD7070C0A0E116E0E6637D054
:103AD0001150D96EDA6ADF500F6ED8900F32D8903D
:103AE0000F32D8900F3008C0D9FF09C0DAFFDF6E5F
:103AF0001150D96EDA6AD92ADA6ADF500F6E050ED4
:103B0000106ED8900F36102EFCD708C0D9FF09C010
:103B1000DAFF0F50DF12084A092A1150D96EDA6A0B
:103B2000DF500F6E050E106ED8900F36102EFCD79A
:103B30000F5008C0D9FF09C0DAFFDF6E1200115024
:103B4000D96EDA6A020ED926DA6ADF500F6E050ED8
:103B5000106ED8900F32102EFCD70F5008C0D9FF2E
:103B600009C0DAFFDF6E1150D96EDA6A030ED9266A
:103B7000DA6ADF500F6ED8900F36D8900F36D89093
:103B80000F3608C0D9FF09C0DAFF0F50DF12084A0C
:103B9000092A1150D96EDA6A020ED926DA6ADF5084
:103BA0000F6ED8900F36D8900F36D8900F34E00BA8
:103BB00008C0D9FF09C0DAFFDF6E08C0D9FF09C00D
:103BC000DAFF000EDB861150D96EDA6A020ED926B2
:103BD000DA6ADF500F6E030E0F1608C0D9FF09C056
:103BE000DAFF0F50DF12084A092A1150D96EDA6A3B
:103BF000D92ADA6A08C0E1FF09C0E2FFDFCFE7FF98
:103C0000084A092A1150D96EDA6A08C0E1FF09C0D2
:103C1000E2FFDFCFE7FF1200E8CFCDF0CE6BD06B35
:103C2000D0C0CBF0010ECC6FCB2B02D0D890CC37CC
:103C3000CB2FFCD7CC51511401E189D04E0ED025A9
:103C4000086E096A000E092247EC25F00001CF6FCB
:103C5000CFAF7DD0CDA910D0D890D035CB6FCC6B65
:103C6000CC37760ECB25086E000ECC21096E47ECC2
:103C700025F00001A0196BE1CDA734D0D890D03544
:103C8000CB6FCC6BCC37770ECB25086E000ECC21DA
:103C9000096E47EC25F00001A11959E123D0000E6F
:103CA0008AB8010ECE6F2CD0000E8AB2010ECE6FF4
:103CB00027D0000E8AB0010ECE6F22D0000E8BBE30
:103CC000010ECE6F1DD0000E8BBC010ECE6F18D032
:103CD000000E8BBA010ECE6F13D0000E8BB8010E02
:103CE000CE6F0ED0D051DBE0010ADEE0030AE1E046
:103CF000010AE4E0070AE7E0010AEAE0030AEDE06E
:103D0000CE5113E0CFA907D0140EC96F040ECA6FAD
:103D1000D051C6EC22F0CFAD1AD0140EC96F180ED8
:103D2000CA6FD051C6EC22F012D0CFA907D0140E22
:103D3000C96F040ECA6FD051C6EC22F0CFAD07D0C8
:103D4000140EC96F180ECA6FD051C6EC22F0D02BDA
:103D5000070ED06565D7070CE8CF4EF0481C4D6EB6
:103D60004E50830A02E1906B7CD0830E4E640ED0DD
:103D7000890E4E600BD048C00CF04E507C0F11ECF9
:103D800025F04E507C0F73EC25F069D04E50920A0E
:103D90000DE148504A6E496A52504B6E4C6A4910C8
:103DA000526E4A504C10536E535059D04E50930A95
:103DB0000BE1496A53504A6E48504910526E4A50BE
:103DC000536E52C04DF04ED0880E4E6419D0910EF5
:103DD0004E6016D053C049F049C04AF04B6A4A2899
:103DE00002E1522802E0481C3AD048C00CF04E5084
:103DF000770F80EC24F04E50770F69EC25F02FD030
:103E0000CF0E4E6417D0E00E4E6014D053C049F070
:103E100049C04AF04B6A4A28E6E15228E4E148C02A
:103E20000CF04E50300F92EC24F04E50300F7DECE1
:103E300025F015D04E50A20AD6E14850550A04E1AB
:103E4000866B876B550E0BD04850AA0A0BE1E80E23
:103E5000865D030E875905E2B2EC25F0AA0E4D6E81
:103E600001D04D6A4D5012000001806B816B826B56
:103E7000836B8E6B8C6B8B6B8D6B0C6A0C50020D95
:103E8000F350700FD96EDA6ADE6ADD6A0C50020DEB
:103E9000F350600FD96EDA6ADE6ADD6A0C2A070E0B
:103EA0000C64ECD70C6A4E0E0C24086E096A000EE6
:103EB000092247EC25F00A6E0AA02DD00CC00AF0AA
:103EC000010E0B6E0A2A02D0D8900B360A2EFCD7B0
:103ED0000B5000018D13560E0C24086E096A000E5B
:103EE000092247EC25F00B6E0A6A570E0C24086E67
:103EF000096A000E092247EC25F00A26000E0B2263
:103F00000C50020DF3500001700FD96EDA6A0AC02E
:103F1000DEFF0BC0DDFF530E0C24086E096A000E95
:103F2000092247EC25F00A6E0AA420D0700E0C245A
:103F3000086E096A000E092247EC25F00B6E0A6A2A
:103F4000710E0C24086E096A000E092247EC25F058
:103F50000A26000E0B220C50020DF3500001600FD8
:103F6000D96EDA6A0AC0DEFF0BC0DDFF0C2A060E2E
:103F70000C6499D7060C74EC23F094EC23F0000940
:103F800004E109EC12F034EC1FF0D4EC0FF0FCEC7F
:103F900022F00400C50E0001885D090E89590EE368
:103FA00095050CE09469B6EC25F0096A010E086EDF
:103FB000FF0E0A68B1EC23F0FCEC22F0996B1BECCD
:103FC00024F01CD0942903E1010E956F23D0030E39
:103FD000956FF3EC24F01ED0A5EC20F01BD099AF28
:103FE00019D09C519B11D8B4A6EC0CF03BEC14F00A
:103FF00011D0B9EC25F00ED0956B0CD00001955185
:10400000E1E0010AE9E0030AE4E0010AE8E0070A66
:10401000F0E0F2D7E90E0001805D030E8159000E39
:104020008259000E83590CE3806B816B826B836B2A
:104030008E2B26EC23F09551030AD8B4BAEC15F078
:104040003B0E8E650BD08E6B8C2B3B0E8C6502D09D
:104050008C6B8B2B170E8B6501D08B6BBDEC25F019
:1040600098D7E8CFCDF0CF6BCFC0CBF0010ECC6F9F
:10407000CB2B02D0D890CC37CB2FFCD7CC515114BE
:104080005FE04E0ECF25086E096A000E092247EC4C
:1040900025F00001CE6FCEAF53D0CDA910D0D8906F
:1040A000CF35CB6FCC6BCC37760ECB25086E000EA0
:1040B000CC21096E47EC25F00001A01941E1CDA704
:1040C0001FD0D890CF35CB6FCC6BCC37770ECB25AC
:1040D000086E000ECC21096E47EC25F00001A119F5
:1040E0002FE10ED08A981AD08A9218D08A9016D0D2
:1040F0008B9E14D08B9C12D08B9A10D08B980ED0A4
:10410000CF51F0E0010AF0E0030AF0E0010AF0E02C
:10411000070AF0E0010AF0E0030AF0E0CEA907D0B8
:10412000140EC96F040ECA6FCF51C6EC22F0CEAD8B
:1041300007D0140EC96F180ECA6FCF51C6EC22F00B
:10414000CF2B070ECF6590D7070C51D0572811E021
:10415000810EA76FA86BA96BAA6B020EAB6F57C03D
:10416000ADF0E9EC23F0010E0001966F546A556A38
:1041700045D0040E956F810EA76FAD69070EA86F2D
:10418000A96BAA6B030EAB6FE9EC23F037D099AFA4
:104190000FD09C519B1132E19D51030A2FE15766CC
:1041A00003D0020E956FE2D7572A966B976B26D0F5
:1041B000E90E545C030E555821E3972B020E9765C8
:1041C00014D0576605D0572A966B546A556AEED7B5
:1041D00057C094F0030E956F966B94515EEC25F0EA
:1041E0000001976BF3EC24F009D0966B07D0000127
:1041F0009651ACE0010ACBE0030AF7E10001996BAC
:104200001200E8CF0BF00A6A0B6606D0096A440E6A
:10421000086E47EC25F04DD00B0406E1096A450E07
:10422000086E47EC25F045D0010E0B6434D00A0E21
:104230000B6031D01ED0000E8AB8010E3AD0000EAD
:104240008AB2010E36D0000E8AB0010E32D0000EB6
:104250008BBE010E2ED0000E8BBC010E2AD0000E9C
:104260008BBA010E26D0000E8BB8010E22D00A6A3E
:1042700021D00B50020ADFE0010AE1E0070AE3E087
:10428000010AE5E0030AE7E0010AE9E00F0AEBE0D2
:10429000010AEDE00FD0090E0B640CD0800E0B600C
:1042A00009D0440E0B24086E096A000E092247EC5F
:1042B00025F00A6E0A50120041C0B5F0B66BB76B1C
:1042C000B86BB7C0B8F0B6C0B7F0B5C0B6F0B56B54
:1042D0003F50B96F4050BA6FBB6BBC6BBAC0BCF0FB
:1042E000B9C0BBF0BA6BB96B43C0BDF0BE6BBF6B5E
:1042F000C06B1A0ED890BD37BE37BF37C037E82E17
:10430000F9D7B951BD11C16FBA51BE11C26FBB51BE
:10431000BF11C36FBC51C011C46FB551C111C56F7E
:10432000B651C211C66FB751C311C76FB851C4118E
:10433000C86F4250C511476EC651486EC751496E8D
:10434000C8514A6E47C037F048C038F049C039F00C
:104350004AC03AF044C03BF045C03CF046C03DF096
:104360004FEC23F0000901E1000C010CE8CF10F044
:10437000116A11C00DF0010E0E6E0D2A02D0D890F8
:104380000E360D2EFCD70E500C143AE010A810D0AB
:10439000D89011340D6E0E6A0E36760E0D24086E0E
:1043A000000E0E20096E47EC25F00001A01928E14F
:1043B00010A610D0D89011340D6E0E6A0E36770EFE
:1043C0000D24086E000E0E20096E47EC25F000014A
:1043D000A11916E14E0E1124086E096A000E092279
:1043E00047EC25F00F6EB6EC25F04E0E1124086E4A
:1043F000096A000E09220F507F0B0A6EB1EC23F000
:10440000112A070E1164B5D7070C800E3BEC25F07E
:10441000090E0E01436FFC0E446F010E456F200E16
:10442000706E728E729C606A0F01306B0E01806B31
:10443000906BA06BB06BC06BD06BE00E7D6FE06BD0
:10444000080EE16FE26BE36BE46BE80EE56F1A0EAA
:10445000E66FE76B030E466F476B716B110E726F61
:10446000736F746B756B766B776B786B540E796FBB
:10447000050E7A6F7B6B7B6B0F0EF86FE00EF96F9A
:10448000FA6BFB6BF9870F0EFC6FE00EFD6FFE6998
:10449000FF6BFD87000E3BEF25F0E8CF0BF028D037
:1044A0000F0E0D6E600E22D00F010F0E0D6E300E2E
:1044B0001DD00E010E0E0D6E800E18D00E010E0EC8
:1044C0000D6E900E13D00E010E0E0D6EA00E0ED0BE
:1044D0000E010E0E0D6EB00E09D00E010E0E0D6EF9
:1044E000C00E04D00E010E0E0D6ED00E0C6E0FD04D
:1044F0000B50D6E0010AD8E0030ADBE0010ADEE057
:10450000070AE1E0010AE4E0030AE7E0EBD70CC0A8
:1045100008F00DC009F01200E8CF27F021C01AF012
:1045200022C01BF0280E6DEC24F0000901E1000C04
:104530001F50D96EDA6A28C0DFFF1E50D96EDA6AC2
:1045400029C0DFFF2A50236E010E2B14246E275042
:10455000D96EDA6A23C0DEFF24C0DDFF2050D96E99
:10456000DA6A28C023F029C024F02AC025F02BC025
:1045700026F01B0E05D0D890263225322432233265
:10458000E82EF9D72350070BDF6E010CE8CF50F06F
:1045900050C04DF0D89050344B6E4C6A4C36760E6D
:1045A0004B24086E000E4C20096E47EC25F04E6E31
:1045B000D89050344B6E4C6A4C36770E4B24086EB4
:1045C000000E4C20096E47EC25F04F6E0001C9C06B
:1045D0003FF0406ACAC041F094C042F0030E436EFF
:1045E000446E4D0E456E000E466E0F0E466E5F0E0B
:1045F0004564466A5CEF21F00001886B896B010E0F
:10460000566EADEC25F00001946F946701D094696B
:10461000942902E1020E566E996B9A6B9B6B9C6B10
:104620009D6BA76BA86BA96BAA6BAB6B906B8F6B29
:10463000576A956B966B976B526A536A546A556AC0
:10464000866B876B986B936B926B1200982B3B0E6B
:1046500098650DD0986B932B9551030A08E199EC5E
:1046600025F00001C96F9EEC25F05AEC24F03B0EBA
:104670000001936502D0936B922B170E926501D0C7
:10468000926B9551030AD8A41200912B91C04DF062
:104690000F0E4D16020E4D5CD8B0916B12003E6AA3
:1046A000846B856B17D037C012F038C013F039C057
:1046B00014F03AC015F03CC016F03DC017F03BC0F6
:1046C00018F0200E196E57EC1BF0000903E0010EE4
:1046D0003E6E06D0E80E0001845D030E8559E3E3CB
:1046E0000001A76B3E50120034EC1FF0100E926ECA
:1046F000806A080E936E816A010E946E826A920E31
:1047000002EC25F0FB0E096E1D0E086E87EC25F0FD
:104710008A988A928A908B9E8B9C8B9A8B9805ECB8
:1047200022F0F28CF28E1200000E2DEC25F0550ACC
:1047300006E1010E2DEC25F0AA0A01E1010C020EA2
:10474000566EBBEC25F0FF0E5EEC25F0550E0C6EA0
:10475000000EA4EC24F0AA0E0C6E010EA4EC24F0C2
:10476000000C0950030B756E08C074FF0AC073FF7C
:104770007F9E7F9C7F84000EF2BE010E0B6EF29E28
:10478000550E7E6EAA0E7E6E7F827FB2FED70BB074
:1047900002D0F29E01D0F28E7F94120099510F0B3D
:1047A000020AD8A41200945120EE9FF0DF6212009A
:1047B000A0C094F094515EEC25F0810E0001A76F2B
:1047C000A86BA96BAA6B070EAB6F94C0ADF0E9EFB5
:1047D00023F0A9C03FF0AAC040F0ABC041F094C0A4
:1047E00042F0A8C043F0A7510F0B446E000E466E76
:1047F000AD0E456E5CEC21F04B6E4B6602D00001B5
:10480000902B4B50120099510F0B0D6E0D50D8B4D8
:104810001200945120EE9FF0DF6212000D0405E0BB
:10482000010E0D64010CA067010C9469FF0E5EEC93
:1048300025F0FCEF22F099BF12009D0E1E6E9E0E19
:104840001F6E9A0E206E990E216E9F0E226E9B0E89
:104850008CEC22F02C6E2C50D8B412000001998FF1
:10486000120099C04CF00F0E4C164C04D8A4120044
:10487000945120EE9FF0DF621200800EA76FA86BAC
:10488000A96BAA6B030EAB6FE9EF23F0E8CF09F039
:10489000080E0A6E0B6AD89009340B340B6ED89050
:1048A000093608500B5C02E308500B5E0A2EF3D762
:1048B0000B501200E8CF4CF0830E0001A76F070EDB
:1048C000A86FAA6B140EA96F090EAB6FAD6B4CC02D
:1048D000AEF0C9C0AFF0E9EF23F0E8CF1CF099BF0C
:1048E000000C1BC00FF01AC010F01D0E116E1C50F2
:1048F0007FEC19F00009F4E01DAC1DAA000C010CBE
:10490000E8CF0DF0070E0D6401D0070CB6EC25F0D2
:104910000C0E0D24086E096A000E09220CC00AF064
:10492000B1EF23F0E8CF0DF00F0E0D6401D00F0CA6
:10493000B6EC25F0140E0D24086E096A000E09224B
:104940000CC00AF0B1EF23F0E8CF0DF0010E0D64BA
:1049500001D0010CB6EC25F0030E0D24086E096A97
:10496000000E09220CC00AF0B1EF23F0070EAD6F64
:10497000480EAE6F020E086E0850AD0FD96EDA6A9F
:10498000DF6A082A070E0864F7D7070C00EE60F00C
:10499000550EEE6AE806FDE100EE52F0070EEE6AF3
:1049A000E806FDE10001BBEF1FF0E8CFD4F07F0E79
:1049B000D46505D0D3C048F0D451ACEF1EF0D3C0BD
:1049C00051F0D45191EF07F0E8CF0CF00C04D8A4CB
:1049D0001200B6EC25F0096A086AFF0E0A68B1EC0D
:1049E00023F0FF001200810E0001A76FA86BA96BD6
:1049F000AA6B020EAB6F94C0ADF0E9EC23F0010E90
:104A0000566E010CE8CF08F008507F0BD56ED76AC0
:104A1000D66AF29408AE02D0F28A01D0F29AD58E0C
:104A20001200E8CF0DF0B6EC25F0070E0D24086E4D
:104A3000096A000E09220CC00AF0B1EF23F0E8CF9A
:104A400009F00950000F086E08C0F6FF0F0EF76E50
:104A5000000EF86E0800F5501200E8CF0AF0010EC3
:104A60000A6401D0000C030E0A24086E096A000EC5
:104A7000092247EF25F0E8CF08F01F0E6F16085007
:104A80006F126F50E00B0818D8B41200FAD7095013
:104A9000030B756E08C074FF7F9C7F9E7F8000F0C3
:104AA00000F073501200E8CF1DF07F0E1D6403D09C
:104AB0001D507FEF1AF01D5001EF21F0E8CF0CF0F0
:104AC000B6EC25F0096A010E086E0CC00AF0B1EFD1
:104AD00023F0E8CF0AF00C0E0A24086E096A000ED3
:104AE000092247EF25F0E8CF0AF0070E0A24086EE6
:104AF000096A000E092247EF25F0E8CF0AF0140EEC
:104B00000A24086E096A000E092247EF25F008C042
:104B10000AF009C00BF00BC0D7FF0AC0D6FF120085
:104B200001C003F002C004F004C0D7FF03C0D6FFE9
:104B30001200096A450E086E47EF25F0096A440E17
:104B4000086E47EF25F0086A096A0A6A0B6A1200C4
:104B5000086A096A0A6A0B6A1200096A010E086E7D
:104B600047EF25F009EC12F034EF1FF07FA212009E
:104B7000FDD7566A120009EF12F01200010C080C62
:0A4B8000010C060C010C010C1200E0
:020000040020DA
:08000000FFFFFFFFFFFFFFFF00
:020000040030CA
:0E0000001512677EFF8991FF0FC00FE00F40C1
:00000001FF
