:040800005FEF04F0B2
:10081800D8CF05F0E8CF06F0E0CF07F0F2A401D07A
:1008280001D042D0FB0E026E1D0E016E8DEC22F03F
:10083800544A552A0001864B872B010E8027000E4B
:100848008123000E8223000E8323844B852B82A0F4
:1008580001D001D003D0886B896B02D0884B892BDB
:10086800582A5650020AD8A401D001D00ED0640EDE
:10087800586401D001D009D082A201D001D002D0A1
:10088800829201D08282586A0ED05604D8A401D030
:1008980001D003D08282586A06D0566601D001D0B2
:1008A80002D08292586AF29407C0E0FF06C0E8FFBF
:1008B80005C0D8FF1000B1EF21F07777772E657566
:1008C800726F736F757263652E73652F70617269CD
:1008D800735F3031302E786D6C000000E8CFD2F0B5
:1008E800CE6BD16B511CD06FD26710D0B3EC22F015
:1008F800096A440E086E51C00AF0DFEC20F0096A5C
:10090800440E086E84EC22F035EF09F0D20510E1B0
:10091800B3EC22F0096A450E086E51C00AF0DFEC0C
:1009280020F0096A450E086E84EC22F035EF09F0D4
:10093800010ED26585D10A0ED26182D14C0ED22524
:10094800086E096A000E092284EC22F00001CB6FC0
:10095800CBBF61D14EEF09F0010ECE6F510428E1F3
:100968008A88000E8AB8010ED06F010ED16F096A0D
:100978004E0E086E84EC22F00001CB6FCBA54EEF33
:1009880009F0096A670E086E84EC22F00001CB6F4B
:10099800096A660E086E84EC22F00001CD6FCC6BFC
:1009A800CB51CC25606F000ECD21616F4EEF09F061
:1009B80051664EEF09F08A98000E8AB8010ED06F82
:1009C800D16B4EEF09F0010ECE6F51041EE18A8201
:1009D800000E8AB2010ED06F010ED16F096A4F0E58
:1009E800086E84EC22F00001CB6FCBA54EEF09F026
:1009F800096A690E086E84EC22F00001CB6F096A5F
:100A0800680E086E84EC22F09FD151664EEF09F013
:100A18008A92000E8AB2010ED06FD2D7010ECE6F25
:100A2800510428E18A80000E8AB0010ED06F010EB1
:100A3800D16F096A500E086E84EC22F00001CB6F6A
:100A4800CBA54EEF09F0096A6B0E086E84EC22F014
:100A58000001CB6F096A6A0E086E84EC22F000016F
:100A6800CD6FCC6BCB51CC25646F000ECD21656F5B
:100A78004EEF09F051664EEF09F08A90000E8AB0E9
:100A8800010ED06F9DD7010ECE6F510426E18B8EDB
:100A9800000E8BBE010ED06F010ED16F096A510E88
:100AA800086E84EC22F00001CB6FCBA5F3D3096A62
:100AB8006D0E086E84EC22F00001CB6F096A6C0E93
:100AC800086E84EC22F00001CD6FCC6BCB51CC25A5
:100AD800666F000ECD21676FDDD35166DBD38B9E29
:100AE800000E8BBE010ED06F6BD7010ECE6F510476
:100AF80026E18B8C000E8BBC010ED06F010ED16FDE
:100B0800096A520E086E84EC22F00001CB6FCBA567
:100B1800C1D3096A6F0E086E84EC22F00001CB6F16
:100B2800096A6E0E086E84EC22F00001CD6FCC6B62
:100B3800CB51CC25686F000ECD21696FABD35166C0
:100B4800A9D38B9C000E8BBC010ED06F39D7010E38
:100B5800CE6F510426E18B8A000E8BBA010ED06F3E
:100B6800010ED16F096A530E086E84EC22F0000161
:100B7800CB6FCBA58FD3096A710E086E84EC22F077
:100B88000001CB6F096A700E086E84EC22F0000138
:100B9800CD6FCC6BCB51CC256A6F000ECD216B6F1E
:100BA80079D3516677D38B9A000E8BBA010ED06F2A
:100BB80007D7010ECE6F510426E18B88000E8BB843
:100BC800010ED06F010ED16F096A540E086E84ECC5
:100BD80022F00001CB6FCBA55DD3096A730E086EB6
:100BE80084EC22F00001CB6F096A720E086E84EC67
:100BF80022F00001CD6FCC6BCB51CC256C6F000E71
:100C0800CD216D6F47D3516645D38B98000E8BB8B5
:100C1800010ED06FD5D6D251020A01E19DD6010A44
:100C280001E1D1D6070A01E1F9D6010A01E12BD782
:100C3800030A01E15AD7010A8AE00F0ABAE02AD367
:100C4800090ED265BED1120ED261BBD1A4D1B3ECCC
:100C580022F0440E0001D225086E096A000E09220E
:100C680051C00AF0DFEC20F0440E0001D225086ED6
:100C7800096A000E092284EC22F00001D06F51A00D
:100C880019D08A98D16B8D81096A570E086E84EC49
:100C980022F00001CB6F096A560E086E84EC22F030
:100CA8000001CD6FCC6BCB51CC25706F000ECD21E0
:100CB800716F03D08D918A98D16B51B462D6EAD204
:100CC800B3EC22F0440E0001D225086E096A000E2A
:100CD800092251C00AF0DFEC20F0440E0001D225B1
:100CE800086E096A000E092284EC22F00001D06F18
:100CF80051A019D08A92D16B8D83096A570E086E5C
:100D080084EC22F00001CB6F096A560E086E84EC61
:100D180022F00001CD6FCC6BCB51CC25726F000E49
:100D2800CD21736F03D08D938A92D16B51A4B2D227
:100D3800096A670E086E84EC22F00001CB6F096A1D
:100D4800660E086E84EC22F00001CD6FCC6BCB519F
:100D5800CC25626F000ECD21636F9CD2B3EC22F0DC
:100D6800440E0001D225086E096A000E092251C0FE
:100D78000AF0DFEC20F0440E0001D225086E096A63
:100D8800000E092284EC22F00001D06F51A019D086
:100D98008A90D16B8D85096A5B0E086E84EC22F00F
:100DA8000001CB6F096A5A0E086E84EC22F000012C
:100DB800CD6FCC6BCB51CC25746F000ECD21756FE8
:100DC80003D08D958A90D16B51B43DD663D2B3ECE4
:100DD80022F0440E0001D225086E096A000E09228D
:100DE80051C00AF0DFEC20F0440E0001D225086E55
:100DF800096A000E092284EC22F00001D06F51A08C
:100E080019D08B9ED16B8D87096A5D0E086E84ECB4
:100E180022F00001CB6F096A5C0E086E84EC22F0A8
:100E28000001CD6FCC6BCB51CC25766F000ECD2158
:100E3800776F03D08D978B9ED16B51B438D62AD259
:100E4800B3EC22F0440E0001D225086E096A000EA8
:100E5800092251C00AF0DFEC20F0440E0001D2252F
:100E6800086E096A000E092284EC22F00001D06F96
:100E780051A019D08B9CD16B8D89096A5F0E086EC1
:100E880084EC22F00001CB6F096A5E0E086E84ECD8
:100E980022F00001CD6FCC6BCB51CC25786F000EC2
:100EA800CD21796F03D08D998B9CD16B51B431D6FC
:100EB800F1D1B3EC22F0440E0001D225086E096A84
:100EC800000E092251C00AF0DFEC20F0440E0001A8
:100ED800D225086E096A000E092284EC22F000016E
:100EE800D06F51A019D08B9AD16B8D8B096A610E86
:100EF800086E84EC22F00001CB6F096A600E086E60
:100F080084EC22F00001CD6FCC6BCB51CC257A6FED
:100F1800000ECD217B6F03D08D9B8B9AD16B51B482
:100F28002AD6B8D1B3EC22F0440E0001D225086EBF
:100F3800096A000E092251C00AF0DFEC20F0440EC5
:100F48000001D225086E096A000E092284EC22F0FD
:100F58000001D06F51A019D08B98D16B8D8D096A83
:100F6800630E086E84EC22F00001CB6F096A620EF2
:100F7800086E84EC22F00001CD6FCC6BCB51CC25F0
:100F88007C6F000ECD217D6F03D08D9D8B9ED16B24
:100F980051B423D67FD1D2510A0A01E158D6010AA9
:100FA80001E18ED6070A01E1D9D6010A01E10FD77E
:100FB800030A01E145D7010A01E17BD71F0AB2E024
:100FC80069D1110ED265E1D0220ED261DED0B3EC28
:100FD80022F0440E0001D225086E096A000E09228B
:100FE80051C00AF0DFEC20F0440E0001D225086E53
:100FF800096A000E092284EC22F00001D06FB0D0FB
:10100800096A570E086E84EC22F00001CB6F096A5A
:10101800560E086E84EC22F00001CD6FCC6BCB51DC
:10102800CC25706F000ECD21716F34D1096A590E2D
:10103800086E84EC22F00001CB6F096A580E086E26
:1010480084EC22F00001CD6FCC6BCB51CC25726FB4
:10105800000ECD21736F1ED1096A5B0E086E84ECF9
:1010680022F00001CB6F096A5A0E086E84EC22F058
:101078000001CD6FCC6BCB51CC25746F000ECD2108
:10108800756F08D1096A5D0E086E84EC22F00001C4
:10109800CB6F096A5C0E086E84EC22F00001CD6FFC
:1010A800CC6BCB51CC25766F000ECD21776FF2D06B
:1010B800096A5F0E086E84EC22F00001CB6F096AA2
:1010C8005E0E086E84EC22F00001CD6FCC6BCB5124
:1010D800CC25786F000ECD21796FDCD0096A610EBE
:1010E800086E84EC22F00001CB6F096A600E086E6E
:1010F80084EC22F00001CD6FCC6BCB51CC257A6FFC
:10110800000ECD217B6FC6D0096A630E086E84EC91
:1011180022F00001CB6F096A620E086E84EC22F09F
:101128000001CD6FCC6BCB51CC257C6F000ECD214F
:101138007D6FB0D0096A650E086E84EC22F000015C
:10114800CB6F096A640E086E84EC22F00001CD6F43
:10115800CC6BCB51CC257E6F000ECD217F6F9AD002
:10116800D251130A01E14CD7060A01E15FD7020AFE
:1011780001E172D70E0A86E0020A9AE0060AAEE09A
:10118800020AC2E03E0AD6E085D0210ED2654DD0D3
:10119800320ED2614AD0B3EC22F0440E0001D225BF
:1011A800086E096A000E092251C00AF0DFEC20F02F
:1011B800440E0001D225086E096A000E092284EC4B
:1011C80022F00001D06F16D0096A750E086E84EC03
:1011D80022F00001CB6F096A740E086E84EC22F0CD
:1011E8000001CD6FCC6BCB51CC256E6F000ECD219D
:1011F8006F6F50D0D251230A02E1C5EF04F0060AFE
:1012080002E1FCEF04F0020A01E11DD40E0A01E13B
:101218004ED4020A01E17DD4060A01E1ACD4020AE7
:1012280001E1DBD41E0AD0E035D0310ED2651CD0E6
:10123800420ED26119D0B3EC22F0440E0001D2253F
:10124800086E096A000E092251C00AF0DFEC20F08E
:10125800440E0001D225086E096A000E092284ECAA
:1012680022F00001D06F16D0470ED26513D0800E41
:10127800D26110D0B3EC22F0440E0001D225086EE2
:10128800096A000E092251C00AF0DFEC20F0BAEC1E
:101298000CF0DED7CE5135E04C0ED225086E096A27
:1012A800000E092284EC22F00001CF6FD15115E025
:1012B800CFA708D0140EC96F030ECA6FD251FE0F04
:1012C800BEEC1FF0CFAB1DD0140EC96F190ECA6F3C
:1012D800D251FE0FBEEC1FF014D0CFA908D0140EC7
:1012E800C96F040ECA6FD251FE0FBEEC1FF0CFAD0E
:1012F80008D0140EC96F180ECA6FD251FE0FBEEC7B
:101308001FF0D05112009C519B1101E1FDD22DD349
:10131800C1EC22F02AD327EC21F027D3AAEC20F045
:1013280024D3F9EC20F021D399510F0B020A01E0E4
:101338001CD3945120EE9FF0DF6217D3800EA0617A
:1013480012D0A05152EC1EF00001AE6FA0C0ADF05B
:10135800030EA86F820EA76FA96BAA6B0A0EAB6F5C
:10136800C5EC20F002D3A05172EC17F0EDD79951DB
:101378000F0B030A01E0F9D2945120EE9FF0DF62CF
:10138800F4D2800EA06106D0A1C051F0A05172EC39
:1013980004F0DBD7A1C048F0A051A2EC1BF0D4D7D1
:1013A800945120EE9FF0DF62E0D2000E71EC22F043
:1013B8000001A11901E0D9D2030E71EC22F000015D
:1013C800A21901E0D2D2050E71EC22F00001A31996
:1013D80001E0CBD2070E71EC22F00001A41901E064
:1013E800C4D25350A51901E0C0D2525020EEA6F045
:1013F800DF62BBD2A0511FEC22F0B7D2000E71EC15
:1014080022F00001A01973E1010E71EC22F0000135
:10141800A1196DE1020E71EC22F00001A21967E139
:10142800030E71EC22F00001A31961E191895FD0EC
:10143800040E71EC22F00001A01959E1050E71ECBF
:1014480022F00001A11953E1060E71EC22F000010F
:10145800A2194DE1070E71EC22F00001A31947E132
:10146800918B45D0080E71EC22F00001A0193FE1E4
:10147800090E71EC22F00001A11939E10A0E71EC94
:1014880022F00001A21933E10B0E71EC22F00001E9
:10149800A3192DE1918D2BD00C0E71EC22F00001D7
:1014A800A01925E10D0E71EC22F00001A1191FE130
:1014B8000E0E71EC22F00001A21919E10F0E71EC69
:1014C80022F00001A31913E1918F11D0916B0FD075
:1014D8009F390F0BD56FD66BD651F8E1D5518EE0F9
:1014E800010AA6E0030ABEE0010AD6E0EFD791514F
:1014F800F00BF00A01E039D2F4EC1FF036D2945127
:1015080020EE9FF0DF6231D2E36BA0C0E2F0A1C011
:10151800E5F0F16B48D0070E086EF15151EC21F05F
:101528000001D56FD551AE0FD96EDA6AE251F125B7
:101538002DEC22F0DF6E070E086E0001F15151EC20
:1015480021F0060A0BE0FF0E0001E525D56FD66BEA
:10155800FF0ED623F151D519D61124E1070E086ED6
:101568000001F15151EC21F0060A03E1070E0001D8
:1015780009D0070E086E0001F15151EC21F000016D
:10158800D56FD529E46FE451810FA76F070EA86FB7
:10159800A96BAA6B1A0EAB6FE3C0ADF0C5EC20F0D7
:1015A8000001E32BF12BE551F15D01E3DED1B3D767
:1015B800945120EE9FF0DF62D8D1A0C0E6F0995197
:1015C800FE0F070BE76FEC6B16D0EC51A10FD96E2D
:1015D800DA6ADF50D36FE651EC25C2EC21F0000146
:1015E800EC51AE0FD96EDA6AE651EC252DEC22F0FB
:1015F800DF6E0001EC2BE751EC5DE7E3070EA86F07
:10160800A96BAA6B1A0EAB6FAD6BE751810FA76F71
:10161800A7D6945120EE9FF0DF62A7D1A05152ECDB
:101628001EF00001D56FD529516EA05172EC04F05F
:101638008CD6945120EE9FF0DF6297D1A05152ECE6
:101648001EF00001D56FD505516EA05172EC04F063
:101658007CD69F51941903E09F2901E086D1EB6B5A
:10166800030EA86F880EA76FA96BAA6B200EAB6F2D
:10167800F06BF0C0ADF0010EF26FF251AD0FD96E04
:10168800DA6AEB510F0871EC22F0DF6E0001EB2BE8
:10169800100EEB6501D004D0F22B070EF265EDD7E2
:1016A800100EEB6501D007D0C5EC20F00001F02B3F
:1016B800020EF065DED7F26BF2513AEC22F0000927
:1016C80008E0F251B00FD96EDA6AF2513AEC22F022
:1016D80005D0F251B00FD96EDA6A000EDF6EF22B28
:1016E800040EF265E9D7C5EC20F0050E0001EB6F9A
:1016F800030EF06FF0C0ADF0010EF26FF251AD0FB6
:10170800D96EDA6AEB513AEC22F0DF6EEB2BF22B52
:10171800070EF265F3D7C5EC20F00001F02B060E9A
:10172800F065E8D722D1945120EE9FF0DF621DD1F9
:10173800030EA86F870EA76FA96BAA6B220EAB6F5B
:10174800AD0ED3EC21F00CD6945120EE9FF0DF6261
:101758000CD1ED6B99C0D5F00F0ED517040ED55DE1
:1017680012E3A3C0EEF0EF6BEF51EE1103E1010EAF
:10177800EF6FEE6B010EEE5D010EEF5907E3010E00
:10178800EF6F000E02D0EF6B010EEE6F52C0DCF06F
:1017980053C0DDF0A151A0C0D5F0D66BD5C0D6F0AE
:1017A800D56BD511526ED651536E070EA86FA96B23
:1017B800AA6B270EAB6FAD6BA0C0AEF0A1C0AFF0A7
:1017C800ED51EE5DD56F000EEF59D66F040ED55D65
:1017D800000ED65902E3040E02D0ED51EE5DE86F1B
:1017E800E851840FA76FA251ED25B06FE96B0CD0BB
:1017F800E951B10FD96EDA6AA251ED25E9252DEC30
:1018080022F0DF6E0001E92BE851E95DF1E354C0F5
:10181800DEF055C0DFF0C5EC20F0020E0001DE2539
:10182800D56F000EDF21D66FD551545CD65155586F
:10183800F4E3E851ED27AD2BED51D56FD66BEE51A2
:10184800D55DEF51D659BCE3DCC052F0DDC053F092
:101858008CD0945120EE9FF0DF6287D052C0E0F028
:1018680053C0E1F0A151A0C0D5F0D66BD5C0D6F0D9
:10187800D56BD511526ED651536EA2C0EAF014D072
:10188800A251A308EA25D96EDA6ADF50D36FEA516C
:10189800C2EC21F00001D56FA251B108EA25D96E3A
:1018A800DA6AD5C0DFFFEA2B99510F0BD56FD66BDB
:1018B800A251D527000ED623FC0ED525D76FFF0ED3
:1018C800D621D86FEA51D96FDA6BDA51800ADB6F0B
:1018D800D751D95DD851800ADB59D2E3E0C052F024
:1018E800E1C053F0070EA86F99510F0B800FA76F37
:1018F800A96BAA6B270EAB6FAD6BA0C0AEF0A1C0F1
:10190800AFF0A2C0B0F02CD59D51010A01E100D57D
:10191800030A01E100D5040A01E100D50E0A01E13C
:1019280000D5010A01E100D5020A01E120D5070A24
:1019380001E136D51B0A01E1CBD50F0A01E1DFD55C
:10194800010A01E135D6040A01E163D6030A01E17F
:1019580070D6010A01E17DD63E0A01E1E4D6040A07
:1019680001E1F2D6030A01E174D71200366837683C
:10197800386839683A6A3B6A3C6A3D6A436A435048
:10198800126E136AD89012361336D8901236133660
:10199800D89012361336450E1224086E000E132006
:1019A800096E84EC22F0146E14AEE8D14350126E26
:1019B800136AD89012361336D89012361336D89048
:1019C80012361336480E1224086E000E1320096EC4
:1019D80084EC22F0146E14C015F0166A176A186A9F
:1019E80017C018F016C017F015C016F0156A435046
:1019F800196E1A6AD89019361A36D89019361A36C6
:101A0800D89019361A36460E1924086E000E1A2078
:101A1800096E84EC22F01B6E1BC01CF01D6A1E6A46
:101A28001F6A1DC01FF01CC01EF01D6A1C6A4350AF
:101A3800206E216AD89020362136D890203621365B
:101A4800D89020362136450E2024086E000E21201D
:101A5800096E84EC22F0226E020E221622C023F0B8
:101A6800246A256A266A170ED89023362436253626
:101A78002636E82EF9D71C502310276E1D50241047
:101A8800286E1E502510296E1F5026102A6E1550DC
:101A980027102B6E165028102C6E175029102D6EFB
:101AA80018502A102E6EFF0E2B10316E2C50326EED
:101AB8002D50336E2E50346E4350126E136AD890E8
:101AC80012361336D89012361336D890123613368B
:101AD800490E1224086E000E1320096E84EC22F0C1
:101AE800146E14C015F0166A176A186A17C018F031
:101AF80016C017F015C016F0156A4350196E1A6A09
:101B0800D89019361A36D89019361A36D890193608
:101B18001A36470E1924086E000E1A20096E84EC36
:101B280022F01B6E1BC01CF01D6A1E6A1F6A1DC0B6
:101B38001FF01CC01EF01D6A1C6A4350206E216AEB
:101B4800D89020362136D89020362136D8902036A5
:101B58002136450E2024086E000E2120096E84ECE3
:101B680022F0226E010E221622C023F0246A256A72
:101B7800266A23C026F0256A246A236A1C5023108B
:101B8800276E1D502410286E1E502510296E1F50D8
:101B980026102A6E155027102B6E165028102C6E02
:101BA800175029102D6E18502A102E6E43502F6E84
:101BB800306AD8902F363036D8902F363036D890B5
:101BC8002F363036440E2F24086E000E3020096E52
:101BD80084EC22F02B103E6E2C503F6E2D50406E40
:101BE8002E50416E436608D03EC03AF03FC03BF0ED
:101BF80040C03CF041C03DF03150361632503716E7
:101C08003350381634503916426A42503EC012F0EA
:101C18003FC013F040C014F041C015F0E82A05D0C9
:101C2800D8901532143213321232E82EF9D7010E39
:101C3800121642503AC016F03BC017F03CC018F0DC
:101C48003DC019F0E82A05D0D89019321832173259
:101C58001632E82EF9D71650010B12181DE042C0B3
:101C680012F0010E136E146A122A03D0D89013369C
:101C78001436122EFBD7131C156E141C166E176A19
:101C880016BE17061750186E15503616165037160A
:101C98001750381618503916422A1F0E4264B5D705
:101CA8003E503A163F503B1640503C1641503D16A8
:101CB80043504FE0426A43C012F04350136E146A17
:101CC800D89013361436D89013361436D890133665
:101CD8001436440E1324086E000E1420096E84EC8A
:101CE80022F0156E122A02D0D8901532122EFCD787
:101CF800010E151643C016F035C017F0162A02D08B
:101D0800D8901732162EFCD71750010B15181DE066
:101D180043C012F0010E136E146A122A03D0D89031
:101D280013361436122EFBD713C015F014C016F054
:101D3800000E16BEFF0E176E186E1550361616508A
:101D480037161750381618503916422A070E4264AB
:101D5800B2D74350126E136AD89012361336D89001
:101D680012361336D89012361336440E1224086EE3
:101D7800000E1320096E84EC22F0356E432A060EFD
:101D88004364FDD5800E46EC22F00F010F0E096E5C
:101D98001C0E086E36C00AF037C00BF038C00CF0C5
:101DA80039C00DF0010E0E6E5AEC1AF00D01D483F5
:101DB8000F010F0E096E040E086E3AC00AF03BC000
:101DC8000BF03CC00CF03DC00DF0010E0E6E5AEC4D
:101DD8001AF0000E46EF22F0B3EC22F0096A440E26
:101DE800086E000E0A6ADFEC20F0B3EC22F0096AF4
:101DF800450E086E000E0A6ADFEC20F0B3EC22F004
:101E0800096A4E0E086E980E0A6EDFEC20F0B3ECED
:101E180022F0096A4F0E086E980E0A6EDFEC20F069
:101E2800B3EC22F0096A500E086E980E0A6EDFECC9
:101E380020F0B3EC22F0096A510E086E980E0A6E73
:101E4800DFEC20F0B3EC22F0096A520E086E980E0F
:101E58000A6EDFEC20F0B3EC22F0096A530E086E2C
:101E6800980E0A6EDFEC20F0B3EC22F0096A540EEB
:101E7800086E980E0A6EDFEC20F0B3EC22F0096AC7
:101E8800550E086E980E0A6EDFEC20F0B3EC22F0C7
:101E9800096A560E086E000E0A6ADFEC20F0B3ECF1
:101EA80022F0096A570E086E000E0A6ADFEC20F06D
:101EB800B3EC22F0096A580E086E000E0A6ADFECCD
:101EC80020F0B3EC22F0096A590E086E000E0A6A77
:101ED800DFEC20F0B3EC22F0096A5A0E086E000E0F
:101EE8000A6ADFEC20F0B3EC22F0096A5B0E086E98
:101EF800000E0A6ADFEC20F0B3EC22F0096A5C0EEF
:101F0800086E000E0A6ADFEC20F0B3EC22F0096AD2
:101F18005D0E086E000E0A6ADFEC20F0B3EC22F0CA
:101F2800096A5E0E086E000E0A6ADFEC20F0B3EC58
:101F380022F0096A5F0E086E000E0A6ADFEC20F0D4
:101F4800B3EC22F0096A600E086E000E0A6ADFEC34
:101F580020F0B3EC22F0096A610E086E000E0A6ADE
:101F6800DFEC20F0B3EC22F0096A620E086E000E76
:101F78000A6ADFEC20F0B3EC22F0096A630E086EFF
:101F8800000E0A6ADFEC20F0B3EC22F0096A640E56
:101F9800086E000E0A6ADFEC20F0B3EC22F0096A42
:101FA800650E086E000E0A6ADFEC20F0B3EC22F032
:101FB800096A660E086E000E0A6ADFEC20F0B3ECC0
:101FC80022F0096A670E086E000E0A6ADFEC20F03C
:101FD800B3EC22F0096A680E086E000E0A6ADFEC9C
:101FE80020F0B3EC22F0096A690E086E000E0A6A46
:101FF800DFEC20F0B3EC22F0096A6A0E086E000EDE
:102008000A6ADFEC20F0B3EC22F0096A6B0E086E66
:10201800000E0A6ADFEC20F0B3EC22F0096A6C0EBD
:10202800086E000E0A6ADFEC20F0B3EC22F0096AB1
:102038006D0E086E000E0A6ADFEC20F0B3EC22F099
:10204800096A6E0E086E000E0A6ADFEC20F0B3EC27
:1020580022F0096A6F0E086E000E0A6ADFEC20F0A3
:10206800B3EC22F0096A700E086E000E0A6ADFEC03
:1020780020F0B3EC22F0096A710E086E000E0A6AAD
:10208800DFEC20F0B3EC22F0096A720E086E000E45
:102098000A6ADFEC20F0B3EC22F0096A730E086ECE
:1020A800000E0A6ADFEC20F0B3EC22F0096A740E25
:1020B800086E000E0A6ADFEC20F0B3EC22F0096A21
:1020C800750E086E000E0A6ADFEC20F0B3EC22F001
:1020D800096A760E086E000E0A6ADFEC20F0B3EC8F
:1020E80022F0096A770E086E000E0A6ADFEC20F00B
:1020F800B3EC22F0096A780E086E000E0A6ADFEC6B
:1021080020F0B3EC22F0096A790E086E000E0A6A14
:10211800DFEC20F0B3EC22F0096A7A0E086E000EAC
:102128000A6ADFEC20F0B3EC22F0096A7B0E086E35
:10213800000E0A6ADFEC20F0B3EC22F0096A7C0E8C
:10214800086E000E0A6ADFEC20F0B3EC22F0096A90
:102158007D0E086E000E0A6ADFEC20F0B3EC22F068
:10216800096A7E0E086E000E0A6ADFEC20F0B3ECF6
:1021780022F0096A7F0E086E000E0A6ADFEC20F072
:10218800B3EC22F0096A800E086E000E0A6ADFECD2
:1021980020F0B3EC22F0096A810E086E000E0A6A7C
:1021A800DFEC20F0B3EC22F0096A820E086E000E14
:1021B8000A6ADFEC20F0B3EC22F0096A830E086E9D
:1021C800000E0A6ADFEC20F0B3EC22F0096A840EF4
:1021D800086E000E0A6ADFEC20F0B3EC22F0096A00
:1021E800850E086E000E0A6ADFEC20F0466A476A20
:1021F800B3EC22F0475046C044F0456AD8904436C4
:102208004536D89044364536D89044364536442627
:10221800000E45228C0E4424086E000E4520096EDF
:10222800000E0A6ADFEC20F0472A070E4764E0D761
:10223800462A060E4664DBD7BAEF0CF000019C5123
:102248009B1101E179D1E16BE151D16FD26BD8904B
:10225800D137D237D890D137D237D890D137D23773
:102268008D0ED125086E000ED221096E84EC22F065
:102278000001E06FE0AF5BD1E0AD18D0E151D16F64
:10228800D26BD890D137D237D890D137D237D890AF
:10229800D137D2378C0ED125086E000ED221096EA7
:1022A80084EC22F000019E1901E041D1E151080DB2
:1022B8008F0EF324086E000EF420096E84EC22F0D1
:1022C8000001D16FE051010BD36FD26BD151D225F0
:1022D800D46F000ED321D56FE151080D8E0EF32473
:1022E800086E000EF420096E84EC22F00001D16F14
:1022F800E051020BD36FD26BD151D225D66F000EAD
:10230800D321D76FE151D16FD26BD890D137D23763
:10231800D890D137D237D890D137D237910ED1252E
:10232800086E000ED221096E84EC22F00001D86FED
:10233800E151D16FD26BD890D137D237D890D137FD
:10234800D237D890D137D237900ED125086E000EEB
:10235800D221096E84EC22F00001D96F20EE9BF0A7
:10236800DECFD1F0DDCFD2F0D451D11BD551D21B65
:10237800D651D117D751D217D251D11101E0D7D0A8
:102388009D51D819D91501E1AFD0D1D00001E15143
:10239800D16FD26BD890D137D237D890D137D237C6
:1023A800D890D137D237930ED125086E000ED2219E
:1023B800096E84EC22F00001DA6FDAC051F0E051C6
:1023C8001AEC14F0B4D00001E151D16FD26BD8905F
:1023D800D137D237D890D137D237D890D137D237F2
:1023E800930ED125086E000ED221096E84EC22F0DE
:1023F8000001DB6FDBC051F0E05127EC1DF097D0F6
:102408000001E151D16FD26BD890D137D237D89033
:10241800D137D237D890D137D237930ED125086E1D
:10242800000ED221096E84EC22F00001DC6FDCC0C2
:102438000AF0E05172EC16F07AD00001E151D16F48
:10244800D26BD890D137D237D890D137D237D890ED
:10245800D137D237930ED125086E000ED221096EDE
:1024680084EC22F00001DD6FDDC051F0E05102EC98
:102478001BF05DD00001E151D16FD26BD890D137FC
:10248800D237D890D137D237D890D137D237930EA8
:10249800D125086E000ED221096E84EC22F00001CD
:1024A800DE6FDEC00CF0E051ADEC1EF040D0000154
:1024B800E151D16FD26BD890D137D237D890D1377C
:1024C800D237D890D137D237930ED125086E000E67
:1024D800D221096E84EC22F00001DF6FDFC051F0D9
:1024E800E051B1EC19F023D0E151D16FD26BD89003
:1024F800D137D237D890D137D237D890D137D237D1
:10250800920ED125086E000ED221096E84EC22F0BD
:10251800010A01E13BD7030A01E155D7010A01E1AC
:102528006FD7070AC4E00E0A88E01A0AA3E0000180
:10253800E12B060EE16588D61200D36BD56B070E2A
:10254800D56501D072D14E0ED525086E096A000EE8
:10255800092284EC22F00001D46FD4AF64D1D551A4
:10256800020DF350600FD96EDA6ADE50DD1037E0E5
:10257800D551020DF350600FD96EDA6ADE06000EEF
:10258800DD5AD551020DF350600FD96EDA6ADE506C
:10259800DD1046E14E0ED525086E096A000E0922A7
:1025A80084EC22F00001D06FD0A53AD0D5C0D0F08D
:1025B800010ED16FD02B02D0D890D137D02FFCD7B5
:1025C800D151516E000E27EC1DF0D4A329D0010E75
:1025D800C96F020ECA6FD551BEEC1FF021D0660E2E
:1025E800D525086E096A000E092284EC22F0000144
:1025F800D16FD06B670ED525086E096A000E0922C7
:1026080084EC22F00001D027000ED123D551020D11
:10261800F350600FD96EDA6AD0C0DEFFD1C0DDFF9B
:10262800D5C0D0F0010ED16FD02B02D0D890D137C1
:10263800D02FFCD7D1518D1501E1F5D0D551020D20
:10264800F350700FD96EDA6ADE50DD1001E1CCD09C
:10265800D551020DF350700FD96EDA6ADE06000EFE
:10266800DD5AD551020DF350700FD96EDA6ADE507B
:10267800DD102EE0D8D08AA802D08A9825D08A8882
:10268800010ED36F33D08AA202D08A921DD08A82DB
:10269800F7D78AA002D08A9017D08A80F1D78BAE5C
:1026A80002D08B9E11D08B8EEBD78BAC02D08B9C3B
:1026B8000BD08B8CE5D78BAA02D08B9A05D08B8A4E
:1026C800DFD78BA803D08B98D36B10D08B88D8D743
:1026D800D551D1E0010AD7E0030ADBE0010ADFE0C7
:1026E800070AE3E0010AE7E0030AEBE0D551020D2F
:1026F800560EF324086E000EF420096E84EC22F0C6
:102708000001D16FD06BD551020D570EF324086E1E
:10271800000EF420096E84EC22F00001D027000E90
:10272800D123D551020DF350700FD96EDA6AD0C09B
:10273800DEFFD1C0DDFFD35144E04E0ED525086E33
:10274800096A000E092284EC22F00001D06FD0A59E
:1027580025D0D551020D660EF324086E000EF42024
:10276800096E84EC22F00001D16FD06BD551020DB7
:10277800670EF324086E000EF420096E84EC22F034
:102788000001D027000ED123D551020DF350600F60
:10279800D96EDA6AD0C0DEFFD1C0DDFFD4A707D07A
:1027A800140EC96F030ECA6FD551BEEC1FF0D4AB1F
:1027B8003AD0140EC96F190ECA6FD551BEEC1FF06E
:1027C80032D0D4A907D0140EC96F040ECA6FD551E0
:1027D800BEEC1FF0D4AD27D0140EC96F180ECA6F07
:1027E800D551BEEC1FF01FD0D551020D570EF32462
:1027F800086E000EF420096E84EC22F00001D06F00
:10280800D551020D560EF324086E000EF420096E01
:1028180084EC22F00001D26FD16BD051D125706FBA
:10282800000ED221716FD52B8AD61200E8CFCEF0D8
:10283800D06BD0C0CBF0010ECC6FCB2B02D0D89090
:10284800CC37CB2FFCD7CC51511401E137D14E0EE8
:10285800D025086E096A000E092284EC22F00001D6
:10286800CF6FCFAF2BD1CEA911D0D890D035CB6FA9
:10287800CC6BCC37760ECB25086E000ECC21096EBA
:1028880084EC22F00001A01901E018D1CEA7F2D003
:10289800D890D035CB6FCC6BCC37770ECB25086E64
:1028A800000ECC21096E84EC22F00001A11901E090
:1028B80005D1E0D08A88096A4E0E086E84EC22F0B1
:1028C8000001CB6FCBA5E8D0096A670E086E84ECCF
:1028D80022F00001CB6F096A660E086E84EC22F0C4
:1028E8000001CD6FCC6BCB51CC25606F000ECD2194
:1028F800616FD2D08A82096A4F0E086E84EC22F08A
:102908000001CB6FCBA5C8D0096A690E086E84ECAC
:1029180022F00001CB6F096A680E086E84EC22F081
:102928000001CD6FCC6BCB51CC25626F000ECD2151
:10293800636FB2D08A80096A500E086E84EC22F068
:102948000001CB6FCBA5A8D0096A6B0E086E84EC8A
:1029580022F00001CB6F096A6A0E086E84EC22F03F
:102968000001CD6FCC6BCB51CC25646F000ECD210F
:10297800656F92D08B8E096A510E086E84EC22F036
:102988000001CB6FCBA588D0096A6D0E086E84EC68
:1029980022F00001CB6F096A6C0E086E84EC22F0FD
:1029A8000001CD6FCC6BCB51CC25666F000ECD21CD
:1029B800676F72D08B8C096A520E086E84EC22F015
:1029C8000001CB6FCBA568D0096A6F0E086E84EC46
:1029D80022F00001CB6F096A6E0E086E84EC22F0BB
:1029E8000001CD6FCC6BCB51CC25686F000ECD218B
:1029F800696F52D08B8A096A530E086E84EC22F0F4
:102A08000001CB6FCBA548D0096A710E086E84EC23
:102A180022F00001CB6F096A700E086E84EC22F078
:102A28000001CD6FCC6BCB51CC256A6F000ECD2148
:102A38006B6F32D08B88096A540E086E84EC22F0D2
:102A48000001CB6FCBA528D0096A730E086E84EC01
:102A580022F00001CB6F096A720E086E84EC22F036
:102A68000001CD6FCC6BCB51CC256C6F000ECD2106
:102A78006D6F12D0D05101E11DD7010A01E13AD79B
:102A8800030A01E157D7010A01E174D7070A92E066
:102A9800010AB0E0030ACEE0CFA707D0140EC96F31
:102AA800030ECA6FD051BEEC1FF0CFAB07D0140E87
:102AB800C96F190ECA6FD051BEEC1FF0D02B070E8C
:102AC800D065B7D6070CE8CF14F08A6B7750C00BE7
:102AD800166E166635D060AE13D0A49074AE06D0CC
:102AE8001150D96EDA6A000EDB86749E60A002D09F
:102AF8008A8102D000018A910F0E196E600E1CD0D7
:102B08000F0150AF1BD0A49274AC06D01150D96EEF
:102B1800DA6A000EDB86749C5051070B00018A6F3D
:102B2800020E8A6105D01150D96EDA6A000EDB8E6A
:102B38000F010F0E196E500E186E66D0000ECDD014
:102B48001650400A46E160AE04D00F0E196E600EB2
:102B58003ED00F0150AF04D00F0E196E500E37D073
:102B68000D01F8B507D00E0120AF04D00E0E196E76
:102B7800200E2DD00D01F8B707D00E0130AF04D0CC
:102B88000E0E196E300E23D00D01F8B907D00E01C4
:102B980040AF04D00E0E196E400E19D00D01F8BBCF
:102BA80005D00E0150AF02D00E0ED7D70D01F8BDDB
:102BB80005D00E0160AF02D00E0EC8D70D01F8BFC8
:102BC800BDD70E0170AFBAD70E0E196E700E186E03
:102BD8000AD074AEB3D76F50070B83EC1FF008C050
:102BE80018F009C019F018C0D9FF19C0DAFFDF5072
:102BF8001F0B00018A6FA49274AC06D01150D96ED5
:102C0800DA6A000EDB86749C18C012F019C013F043
:102C18001150D96EDA6ADF6A20EE05F01850D9260D
:102C28001950DA22DF50176E1050D96EDA6A175031
:102C38000F0BDF6E17AC05D01150D96EDA6A000E93
:102C4800DB8C20EE02F01850D9261950DA22DF501A
:102C5800176E17A608D01150D96EDA6A000EDB8AF3
:102C6800010E176E01D0176A1828086E000E192079
:102C7800096E14C00AF017C00BF0FFEC18F0060E2E
:102C88001826000E19221050D96EDA6ADF50176E16
:102C9800156A0DD018C0D9FF19C0DAFF0F50E16EC0
:102CA800E26ADFCFE7FF184A192A0F2A152A1750B8
:102CB800155CF0E3A4AE06D01150D96EDA6A000EA6
:102CC800DB88A49E12C0D9FF13C0DAFF7F0EDF167F
:102CD8001650800AD8B4749E010E1200E8CF0FF087
:102CE800106A10C00BF0010E0C6E0B2A02D0D8909F
:102CF8000C360B2EFCD70C500A1401E1EAD04E0E0C
:102D08001024086E096A000E092284EC22F00E6E67
:102D18000EAEDFD00FA811D0D89010340B6E0C6A0D
:102D28000C36760E0B24086E000E0C20096E84EC0F
:102D380022F00001A01901E0CCD00FA6BAD0D8909B
:102D480010340B6E0C6A0C36770E0B24086E000ECE
:102D58000C20096E84EC22F00001A11901E0B9D021
:102D6800A8D08A9800018D81096A570E086E84ECF4
:102D780022F00B6E096A560E086E84EC22F00D6E76
:102D88000C6A0B500C240001706F000E0D20716F3F
:102D9800A0D08A9200018D83096A590E086E84ECCE
:102DA80022F00B6E096A580E086E84EC22F00D6E44
:102DB8000C6A0B500C240001726F000E0D20736F0B
:102DC80088D08A9000018D85096A5B0E086E84ECB4
:102DD80022F00B6E096A5A0E086E84EC22F00D6E12
:102DE8000C6A0B500C240001746F000E0D20756FD7
:102DF80070D08B9E00018D87096A5D0E086E84EC89
:102E080022F00B6E096A5C0E086E84EC22F00D6EDF
:102E18000C6A0B500C240001766F000E0D20776FA2
:102E280058D08B9C00018D89096A5F0E086E84EC6E
:102E380022F00B6E096A5E0E086E84EC22F00D6EAD
:102E48000C6A0B500C240001786F000E0D20796F6E
:102E580040D08B9A00018D8B096A610E086E84EC54
:102E680022F00B6E096A600E086E84EC22F00D6E7B
:102E78000C6A0B500C2400017A6F000E0D207B6F3A
:102E880028D08B9800018D8D096A630E086E84EC3A
:102E980022F00B6E096A620E086E84EC22F00D6E49
:102EA8000C6A0B500C2400017C6F000E0D207D6F06
:102EB80010D0105001E155D7010A01E16AD7030A81
:102EC80080E0010A96E0070AACE0010AC2E0030AC2
:102ED800D8E0102A070E106404D7070CE8CF1CF0BE
:102EE8001B6A1C50800A04E18FC01BF08F6BCCD08A
:102EF8001C50810A02E1010E82D01C50820A02E1B4
:102F0800060E7DD01C50830A03E190C01BF0BCD094
:102F18001C50940A03E1C0EC22F071D01C50950AB1
:102F280003E1BFEC22F06BD01C50960A03E1BEEC23
:102F380022F065D0890E1C6005D01C507C0F67EC10
:102F480022F05DD0880E1C6408D0910E1C6005D05C
:102F58001C50770F5DEC22F052D01C50910A03E10F
:102F680094C01BF091D01C50930A03E152C01BF08F
:102F78008BD01C50920A02E1535041D01C50970A42
:102F880003E1BDEC22F03BD01C50980A03E1BCECF5
:102F980022F035D01C50990A03E1BBEC22F02FD067
:102FA800990E1C642ED09E0E1C602BD0A5EC22F02E
:102FB8000BC014F00AC013F009C012F008C011F0D9
:102FC8001C50660F196E195003080C6ED8900C36F9
:102FD800D8900C36D8900C360C5011C00DF012C099
:102FE8000EF013C00FF014C010F0E82A05D0D890E6
:102FF80010320F320E320D32E82EF9D730D01B6E58
:1030080043D09D0E1C642DD0A20E1C602AD0A0ECCB
:1030180022F00BC018F00AC017F009C016F008C05B
:1030280015F01C50620F1A6E1A5003080C6ED890D7
:103038000C36D8900C36D8900C360C5015C00DF0C4
:1030480016C00EF017C00FF018C010F0E82A05D00F
:10305800D89010320F320E320D32E82EF9D70D50BB
:10306800CED7CF0E1C6408D0E00E1C6005D01C50D3
:10307800300F71EC22F0C3D7DF0E1C6405D01C5052
:10308800200F3AEC22F0BBD71B5012000F0E1C6E1B
:10309800400E1B6E0F0E1E6E300E1D6E0F0E206E34
:1030A800200E1F6E0E0E226E200E216E0E0E246E46
:1030B800300E236E0E0E266E400E256E0E0E286EF6
:1030C800500E276E0E0E2A6E600E296E0E0E2C6E96
:1030D800700E2B6E7750C00B2D6E2D6602D0020E2F
:1030E80001D0080E2E6E0D01D890F831306E346A7A
:1030F8007DD03450020DF3501B0FD96EDA6ADECF43
:1031080035F0DDCF36F035C031F036C032F0020E82
:10311800346404D0D890303230A067D035C0D9FF9D
:1031280036C0DAFFDF501A6E1AB65FD035C0D9FF45
:1031380036C0DAFFFC0EDF1619C01AF0030E1A1695
:1031480035C0D9FF36C0DAFF1A50DF1219AC04D0E7
:1031580018504009336E02D018C033F020EE05F045
:103168003550D9263650DA2233C0DFFF19AA03D0EA
:10317800010E336E01D0336A3528086E000E3620F2
:10318800096E12C00AF013C00BF014C00CF015C081
:103198000DF033C00EF05AEC1AF0060E3526000E6C
:1031A80036222F6A0FD016C0D9FF17C0DAFF35C0F4
:1031B800E1FF36C0E2FFDFCFE7FF164A172A354A9C
:1031C800362A2F2A18502F5CEEE331C0D9FF32C0BF
:1031D800DAFFDF501A6E1AB406D031C0D9FF32C0F8
:1031E800DAFF000EDB86010E05D0342A2E50345C3F
:1031F80080E3000E12000AC00EF00B6646D00E5097
:10320800D96EDA6A08C0E1FF09C0E2FFE7500C6E28
:10321800D8900C36D8900C36D8900C34DF6E0E50FF
:10322800D96EDA6AD92ADA6A08C0E1FF09C0E2FF72
:10323800E7500C6E050E0D6ED8900C320D2EFCD793
:103248000C50DF6E084A092A08C0D9FF09C0DAFF06
:10325800DF500C6E050E0D6ED8900C320D2EFCD77B
:103268000E50D96EDA6A0C50DF120E50D96EDA6A37
:10327800020ED926DA6ADF6A0E50D96EDA6A030EB0
:10328800D926DA6A000EDF6E67D00E50D96EDA6A78
:10329800020ED926DA6A08C0E1FF09C0E2FFE7504A
:1032A8000C6E050E0D6ED8900C360D2EFCD70C50FA
:1032B800DF6E0E50D96EDA6A030ED926DA6A08C0B4
:1032C800E1FF09C0E2FFE7500C6ED8900C32D890AD
:1032D8000C32D8900C30DF6E084A092A08C0D9FF92
:1032E80009C0DAFFDF500C6E030E0C160E50D96EB3
:1032F800DA6A020ED926DA6A0C50DF1208C0D9FF42
:1033080009C0DAFFDF500C6ED8900C32D8900C321E
:10331800D8900C321C0E0C160E50D96EDA6A020EBA
:10332800D926DA6A0C50DF12084A092A08C0D9FFE0
:1033380009C0DAFF0E50E16EE26AE12AE26ADFCFE5
:10334800E7FF084A092A08C0D9FF09C0DAFF0E506A
:10335800E16EE26ADFCFE7FF1200E8CFCDF0CF6B76
:10336800D06BD0C0CBF0010ECC6FCB2B02D0D89055
:10337800CC37CB2FFCD7CC51511401E192D0CDA939
:1033880011D0D890D035CB6FCC6BCC37760ECB25FF
:10339800086E000ECC21096E84EC22F00001A01901
:1033A80001E07FD0CDA710D0D890D035CB6FCC6BB3
:1033B800CC37770ECB25086E000ECC21096E84EC35
:1033C80022F00001A1196DE14E0ED025086E096AA0
:1033D800000E092284EC22F00001CE6F2DD08AA8BD
:1033E80002D08A9825D08A88010ECF6F33D08AA25E
:1033F80002D08A921DD08A82F7D78AA002D08A90FA
:1034080017D08A80F1D78BAE02D08B9E11D08B8ECD
:10341800EBD78BAC02D08B9C0BD08B8CE5D78BAACF
:1034280002D08B9A05D08B8ADFD78BA803D08B98D4
:10343800CF6B10D08B88D8D7D051D1E0010AD7E014
:10344800030ADBE0010ADFE0070AE3E0010AE7E03C
:10345800030AEBE0CF5113E0CEA707D0140EC96FD3
:10346800030ECA6FD051BEEC1FF0CEAB1AD0140EAB
:10347800C96F190ECA6FD051BEEC1FF012D0CEA979
:1034880007D0140EC96F040ECA6FD051BEEC1FF0DE
:10349800CEAD07D0140EC96F180ECA6FD051BEEC4E
:1034A8001FF0D02B070ED0655CD7070C0A0E116EE3
:1034B8000E6637D01150D96EDA6ADF500F6ED89089
:1034C8000F32D8900F32D8900F3008C0D9FF09C0FA
:1034D800DAFFDF6E1150D96EDA6AD92ADA6ADF505C
:1034E8000F6E050E106ED8900F36102EFCD708C040
:1034F800D9FF09C0DAFF0F50DF12084A092A115014
:10350800D96EDA6ADF500F6E050E106ED8900F363E
:10351800102EFCD70F5008C0D9FF09C0DAFFDF6EA4
:103528006CD01150D96EDA6A020ED926DA6ADF50E9
:103538000F6E050E106ED8900F32102EFCD70F505C
:1035480008C0D9FF09C0DAFFDF6E1150D96EDA6AF8
:10355800030ED926DA6ADF500F6ED8900F36D8904E
:103568000F36D8900F3608C0D9FF09C0DAFF0F50C0
:10357800DF12084A092A1150D96EDA6A020ED926D2
:10358800DA6ADF500F6ED8900F36D8900F36D89081
:103598000F34E00B08C0D9FF09C0DAFFDF6E08C09E
:1035A800D9FF09C0DAFF000EDB861150D96EDA6A3E
:1035B800020ED926DA6ADF500F6E030E0F1608C006
:1035C800D9FF09C0DAFF0F50DF12084A092A115043
:1035D800D96EDA6AD92ADA6A08C0E1FF09C0E2FFBF
:1035E800DFCFE7FF084A092A1150D96EDA6A08C006
:1035F800E1FF09C0E2FFDFCFE7FF1200E8CFCDF01F
:10360800CE6BD06BD0C0CBF0010ECC6FCB2B02D0E1
:10361800D890CC37CB2FFCD7CC51511401E189D0AD
:103628004E0ED025086E096A000E092284EC22F09D
:103638000001CF6FCFAF7DD0CDA910D0D890D035B5
:10364800CB6FCC6BCC37760ECB25086E000ECC2119
:10365800096E84EC22F00001A0196BE1CDA734D0EB
:10366800D890D035CB6FCC6BCC37770ECB25086E86
:10367800000ECC21096E84EC22F00001A11959E159
:1036880023D0000E8AB8010ECE6F2CD0000E8AB25D
:10369800010ECE6F27D0000E8AB0010ECE6F22D059
:1036A800000E8BBE010ECE6F1DD0000E8BBC010E1E
:1036B800CE6F18D0000E8BBA010ECE6F13D0000E4D
:1036C8008BB8010ECE6F0ED0D051DBE0010ADEE0E0
:1036D800030AE1E0010AE4E0070AE7E0010AEAE098
:1036E800030AEDE0CE5113E0CFA907D0140EC96F3D
:1036F800040ECA6FD051BEEC1FF0CFAD1AD0140E15
:10370800C96F180ECA6FD051BEEC1FF012D0CFA9E6
:1037180007D0140EC96F040ECA6FD051BEEC1FF04B
:10372800CFAD07D0140EC96F180ECA6FD051BEECBA
:103738001FF0D02B070ED06565D7070CE8CF4EF0E9
:10374800481C4D6E4E50830A02E1906B7CD0830E6C
:103758004E640ED0890E4E600BD048C00CF04E500F
:103768007C0F11EC22F04E507C0F67EC22F069D0F0
:103778004E50920A0DE148504A6E496A52504B6EBB
:103788004C6A4910526E4A504C10536E535059D0DF
:103798004E50930A0BE1496A53504A6E48504910FB
:1037A800526E4A50536E52C04DF04ED0880E4E6441
:1037B80019D0910E4E6016D053C049F049C04AF056
:1037C8004B6A4A2802E1522802E0481C3AD048C015
:1037D8000CF04E50770F78EC21F04E50770F5DECDF
:1037E80022F02FD0CF0E4E6417D0E00E4E6014D0CA
:1037F80053C049F049C04AF04B6A4A28E6E15228CA
:10380800E4E148C00CF04E50300F8BEC21F04E50E4
:10381800300F71EC22F015D04E50A20AD6E1485074
:10382800550A04E1866B876B550E0BD04850AA0ADF
:103838000BE1E80E865D030E875905E2AFEC22F036
:10384800AA0E4D6E01D04D6A4D5012000001806BDA
:10385800816B826B836B8E6B8C6B8B6B8D6B0C6A45
:103868000C50020DF350700FD96EDA6ADE6ADD6A09
:103878000C50020DF350600FD96EDA6ADE6ADD6A09
:103888000C2A070E0C64ECD70C6A4E0E0C24086E3A
:10389800096A000E092284EC22F00A6E0AA02DD0D3
:1038A8000CC00AF0010E0B6E0A2A02D0D8900B3613
:1038B8000A2EFCD70B5000018D13560E0C24086EEF
:1038C800096A000E092284EC22F00B6E0A6A570E70
:1038D8000C24086E096A000E092284EC22F00A26DC
:1038E800000E0B220C50020DF3500001700FD96E20
:1038F800DA6A0AC0DEFF0BC0DDFF530E0C24086E27
:10390800096A000E092284EC22F00A6E0AA420D06B
:10391800700E0C24086E096A000E092284EC22F04D
:103928000B6E0A6A710E0C24086E096A000E0922D1
:1039380084EC22F00A26000E0B220C50020DF350E4
:103948000001600FD96EDA6A0AC0DEFF0BC0DDFF26
:103958000C2A060E0C6499D7060C6BEC20F08BEC45
:1039680020F0000904E1F0EC0EF02AEC1CF0BAECAF
:103978000CF0F4EC1FF00400C50E0001885D090E80
:1039880089590EE395050CE09469B3EC22F0096AB5
:10399800010E086EFF0E0A68DFEC20F0F4EC1FF051
:1039A800996B3CEC21F01CD0942903E1010E956F32
:1039B80023D0030E956FF3EC21F01ED09BEC1DF085
:1039C8001BD099AF19D09C519B11D8B487EC09F042
:1039D80022EC11F011D0B6EC22F00ED0956B0CD081
:1039E80000019551E1E0010AE9E0030AE4E0010A77
:1039F800E8E0070AF0E0F2D7E90E0001805D030E67
:103A08008159000E8259000E83590CE3806B816B3B
:103A1800826B836B8E2B1EEC20F09551030AD8B471
:103A2800A1EC12F03B0E8E650BD08E6B8C2B3B0EEF
:103A38008C6502D08C6B8B2B170E8B6501D08B6B32
:103A4800BAEC22F098D7E8CFCDF0CF6BCFC0CBF04F
:103A5800010ECC6FCB2B02D0D890CC37CB2FFCD714
:103A6800CC5151145FE04E0ECF25086E096A000E46
:103A7800092284EC22F00001CE6FCEAF53D0CDA93D
:103A880010D0D890CF35CB6FCC6BCC37760ECB25FA
:103A9800086E000ECC21096E84EC22F00001A019FA
:103AA80041E1CDA71FD0D890CF35CB6FCC6BCC37A9
:103AB800770ECB25086E000ECC21096E84EC22F01F
:103AC8000001A1192FE10ED08A981AD08A9218D035
:103AD8008A9016D08B9E14D08B9C12D08B9A10D0C3
:103AE8008B980ED0CF51F0E0010AF0E0030AF0E025
:103AF800010AF0E0070AF0E0010AF0E0030AF0E04A
:103B0800CEA907D0140EC96F040ECA6FCF51BEECF0
:103B18001FF0CEAD07D0140EC96F180ECA6FCF5163
:103B2800BEEC1FF0CF2B070ECF6590D7070C51D0F6
:103B3800572811E0810EA76FA86BA96BAA6B020E1C
:103B4800AB6F57C0ADF0C5EC20F0010E0001966FC9
:103B5800546A556A45D0040E956F810EA76FAD69FA
:103B6800070EA86FA96BAA6B030EAB6FC5EC20F00C
:103B780037D099AF0FD09C519B1132E19D51030A68
:103B88002FE1576603D0020E956FE2D7572A966B3E
:103B9800976B26D0E90E545C030E555821E3972BFA
:103BA800020E976514D0576605D0572A966B546A4B
:103BB800556AEED757C094F0030E956F966B9451E3
:103BC80052EC22F00001976BF3EC21F009D0966BD0
:103BD80007D000019651ACE0010ACBE0030AF7E1F7
:103BE8000001996B120041C0B5F0B66BB76BB86BAA
:103BF800B7C0B8F0B6C0B7F0B5C0B6F0B56B3F50B7
:103C0800B96F4050BA6FBB6BBC6BBAC0BCF0B9C0DF
:103C1800BBF0BA6BB96B43C0BDF0BE6BBF6BC06B7A
:103C28001A0ED890BD37BE37BF37C037E82EF9D740
:103C3800B951BD11C16FBA51BE11C26FBB51BF118D
:103C4800C36FBC51C011C46FB551C111C56FB65116
:103C5800C211C66FB751C311C76FB851C411C86F2D
:103C68004250C511476EC651486EC751496EC8517A
:103C78004A6E47C037F048C038F049C039F04AC0EA
:103C88003AF044C03BF045C03CF046C03DF046EC3D
:103C980020F00009000ED8A4010E1200E8CF0BF0A6
:103CA8000A6A0B6606D0096A440E086E84EC22F094
:103CB8004DD00B0406E1096A450E086E84EC22F02B
:103CC80045D0010E0B6434D00A0E0B6031D01ED0E3
:103CD800000E8AB8010E3AD0000E8AB2010E36D014
:103CE800000E8AB0010E32D0000E8BBE010E2ED00F
:103CF800000E8BBC010E2AD0000E8BBA010E26D006
:103D0800000E8BB8010E22D00A6A21D00B50020A8D
:103D1800DFE0010AE1E0070AE3E0010AE5E0030A5F
:103D2800E7E0010AE9E00F0AEBE0010AEDE00FD055
:103D3800090E0B640CD0800E0B6009D0440E0B24C6
:103D4800086E096A000E092284EC22F00A6E0A50F5
:103D58001200E8CF10F0116A11C00DF0010E0E6EBE
:103D68000D2A02D0D8900E360D2EFCD70E500C140A
:103D78003AE010A810D0D89011340D6E0E6A0E36A5
:103D8800760E0D24086E000E0E20096E84EC22F0CB
:103D98000001A01928E110A610D0D89011340D6E9A
:103DA8000E6A0E36770E0D24086E000E0E20096E70
:103DB80084EC22F00001A11916E14E0E1124086EC0
:103DC800096A000E092284EC22F00F6EB3EC22F08F
:103DD8004E0E1124086E096A000E09220F507F0B3F
:103DE8000A6EDFEC20F0112A070E1164B5D7070C14
:103DF800800E46EC22F0090E706EFC0E716E010EFC
:103E0800726E200E736E778E779C606A0F01506B0E
:103E18000E01206B306B406B506B606B706BE00E6B
:103E28000D01F86F0F01006B080E016F026B036B39
:103E3800046BE80E056F1A0E066F076B030E0D0173
:103E4800D46FD56BE06B110EE16FE26FE36BE46B3F
:103E5800E56BE66BE76B540EF06F050EF16FF26BD6
:103E6800F26B0F0E0F01186FE00E196F1A6B1B6BB8
:103E780019870F0E1C6FE00E1D6F1E691F6B1D87C3
:103E8800000E46EF22F0E8CF27F021C01AF022C03A
:103E98001BF0280E11EC21F0000902E1000E2ED0D3
:103EA8001F50D96EDA6A28C0DFFF1E50D96EDA6A51
:103EB80029C0DFFF2A50236E010E2B14246E2750D1
:103EC800D96EDA6A23C0DEFF24C0DDFF2050D96E28
:103ED800DA6A28C023F029C024F02AC025F02BC0B4
:103EE80026F01B0E05D0D8902632253224322332F4
:103EF800E82EF9D72350070BDF6E010E1200E8CF2A
:103F08000BF024D00F0E0D6E600E1ED00F010F0E99
:103F18000D6E500E19D00E010E0E0D6E200E14D01F
:103F28000E010E0E0D6E300E0FD00E010E0E0D6E20
:103F3800400E0AD00E010E0EEBD70E010E0EE3D77F
:103F48000E010E0E0D6E700E0C6E0FD00B50DAE0D7
:103F5800010ADCE0030ADFE0010AE2E0070AE5E023
:103F6800010AE8E0030AE9E0EBD70CC008F00DC04D
:103F780009F01200E8CF50F050C04DF0D8905034FE
:103F88004B6E4C6A4C36760E4B24086E000E4C2055
:103F9800096E84EC22F04E6ED89050344B6E4C6A09
:103FA8004C36770E4B24086E000E4C20096E84ECBC
:103FB80022F04F6E0001C9C03FF0406ACAC041F00C
:103FC80094C042F0030E436E446E4D0E456E000ED3
:103FD800466E0F0E466E5F0E4564466AF7EF1DF09B
:103FE8000001886B896B010E566EAAEC22F0000165
:103FF800946F946701D09469942902E1020E566E79
:10400800996B9A6B9B6B9C6B9D6BA76BA86BA96B51
:10401800AA6BAB6B906B8F6B576A956B966B976BB4
:10402800526A536A546A556A866B876B986B936BAE
:10403800926B1200982B3B0E98650DD0986B932BC2
:104048009551030A08E196EC22F00001C96F9BEC38
:1040580022F065EC21F03B0E0001936502D0936BD2
:10406800922B170E926501D0926B9551030A09E1C4
:10407800912B91C04DF00F0E4D16020E4D5CD8B02D
:10408800916B12003E6A846B856B17D037C012F0B3
:1040980038C013F039C014F03AC015F03CC016F01F
:1040A8003DC017F03BC018F0200E196E4AEC18F00E
:1040B800000903E0010E3E6E06D0E80E0001845DA3
:1040C800030E8559E3E30001A76B3E5012002AEC6A
:1040D8001CF0100E926E806A080E936E816A010EB3
:1040E800946E826A920E02EC22F0FB0E096E1D0E8F
:1040F800086E7BEC22F08A988A928A908B9E8B9C21
:104108008B9A8B98FCEC1EF0F28CF28E1200000E4B
:10411800E3EC21F0550A07E1010EE3EC21F0AA0ACD
:1041280002E1010E12D0020E566EB8EC22F0FF0E1C
:1041380052EC22F0550E0C6E000E9EEC21F0AA0EE9
:104148000C6E010E9EEC21F0000E120099510F0B1F
:10415800020A16E1945120EE9FF0DF6211D0A0C050
:1041680094F0945152EC22F0810E0001A76FA86BD5
:10417800A96BAA6B070EAB6F94C0ADF0C5EC20F02D
:104188001200A9C03FF0AAC040F0ABC041F094C0F3
:1041980042F0A8C043F0A7510F0B446E000E466EC4
:1041A800AD0E456EF7EC1DF04B6E4B6602D000016C
:1041B800902B4B50120008C0A9FF0AC0A8FFA69E6A
:1041C800A69CA684000EF2BE010E0B6EF29E550E42
:1041D800A76EAA0EA76EA682A6B2FED70BB002D013
:1041E800F29E01D0F28EA694120099510F0B0D6E1B
:1041F8000D5012E0945120EE9FF0DF620DD00D04B7
:1042080005E0010E0D6408D0A06706D09469FF0E82
:1042180052EC22F0F4EC1FF01200E8CF1CF099AF3A
:1042280002D0000E0FD01BC00FF01AC010F01D0EE8
:10423800116E1C5067EC15F00009F3E01DAC1DAAC7
:10424800F0D7010E120099C04CF00F0E4C164C041A
:104258000EE1945120EE9FF0DF6209D0800EA76F27
:10426800A86BA96BAA6B030EAB6FC5EC20F012000C
:1042780099BF12D09D0E1E6E9E0E1F6E9A0E206E56
:10428800990E216E9F0E226E9B0E47EC1FF02C6E2E
:104298002C5002E00001998F1200E8CF09F0080EB7
:1042A8000A6E0B6AD89009340B340B6ED890093615
:1042B80008500B5C02E308500B5E0A2EF3D70B5034
:1042C8001200E8CF4CF0830E0001A76F070EA86F0D
:1042D800AA6B140EA96F090EAB6FAD6B4CC0AEF094
:1042E800C9C0AFF0C5EF20F0E8CF0DF0070E0D64A0
:1042F80001D00CD0B3EC22F00C0E0D24086E096A24
:10430800000E09220CC00AF0DFEC20F01200E8CF02
:104318000DF00F0E0D6401D00CD0B3EC22F0140E8A
:104328000D24086E096A000E09220CC00AF0DFECA1
:1043380020F01200E8CF0DF0010E0D6401D00CD072
:10434800B3EC22F0030E0D24086E096A000E092250
:104358000CC00AF0DFEC20F0120000EE60F0550E01
:10436800EE6AE806FDE100EE52F0070EEE6AE80696
:10437800FDE1000EF86E0001B1EF1CF0E8CFD4F0BB
:104388007F0ED46506D0D3C048F0D451A2EC1BF000
:1043980005D0D3C051F0D45172EC04F01200070ECE
:1043A800AD6F480EAE6F020E086E0850AD0FD96E95
:1043B800DA6ADF6A082A070E0864F7D7070CE8CF1D
:1043C8000AF0010E0A6402D0000E08D0030E0A2477
:1043D800086E096A000E092284EC22F01200810E90
:1043E8000001A76FA86BA96BAA6B020EAB6F94C0F4
:1043F800ADF0C5EC20F0010E566E010CE8CF08F0C8
:1044080008507F0BD56ED76AD66AF29408AE02D0F0
:10441800F28A01D0F29AD58E1200E8CF0DF0B3ECF3
:1044280022F0070E0D24086E096A000E09220CC03E
:104438000AF0DFEF20F0E8CF0CF00C0409E1B3EC50
:1044480022F0096A086AFF0E0A68DFEC20F0FF0014
:104458001200E8CF1DF07F0E1D6404D01D5072ECD1
:1044680017F003D01D5052EC1EF01200E8CF09F0EF
:104478000950C20F086E08C0F6FF080EF76E080054
:10448800F5501200E8CF08F01F0E6F1608506F1293
:104498006F50E00B0818D8B41200FAD7E8CF0CF028
:1044A800B3EC22F0096A010E086E0CC00AF0DFEFC7
:1044B80020F0E8CF0AF00C0E0A24086E096A000EF4
:1044C800092284EF22F0E8CF0AF0070E0A24086ECA
:1044D800096A000E092284EF22F0E8CF0AF0140ED0
:1044E8000A24086E096A000E092284EF22F008C027
:1044F8000AF009C00BF00BC0D7FF0AC0D6FF1200A4
:1045080008C0A9FFA69CA69EA68000F000F0A850AF
:10451800120001C003F002C004F004C0D7FF03C0BA
:10452800D6FF1200096A450E086E84EF22F0096A68
:10453800440E086E84EF22F0086A096A0A6A0B6A58
:104548001200086A096A0A6A0B6A1200096A010EEF
:10455800086E84EF22F0F0EC0EF02AEF1CF0A6A211
:104568001200FDD7566A1200F0EF0EF01200010C8F
:0C457800080C010C060C010C010C1200D8
:020000040020DA
:08000000FFFFFFFFFFFFFFFF00
:020000040030CA
:0E000000FF06050FFF8295FF0F800FE00F40F7
:00000001FF
