:0400000059EF00F0C4
:10001800D8CF05F0E8CF06F0E0CF07F0F2A401D082
:1000280001D03CD0FB0E026E1D0E016E8FEC1FF04E
:100038000001864B872B010E8027000E8123000EBE
:100048008223000E832382A001D001D002D08F6BBF
:1000580001D08F2B582A5650020AD8A401D001D0BB
:100068000ED0640E586401D001D009D082A201D00C
:1000780001D002D0829201D08282586A0ED05604F2
:10008800D8A401D001D003D08282586A06D056661F
:1000980001D001D002D08292586AF29407C0E0FFE2
:0E00A80006C0E8FF05C0D8FF1000A1EF1EF053
:100600007777772E6575726F736F757263652E736A
:10061000652F70617269735F3031302E786D6C00B8
:100620000000E8CFCEF0CA6BCC6B511CCD6FCE670B
:100630000ED0096A430E086E51C00AF06AEC1EF033
:10064000096A430E086E86EC1FF0ADEF07F0CE0589
:100650000EE1096A440E086E51C00AF06AEC1EF001
:10066000096A440E086E86EC1FF0ADEF07F0010E2C
:10067000CE6582D10A0ECE617FD14B0ECE25086E9B
:10068000096A000E092286EC1FF00001C76FC7BF80
:100690005ED1AFEF07F0010ECA6F510428E18A88DE
:1006A000000E8AB8010ECD6F010ECC6F096A4D0E97
:1006B000086E86EC1FF00001C76FC7A5AFEF07F00B
:1006C000096A660E086E86EC1FF00001C76F096AA2
:1006D000650E086E86EC1FF00001C96FC86BC7512C
:1006E000C825606F000EC921616FAFEF07F051663A
:1006F000AFEF07F08A98000E8AB8010ECD6FCC6B71
:10070000AFEF07F0010ECA6F51041EE18A82000E9E
:100710008AB2010ECD6F010ECC6F096A4E0E086EC3
:1007200086EC1FF00001C76FC7A5AFEF07F0096A9D
:10073000680E086E86EC1FF00001C76F096A670E2D
:10074000086E86EC1FF08ED15166AFEF07F08A92EB
:10075000000E8AB2010ECD6FD2D7010ECA6F5104BE
:1007600026E18A80000E8AB0010ECD6F010ECC6F9B
:10077000096A4F0E086E86EC1FF00001C76FC7A50F
:10078000EED3096A6A0E086E86EC1FF00001C76F8F
:10079000096A690E086E86EC1FF00001C96FC86B0C
:1007A000C751C825646F000EC921656FD8D3516643
:1007B000D6D38A90000E8AB0010ECD6FA0D7010E5D
:1007C000CA6F510426E18B8E000E8BBE010ECD6FD9
:1007D000010ECC6F096A500E086E86EC1FF0000106
:1007E000C76FC7A5BCD3096A6C0E086E86EC1FF0F4
:1007F0000001C76F096A6B0E086E86EC1FF00001DE
:10080000C96FC86BC751C825666F000EC921676FD5
:10081000A6D35166A4D38B9E000E8BBE010ECD6F66
:100820006ED7010ECA6F510426E18B8C000E8BBC73
:10083000010ECD6F010ECC6F096A510E086E86EC69
:100840001FF00001C76FC7A58AD3096A6E0E086E34
:1008500086EC1FF00001C76F096A6D0E086E86EC0A
:100860001FF00001C96FC86BC751C825686F000E23
:10087000C921696F74D3516672D38B9C000E8BBCF7
:10088000010ECD6F3CD7010ECA6F510426E18B8A51
:10089000000E8BBA010ECD6F010ECC6F096A520E9D
:1008A000086E86EC1FF00001C76FC7A558D3096A10
:1008B000700E086E86EC1FF00001C76F096A6F0E9C
:1008C000086E86EC1FF00001C96FC86BC751C825C0
:1008D0006A6F000EC9216B6F42D3516640D38B9A69
:1008E000000E8BBA010ECD6F0AD7010ECA6F5104EC
:1008F00026E18B88000E8BB8010ECD6F010ECC6FF8
:10090000096A530E086E86EC1FF00001C76FC7A579
:1009100026D3096A720E086E86EC1FF00001C76FBD
:10092000096A710E086E86EC1FF00001C96FC86B72
:10093000C751C8256C6F000EC9216D6F10D3516669
:100940000ED38B98000E8BB8010ECD6FD8D6CE513A
:10095000020A01E1A0D6010A01E1D4D6070A01E1A9
:10096000FCD6010A01E12BD7030A01E15AD7010A9B
:100970008AE00F0ABAE0F3D2090ECE658CD1120ECE
:10098000CE6189D173D1430ECE25086E096A000E5F
:10099000092251C00AF06AEC1EF0430E0001CE2578
:1009A000086E096A000E092286EC1FF00001CD6F67
:1009B00051A018D08A98CC6B8A81096A560E086EAD
:1009C00086EC1FF00001C76F096A550E086E86ECB1
:1009D0001FF00001C96FC86BC751C825706F000EAA
:1009E000C921716F51B46CD6BAD2430ECE25086EB0
:1009F000096A000E092251C00AF06AEC1EF0430E8B
:100A00000001CE25086E096A000E092286EC1FF04F
:100A10000001CD6F51A018D08A92CC6B8A83096AED
:100A2000560E086E86EC1FF00001C76F096A550E5E
:100A3000086E86EC1FF00001C96FC86BC751C8254E
:100A4000726F000EC921736F51A489D2096A660EB4
:100A5000086E86EC1FF00001C76F096A650E086E0C
:100A600086EC1FF00001C96FC86BC751C825626FC3
:100A7000000EC921636F73D2430ECE25086E096A3A
:100A8000000E092251C00AF06AEC1EF0430E00016C
:100A9000CE25086E096A000E092286EC1FF00001BF
:100AA000CD6F51A018D08A90CC6B8A85096A5A0EF6
:100AB000086E86EC1FF00001C76F096A590E086EB8
:100AC00086EC1FF00001C96FC86BC751C825746F51
:100AD000000EC921756F51B454D641D2430ECE25B4
:100AE000086E096A000E092251C00AF06AEC1EF075
:100AF000430E0001CE25086E096A000E092286EC1D
:100B00001FF00001CD6F51A018D08B9ECC6B8A874F
:100B1000096A5C0E086E86EC1FF00001C76F096A57
:100B20005B0E086E86EC1FF00001C96FC86BC751E1
:100B3000C825766F000EC921776F51B454D60FD2F5
:100B4000430ECE25086E096A000E092251C00AF034
:100B50006AEC1EF0430E0001CE25086E096A000EF5
:100B6000092286EC1FF00001CD6F51A018D08B9C9C
:100B7000CC6B8A89096A5E0E086E86EC1FF0000154
:100B8000C76F096A5D0E086E86EC1FF00001C96F21
:100B9000C86BC751C825786F000EC921796F51B451
:100BA00054D6DDD1430ECE25086E096A000E092207
:100BB00051C00AF06AEC1EF0430E0001CE25086E0B
:100BC000096A000E092286EC1FF00001CD6F51A0CA
:100BD00018D08B9ACC6B8A8B096A600E086E86ECF3
:100BE0001FF00001C76F096A5F0E086E86EC1FF0E8
:100BF0000001C96FC86BC751C8257A6F000EC921A3
:100C00007B6F51B454D6ABD1430ECE25086E096A22
:100C1000000E092251C00AF06AEC1EF0430E0001DA
:100C2000CE25086E096A000E092286EC1FF000012D
:100C3000CD6F51A018D08B98CC6B8A8D096A620E4B
:100C4000086E86EC1FF00001C76F096A610E086E1E
:100C500086EC1FF00001C96FC86BC751C8257C6FB7
:100C6000000EC9217D6F51B454D679D1CE510A0AF4
:100C700001E189D6010A01E1B8D6070A01E1FCD6F3
:100C8000010A01E12BD7030A01E15AD7010A8AE0E0
:100C90001F0ABAE064D1110ECE65DED0220ECE61FD
:100CA000DBD0430ECE25086E096A000E092251C022
:100CB0000AF06AEC1EF0430E0001CE25086E096AA8
:100CC000000E092286EC1FF00001CD6FB0D0096A3A
:100CD000560E086E86EC1FF00001C76F096A550EAC
:100CE000086E86EC1FF00001C96FC86BC751C8259C
:100CF000706F000EC921716F32D1096A580E086EEB
:100D000086EC1FF00001C76F096A570E086E86EC6B
:100D10001FF00001C96FC86BC751C825726F000E64
:100D2000C921736F1CD1096A5A0E086E86EC1FF038
:100D30000001C76F096A590E086E86EC1FF00001AA
:100D4000C96FC86BC751C825746F000EC921756F74
:100D500006D1096A5C0E086E86EC1FF00001C76FB1
:100D6000096A5B0E086E86EC1FF00001C96FC86B44
:100D7000C751C825766F000EC921776FF0D0096A78
:100D80005E0E086E86EC1FF00001C76F096A5D0EEB
:100D9000086E86EC1FF00001C96FC86BC751C825EB
:100DA000786F000EC921796FDAD0096A600E086E7B
:100DB00086EC1FF00001C76F096A5F0E086E86ECB3
:100DC0001FF00001C96FC86BC751C8257A6F000EAC
:100DD000C9217B6FC4D0096A620E086E86EC1FF0D1
:100DE0000001C76F096A610E086E86EC1FF00001F2
:100DF000C96FC86BC751C8257C6F000EC9217D6FB4
:100E0000AED0096A640E086E86EC1FF00001C76F51
:100E1000096A630E086E86EC1FF00001C96FC86B8B
:100E2000C751C8257E6F000EC9217F6F98D0CE5163
:100E3000130A01E14CD7060A01E15FD7020A01E17A
:100E400072D70E0A86E0020A9AE0060AAEE0020AAB
:100E5000C2E03E0AD6E083D0210ECE6549D0320EE4
:100E6000CE6146D0430ECE25086E096A000E0922D7
:100E700051C00AF06AEC1EF0430E0001CE25086E48
:100E8000096A000E092286EC1FF00001CD6F16D012
:100E9000096A740E086E86EC1FF00001C76F096ABC
:100EA000730E086E86EC1FF00001C96FC86BC75146
:100EB000C8256E6F000EC9216F6F51D0CE51230A25
:100EC00002E160EF03F0060A01E131D4020A01E118
:100ED00058D40E0A01E187D4020A01E1B6D4060A09
:100EE00001E1E5D4020A01E114D51E0AD1E037D0B0
:100EF000310ECE6517D0420ECE6114D0430ECE25F2
:100F0000086E096A000E092251C00AF06AEC1EF050
:100F1000430E0001CE25086E096A000E092286ECF8
:100F20001FF01BD0470ECE651AD0800ECE6117D0B1
:100F3000430ECE25086E096A000E092251C00AF040
:100F40006AEC1EF003EC0BF0430E0001CE25086E98
:100F5000096A000E092286EC1FF00001CD6FCA510C
:100F600035E04B0ECE25086E096A000E092286EC8C
:100F70001FF00001CB6FCC5115E0CBA708D0140EA9
:100F8000C56F030EC66FCE51FE0FFBEC1CF0CBAB52
:100F90001DD0140EC56F190EC66FCE51FE0FFBEC9F
:100FA0001CF014D0CBA908D0140EC56F040EC66F68
:100FB000CE51FE0FFBEC1CF0CBAD08D0140EC56F6C
:100FC000180EC66FCE51FE0FFBEC1CF0CD51120077
:100FD0009951981101E1E5D215D39AEC1DF012D385
:100FE00006EC1EF00FD37DEC1EF00CD3D8EC1DF0F8
:100FF00009D396510F0B020A01E004D3915120EE60
:101000009CF0DF62FFD2800E9D6112D09D51A8EC52
:101010001BF00001AA6F9DC0A9F0030EA56F820E00
:10102000A46FA66BA76B0A0EA86F57EC1EF0EAD24E
:101030009D51B1EC19F0EDD796510F0B030A01E069
:10104000E1D2915120EE9CF0DF62DCD2800E9D61F6
:1010500006D09EC051F09D5111EC03F0DBD79EC02D
:101060000FF09D5121EC15F0D4D7915120EE9CF05A
:10107000DF6205D09D51090AD8B498EC1FF0000139
:10108000915120EE9CF0DF62BDD29D0501E0BAD205
:10109000000E58EC1FF000019E1901E0B3D2030EC0
:1010A00058EC1FF000019F1901E0ACD2050E58EC7E
:1010B0001FF00001A01901E0A5D2070E58EC1FF0A7
:1010C0000001A11901E09ED25350A21901E09AD269
:1010D000525020EEA3F0DF6295D298EC1FF092D22E
:1010E000000E58EC1FF000019D1973E1010E58EC41
:1010F0001FF000019E196DE1020E58EC1FF0000177
:101100009F1967E1030E58EC1FF00001A01961E17F
:101110008D895FD0040E58EC1FF000019D1959E134
:10112000050E58EC1FF000019E1953E1060E58EC15
:101130001FF000019F194DE1070E58EC1FF0000150
:10114000A01947E18D8B45D0080E58EC1FF0000127
:101150009D193FE1090E58EC1FF000019E1939E17D
:101160000A0E58EC1FF000019F1933E10B0E58ECEA
:101170001FF00001A0192DE18D8D2BD00C0E58EC25
:101180001FF000019D1925E10D0E58EC1FF0000124
:101190009E191FE10E0E58EC1FF000019F1919E176
:1011A0000F0E58EC1FF00001A01913E18D8F11D024
:1011B0008D6B0FD09C390F0BD16FD26BD251F8E1F0
:1011C000D1518EE0010AA6E0030ABEE0010AD6E092
:1011D000EFD78D51F00BF00A01E014D258EC1DF05E
:1011E00011D2915120EE9CF0DF620CD2DD6B9DC0DC
:1011F000DCF09EC0DFF0EA6B47D0070E086EEA51C4
:1012000030EC1EF00001D16FD151AA0FD96EDA6A0D
:10121000DC51EA2513EC1FF0DF6E070E086E0001AB
:10122000EA5130EC1EF0060A0BE0FF0E0001DF254C
:10123000D16FD26BFF0ED223EA51D119D21123E123
:10124000070E086E0001EA5130EC1EF0060A03E1B9
:10125000070E000109D0070E086E0001EA5130ECBC
:101260001EF00001D16FD129DE6FDE51810FA46F16
:10127000030EA56FA66BA76B1A0EA86FDDC0A9F0B1
:1012800057EC1EF0DD2BEA2BDF51EA5D01E3BAD10A
:10129000B4D7915120EE9CF0DF62B4D19DC0E0F054
:1012A0009651FE0F070BE16FE76B16D0E7519E0FCB
:1012B000D96EDA6ADF50CF6FE051E725B2EC1EF04D
:1012C0000001E751AA0FD96EDA6AE051E72513EC65
:1012D0001FF0DF6E0001E72BE151E75DE7E3030E4E
:1012E000A56FA66BA76B1A0EA86FA96BE151810FB2
:1012F000A46F9BD6915120EE9CF0DF6283D19D516B
:10130000A8EC1BF00001D16FD129516E9D5111EC59
:1013100003F080D6915120EE9CF0DF6273D19D5195
:10132000A8EC1BF00001D16FD105516E9D5111EC5D
:1013300003F070D69C51911903E09C2901E062D121
:10134000E56B030EA56F880EA46FA66BA76B200E2E
:10135000A86FE96BE9C0A9F0010EEB6FEB51A90F83
:10136000D96EDA6AE5510F0858EC1FF0DF6E000104
:10137000E52B100EE56501D004D0EB2B070EEB65D5
:10138000EDD7100EE56501D006D057EC1EF0E92B25
:10139000020EE965DFD7EB6BEB512CEC1FF0000977
:1013A00008E0EB51AC0FD96EDA6AEB512CEC1FF070
:1013B00005D0EB51AC0FD96EDA6A000EDF6EEB2B65
:1013C000040EEB65E9D757EC1EF0050EE56F030E32
:1013D000E96FE9C0A9F0010EEB6FEB51A90FD96ECF
:1013E000DA6AE5512CEC1FF0DF6EE52BEB2B070ED4
:1013F000EB65F3D757EC1EF0E92B060EE965E9D74C
:1014000001D1915120EE9CF0DF62FCD0030EA56F5C
:10141000870EA46FA66BA76B220EA86FA90EE5EC32
:101420001EF003D6915120EE9CF0DF62EBD0E86B0A
:1014300096C0D1F00F0ED117040ED15D04E3A0C009
:10144000E6F0E66702D0010EE66F52C0D8F053C056
:10145000D9F09E519DC0D1F0D26BD1C0D2F0D16BEA
:10146000D111526ED251536E030EA56FA66BA76BAE
:10147000270EA86FA96B9DC0AAF09EC0ABF0E851E3
:10148000E6C0D1F0D26BD15F000ED25BD251800AA0
:10149000800F040ED8B4D15D02E3040E02D0E851EF
:1014A000E65DE26FE251840FA46F9F51E825AC6FB7
:1014B000E36B0CD0E351AD0FD96EDA6A9F51E8258A
:1014C000E32513EC1FF0DF6E0001E32BE251E35D37
:1014D000F1E357EC1EF0E251E827A92BE651E85D55
:1014E000CEE3D8C052F0D9C053F08CD0915120EE49
:1014F0009CF0DF6287D052C0DAF053C0DBF09E511F
:101500009DC0D1F0D26BD1C0D2F0D16BD111526E4F
:10151000D251536E9FC0E4F014D09F51A008E4252F
:10152000D96EDA6ADF50CF6FE451B2EC1EF00001E1
:10153000D16F9F51AD08E425D96EDA6AD1C0DFFFC3
:10154000E42B96510F0BD16FD26B9F51D127000E18
:10155000D223FC0ED125D36FFF0ED221D46FE451DC
:10156000D56FD66BD651800AD76FD351D55DD45184
:10157000800AD759D2E3DAC052F0DBC053F0030E31
:10158000A56F96510F0B800FA46FA66BA76B270E4C
:10159000A86FA96B9DC0AAF09EC0ABF09FC0ACF035
:1015A00044D59A51010A01E118D5030A01E118D581
:1015B000040A01E118D50E0A01E118D5010A01E17A
:1015C00018D5020A01E138D5070A01E14ED51B0AF8
:1015D00001E1F0D50F0A01E104D6010A01E159D673
:1015E000040A01E187D6030A01E194D6010A01E168
:1015F000A1D63E0A01E105D7040A01E113D7030A87
:1016000001E174D7120036683768386839683A6A79
:101610003B6A3C6A3D6A436A4350126E136AD89033
:1016200012361336D89012361336D8901236133637
:10163000440E1224086E000E1320096E86EC1FF073
:10164000146E14AEE8D14350126E136AD89012365D
:101650001336D89012361336D89012361336470EFA
:101660001224086E000E1320096E86EC1FF0146E13
:1016700014C015F0166A176A186A17C018F016C059
:1016800017F015C016F0156A4350196E1A6AD890F3
:1016900019361A36D89019361A36D89019361A369D
:1016A000450E1924086E000E1A20096E86EC1FF0F4
:1016B0001B6E1BC01CF01D6A1E6A1F6A1DC01FF036
:1016C0001CC01EF01D6A1C6A4350206E216AD8900F
:1016D00020362136D89020362136D8902036213633
:1016E000440E2024086E000E2120096E86EC1FF0A7
:1016F000226E020E221622C023F0246A256A266A70
:10170000170ED8902336243625362636E82EF9D7FC
:101710001C502310276E1D502410286E1E502510BB
:10172000296E1F5026102A6E155027102B6E16504A
:1017300028102C6E175029102D6E18502A102E6E5E
:10174000FF0E2B10316E2C50326E2D50336E2E50FA
:10175000346E4350126E136AD89012361336D890F6
:1017600012361336D89012361336480E1224086EED
:10177000000E1320096E86EC1FF0146E14C015F0D5
:10178000166A176A186A17C018F016C017F015C045
:1017900016F0156A4350196E1A6AD89019361A361F
:1017A000D89019361A36D89019361A36460E19249A
:1017B000086E000E1A20096E86EC1FF01B6E1BC00F
:1017C0001CF01D6A1E6A1F6A1DC01FF01CC01EF09F
:1017D0001D6A1C6A4350206E216AD890203621363B
:1017E000D89020362136D89020362136440E202439
:1017F000086E000E2120096E86EC1FF0226E010E8D
:10180000221622C023F0246A256A266A23C026F005
:10181000256A246A236A1C502310276E1D50241049
:10182000286E1E502510296E1F5026102A6E155046
:1018300027102B6E165028102C6E175029102D6E65
:1018400018502A102E6E43502F6E306AD8902F36C3
:101850003036D8902F363036D8902F363036430E6B
:101860002F24086E000E3020096E86EC1FF02B101E
:101870003E6E2C503F6E2D50406E2E50416E436692
:1018800008D03EC03AF03FC03BF040C03CF041C001
:101890003DF031503616325037163350381634502A
:1018A0003916426A42503EC012F03FC013F040C0A9
:1018B00014F041C015F0E82A05D0D8901532143242
:1018C00013321232E82EF9D7010E121642503AC0E6
:1018D00016F03BC017F03CC018F03DC019F0E82AE4
:1018E00005D0D8901932183217321632E82EF9D7AF
:1018F0001650010B12181DE042C012F0010E136EBB
:10190000146A122A03D0D89013361436122EFBD73D
:10191000131C156E141C166E176A16BE1706175088
:10192000186E1550361616503716175038161850B0
:101930003916422A1F0E4264B5D73E503A163F5020
:101940003B1640503C1641503D1643504FE0426A12
:1019500043C012F04350136E146AD89013361436F5
:10196000D89013361436D89013361436430E1324F9
:10197000086E000E1420096E86EC1FF0156E122AF8
:1019800002D0D8901532122EFCD7010E151643C086
:1019900016F035C017F0162A02D0D8901732162E3E
:1019A000FCD71750010B15181DE043C012F0010EB3
:1019B000136E146A122A03D0D89013361436122EDE
:1019C000FBD713C015F014C016F0000E16BEFF0EA4
:1019D000176E186E155036161650371617503816E3
:1019E00018503916422A070E4264B2D74350126E7D
:1019F000136AD89012361336D89012361336D89010
:101A000012361336430E1224086E000E1320096E90
:101A100086EC1FF0356E432A060E4364FDD5800E1A
:101A200038EC1FF00F010F0E096E1C0E086E36C049
:101A30000AF037C00BF038C00CF039C00DF0010EC1
:101A40000E6E6CEC17F00D01D4830F010F0E096EB2
:101A5000040E086E3AC00AF03BC00BF03CC00CF01C
:101A60003DC00DF0010E0E6E6CEC17F0000E38EF5D
:101A70001FF0096A430E086E000E0A6A6AEC1EF037
:101A8000096A440E086E000E0A6A6AEC1EF0096AC2
:101A90004D0E086E980E0A6E6AEC1EF0096A4E0E24
:101AA000086E980E0A6E6AEC1EF0096A4F0E086EF8
:101AB000980E0A6E6AEC1EF0096A500E086E980EB7
:101AC0000A6E6AEC1EF0096A510E086E980E0A6ED4
:101AD0006AEC1EF0096A520E086E980E0A6E6AECE5
:101AE0001EF0096A530E086E980E0A6E6AEC1EF01C
:101AF000096A540E086E980E0A6E6AEC1EF0096AA6
:101B0000550E086E000E0A6A6AEC1EF0096A560E3F
:101B1000086E000E0A6A6AEC1EF0096A570E086E1B
:101B2000000E0A6A6AEC1EF0096A580E086E000E72
:101B30000A6A6AEC1EF0096A590E086E000E0A6AFB
:101B40006AEC1EF0096A5A0E086E000E0A6A6AEC08
:101B50001EF0096A5B0E086E000E0A6A6AEC1EF03F
:101B6000096A5C0E086E000E0A6A6AEC1EF0096AC9
:101B70005D0E086E000E0A6A6AEC1EF0096A5E0EBF
:101B8000086E000E0A6A6AEC1EF0096A5F0E086EA3
:101B9000000E0A6A6AEC1EF0096A600E086E000EFA
:101BA0000A6A6AEC1EF0096A610E086E000E0A6A83
:101BB0006AEC1EF0096A620E086E000E0A6A6AEC90
:101BC0001EF0096A630E086E000E0A6A6AEC1EF0C7
:101BD000096A640E086E000E0A6A6AEC1EF0096A51
:101BE000650E086E000E0A6A6AEC1EF0096A660E3F
:101BF000086E000E0A6A6AEC1EF0096A670E086E2B
:101C0000000E0A6A6AEC1EF0096A680E086E000E81
:101C10000A6A6AEC1EF0096A690E086E000E0A6A0A
:101C20006AEC1EF0096A6A0E086E000E0A6A6AEC17
:101C30001EF0096A6B0E086E000E0A6A6AEC1EF04E
:101C4000096A6C0E086E000E0A6A6AEC1EF0096AD8
:101C50006D0E086E000E0A6A6AEC1EF0096A6E0EBE
:101C6000086E000E0A6A6AEC1EF0096A6F0E086EB2
:101C7000000E0A6A6AEC1EF0096A700E086E000E09
:101C80000A6A6AEC1EF0096A710E086E000E0A6A92
:101C90006AEC1EF0096A720E086E000E0A6A6AEC9F
:101CA0001EF0096A730E086E000E0A6A6AEC1EF0D6
:101CB000096A740E086E000E0A6A6AEC1EF0096A60
:101CC000750E086E000E0A6A6AEC1EF0096A760E3E
:101CD000086E000E0A6A6AEC1EF0096A770E086E3A
:101CE000000E0A6A6AEC1EF0096A780E086E000E91
:101CF0000A6A6AEC1EF0096A790E086E000E0A6A1A
:101D00006AEC1EF0096A7A0E086E000E0A6A6AEC26
:101D10001EF0096A7B0E086E000E0A6A6AEC1EF05D
:101D2000096A7C0E086E000E0A6A6AEC1EF0096AE7
:101D30007D0E086E000E0A6A6AEC1EF0096A7E0EBD
:101D4000086E000E0A6A6AEC1EF0096A7F0E086EC1
:101D5000000E0A6A6AEC1EF0096A800E086E000E18
:101D60000A6A6AEC1EF0096A810E086E000E0A6AA1
:101D70006AEC1EF0096A820E086E000E0A6A6AECAE
:101D80001EF0096A830E086E000E0A6A6AEC1EF0E5
:101D9000096A840E086E000E0A6A6AEC1EF00D6A6B
:101DA0000E6A0E500DC00BF00C6AD8900B360C3634
:101DB000D8900B360C36D8900B360C360B26000E0E
:101DC0000C228B0E0B24086E000E0C20096E000EE8
:101DD0000A6A6AEC1EF00E2A070E0E64E2D70D2A7C
:101DE000060E0D64DDD7060C00019951981101E132
:101DF0008AD18A88DD6BDD51CD6FCE6BD890CD371F
:101E0000CE37D890CD37CE37D890CD37CE378C0E51
:101E1000CD25086E000ECE21096E86EC1FF0000164
:101E2000DC6FDCAF6BD18A82DCAD18D0DD51CD6FB9
:101E3000CE6BD890CD37CE37D890CD37CE37D8901F
:101E4000CD37CE378B0ECD25086E000ECE21096E14
:101E500086EC1FF000019B1901E050D18A80DCA9BB
:101E60000BD09D2909E0096A430E086E86EC1FF02D
:101E700000019D1901E042D18B8EDD51080D8E0EBF
:101E8000F324086E000EF420096E86EC1FF00001AA
:101E9000CD6FDC51010BCF6FCE6BCD51CE25D06F06
:101EA000000ECF21D16FDD51080D8D0EF324086E89
:101EB000000EF420096E86EC1FF00001CD6FDC519E
:101EC000020BCF6FCE6BCD51CE25D26F000ECF213E
:101ED000D36FDD51CD6FCE6BD890CD37CE37D89044
:101EE000CD37CE37D890CD37CE37900ECD25086E72
:101EF000000ECE21096E86EC1FF00001D46FDD517B
:101F0000CD6FCE6BD890CD37CE37D890CD37CE377A
:101F1000D890CD37CE378F0ECD25086E000ECE214E
:101F2000096E86EC1FF00001D56F20EE98F0DECF31
:101F3000CDF0DDCFCEF0D051CD1BD151CE1BD25143
:101F4000CD17D351CE17CE51CD1101E0D7D09A5134
:101F5000D419D51501E1AFD0D1D00001DD51CD6F3D
:101F6000CE6BD890CD37CE37D890CD37CE37D890EE
:101F7000CD37CE37920ECD25086E000ECE21096EDC
:101F800086EC1FF00001D66FD6C051F0DC51FDEC9D
:101F900011F0B4D00001DD51CD6FCE6BD890CD37AC
:101FA000CE37D890CD37CE37D890CD37CE37920EAA
:101FB000CD25086E000ECE21096E86EC1FF00001C3
:101FC000D76FD7C051F0DC5193EC1AF097D00001D5
:101FD000DD51CD6FCE6BD890CD37CE37D890CD3781
:101FE000CE37D890CD37CE37920ECD25086E000E65
:101FF000CE21096E86EC1FF00001D86FD8C00BF01F
:10200000DC5139EC14F07AD00001DD51CD6FCE6B8C
:10201000D890CD37CE37D890CD37CE37D890CD3772
:10202000CE37920ECD25086E000ECE21096E86ECBD
:102030001FF00001D96FD9C051F0DC512BEC19F021
:102040005DD00001DD51CD6FCE6BD890CD37CE374E
:10205000D890CD37CE37D890CD37CE37920ECD250C
:10206000086E000ECE21096E86EC1FF00001DA6FBB
:10207000DAC00BF0DC51C5EC1CF040D00001DD51A2
:10208000CD6FCE6BD890CD37CE37D890CD37CE37F9
:10209000D890CD37CE37920ECD25086E000ECE21CA
:1020A000096E86EC1FF00001DB6FDBC051F0DC51E4
:1020B00014EC18F023D0DD51CD6FCE6BD890CD3716
:1020C000CE37D890CD37CE37D890CD37CE37910E8A
:1020D000CD25086E000ECE21096E86EC1FF0010A98
:1020E00001E13BD7030A01E155D7010A01E16FD7AE
:1020F000070AC4E00E0A88E01A0AA3E00001DD2BFB
:10210000060EDD6578D61200CF6BD16B070ED16558
:1021100001D072D14D0ED125086E096A000E092238
:1021200086EC1FF00001D06FD0AF64D1D151020D09
:10213000F350600FD96EDA6ADE50DD1037E0D1510E
:10214000020DF350600FD96EDA6ADE06000EDD5A1A
:10215000D151020DF350600FD96EDA6ADE50DD10F6
:1021600046E14D0ED125086E096A000E092286EC63
:102170001FF00001CC6FCCA53AD0D1C0CCF0010E3D
:10218000CD6FCC2B02D0D890CD37CC2FFCD7CD51F2
:10219000516E000E93EC1AF0D0A329D0010EC56F3A
:1021A000020EC66FD151FBEC1CF021D0650ED1257B
:1021B000086E096A000E092286EC1FF00001CD6F3F
:1021C000CC6B660ED125086E096A000E092286ECDA
:1021D0001FF00001CC27000ECD23D151020DF3508A
:1021E000600FD96EDA6ACCC0DEFFCDC0DDFFD1C092
:1021F000CCF0010ECD6FCC2B02D0D890CD37CC2FA8
:10220000FCD7CD518A1501E1F5D0D151020DF35023
:10221000700FD96EDA6ADE50DD1001E1CCD0D151F9
:10222000020DF350700FD96EDA6ADE06000EDD5A29
:10223000D151020DF350700FD96EDA6ADE50DD1005
:102240002EE0D8D08AA802D08A9825D08A88010E9C
:10225000CF6F33D08AA202D08A921DD08A82F7D75C
:102260008AA002D08A9017D08A80F1D78BAE02D094
:102270008B9E11D08B8EEBD78BAC02D08B9C0BD06E
:102280008B8CE5D78BAA02D08B9A05D08B8ADFD7AF
:102290008BA803D08B98CF6B10D08B88D8D7D15117
:1022A000D1E0010AD7E0030ADBE0010ADFE0070A18
:1022B000E3E0010AE7E0030AEBE0D151020D550E1D
:1022C000F324086E000EF420096E86EC1FF0000166
:1022D000CD6FCC6BD151020D560EF324086E000E5B
:1022E000F420096E86EC1FF00001CC27000ECD23F0
:1022F000D151020DF350700FD96EDA6ACCC0DEFFF7
:10230000CDC0DDFFCF5144E04D0ED125086E096AE6
:10231000000E092286EC1FF00001CC6FCCA525D061
:10232000D151020D650EF324086E000EF420096EE3
:1023300086EC1FF00001CD6FCC6BD151020D660E03
:10234000F324086E000EF420096E86EC1FF00001E5
:10235000CC27000ECD23D151020DF350600FD96E62
:10236000DA6ACCC0DEFFCDC0DDFFD0A707D0140EE7
:10237000C56F030EC66FD151FBEC1CF0D0AB3AD049
:10238000140EC56F190EC66FD151FBEC1CF032D084
:10239000D0A907D0140EC56F040EC66FD151FBEC47
:1023A0001CF0D0AD27D0140EC56F180EC66FD151DA
:1023B000FBEC1CF01FD0D151020D560EF324086E19
:1023C000000EF420096E86EC1FF00001CC6FD15195
:1023D000020D550EF324086E000EF420096E86ECF3
:1023E0001FF00001CE6FCD6BCC51CD25706F000E6C
:1023F000CE21716FD12B8AD61200E8CFCAF0CC6BF8
:10240000CCC0C7F0010EC86FC72B02D0D890C83718
:10241000C72FFCD7C851511401E11FD1CAA70CD056
:10242000780ECC25086E096A000E092286EC1FF092
:1024300000019E1901E011D14D0ECC25086E096AEC
:10244000000E092286EC1FF00001CB6FCBAF05D147
:10245000E0D08A88096A4D0E086E86EC1FF00001F4
:10246000C76FC7A5E8D0096A660E086E86EC1FF034
:102470000001C76F096A650E086E86EC1FF0000147
:10248000C96FC86BC751C825606F000EC921616F45
:10249000D2D08A82096A4E0E086E86EC1FF00001C7
:1024A000C76FC7A5C8D0096A680E086E86EC1FF012
:1024B0000001C76F096A670E086E86EC1FF0000105
:1024C000C96FC86BC751C825626F000EC921636F01
:1024D000B2D08A80096A4F0E086E86EC1FF00001A8
:1024E000C76FC7A5A8D0096A6A0E086E86EC1FF0F0
:1024F0000001C76F096A690E086E86EC1FF00001C3
:10250000C96FC86BC751C825646F000EC921656FBC
:1025100092D08B8E096A500E086E86EC1FF0000177
:10252000C76FC7A588D0096A6C0E086E86EC1FF0CD
:102530000001C76F096A6B0E086E86EC1FF0000180
:10254000C96FC86BC751C825666F000EC921676F78
:1025500072D08B8C096A510E086E86EC1FF0000158
:10256000C76FC7A568D0096A6E0E086E86EC1FF0AB
:102570000001C76F096A6D0E086E86EC1FF000013E
:10258000C96FC86BC751C825686F000EC921696F34
:1025900052D08B8A096A520E086E86EC1FF0000139
:1025A000C76FC7A548D0096A700E086E86EC1FF089
:1025B0000001C76F096A6F0E086E86EC1FF00001FC
:1025C000C96FC86BC751C8256A6F000EC9216B6FF0
:1025D00032D08B88096A530E086E86EC1FF000011A
:1025E000C76FC7A528D0096A720E086E86EC1FF067
:1025F0000001C76F096A710E086E86EC1FF00001BA
:10260000C96FC86BC751C8256C6F000EC9216D6FAB
:1026100012D0CC5101E11DD7010A01E13AD7030ADA
:1026200001E157D7010A01E174D7070A92E0010AD4
:10263000B0E0030ACEE0CBA707D0140EC56F030E9F
:10264000C66FCC51FBEC1CF0CBAB07D0140EC56FA2
:10265000190EC66FCC51FBEC1CF0CC2B070ECC65D1
:10266000CFD6070CE8CF14F0546A7750C00B166E23
:10267000166632D060AE12D0A49074AE06D011505F
:10268000D96EDA6A000EDB86749E60A002D0548098
:1026900001D054900F0E196E600E1AD00F0150AF7A
:1026A00019D0A49274AC06D01150D96EDA6A000E1B
:1026B000DB86749C5051070B546E020E546005D09B
:1026C0001150D96EDA6A000EDB8E0F0E196E500EA5
:1026D000186E65D0000ECCD01650400A46E160AEB0
:1026E00004D00F0E196E600E3ED00F0150AF04D013
:1026F0000F0E196E500E37D00D01F8B507D00E0130
:1027000020AF04D00E0E196E200E2DD00D01F8B79B
:1027100007D00E0130AF04D00E0E196E300E23D04C
:102720000D01F8B907D00E0140AF04D00E0E196E9E
:10273000400E19D00D01F8BB05D00E0150AF02D0EC
:102740000E0ED7D70D01F8BD05D00E0160AF02D037
:102750000E0EC8D70D01F8BFBDD70E0170AFBAD7A6
:102760000E0E196E700E186E0AD074AEB3D76F507D
:10277000070B8AEC1CF008C018F009C019F018C04B
:10278000D9FF19C0DAFFDF501F0B546EA49274AC4E
:1027900006D01150D96EDA6A000EDB86749C18C020
:1027A00012F019C013F01150D96EDA6ADF6A20EE08
:1027B00005F01850D9261950DA22DF50176E105044
:1027C000D96EDA6A17500F0BDF6E17AC05D01150B7
:1027D000D96EDA6A000EDB8C20EE02F01850D92692
:1027E0001950DA22DF50176E17A608D01150D96E93
:1027F000DA6A000EDB8A010E176E01D0176A1828FC
:10280000086E000E1920096E14C00AF017C00BF0F4
:10281000BAEC16F0060E1826000E19221050D96ECA
:10282000DA6ADF50176E156A0DD018C0D9FF19C0CB
:10283000DAFF0F50E16EE26ADFCFE7FF184A192A8C
:102840000F2A152A1750155CF0E3A4AE06D01150DC
:10285000D96EDA6A000EDB88A49E12C0D9FF13C0BD
:10286000DAFF7F0EDF161650800AD8B4749E010E70
:102870001200E8CF0FF0116A11C00CF0010E0D6EBE
:102880000C2A02D0D8900D360C2EFCD70D500B140C
:1028900001E1D2D00FA60CD0780E1124086E096A7F
:1028A000000E092286EC1FF000019E1901E0C4D041
:1028B0004D0E1124086E096A000E092286EC1FF0E5
:1028C000106E10AEB9D0A8D08A9800018A81096A2A
:1028D000560E086E86EC1FF00C6E096A550E086ED7
:1028E00086EC1FF00E6E0D6A0C500D240001706F07
:1028F000000E0E20716FA0D08A9200018A83096AAF
:10290000580E086E86EC1FF00C6E096A570E086EA2
:1029100086EC1FF00E6E0D6A0C500D240001726FD4
:10292000000E0E20736F88D08A9000018A85096A94
:102930005A0E086E86EC1FF00C6E096A590E086E6E
:1029400086EC1FF00E6E0D6A0C500D240001746FA2
:10295000000E0E20756F70D08B9E00018A87096A69
:102960005C0E086E86EC1FF00C6E096A5B0E086E3A
:1029700086EC1FF00E6E0D6A0C500D240001766F70
:10298000000E0E20776F58D08B9C00018A89096A4F
:102990005E0E086E86EC1FF00C6E096A5D0E086E06
:1029A00086EC1FF00E6E0D6A0C500D240001786F3E
:1029B000000E0E20796F40D08B9A00018A8B096A35
:1029C000600E086E86EC1FF00C6E096A5F0E086ED2
:1029D00086EC1FF00E6E0D6A0C500D2400017A6F0C
:1029E000000E0E207B6F28D08B9800018A8D096A1B
:1029F000620E086E86EC1FF00C6E096A610E086E9E
:102A000086EC1FF00E6E0D6A0C500D2400017C6FD9
:102A1000000E0E207D6F10D0115001E155D7010A34
:102A200001E16AD7030A80E0010A96E0070AACE0F8
:102A3000010AC2E0030AD8E0112A070E11641CD76C
:102A4000070CE8CF20F00F1C1F6E830E20640ED001
:102A5000890E20600BD00FC00BF020507C0F20ECB3
:102A60001FF020507C0F4EEC1FF083D02050920AB4
:102A70000DE10F50116E106A5250126E136A101051
:102A8000526E11501310536E535073D02050930A4E
:102A90000BE1106A5350116E0F501010526E11500E
:102AA000536E52C01FF0AFD0880E206419D0910E23
:102AB000206016D053C010F010C011F0126A112817
:102AC00002E1522802E00F1C54D00FC00BF020503E
:102AD000770FC3EC1EF02050770F44EC1FF049D065
:102AE000CF0E206417D0E00E206014D053C010F039
:102AF00010C011F0126A1128E6E15228E4E10FC07B
:102B00000BF02050300FD4EC1EF02050300F58EC5A
:102B10001FF02FD0990E20642ED09E0E20602BD057
:102B2000AFEC1FF00BC018F00AC017F009C016F088
:102B300008C015F02050660F1D6E1D500308106E62
:102B4000D8901036D8901036D8901036105015C046
:102B500011F016C012F017C013F018C014F0E82AD4
:102B600005D0D8901432133212321132E82EF9D730
:102B700030D01F6E48D09D0E20642DD0A20E206054
:102B80002AD0AAEC1FF00BC01CF00AC01BF009C031
:102B90001AF008C019F02050620F1E6E1E50030874
:102BA000106ED8901036D8901036D890103610503D
:102BB00019C011F01AC012F01BC013F01CC014F0A1
:102BC000E82A05D0D8901432133212321132E82E8E
:102BD000F9D71150CED72050A20A01E074D70F5078
:102BE000550A04E1846B856B550EC3D70F50AA0AB2
:102BF0000AE1E80E845D030E855904E2BEEC1FF085
:102C0000AA0EB7D71F6A1F5012000F0E1C6E400E7F
:102C10001B6E0F0E1E6E300E1D6E0F0E206E200EE0
:102C20001F6E0E0E226E200E216E0E0E246E300EC2
:102C3000236E0E0E266E400E256E0E0E286E500E62
:102C4000276E0E0E2A6E600E296E0E0E2C6E700E02
:102C50002B6E7750C00B2D6E2D6602D0020E01D068
:102C6000080E2E6E0D01D890F831306E346A7DD08A
:102C70003450020DF3501B0FD96EDA6ADECF35F0F7
:102C8000DDCF36F035C031F036C032F0020E34649C
:102C900004D0D890303230A067D035C0D9FF36C0CC
:102CA000DAFFDF501A6E1AB65FD035C0D9FF36C0D2
:102CB000DAFFFC0EDF1619C01AF0030E1A1635C023
:102CC000D9FF36C0DAFF1A50DF1219AC04D0185001
:102CD0004009336E02D018C033F020EE05F03550B5
:102CE000D9263650DA2233C0DFFF19AA03D0010EED
:102CF000336E01D0336A3528086E000E3620096E17
:102D000012C00AF013C00BF014C00CF015C00DF087
:102D100033C00EF06CEC17F0060E3526000E36228E
:102D20002F6A0FD016C0D9FF17C0DAFF35C0E1FFF8
:102D300036C0E2FFDFCFE7FF164A172A354A362AA8
:102D40002F2A18502F5CEEE331C0D9FF32C0DAFFD2
:102D5000DF501A6E1AB406D031C0D9FF32C0DAFF84
:102D6000000EDB86010E05D0342A2E50345C80E341
:102D7000000E12000AC00EF00B6646D00E50D96E3F
:102D8000DA6A08C0E1FF09C0E2FFE7500C6ED89094
:102D90000C36D8900C36D8900C34DF6E0E50D96EAD
:102DA000DA6AD92ADA6A08C0E1FF09C0E2FFE7500F
:102DB0000C6E050E0D6ED8900C320D2EFCD70C50FB
:102DC000DF6E084A092A08C0D9FF09C0DAFFDF50C0
:102DD0000C6E050E0D6ED8900C320D2EFCD70E50D9
:102DE000D96EDA6A0C50DF120E50D96EDA6A020E12
:102DF000D926DA6ADF6A0E50D96EDA6A030ED9264E
:102E0000DA6A000EDF6E67D00E50D96EDA6A020EF3
:102E1000D926DA6A08C0E1FF09C0E2FFE7500C6E6C
:102E2000050E0D6ED8900C360D2EFCD70C50DF6EB3
:102E30000E50D96EDA6A030ED926DA6A08C0E1FFAD
:102E400009C0E2FFE7500C6ED8900C32D8900C32DB
:102E5000D8900C30DF6E084A092A08C0D9FF09C093
:102E6000DAFFDF500C6E030E0C160E50D96EDA6AC4
:102E7000020ED926DA6A0C50DF1208C0D9FF09C049
:102E8000DAFFDF500C6ED8900C32D8900C32D8900C
:102E90000C321C0E0C160E50D96EDA6A020ED926B0
:102EA000DA6A0C50DF12084A092A08C0D9FF09C0A3
:102EB000DAFF0E50E16EE26AE12AE26ADFCFE7FF55
:102EC000084A092A08C0D9FF09C0DAFF0E50E16E8E
:102ED000E26ADFCFE7FF12000A0E116E0E6637D0EE
:102EE0001150D96EDA6ADF500F6ED8900F32D89039
:102EF0000F32D8900F3008C0D9FF09C0DAFFDF6E5B
:102F00001150D96EDA6AD92ADA6ADF500F6E050ECF
:102F1000106ED8900F36102EFCD708C0D9FF09C00C
:102F2000DAFF0F50DF12084A092A1150D96EDA6A07
:102F3000DF500F6E050E106ED8900F36102EFCD796
:102F40000F5008C0D9FF09C0DAFFDF6E6CD01150F6
:102F5000D96EDA6A020ED926DA6ADF500F6E050ED4
:102F6000106ED8900F32102EFCD70F5008C0D9FF2A
:102F700009C0DAFFDF6E1150D96EDA6A030ED92666
:102F8000DA6ADF500F6ED8900F36D8900F36D8908F
:102F90000F3608C0D9FF09C0DAFF0F50DF12084A08
:102FA000092A1150D96EDA6A020ED926DA6ADF5080
:102FB0000F6ED8900F36D8900F36D8900F34E00BA4
:102FC00008C0D9FF09C0DAFFDF6E08C0D9FF09C009
:102FD000DAFF000EDB861150D96EDA6A020ED926AE
:102FE000DA6ADF500F6E030E0F1608C0D9FF09C052
:102FF000DAFF0F50DF12084A092A1150D96EDA6A37
:10300000D92ADA6A08C0E1FF09C0E2FFDFCFE7FF93
:10301000084A092A1150D96EDA6A08C0E1FF09C0CE
:10302000E2FFDFCFE7FF1200E8CFC9F0CB6BCC6B3C
:10303000CCC0C7F0010EC86FC72B02D0D890C837DC
:10304000C72FFCD7C85151147AE0C9A70BD0780E0E
:10305000CC25086E096A000E092286EC1FF00001DB
:103060009E196DE14D0ECC25086E096A000E0922ED
:1030700086EC1FF00001CA6F2DD08AA802D08A9872
:1030800025D08A88010ECB6F33D08AA202D08A92D3
:103090001DD08A82F7D78AA002D08A9017D08A8062
:1030A000F1D78BAE02D08B9E11D08B8EEBD78BAC31
:1030B00002D08B9C0BD08B8CE5D78BAA02D08B9A3D
:1030C00005D08B8ADFD78BA803D08B98CB6B10D021
:1030D0008B88D8D7CC51D1E0010AD7E0030ADBE0D6
:1030E000010ADFE0070AE3E0010AE7E0030AEBE098
:1030F000CB5113E0CAA707D0140EC56F030EC66FDD
:10310000CC51FBEC1CF0CAAB1AD0140EC56F190ED3
:10311000C66FCC51FBEC1CF012D0CAA907D0140E1C
:10312000C56F040EC66FCC51FBEC1CF0CAAD07D0C6
:10313000140EC56F180EC66FCC51FBEC1CF0CC2BD7
:10314000070ECC6575D7070C0001806B816B826B15
:10315000836B8B6B896B886B8A6B0D6A0D50020DCC
:10316000F350700FD96EDA6ADE6ADD6A0D50020D17
:10317000F350600FD96EDA6ADE6ADD6A0D2A070E37
:103180000D64ECD70D6A4D0E0D24086E096A000E11
:10319000092286EC1FF00B6E0BA02DD00DC00BF09A
:1031A000010E0C6E0B2A02D0D8900C360B2EFCD7D9
:1031B0000C5000018A13550E0D24086E096A000E8A
:1031C000092286EC1FF00C6E0B6A560E0D24086E59
:1031D000096A000E092286EC1FF00B26000E0C2255
:1031E0000D50020DF3500001700FD96EDA6A0BC05A
:1031F000DEFF0CC0DDFF520E0D24086E096A000EC2
:10320000092286EC1FF00B6E0BA420D06F0E0D244C
:10321000086E096A000E092286EC1FF00C6E0B6A1C
:10322000700E0D24086E096A000E092286EC1FF04C
:103230000B26000E0C220D50020DF3500001600F02
:10324000D96EDA6A0BC0DEFF0CC0DDFF0D2A060E58
:103250000D6499D7060CE8CFC9F0CA6BCC6BCCC013
:10326000C7F0010EC86FC72B02D0D890C837C72F40
:10327000FCD7C851511470E0C9A70BD0780ECC25EB
:10328000086E096A000E092286EC1FF000019E19E3
:1032900063E14D0ECC25086E096A000E092286EC0A
:1032A0001FF00001CB6F23D0000E8AB8010ECA6F49
:1032B0002CD0000E8AB2010ECA6F27D0000E8AB041
:1032C000010ECA6F22D0000E8BBE010ECA6F1DD038
:1032D000000E8BBC010ECA6F18D0000E8BBA010E07
:1032E000CA6F13D0000E8BB8010ECA6F0ED0CC512E
:1032F000DBE0010ADEE0030AE1E0010AE4E0070A9C
:10330000E7E0010AEAE0030AEDE0CA5113E0CBA9C5
:1033100007D0140EC56F040EC66FCC51FBEC1CF029
:10332000CBAD1AD0140EC56F180EC66FCC51FBEC86
:103330001CF012D0CBA907D0140EC56F040EC66FB7
:10334000CC51FBEC1CF0CBAD07D0140EC56F180EA2
:10335000C66FCC51FBEC1CF0CC2B070ECC657FD795
:10336000070CE8CF0DF00D50800A04E18CC00CF082
:103370008C6B67D00D50810A02E1010E61D00D50B7
:10338000820A02E1050E5CD00D50830A02E10C6A4C
:1033900058D00D50940A03E1CAEC1FF051D00D50E3
:1033A000950A03E1C9EC1FF04BD00D50960A03E1DA
:1033B000C8EC1FF045D0890E0D6005D00D507C0F74
:1033C0004EEC1FF03DD0880E0D6408D0910E0D60BC
:1033D00005D00D50770F44EC1FF032D00D50910AFC
:1033E00003E191C00CF02DD00D50930A03E152C0BF
:1033F0000CF027D00D50920A02E1535021D00D500D
:10340000970A03E1C7EC1FF01BD00D50980A03E1A7
:10341000C6EC1FF015D00D50990A03E1C5EC1FF062
:103420000FD0CF0E0D6408D0E00E0D6005D00D500A
:10343000300F58EC1FF004D00D50200F2CEC1FF073
:103440000C6E0C501200B9EC1DF08FEC1EF0000950
:1034500004E139EC0DF0A4EC18F058EC1DF0040078
:10346000FA0E00018F650CD092050AE09169096A95
:10347000010E086EFF0E0A686AEC1EF058EC1DF093
:10348000966B1BEC1EF01CD0912903E1010E926F8C
:1034900023D0030E926FF5EC1EF01ED0F0EC1AF064
:1034A0001BD096AF19D099519811D8B4E8EC07F019
:1034B000F4EC0EF011D0C2EC1FF00ED0926B0CD0D9
:1034C00000019251E1E0010AE9E0030AE4E0010AA7
:1034D000E8E0070AF0E0F2D7E90E0001805D030E94
:1034E0008159000E8259000E83590CE3806B816B69
:1034F000826B836B552A31EC1DF09251030AD8B4CC
:1035000084EC10F03B0E8B650BD08B6B892B3B0E44
:10351000896502D0896B882B170E886501D0886B6E
:10352000C4EC1FF09CD7E8CFC9F0CB6BCBC0C7F081
:10353000010EC86FC72B02D0D890C837C72FFCD751
:10354000C851511448E0C9A70BD0780ECB25086E9E
:10355000096A000E092286EC1FF000019E193BE16A
:103560004D0ECB25086E096A000E092286EC1FF06D
:103570000001CA6FCAAF2FD00ED08A981AD08A9293
:1035800018D08A9016D08B9E14D08B9C12D08B9A18
:1035900010D08B980ED0CB51F0E0010AF0E0030A76
:1035A000F0E0010AF0E0070AF0E0010AF0E0030AA7
:1035B000F0E0CAA907D0140EC56F040EC66FCB5138
:1035C000FBEC1CF0CAAD07D0140EC56F180EC66F09
:1035D000CB51FBEC1CF0CB2B070ECB65A7D7070C10
:1035E00053D0572810E0810EA46FA56BA66BA76B74
:1035F000020EA86F57C0A9F057EC1EF0010E936F92
:10360000866B876B48D0040E926F810EA46FA969F8
:10361000070EA56FA66BA76B030EA86F57EC1EF0E5
:103620003AD096AF0FD09951981135E19A51030ACB
:1036300032E1576603D0020E926FE2D7572A936B9E
:10364000946B29D0E90E865D030E875924E3942BF1
:10365000020E946517D0576605D0572A936B866B78
:10366000876BEED757C091F0030E926F936B915119
:1036700074EC1FF0400E6BEC1FF00001946BF5EC46
:103680001EF009D0936B07D000019351AAE0010A04
:10369000C8E0030AF7E1966B120041C0B1F0B26BCB
:1036A000B36BB46BB3C0B4F0B2C0B3F0B1C0B2F09E
:1036B000B16B3F50B56F4050B66FB76BB86BB6C0CB
:1036C000B8F0B5C0B7F0B66BB56B43C0B9F0BA6B24
:1036D000BB6BBC6B1A0ED890B937BA37BB37BC3747
:1036E000E82EF9D7B551B911BD6FB651BA11BE6FF9
:1036F000B751BB11BF6FB851BC11C06FB151BD11F3
:10370000C16FB251BE11C26FB351BF11C36FB4517B
:10371000C011C46F4250C111476EC251486EC351AF
:10372000496EC4514A6E47C037F048C038F049C0AE
:1037300039F04AC03AF044C03BF045C03CF046C0C6
:103740003DF07AEC1DF00009000ED8A4010E120025
:10375000E8CF0CF00B6A0C6606D0096A430E086EBF
:1037600086EC1FF04DD00C0406E1096A440E086E89
:1037700086EC1FF045D0010E0C6434D00A0E0C60AC
:1037800031D01ED0000E8AB8010E3AD0000E8AB297
:10379000010E36D0000E8AB0010E32D0000E8BBE64
:1037A000010E2ED0000E8BBC010E2AD0000E8BBA5B
:1037B000010E26D0000E8BB8010E22D00B6A21D04C
:1037C0000C50020ADFE0010AE1E0070AE3E0010A27
:1037D000E5E0030AE7E0010AE9E00F0AEBE0010A8D
:1037E000EDE00FD0090E0C640CD0800E0C6009D0F7
:1037F000430E0C24086E096A000E092286EC1FF0A5
:103800000B6E0B501200800E38EC1FF0090E706E1C
:10381000FC0E716E010E726E200E736E778E779CA9
:10382000606A0F01506B0E01206B306B406B506B68
:10383000606B706BE00E0D01F86F0F01006B080EEE
:10384000016F026B036B046BE80E056F1A0E066FB7
:10385000076B030E0D01D46FD56BE06B110EE16F9A
:10386000E26FE36BE46BE56BE66BE76B540EF06FB6
:10387000050EF16FF26BF26B0F0E0F01186FE00E79
:10388000196F1A6B1B6B19870F0E1C6FE00E1D6FE3
:103890001E691F6B1D87000E38EF1FF0E8CF27F061
:1038A00021C01AF022C01BF0280EF0EC1DF0000918
:1038B00002E1000E2ED01F50D96EDA6A28C0DFFF59
:1038C0001E50D96EDA6A29C0DFFF2A50236E010E1E
:1038D0002B14246E2750D96EDA6A23C0DEFF24C071
:1038E000DDFF2050D96EDA6A28C023F029C024F009
:1038F0002AC025F02BC026F01B0E05D0D89026320A
:10390000253224322332E82EF9D72350070BDF6EFD
:10391000010E1200E8CF0BF024D00F0E0D6E600EDA
:103920001ED00F010F0E0D6E500E19D00E010E0E8F
:103930000D6E200E14D00E010E0E0D6E300E0FD037
:103940000E010E0E0D6E400E0AD00E010E0EEBD7BC
:103950000E010E0EE3D70E010E0E0D6E700E0C6EE4
:103960000FD00B50DAE0010ADCE0030ADFE0010AC5
:10397000E2E0070AE5E0010AE8E0030AE9E0EBD744
:103980000CC008F00DC009F01200E8CF0EF0106A6C
:1039900010C00CF0010E0D6E0C2A02D0D8900D361E
:1039A0000C2EFCD70D500B1421E00EA60BD0780E78
:1039B0001024086E096A000E092286EC1FF000012F
:1039C0009E1914E14D0E1024086E096A000E09229A
:1039D00086EC1FF00F6E4D0E1024086E096A000E63
:1039E00009220F507F0B0A6E6AEC1EF0102A070E98
:1039F0001064CED7070CE8CF50F050C04DF0D890EF
:103A000050344B6E4C6A4C36750E4B24086E000ECB
:103A10004C20096E86EC1FF04E6ED89050344B6EE1
:103A20004C6A4C36760E4B24086E000E4C20096E04
:103A300086EC1FF04F6E0001C5C03FF0406AC6C063
:103A400041F091C042F0030E436E446E4D0E456E40
:103A5000000E466E0F0E466E5F0E4564466A4DEFD1
:103A60001BF0952B3B0E95650DD0956B902B9251CD
:103A7000030A08E1A0EC1FF00001C56FA5EC1FF0E0
:103A800044EC1EF03B0E906502D0906B8E2B170E0F
:103A90008E6501D08E6B9251030A09E18D2B8DC08A
:103AA0004DF00F0E4D16020E4D5CD8B08D6B12000E
:103AB000020E566EB4EC1FF00001916F916701D0B9
:103AC0009169966B976B986B996B9A6BA46BA56BCE
:103AD000A66BA76BA86B8C6B576A926B936B946BFE
:103AE000526A536A866B876B846B856B956B906BA0
:103AF0008E6B12003E6A556A17D037C012F038C07C
:103B000013F039C014F03AC015F03CC016F03DC0B7
:103B100017F03BC018F0200E196E05EC16F00009E6
:103B200003E0010E3E6E02D05550E7E00001A46BA9
:103B30003E501200B9EC1FF0000916E10001965149
:103B40000F0B050A15E1B9EC1FF000019C1910E0FC
:103B50009C516BEC1FF000019169FF0E74EC1FF09B
:103B6000010E0001926F04D000019C516BEC1FF01C
:103B70001200A4EC18F0926A806A080E936E816AB3
:103B8000010E946E826A920E04EC1FF0FB0E096E19
:103B90001D0E086E7DEC1FF08A988A928A908B9E8B
:103BA0008B9C8B9A8B9803EC1CF0F28CF28E12009B
:103BB00096510F0B0C6E0C5012E0915120EE9CF0C0
:103BC000DF620DD00C0405E0010E0C6408D09D6787
:103BD00006D09169FF0E74EC1FF058EC1DF0120036
:103BE000E8CF1CF096AF02D0000E0FD01BC00FF034
:103BF0001AC010F01D0E116E1C5032EC13F00009AB
:103C0000F3E01DAC1DAAF0D7010E120096C04CF0D7
:103C10000F0E4C164C040EE1915120EE9CF0DF6229
:103C200009D0800EA46FA56BA66BA76B030EA86FBF
:103C300057EC1EF0120096BF12D09A0E1E6E9B0E0D
:103C40001F6E970E206E960E216E9C0E226E980EA1
:103C50004EEC1CF02C6E2C5002E00001968F1200EE
:103C6000E8CF09F0080E0A6E0B6AD89009340B34BD
:103C70000B6ED890093608500B5C02E308500B5EBF
:103C80000A2EF3D70B501200E8CF4CF0830E000140
:103C9000A46F070EA56FA76B140EA66F090EA86F71
:103CA000A96B4CC0AAF0C5C0ABF057EF1EF0A6C080
:103CB0003FF0A7C040F0A8C041F091C042F0A5C0BD
:103CC00043F0A4510F0B446E000E466EA90E456ED4
:103CD0004DEF1BF008C0A9FF0AC0A8FFA69EA69C36
:103CE000A684F29E550EA76EAA0EA76EA682F28E2D
:103CF000A1A8FED7A198A694120096510F0B020A14
:103D00000DE1915120EE9CF0DF6208D09DC091F052
:103D1000915174EC1FF0400E6BEC1FF01200B9ECE7
:103D20001FF0C00B400A02E1010E0AD0FF0E74EC36
:103D30001FF0000E6BEC1FF0A00E62EC1FF0000EE7
:103D4000120000EE60F0510EEE6AE806FDE100EEB2
:103D500052F0070EEE6AE806FDE1000EF86E000173
:103D600023EF1AF0E8CFD0F07F0ED06506D0CFC099
:103D70000FF0D05121EC15F005D0CFC051F0D0514B
:103D800011EC03F01200E8CF0CF0070E0C6401D028
:103D90000AD00B0E0C24086E096A000E09220BC013
:103DA0000AF06AEC1EF01200E8CF0CF00F0E0C6463
:103DB00001D00AD0130E0C24086E096A000E0922E5
:103DC0000BC00AF06AEC1EF01200070EA96F480E35
:103DD000AA6F020E086E0850A90FD96EDA6ADF6A60
:103DE000082A070E0864F7D7070C810E0001A46F9C
:103DF000A56BA66BA76B020EA86F91C0A9F057EC3C
:103E00001EF0010E566E010CE8CF08F008507F0B33
:103E1000D56ED76AD66AF29408AE02D0F28A01D083
:103E2000F29AD58E1200E8CF0EF07F0E0E6404D009
:103E30000E50B1EC19F003D00E50A8EC1BF012009C
:103E4000E8CF0CF0060E0C24086E096A000E092259
:103E50000BC00AF06AEF1EF0E8CF09F00950000F1E
:103E6000086E08C0F6FF060EF76E0800F550120047
:103E7000E8CF08F01F0E6F1608506F126F50E00B5E
:103E80000818D8B41200FAD7E8CF0BF00B0E0B24A9
:103E9000086E096A000E092286EF1FF0E8CF0BF0CA
:103EA000060E0B24086E096A000E092286EF1FF029
:103EB000E8CF0BF0130E0B24086E096A000E0922DE
:103EC00086EF1FF0E8CF0BF0096A030E086E0BC0F7
:103ED0000AF06AEF1EF0E8CF0BF0096A020E086ED6
:103EE0000BC00AF06AEF1EF0E8CF0BF0096A010E72
:103EF000086E0BC00AF06AEF1EF008C00AF009C095
:103F00000BF00BC0D7FF0AC0D6FF120008C0A9FFF4
:103F1000A69EA69CA680A8CF0AF00A50120001C057
:103F200003F002C004F004C0D7FF03C0D6FF1200A4
:103F3000096A086AFF0E0A686AEC1EF0FF001200A8
:103F4000096A440E086E86EF1FF0096A430E086E78
:103F500086EF1FF0086A096A0A6A0B6A1200086A8B
:103F6000096A0A6A0B6A1200096A010E086E86EF76
:103F70001FF0096A020E086E86EF1FF039EC0DF093
:103F8000A4EF18F0566A12001200010C080C010C84
:063F9000000C000C010C06
:020000040020DA
:08000000FFFFFFFFFFFFFFFF00
:020000040030CA
:0E000000FF061C1EFF8281FF0FC00FE00F40A5
:00000001FF
