:040800005DEF04F0B4
:10081800D8CF05F0E8CF06F0E0CF07F0F2A401D07A
:1008280001D040D0FB0E026E1D0E016E63EC22F06B
:100838000001884B892B864B872B010E8027000EE1
:100848008123000E8223000E8323844B852B82A0F4
:1008580001D001D002D0916B01D0912B582A56506B
:10086800020AD8A401D001D00ED0640E586401D079
:1008780001D009D082A201D001D002D0829201D049
:100888008282586A0ED05604D8A401D001D003D071
:100898008282586A06D0566601D001D002D0829270
:1008A800586AF29407C0E0FF06C0E8FF05C0D8FF09
:1008B800100078EF21F07777772E6575726F736F78
:1008C800757263652E73652F70617269735F30315D
:1008D800302E786D6C000000E8CFD1F0CD6BD06B76
:1008E800511CCF6FD16710D089EC22F0096A440EF1
:1008F800086E51C00AF08EEC20F0096A440E086EAA
:100908005AEC22F033EF09F0D10510E189EC22F01E
:10091800096A450E086E51C00AF08EEC20F0096A8B
:10092800450E086E5AEC22F033EF09F0010ED1653E
:1009380085D10A0ED16182D14C0ED125086E096A83
:10094800000E09225AEC22F00001CA6FCABF61D119
:100958004CEF09F0010ECD6F510428E18A88000E92
:100968008AB8010ECF6F010ED06F096A4E0E086E5D
:100978005AEC22F00001CA6FCAA54CEF09F0096AC7
:10098800670E086E5AEC22F00001CA6F096A660EFB
:10099800086E5AEC22F00001CC6FCB6BCA51CB2504
:1009A800606F000ECC21616F4CEF09F051664CEF7F
:1009B80009F08A98000E8AB8010ECF6FD06B4CEF01
:1009C80009F0010ECD6F51041EE18A82000E8AB231
:1009D800010ECF6F010ED06F096A4F0E086E5AECE8
:1009E80022F00001CA6FCAA54CEF09F0096A690E26
:1009F800086E5AEC22F00001CA6F096A680E086E88
:100A08005AEC22F09FD151664CEF09F08A92000E01
:100A18008AB2010ECF6FD2D7010ECD6F510428E1F3
:100A28008A80000E8AB0010ECF6F010ED06F096A5E
:100A3800500E086E5AEC22F00001CA6FCAA54CEF9E
:100A480009F0096A6B0E086E5AEC22F00001CA6FB1
:100A5800096A6A0E086E5AEC22F00001CC6FCB6B63
:100A6800CA51CB25646F000ECC21656F4CEF09F09D
:100A780051664CEF09F08A90000E8AB0010ECF6FD4
:100A88009DD7010ECD6F510426E18B8E000E8BBED3
:100A9800010ECF6F010ED06F096A510E086E5AEC25
:100AA80022F00001CA6FCAA5F3D3096A6D0E086E59
:100AB8005AEC22F00001CA6F096A6C0E086E5AECF3
:100AC80022F00001CC6FCB6BCA51CB25666F000EAC
:100AD800CC21676FDDD35166DBD38B9E000E8BBEB6
:100AE800010ECF6F6BD7010ECD6F510426E18B8CB1
:100AF800000E8BBC010ECF6F010ED06F096A520E2B
:100B0800086E5AEC22F00001CA6FCAA5C1D3096A5F
:100B18006F0E086E5AEC22F00001CA6F096A6E0E59
:100B2800086E5AEC22F00001CC6FCB6BCA51CB2572
:100B3800686F000ECC21696FABD35166A9D38B9C2B
:100B4800000E8BBC010ECF6F39D7010ECD6F51044B
:100B580026E18B8A000E8BBA010ECF6F010ED06F83
:100B6800096A530E086E5AEC22F00001CA6FCAA532
:100B78008FD3096A710E086E5AEC22F00001CA6F11
:100B8800096A700E086E5AEC22F00001CC6FCB6B2C
:100B9800CA51CB256A6F000ECC216B6F79D3516691
:100BA80077D38B9A000E8BBA010ECF6F07D7010E41
:100BB800CD6F510426E18B88000E8BB8010ECF6FE4
:100BC800010ED06F096A540E086E5AEC22F000012B
:100BD800CA6FCAA55DD3096A730E086E5AEC22F073
:100BE8000001CA6F096A720E086E5AEC22F0000101
:100BF800CC6FCB6BCA51CB256C6F000ECC216D6FBF
:100C080047D3516645D38B98000E8BB8010ECF6F32
:100C1800D5D6D151020A01E19DD6010A01E1D1D60A
:100C2800070A01E1F9D6010A01E12BD7030A01E11C
:100C38005AD7010A8AE00F0ABAE02AD3090ED16509
:100C4800BED1120ED161BBD1A4D189EC22F0440EE1
:100C58000001D125086E096A000E092251C00AF068
:100C68008EEC20F0440E0001D125086E096A000EB2
:100C780009225AEC22F00001CF6F51A019D08A98AE
:100C8800D06B8C81096A570E086E5AEC22F000016D
:100C9800CA6F096A560E086E5AEC22F00001CC6F32
:100CA800CB6BCA51CB25706F000ECC21716F03D06E
:100CB8008C918A98D06B51B462D6EAD289EC22F032
:100CC800440E0001D125086E096A000E092251C0A0
:100CD8000AF08EEC20F0440E0001D125086E096A56
:100CE800000E09225AEC22F00001CF6F51A019D052
:100CF8008A92D06B8C83096A570E086E5AEC22F0E0
:100D08000001CA6F096A560E086E5AEC22F00001FB
:100D1800CC6FCB6BCA51CB25726F000ECC21736F91
:100D280003D08C938A92D06B51A4B2D2096A670E11
:100D3800086E5AEC22F00001CA6F096A660E086E46
:100D48005AEC22F00001CC6FCB6BCA51CB25626FF5
:100D5800000ECC21636F9CD289EC22F0440E000176
:100D6800D125086E096A000E092251C00AF08EECDE
:100D780020F0440E0001D125086E096A000E0922F0
:100D88005AEC22F00001CF6F51A019D08A90D06B95
:100D98008C85096A5B0E086E5AEC22F00001CA6F56
:100DA800096A5A0E086E5AEC22F00001CC6FCB6B20
:100DB800CA51CB25746F000ECC21756F03D08C956A
:100DC8008A90D06B51B43DD663D289EC22F0440EA0
:100DD8000001D125086E096A000E092251C00AF0E7
:100DE8008EEC20F0440E0001D125086E096A000E31
:100DF80009225AEC22F00001CF6F51A019D08B9E26
:100E0800D06B8C87096A5D0E086E5AEC22F00001DF
:100E1800CA6F096A5C0E086E5AEC22F00001CC6FAA
:100E2800CB6BCA51CB25766F000ECC21776F03D0E0
:100E38008C978B9ED06B51B438D62AD289EC22F08D
:100E4800440E0001D125086E096A000E092251C01E
:100E58000AF08EEC20F0440E0001D125086E096AD4
:100E6800000E09225AEC22F00001CF6F51A019D0D0
:100E78008B9CD06B8C89096A5F0E086E5AEC22F045
:100E88000001CA6F096A5E0E086E5AEC22F0000172
:100E9800CC6FCB6BCA51CB25786F000ECC21796F04
:100EA80003D08C998B9CD06B51B431D6F1D189EC9D
:100EB80022F0440E0001D125086E096A000E0922AD
:100EC80051C00AF08EEC20F0440E0001D125086EC6
:100ED800096A000E09225AEC22F00001CF6F51A0D6
:100EE80019D08B9AD06B8C8B096A610E086E5AECFC
:100EF80022F00001CA6F096A600E086E5AEC22F0EF
:100F08000001CC6FCB6BCA51CB257A6F000ECC2178
:100F18007B6F03D08C9B8B9AD06B51B42AD6B8D1F7
:100F280089EC22F0440E0001D125086E096A000EF2
:100F3800092251C00AF08EEC20F0440E0001D125A0
:100F4800086E096A000E09225AEC22F00001CF6FE0
:100F580051A019D08B98D06B8C8D096A630E086EDE
:100F68005AEC22F00001CA6F096A620E086E5AEC48
:100F780022F00001CC6FCB6BCA51CB257C6F000EE1
:100F8800CC217D6F03D08C9D8B9ED06B51B423D622
:100F98007FD1D1510A0A01E158D6010A01E18ED662
:100FA800070A01E1D9D6010A01E10FD7030A01E1D5
:100FB80045D7010A01E17BD71F0AB2E069D1110EBA
:100FC800D165E1D0220ED161DED089EC22F0440E49
:100FD8000001D125086E096A000E092251C00AF0E5
:100FE8008EEC20F0440E0001D125086E096A000E2F
:100FF80009225AEC22F00001CF6FB0D0096A570ECF
:10100800086E5AEC22F00001CA6F096A560E086E83
:101018005AEC22F00001CC6FCB6BCA51CB25706F14
:10102800000ECC21716F34D1096A590E086E5AEC42
:1010380022F00001CA6F096A580E086E5AEC22F0B5
:101048000001CC6FCB6BCA51CB25726F000ECC213F
:10105800736F1ED1096A5B0E086E5AEC22F000010C
:10106800CA6F096A5A0E086E5AEC22F00001CC6F5A
:10107800CB6BCA51CB25746F000ECC21756F08D18C
:10108800096A5D0E086E5AEC22F00001CA6F096AFF
:101098005C0E086E5AEC22F00001CC6FCB6BCA5183
:1010A800CB25766F000ECC21776FF2D0096A5F0EE0
:1010B800086E5AEC22F00001CA6F096A5E0E086ECB
:1010C8005AEC22F00001CC6FCB6BCA51CB25786F5C
:1010D800000ECC21796FDCD0096A610E086E5AECDB
:1010E80022F00001CA6F096A600E086E5AEC22F0FD
:1010F8000001CC6FCB6BCA51CB257A6F000ECC2187
:101108007B6FC6D0096A630E086E5AEC22F00001A4
:10111800CA6F096A620E086E5AEC22F00001CC6FA1
:10112800CB6BCA51CB257C6F000ECC217D6FB0D024
:10113800096A650E086E5AEC22F00001CA6F096A46
:10114800640E086E5AEC22F00001CC6FCB6BCA51CA
:10115800CB257E6F000ECC217F6F9AD0D151130A18
:1011680001E14CD7060A01E15FD7020A01E172D713
:101178000E0A86E0020A9AE0060AAEE0020AC2E017
:101188003E0AD6E085D0210ED1654DD0320ED16110
:101198004AD089EC22F0440E0001D125086E096A74
:1011A800000E092251C00AF08EEC20F0440E000116
:1011B800D125086E096A000E09225AEC22F00001B6
:1011C800CF6F16D0096A750E086E5AEC22F000012E
:1011D800CA6F096A740E086E5AEC22F00001CC6FCF
:1011E800CB6BCA51CB256E6F000ECC216F6F50D0E0
:1011F800D151230A02E1C3EF04F0060A02E1FAEF33
:1012080004F0020A01E11DD40E0A01E14ED4020ADB
:1012180001E17DD4060A01E1ACD4020A01E1DBD484
:101228001E0AD0E035D0310ED1651CD0420ED161F6
:1012380019D089EC22F0440E0001D125086E096A04
:10124800000E092251C00AF08EEC20F0440E000175
:10125800D125086E096A000E09225AEC22F0000115
:10126800CF6F16D0470ED16513D0800ED16110D044
:1012780089EC22F0440E0001D125086E096A000E9F
:10128800092251C00AF08EEC20F0A9EC0CF0DED750
:10129800CD5135E04C0ED125086E096A000E0922A1
:1012A8005AEC22F00001CE6FD05115E0CEA708D03D
:1012B800140EC86F030EC96FD151FE0FA6EC1FF0B4
:1012C800CEAB1DD0140EC86F190EC96FD151FE0FC9
:1012D800A6EC1FF014D0CEA908D0140EC86F040EC7
:1012E800C96FD151FE0FA6EC1FF0CEAD08D0140E79
:1012F800C86F180EC96FD151FE0FA6EC1FF0CF5161
:1013080012009B519A1101E1EED21ED397EC22F004
:101318001BD3EEEC20F018D3BAEC21F015D3A8ECCF
:1013280020F012D398510F0B020A01E00DD393510C
:1013380020EE9EF0DF6208D3800E9F6112D09F518D
:101348003AEC1EF00001AD6F9FC0ACF0030EA76F22
:10135800820EA66FA86BA96B0A0EAA6FC0EC20F0CC
:10136800F3D29F515DEC17F0EDD798510F0B030A9C
:1013780001E0EAD2935120EE9EF0DF62E5D2800EC2
:101388009F6106D0A0C051F09F5170EC04F0DBD7EC
:10139800A0C048F09F518DEC1BF0D4D7935120EE9C
:1013A8009EF0DF62D1D2000E47EC22F00001A019B6
:1013B80001E0CAD2030E47EC22F00001A11901E0B6
:1013C800C3D2050E47EC22F00001A21901E0BCD2FD
:1013D800070E47EC22F00001A31901E0B5D25350E3
:1013E800A41901E0B1D2525020EEA5F0DF62ACD2D0
:1013F8009F51F5EC21F0A8D2000E47EC22F0000135
:101408009F1973E1010E47EC22F00001A0196DE16C
:10141800020E47EC22F00001A11967E1030E47EC28
:1014280022F00001A21961E18F895FD0040E47EC18
:1014380022F000019F1959E1050E47EC22F0000146
:10144800A01953E1060E47EC22F00001A1194DE165
:10145800070E47EC22F00001A21947E18F8B45D017
:10146800080E47EC22F000019F193FE1090E47ECF6
:1014780022F00001A01939E10A0E47EC22F0000120
:10148800A11933E10B0E47EC22F00001A2192DE15E
:101498008F8D2BD00C0E47EC22F000019F1925E10F
:1014A8000D0E47EC22F00001A0191FE10E0E47ECCB
:1014B80022F00001A11919E10F0E47EC22F00001FA
:1014C800A21913E18F8F11D08F6B0FD09E390F0B9C
:1014D800D46FD56BD551F8E1D4518EE0010AA6E05E
:1014E800030ABEE0010AD6E0EFD78F51F00BF00AED
:1014F80001E02AD204EC20F027D2935120EE9EF08E
:10150800DF6222D2E06B9FC0DFF0A0C0E2F0EE6B9A
:1015180048D0070E086EEE5118EC21F00001D46F88
:10152800D451AD0FD96EDA6ADF51EE2503EC22F003
:10153800DF6E070E086E0001EE5118EC21F0060A66
:101548000BE0FF0E0001E225D46FD56BFF0ED5230B
:10155800EE51D419D51124E1070E086E0001EE51A1
:1015680018EC21F0060A03E1070E000109D0070E66
:10157800086E0001EE5118EC21F00001D46FD42957
:10158800E16FE151810FA66F070EA76FA86BA96BDA
:101598001A0EAA6FE0C0ACF0C0EC20F00001E02BFE
:1015A800EE2BE251EE5D01E3CFD1B3D7935120EE9C
:1015B8009EF0DF62C9D19FC0E3F09851FE0F070B80
:1015C800E46FE96B16D0E951A00FD96EDA6ADF50E3
:1015D800D26FE351E92589EC21F00001E951AD0F03
:1015E800D96EDA6AE351E92503EC22F0DF6E0001D7
:1015F800E92BE451E95DE7E3070EA76FA86BA96B38
:101608001A0EAA6FAC6BE451810FA66FA7D693513F
:1016180020EE9EF0DF6298D19F513AEC1EF0000157
:10162800D46FD429516E9F5170EC04F08CD693512D
:1016380020EE9EF0DF6288D19F513AEC1EF0000147
:10164800D46FD405516E9F5170EC04F07CD69E5136
:10165800931903E09E2901E077D1E86B030EA76F89
:10166800880EA66FA86BA96B200EAA6FED6BEDC054
:10167800ACF0010EEF6FEF51AC0FD96EDA6AE8519A
:101688000F0847EC22F0DF6E0001E82B100EE8652A
:1016980001D004D0EF2B070EEF65EDD7100EE865EB
:1016A80001D007D0C0EC20F00001ED2B020EED6553
:1016B800DED7EF6BEF5110EC22F0000908E0EF5194
:1016C800AF0FD96EDA6AEF5110EC22F005D0EF5166
:1016D800AF0FD96EDA6A000EDF6EEF2B040EEF65DE
:1016E800E9D7C0EC20F0050E0001E86F030EED6F9E
:1016F800EDC0ACF0010EEF6FEF51AC0FD96EDA6AA6
:10170800E85110EC22F0DF6EE82BEF2B070EEF65A7
:10171800F3D7C0EC20F00001ED2B060EED65E8D7FD
:1017280013D1935120EE9EF0DF620ED1030EA76F06
:10173800870EA66FA86BA96B220EAA6FAC0E9AEC47
:1017480021F00CD6935120EE9EF0DF62FDD0EA6BBB
:1017580098C0D4F00F0ED417040ED45D12E3A2C0C3
:10176800EBF0EC6BEC51EB1103E1010EEC6FEB6B62
:10177800010EEB5D010EEC5907E3010EEC6F000E54
:1017880002D0EC6B010EEB6F52C0DBF053C0DCF003
:10179800A0519FC0D4F0D56BD4C0D5F0D46BD41170
:1017A800526ED551536E070EA76FA86BA96B270E03
:1017B800AA6FAC6B9FC0ADF0A0C0AEF0EA51EB5D74
:1017C800D46F000EEC59D56F040ED45D000ED559B8
:1017D80002E3040E02D0EA51EB5DE56FE551840F98
:1017E800A66FA151EA25AF6FE66B0CD0E651B00F9A
:1017F800D96EDA6AA151EA25E62503EC22F0DF6EFC
:101808000001E62BE551E65DF1E3C0EC20F00001B4
:10181800E551EA27AC2BEA51D46FD56BEB51D45D77
:10182800EC51D559CBE3DBC052F0DCC053F08CD07F
:10183800935120EE9EF0DF6287D052C0DDF053C096
:10184800DEF0A0519FC0D4F0D56BD4C0D5F0D46BD6
:10185800D411526ED551536EA1C0E7F014D0A151E6
:10186800A208E725D96EDA6ADF50D26FE75189EC12
:1018780021F00001D46FA151B008E725D96EDA6ACA
:10188800D4C0DFFFE72B98510F0BD46FD56BA15154
:10189800D427000ED523FC0ED425D66FFF0ED521F4
:1018A800D76FE751D86FD96BD951800ADA6FD65103
:1018B800D85DD751800ADA59D2E3DDC052F0DEC0D4
:1018C80053F0070EA76F98510F0B800FA66FA86BE8
:1018D800A96B270EAA6FAC6B9FC0ADF0A0C0AEF08D
:1018E800A1C0AFF03BD59C51010A01E10FD5030A15
:1018F80001E10FD5040A01E10FD50E0A01E10FD568
:10190800010A01E10FD5020A01E12FD5070A01E119
:1019180045D51B0A01E1DAD50F0A01E1EED5010A26
:1019280001E144D6040A01E172D6030A01E17FD637
:10193800010A01E18CD63E0A01E1F3D6040A01E16D
:1019480001D7030A01E174D712003668376838688E
:1019580039683A6A3B6A3C6A3D6A436A4350126E88
:10196800136AD89012361336D89012361336D89098
:1019780012361336450E1224086E000E1320096E17
:101988005AEC22F0146E14AEE8D14350126E136A6A
:10199800D89012361336D89012361336D89012369D
:1019A8001336480E1224086E000E1320096E5AECE6
:1019B80022F0146E14C015F0166A176A186A17C058
:1019C80018F016C017F015C016F0156A4350196EB6
:1019D8001A6AD89019361A36D89019361A36D89005
:1019E80019361A36460E1924086E000E1A20096E8A
:1019F8005AEC22F01B6E1BC01CF01D6A1E6A1F6A7F
:101A08001DC01FF01CC01EF01D6A1C6A4350206ECA
:101A1800216AD89020362136D89020362136D890A1
:101A280020362136450E2024086E000E2120096E2E
:101A38005AEC22F0226E020E221622C023F0246AEB
:101A4800256A266A170ED890233624362536263678
:101A5800E82EF9D71C502310276E1D502410286E2D
:101A68001E502510296E1F5026102A6E155027105B
:101A78002B6E165028102C6E175029102D6E1850EA
:101A88002A102E6EFF0E2B10316E2C50326E2D50F8
:101A9800336E2E50346E4350126E136AD89012363D
:101AA8001336D89012361336D89012361336490E9C
:101AB8001224086E000E1320096E5AEC22F0146EE0
:101AC80014C015F0166A176A186A17C018F016C0FD
:101AD80017F015C016F0156A4350196E1A6AD89097
:101AE80019361A36D89019361A36D89019361A3641
:101AF800470E1924086E000E1A20096E5AEC22F0BF
:101B08001B6E1BC01CF01D6A1E6A1F6A1DC01FF0D9
:101B18001CC01EF01D6A1C6A4350206E216AD890B2
:101B280020362136D89020362136D89020362136D6
:101B3800450E2024086E000E2120096E5AEC22F072
:101B4800226E010E221622C023F0246A256A266A14
:101B580023C026F0256A246A236A1C502310276EA6
:101B68001D502410286E1E502510296E1F50261057
:101B78002A6E155027102B6E165028102C6E1750F1
:101B880029102D6E18502A102E6E43502F6E306A71
:101B9800D8902F363036D8902F363036D8902F360A
:101BA8003036440E2F24086E000E3020096E5AEC91
:101BB80022F02B103E6E2C503F6E2D50406E2E5052
:101BC800416E436608D03EC03AF03FC03BF040C08B
:101BD8003CF041C03DF03150361632503716335084
:101BE800381634503916426A42503EC012F03FC08F
:101BF80013F040C014F041C015F0E82A05D0D89081
:101C08001532143213321232E82EF9D7010E121699
:101C180042503AC016F03BC017F03CC018F03DC027
:101C280019F0E82A05D0D89019321832173216322E
:101C3800E82EF9D71650010B12181DE042C012F019
:101C4800010E136E146A122A03D0D8901336143674
:101C5800122EFBD7131C156E141C166E176A16BEAF
:101C680017061750186E1550361616503716175097
:101C7800381618503916422A1F0E4264B5D73E50FE
:101C88003A163F503B1640503C1641503D164350C3
:101C98004FE0426A43C012F04350136E146AD89062
:101CA80013361436D89013361436D89013361436A3
:101CB800440E1324086E000E1420096E5AEC22F00C
:101CC800156E122A02D0D8901532122EFCD7010EAA
:101CD800151643C016F035C017F0162A02D0D89052
:101CE8001732162EFCD71750010B15181DE043C0EC
:101CF80012F0010E136E146A122A03D0D89013360C
:101D08001436122EFBD713C015F014C016F0000EAF
:101D180016BEFF0E176E186E15503616165037166B
:101D28001750381618503916422A070E4264B2D78F
:101D38004350126E136AD89012361336D890123662
:101D48001336D89012361336440E1224086E000E3D
:101D58001320096E5AEC22F0356E432A060E4364AE
:101D6800FDD5800E1CEC22F00F010F0E096E1C0E23
:101D7800086E36C00AF037C00BF038C00CF039C016
:101D88000DF0010E0E6E45EC1AF00D01D4830F0113
:101D98000F0E096E040E086E3AC00AF03BC00BF035
:101DA8003CC00CF03DC00DF0010E0E6E45EC1AF073
:101DB800000E1CEF22F089EC22F0096A440E086E2E
:101DC800000E0A6A8EEC20F089EC22F0096A450EB2
:101DD800086E000E0A6A8EEC20F089EC22F0096A7F
:101DE8004E0E086E980E0A6E8EEC20F089EC22F0EA
:101DF800096A4F0E086E980E0A6E8EEC20F089EC78
:101E080022F0096A500E086E980E0A6E8EEC20F0C9
:101E180089EC22F0096A510E086E980E0A6E8EEC53
:101E280020F089EC22F0096A520E086E980E0A6EAC
:101E38008EEC20F089EC22F0096A530E086E980E99
:101E48000A6E8EEC20F089EC22F0096A540E086EB6
:101E5800980E0A6E8EEC20F089EC22F0096A550E75
:101E6800086E980E0A6E8EEC20F089EC22F0096A52
:101E7800560E086E000E0A6A8EEC20F089EC22F0ED
:101E8800096A570E086E000E0A6A8EEC20F089EC7B
:101E980022F0096A580E086E000E0A6A8EEC20F0CD
:101EA80089EC22F0096A590E086E000E0A6A8EEC57
:101EB80020F089EC22F0096A5A0E086E000E0A6AB0
:101EC8008EEC20F089EC22F0096A5B0E086E000E99
:101ED8000A6A8EEC20F089EC22F0096A5C0E086E22
:101EE800000E0A6A8EEC20F089EC22F0096A5D0E79
:101EF800086E000E0A6A8EEC20F089EC22F0096A5E
:101F08005E0E086E000E0A6A8EEC20F089EC22F054
:101F1800096A5F0E086E000E0A6A8EEC20F089ECE2
:101F280022F0096A600E086E000E0A6A8EEC20F034
:101F380089EC22F0096A610E086E000E0A6A8EECBE
:101F480020F089EC22F0096A620E086E000E0A6A17
:101F58008EEC20F089EC22F0096A630E086E000E00
:101F68000A6A8EEC20F089EC22F0096A640E086E89
:101F7800000E0A6A8EEC20F089EC22F0096A650EE0
:101F8800086E000E0A6A8EEC20F089EC22F0096ACD
:101F9800660E086E000E0A6A8EEC20F089EC22F0BC
:101FA800096A670E086E000E0A6A8EEC20F089EC4A
:101FB80022F0096A680E086E000E0A6A8EEC20F09C
:101FC80089EC22F0096A690E086E000E0A6A8EEC26
:101FD80020F089EC22F0096A6A0E086E000E0A6A7F
:101FE8008EEC20F089EC22F0096A6B0E086E000E68
:101FF8000A6A8EEC20F089EC22F0096A6C0E086EF1
:10200800000E0A6A8EEC20F089EC22F0096A6D0E47
:10201800086E000E0A6A8EEC20F089EC22F0096A3C
:102028006E0E086E000E0A6A8EEC20F089EC22F023
:10203800096A6F0E086E000E0A6A8EEC20F089ECB1
:1020480022F0096A700E086E000E0A6A8EEC20F003
:1020580089EC22F0096A710E086E000E0A6A8EEC8D
:1020680020F089EC22F0096A720E086E000E0A6AE6
:102078008EEC20F089EC22F0096A730E086E000ECF
:102088000A6A8EEC20F089EC22F0096A740E086E58
:10209800000E0A6A8EEC20F089EC22F0096A750EAF
:1020A800086E000E0A6A8EEC20F089EC22F0096AAC
:1020B800760E086E000E0A6A8EEC20F089EC22F08B
:1020C800096A770E086E000E0A6A8EEC20F089EC19
:1020D80022F0096A780E086E000E0A6A8EEC20F06B
:1020E80089EC22F0096A790E086E000E0A6A8EECF5
:1020F80020F089EC22F0096A7A0E086E000E0A6A4E
:102108008EEC20F089EC22F0096A7B0E086E000E36
:102118000A6A8EEC20F089EC22F0096A7C0E086EBF
:10212800000E0A6A8EEC20F089EC22F0096A7D0E16
:10213800086E000E0A6A8EEC20F089EC22F0096A1B
:102148007E0E086E000E0A6A8EEC20F089EC22F0F2
:10215800096A7F0E086E000E0A6A8EEC20F089EC80
:1021680022F0096A800E086E000E0A6A8EEC20F0D2
:1021780089EC22F0096A810E086E000E0A6A8EEC5C
:1021880020F089EC22F0096A820E086E000E0A6AB5
:102198008EEC20F089EC22F0096A830E086E000E9E
:1021A8000A6A8EEC20F089EC22F0096A840E086E27
:1021B800000E0A6A8EEC20F089EC22F0096A850E7E
:1021C800086E000E0A6A8EEC20F0466A476A89ECAF
:1021D80022F0475046C044F0456AD8904436453608
:1021E800D89044364536D890443645364426000EB5
:1021F80045228C0E4424086E000E4520096E000E00
:102208000A6A8EEC20F0472A070E4764E0D7462A70
:10221800060E4664DBD7A9EF0CF000019B519A111A
:1022280001E179D1E06BE051D06FD16BD890D03714
:10223800D137D890D037D137D890D037D1378D0E05
:10224800D025086E000ED121096E5AEC22F000014B
:10225800DF6FDFAF5BD1DFAD18D0E051D06FD16B4E
:10226800D890D037D137D890D037D137D890D03709
:10227800D1378C0ED025086E000ED121096E5AEC8C
:1022880022F000019D1901E041D1E051080D8F0EA7
:10229800F324086E000EF420096E5AEC22F00001B7
:1022A800D06FDF51010BD26FD16BD051D125D36FD5
:1022B800000ED221D46FE051080D8E0EF324086E63
:1022C800000EF420096E5AEC22F00001D06FDF51A5
:1022D800020BD26FD16BD051D125D56F000ED22110
:1022E800D66FE051D06FD16BD890D037D137D89016
:1022F800D037D137D890D037D137910ED025086E46
:10230800000ED121096E5AEC22F00001D76FE0517E
:10231800D06FD16BD890D037D137D890D037D1374C
:10232800D890D037D137900ED025086E000ED12125
:10233800096E5AEC22F00001D86F20EE9AF0DECF39
:10234800D0F0DDCFD1F0D351D01BD451D11BD55112
:10235800D017D651D117D151D01101E0D7D09C5107
:10236800D719D81501E1AFD0D1D00001E051D06F15
:10237800D16BD890D037D137D890D037D137D890C3
:10238800D037D137930ED025086E000ED121096EB3
:102398005AEC22F00001D96FD9C051F0DF5109EC95
:1023A80014F0B4D00001E051D06FD16BD890D03781
:1023B800D137D890D037D137D890D037D137930E7E
:1023C800D025086E000ED121096E5AEC22F00001CA
:1023D800DA6FDAC051F0DF519CEC1CF097D00001A5
:1023E800E051D06FD16BD890D037D137D890D03753
:1023F800D137D890D037D137930ED025086E000E3C
:10240800D121096E5AEC22F00001DB6FDBC00AF023
:10241800DF515DEC16F07AD00001E051D06FD16B3E
:10242800D890D037D137D890D037D137D890D03747
:10243800D137930ED025086E000ED121096E5AECC3
:1024480022F00001DC6FDCC051F0DF51EDEC1AF036
:102458005DD00001E051D06FD16BD890D037D13723
:10246800D890D037D137D890D037D137930ED025E0
:10247800086E000ED121096E5AEC22F00001DD6FC2
:10248800DDC00CF0DF5195EC1EF040D00001E051AA
:10249800D06FD16BD890D037D137D890D037D137CB
:1024A800D890D037D137930ED025086E000ED121A1
:1024B800096E5AEC22F00001DE6FDEC051F0DF51E8
:1024C8009CEC19F023D0E051D06FD16BD890D03765
:1024D800D137D890D037D137D890D037D137920E5E
:1024E800D025086E000ED121096E5AEC22F0010A9F
:1024F80001E13BD7030A01E155D7010A01E16FD792
:10250800070AC4E00E0A88E01A0AA3E00001E02BDB
:10251800060EE06588D61200D26BD46B070ED46520
:1025280001D072D14E0ED425086E096A000E092218
:102538005AEC22F00001D36FD3AF64D1D451020D0D
:10254800F350600FD96EDA6ADE50DD1037E0D451EF
:10255800020DF350600FD96EDA6ADE06000EDD5AFE
:10256800D451020DF350600FD96EDA6ADE50DD10D7
:1025780046E14E0ED425086E096A000E09225AEC6F
:1025880022F00001CF6FCFA53AD0D4C0CFF0010E12
:10259800D06FCF2B02D0D890D037CF2FFCD7D051C7
:1025A800516E000E9CEC1CF0D3A329D0010EC86F0D
:1025B800020EC96FD451A6EC1FF021D0660ED425A7
:1025C800086E096A000E09225AEC22F00001D06F49
:1025D800CF6B670ED425086E096A000E09225AECE3
:1025E80022F00001CF27000ED023D451020DF35062
:1025F800600FD96EDA6ACFC0DEFFD0C0DDFFD4C06D
:10260800CFF0010ED06FCF2B02D0D890D037CF2F7C
:10261800FCD7D0518C1501E1F5D0D451020DF350FF
:10262800700FD96EDA6ADE50DD1001E1CCD0D451DA
:10263800020DF350700FD96EDA6ADE06000EDD5A0D
:10264800D451020DF350700FD96EDA6ADE50DD10E6
:102658002EE0D8D08AA802D08A9825D08A88010E80
:10266800D26F33D08AA202D08A921DD08A82F7D73D
:102678008AA002D08A9017D08A80F1D78BAE02D078
:102688008B9E11D08B8EEBD78BAC02D08B9C0BD052
:102698008B8CE5D78BAA02D08B9A05D08B8ADFD793
:1026A8008BA803D08B98D26B10D08B88D8D7D451F5
:1026B800D1E0010AD7E0030ADBE0010ADFE0070AFC
:1026C800E3E0010AE7E0030AEBE0D451020D560EFD
:1026D800F324086E000EF420096E5AEC22F0000173
:1026E800D06FCF6BD451020D570EF324086E000E35
:1026F800F420096E5AEC22F00001CF27000ED023F7
:10270800D451020DF350700FD96EDA6ACFC0DEFFD4
:10271800D0C0DDFFD25144E04E0ED425086E096AC0
:10272800000E09225AEC22F00001CF6FCFA525D068
:10273800D451020D660EF324086E000EF420096EC3
:102748005AEC22F00001D06FCF6BD451020D670E06
:10275800F324086E000EF420096E5AEC22F00001F2
:10276800CF27000ED023D451020DF350600FD96E3D
:10277800DA6ACFC0DEFFD0C0DDFFD3A707D0140EC2
:10278800C86F030EC96FD451A6EC1FF0D3AB3AD073
:10279800140EC86F190EC96FD451A6EC1FF032D0B1
:1027A800D3A907D0140EC86F040EC96FD451A6EC74
:1027B8001FF0D3AD27D0140EC86F180EC96FD451AF
:1027C800A6EC1FF01FD0D451020D570EF324086E4B
:1027D800000EF420096E5AEC22F00001CF6FD4519C
:1027E800020D560EF324086E000EF420096E5AEC02
:1027F80022F00001D16FD06BCF51D025706F000E41
:10280800D121716FD42B8AD61200E8CFCDF0CF6BCF
:10281800CFC0CAF0010ECB6FCA2B02D0D890CB37ED
:10282800CA2FFCD7CB51511401E137D14E0ECF2519
:10283800086E096A000E09225AEC22F00001CE6FD8
:10284800CEAF2BD1CDA911D0D890CF35CA6FCB6BD5
:10285800CB37760ECA25086E000ECB21096E5AECCE
:1028680022F000019F1901E018D1CDA7F2D0D8902D
:10287800CF35CA6FCB6BCB37770ECA25086E000EE3
:10288800CB21096E5AEC22F00001A01901E005D114
:10289800E0D08A88096A4E0E086E5AEC22F00001D0
:1028A800CA6FCAA5E8D0096A670E086E5AEC22F00A
:1028B8000001CA6F096A660E086E5AEC22F0000120
:1028C800CC6FCB6BCA51CB25606F000ECC21616FEA
:1028D800D2D08A82096A4F0E086E5AEC22F00001A3
:1028E800CA6FCAA5C8D0096A690E086E5AEC22F0E8
:1028F8000001CA6F096A680E086E5AEC22F00001DE
:10290800CC6FCB6BCA51CB25626F000ECC21636FA5
:10291800B2D08A80096A500E086E5AEC22F0000183
:10292800CA6FCAA5A8D0096A6B0E086E5AEC22F0C5
:102938000001CA6F096A6A0E086E5AEC22F000019B
:10294800CC6FCB6BCA51CB25646F000ECC21656F61
:1029580092D08B8E096A510E086E5AEC22F0000153
:10296800CA6FCAA588D0096A6D0E086E5AEC22F0A3
:102978000001CA6F096A6C0E086E5AEC22F0000159
:10298800CC6FCB6BCA51CB25666F000ECC21676F1D
:1029980072D08B8C096A520E086E5AEC22F0000134
:1029A800CA6FCAA568D0096A6F0E086E5AEC22F081
:1029B8000001CA6F096A6E0E086E5AEC22F0000117
:1029C800CC6FCB6BCA51CB25686F000ECC21696FD9
:1029D80052D08B8A096A530E086E5AEC22F0000115
:1029E800CA6FCAA548D0096A710E086E5AEC22F05F
:1029F8000001CA6F096A700E086E5AEC22F00001D5
:102A0800CC6FCB6BCA51CB256A6F000ECC216B6F94
:102A180032D08B88096A540E086E5AEC22F00001F5
:102A2800CA6FCAA528D0096A730E086E5AEC22F03C
:102A38000001CA6F096A720E086E5AEC22F0000192
:102A4800CC6FCB6BCA51CB256C6F000ECC216D6F50
:102A580012D0CF5101E11DD7010A01E13AD7030A8B
:102A680001E157D7010A01E174D7070A92E0010A88
:102A7800B0E0030ACEE0CEA707D0140EC86F030E4D
:102A8800C96FCF51A6EC1FF0CEAB07D0140EC86F9C
:102A9800190EC96FCF51A6EC1FF0CF2B070ECF65CB
:102AA800B7D6070CE8CF14F0546A7750C00B166EEF
:102AB800166632D060AE12D0A49074AE06D0115013
:102AC800D96EDA6A000EDB86749E60A002D054804C
:102AD80001D054900F0E196E600E1AD00F0150AF2E
:102AE80019D0A49274AC06D01150D96EDA6A000ECF
:102AF800DB86749C5051070B546E020E546005D04F
:102B08001150D96EDA6A000EDB8E0F0E196E500E58
:102B1800186E65D0000ECCD01650400A46E160AE63
:102B280004D00F0E196E600E3ED00F0150AF04D0C6
:102B38000F0E196E500E37D00D01F8B507D00E01E3
:102B480020AF04D00E0E196E200E2DD00D01F8B74F
:102B580007D00E0130AF04D00E0E196E300E23D000
:102B68000D01F8B907D00E0140AF04D00E0E196E52
:102B7800400E19D00D01F8BB05D00E0150AF02D0A0
:102B88000E0ED7D70D01F8BD05D00E0160AF02D0EB
:102B98000E0EC8D70D01F8BFBDD70E0170AFBAD75A
:102BA8000E0E196E700E186E0AD074AEB3D76F5031
:102BB800070B6BEC1FF008C018F009C019F018C01B
:102BC800D9FF19C0DAFFDF501F0B546EA49274AC02
:102BD80006D01150D96EDA6A000EDB86749C18C0D4
:102BE80012F019C013F01150D96EDA6ADF6A20EEBC
:102BF80005F01850D9261950DA22DF50176E1050F8
:102C0800D96EDA6A17500F0BDF6E17AC05D011506A
:102C1800D96EDA6A000EDB8C20EE02F01850D92645
:102C28001950DA22DF50176E17A608D01150D96E46
:102C3800DA6A000EDB8A010E176E01D0176A1828AF
:102C4800086E000E1920096E14C00AF017C00BF0A8
:102C5800EAEC18F0060E1826000E19221050D96E4C
:102C6800DA6ADF50176E156A0DD018C0D9FF19C07F
:102C7800DAFF0F50E16EE26ADFCFE7FF184A192A40
:102C88000F2A152A1750155CF0E3A4AE06D0115090
:102C9800D96EDA6A000EDB88A49E12C0D9FF13C071
:102CA800DAFF7F0EDF161650800AD8B4749E010E24
:102CB8001200E8CF0FF0106A10C00BF0010E0C6E76
:102CC8000B2A02D0D8900C360B2EFCD70C500A14C5
:102CD80001E1EAD04E0E1024086E096A000E09229E
:102CE8005AEC22F00E6E0EAEDFD00FA811D0D8909D
:102CF80010340B6E0C6A0C36760E0B24086E000E20
:102D08000C20096E5AEC22F000019F1901E0CCD08A
:102D18000FA6BAD0D89010340B6E0C6A0C36770E0A
:102D28000B24086E000E0C20096E5AEC22F00001EC
:102D3800A01901E0B9D0A8D08A9800018C81096A4D
:102D4800570E086E5AEC22F00B6E096A560E086E82
:102D58005AEC22F00D6E0C6A0B500C240001706FB7
:102D6800000E0D20716FA0D08A9200018C83096A31
:102D7800590E086E5AEC22F00B6E096A580E086E4E
:102D88005AEC22F00D6E0C6A0B500C240001726F85
:102D9800000E0D20736F88D08A9000018C85096A17
:102DA8005B0E086E5AEC22F00B6E096A5A0E086E1A
:102DB8005AEC22F00D6E0C6A0B500C240001746F53
:102DC800000E0D20756F70D08B9E00018C87096AEC
:102DD8005D0E086E5AEC22F00B6E096A5C0E086EE6
:102DE8005AEC22F00D6E0C6A0B500C240001766F21
:102DF800000E0D20776F58D08B9C00018C89096AD2
:102E08005F0E086E5AEC22F00B6E096A5E0E086EB1
:102E18005AEC22F00D6E0C6A0B500C240001786FEE
:102E2800000E0D20796F40D08B9A00018C8B096AB7
:102E3800610E086E5AEC22F00B6E096A600E086E7D
:102E48005AEC22F00D6E0C6A0B500C2400017A6FBC
:102E5800000E0D207B6F28D08B9800018C8D096A9D
:102E6800630E086E5AEC22F00B6E096A620E086E49
:102E78005AEC22F00D6E0C6A0B500C2400017C6F8A
:102E8800000E0D207D6F10D0105001E155D7010ABA
:102E980001E16AD7030A80E0010A96E0070AACE07C
:102EA800010AC2E0030AD8E0102A070E106404D70A
:102EB800070CE8CF1CF01B6A1C50800A04E18EC086
:102EC8001BF08E6BCCD01C50810A02E1010E82D01F
:102ED8001C50820A02E1060E7DD01C50830A03E1D1
:102EE80055C01BF0BCD01C50940A03E196EC22F0AC
:102EF80071D01C50950A03E195EC22F06BD01C5060
:102F0800960A03E194EC22F065D0890E1C6005D086
:102F18001C507C0F3DEC22F05DD0880E1C6408D05C
:102F2800910E1C6005D01C50770F33EC22F052D064
:102F38001C50910A03E193C01BF091D01C50930AD6
:102F480003E152C01BF08BD01C50920A02E153508F
:102F580041D01C50970A03E193EC22F03BD01C505F
:102F6800980A03E192EC22F035D01C50990A03E14B
:102F780091EC22F02FD0990E1C642ED09E0E1C606E
:102F88002BD07BEC22F00BC014F00AC013F009C060
:102F980012F008C011F01C50660F196E1950030882
:102FA8000C6ED8900C36D8900C36D8900C360C5045
:102FB80011C00DF012C00EF013C00FF014C010F0C5
:102FC800E82A05D0D89010320F320E320D32E82E92
:102FD800F9D730D01B6E43D09D0E1C642DD0A20EA5
:102FE8001C602AD076EC22F00BC018F00AC017F04B
:102FF80009C016F008C015F01C50620F1A6E1A505E
:1030080003080C6ED8900C36D8900C36D8900C3635
:103018000C5015C00DF016C00EF017C00FF018C0F8
:1030280010F0E82A05D0D89010320F320E320D3247
:10303800E82EF9D70D50CED7CF0E1C6408D0E00E7D
:103048001C6005D01C50300F47EC22F0C3D7DF0EB0
:103058001C6405D01C50200F10EC22F0BBD71B506D
:1030680012000F0E1C6E400E1B6E0F0E1E6E300EE1
:103078001D6E0F0E206E200E1F6E0E0E226E200E7D
:10308800216E0E0E246E300E236E0E0E266E400E2E
:10309800256E0E0E286E500E276E0E0E2A6E600ECE
:1030A800296E0E0E2C6E700E2B6E7750C00B2D6E87
:1030B8002D6602D0020E01D0080E2E6E0D01D8909A
:1030C800F831306E346A7DD03450020DF3501B0F46
:1030D800D96EDA6ADECF35F0DDCF36F035C031F0A3
:1030E80036C032F0020E346404D0D890303230A0AA
:1030F80067D035C0D9FF36C0DAFFDF501A6E1AB66E
:103108005FD035C0D9FF36C0DAFFFC0EDF1619C014
:103118001AF0030E1A1635C0D9FF36C0DAFF1A5056
:10312800DF1219AC04D018504009336E02D018C011
:1031380033F020EE05F03550D9263650DA2233C068
:10314800DFFF19AA03D0010E336E01D0336A352888
:10315800086E000E3620096E12C00AF013C00BF07C
:1031680014C00CF015C00DF033C00EF045EC1AF089
:10317800060E3526000E36222F6A0FD016C0D9FF4C
:1031880017C0DAFF35C0E1FF36C0E2FFDFCFE7FF47
:10319800164A172A354A362A2F2A18502F5CEEE38A
:1031A80031C0D9FF32C0DAFFDF501A6E1AB406D028
:1031B80031C0D9FF32C0DAFF000EDB86010E05D020
:1031C800342A2E50345C80E3000E12000AC00EF040
:1031D8000B6646D00E50D96EDA6A08C0E1FF09C006
:1031E800E2FFE7500C6ED8900C36D8900C36D89089
:1031F8000C34DF6E0E50D96EDA6AD92ADA6A08C042
:10320800E1FF09C0E2FFE7500C6E050E0D6ED89085
:103218000C320D2EFCD70C50DF6E084A092A08C064
:10322800D9FF09C0DAFFDF500C6E050E0D6ED8907D
:103238000C320D2EFCD70E50D96EDA6A0C50DF1204
:103248000E50D96EDA6A020ED926DA6ADF6A0E5093
:10325800D96EDA6A030ED926DA6A000EDF6E67D0F5
:103268000E50D96EDA6A020ED926DA6A08C0E1FF72
:1032780009C0E2FFE7500C6E050E0D6ED8900C36B3
:103288000D2EFCD70C50DF6E0E50D96EDA6A030E85
:10329800D926DA6A08C0E1FF09C0E2FFE7500C6EE0
:1032A800D8900C32D8900C32D8900C30DF6E084A87
:1032B800092A08C0D9FF09C0DAFFDF500C6E030ED7
:1032C8000C160E50D96EDA6A020ED926DA6A0C503C
:1032D800DF1208C0D9FF09C0DAFFDF500C6ED890A2
:1032E8000C32D8900C32D8900C321C0E0C160E50A2
:1032F800D96EDA6A020ED926DA6A0C50DF12084A49
:10330800092A08C0D9FF09C0DAFF0E50E16EE26A47
:10331800E12AE26ADFCFE7FF084A092A08C0D9FF95
:1033280009C0DAFF0E50E16EE26ADFCFE7FF120054
:10333800E8CFCCF0CE6BCF6BCFC0CAF0010ECB6F0D
:10334800CA2B02D0D890CB37CA2FFCD7CB515114F7
:1033580001E192D0CCA911D0D890CF35CA6FCB6BF0
:10336800CB37760ECA25086E000ECB21096E5AECB3
:1033780022F000019F1901E07FD0CCA710D0D8908F
:10338800CF35CA6FCB6BCB37770ECA25086E000EC8
:10339800CB21096E5AEC22F00001A0196DE14E0E06
:1033A800CF25086E096A000E09225AEC22F00001A6
:1033B800CD6F2DD08AA802D08A9825D08A88010E90
:1033C800CE6F33D08AA202D08A921DD08A82F7D7D4
:1033D8008AA002D08A9017D08A80F1D78BAE02D00B
:1033E8008B9E11D08B8EEBD78BAC02D08B9C0BD0E5
:1033F8008B8CE5D78BAA02D08B9A05D08B8ADFD726
:103408008BA803D08B98CE6B10D08B88D8D7CF5190
:10341800D1E0010AD7E0030ADBE0010ADFE0070A8E
:10342800E3E0010AE7E0030AEBE0CE5113E0CDA7A1
:1034380007D0140EC86F030EC96FCF51A6EC1FF04A
:10344800CDAB1AD0140EC86F190EC96FCF51A6ECA8
:103458001FF012D0CDA907D0140EC86F040EC96F83
:10346800CF51A6EC1FF0CDAD07D0140EC86F180EC3
:10347800C96FCF51A6EC1FF0CF2B070ECF655CD7D5
:10348800070C0A0E116E0E6637D01150D96EDA6A23
:10349800DF500F6ED8900F32D8900F32D8900F307F
:1034A80008C0D9FF09C0DAFFDF6E1150D96EDA6A99
:1034B800D92ADA6ADF500F6E050E106ED8900F36D3
:1034C800102EFCD708C0D9FF09C0DAFF0F50DF1251
:1034D800084A092A1150D96EDA6ADF500F6E050EB4
:1034E800106ED8900F36102EFCD70F5008C0D9FF99
:1034F80009C0DAFFDF6E6CD01150D96EDA6A020E9D
:10350800D926DA6ADF500F6E050E106ED8900F328A
:10351800102EFCD70F5008C0D9FF09C0DAFFDF6EA4
:103528001150D96EDA6A030ED926DA6ADF500F6EA7
:10353800D8900F36D8900F36D8900F3608C0D9FFDC
:1035480009C0DAFF0F50DF12084A092A1150D96E54
:10355800DA6A020ED926DA6ADF500F6ED8900F3673
:10356800D8900F36D8900F34E00B08C0D9FF09C0A7
:10357800DAFFDF6E08C0D9FF09C0DAFF000EDB866C
:103588001150D96EDA6A020ED926DA6ADF500F6E48
:10359800030E0F1608C0D9FF09C0DAFF0F50DF125B
:1035A800084A092A1150D96EDA6AD92ADA6A08C093
:1035B800E1FF09C0E2FFDFCFE7FF084A092A1150FF
:1035C800D96EDA6A08C0E1FF09C0E2FFDFCFE7FF82
:1035D8001200E8CFCCF0CD6BCF6BCFC0CAF0010E94
:1035E800CB6FCA2B02D0D890CB37CA2FFCD7CB5180
:1035F800511401E189D04E0ECF25086E096A000EDC
:1036080009225AEC22F00001CE6FCEAF7DD0CCA9B2
:1036180010D0D890CF35CA6FCB6BCB37760ECA2572
:10362800086E000ECB21096E5AEC22F000019F199A
:103638006BE1CCA734D0D890CF35CA6FCB6BCB37E2
:10364800770ECA25086E000ECB21096E5AEC22F0BF
:103658000001A01959E123D0000E8AB8010ECD6FE0
:103668002CD0000E8AB2010ECD6F27D0000E8AB082
:10367800010ECD6F22D0000E8BBE010ECD6F1DD076
:10368800000E8BBC010ECD6F18D0000E8BBA010E48
:10369800CD6F13D0000E8BB8010ECD6F0ED0CF5169
:1036A800DBE0010ADEE0030AE1E0010AE4E0070AE0
:1036B800E7E0010AEAE0030AEDE0CD5113E0CEA904
:1036C80007D0140EC86F040EC96FCF51A6EC1FF0B7
:1036D800CEAD1AD0140EC86F180EC96FCF51A6EC14
:1036E8001FF012D0CEA907D0140EC86F040EC96FF0
:1036F800CF51A6EC1FF0CEAD07D0140EC86F180E30
:10370800C96FCF51A6EC1FF0CF2B070ECF6565D739
:10371800070CE8CF4EF0481C4D6E4E50830A02E16C
:10372800556A7CD0830E4E640ED0890E4E600BD045
:1037380048C00CF04E507C0FE7EC21F04E507C0F47
:103748003DEC22F069D04E50920A0DE148504A6E85
:10375800496A52504B6E4C6A4910526E4A504C108E
:10376800536E535059D04E50930A0BE1496A535047
:103778004A6E48504910526E4A50536E52C04DF02E
:103788004ED0880E4E6419D0910E4E6016D053C09C
:1037980049F049C04AF04B6A4A2802E1522802E03F
:1037A800481C3AD048C00CF04E50770F3FEC21F03F
:1037B8004E50770F33EC22F02FD0CF0E4E6417D037
:1037C800E00E4E6014D053C049F049C04AF04B6A2D
:1037D8004A28E6E15228E4E148C00CF04E50300F88
:1037E80052EC21F04E50300F47EC22F015D04E50DD
:1037F800A20AD6E14850550A04E1866B876B550E3C
:103808000BD04850AA0A0BE1E80E865D030E8759D3
:1038180005E285EC22F0AA0E4D6E01D04D6A4D509E
:1038280012000001806B816B826B836B8D6B8B6BDD
:103838008A6B8C6B0C6A0C50020DF350700FD96EAA
:10384800DA6ADE6ADD6A0C50020DF350600FD96E39
:10385800DA6ADE6ADD6A0C2A070E0C64ECD70C6A99
:103868004E0E0C24086E096A000E09225AEC22F04A
:103878000A6E0AA02DD00CC00AF0010E0B6E0A2A9F
:1038880002D0D8900B360A2EFCD70B5000018C13AF
:10389800560E0C24086E096A000E09225AEC22F012
:1038A8000B6E0A6A570E0C24086E096A000E09226C
:1038B8005AEC22F00A26000E0B220C50020DF3508F
:1038C8000001700FD96EDA6A0AC0DEFF0BC0DDFF97
:1038D800530E0C24086E096A000E09225AEC22F0D5
:1038E8000A6E0AA420D0700E0C24086E096A000E15
:1038F80009225AEC22F00B6E0A6A710E0C24086E2B
:10390800096A000E09225AEC22F00A26000E0B2240
:103918000C50020DF3500001600FD96EDA6A0AC02C
:10392800DEFF0BC0DDFF0C2A060E0C6499D7060CCF
:10393800E8CFCCF0CE6BCEC0CAF0010ECB6FCA2B4D
:1039480002D0D890CB37CA2FFCD7CB5151145FE0A7
:103958004E0ECE25086E096A000E09225AEC22F096
:103968000001CD6FCDAF53D0CCA910D0D890CE35B3
:10397800CA6FCB6BCB37760ECA25086E000ECB21EB
:10398800096E5AEC22F000019F1941E1CCA71FD023
:10399800D890CE35CA6FCB6BCB37770ECA25086E59
:1039A800000ECB21096E5AEC22F00001A0192FE17C
:1039B8000ED08A981AD08A9218D08A9016D08B9EE8
:1039C80014D08B9C12D08B9A10D08B980ED0CE51DD
:1039D800F0E0010AF0E0030AF0E0010AF0E0070A6B
:1039E800F0E0010AF0E0030AF0E0CDA907D0140ED8
:1039F800C86F040EC96FCE51A6EC1FF0CDAD07D02D
:103A0800140EC86F180EC96FCE51A6EC1FF0CE2B3E
:103A1800070ECE6590D7070C6FEC20F050EC20F025
:103A2800000904E1DFEC0EF015EC1CF0A9EC0CF039
:103A380004EC20F00400FA0E000191650ED0940504
:103A48000CE0936989EC22F0096A010E086EFF0EFA
:103A58000A688EEC20F004EC20F0986B03EC21F05F
:103A68001CD0932903E1010E946F23D0030E946FA9
:103A7800C9EC21F01ED083EC1DF01BD098AF19D0F3
:103A88009B519A11D8B485EC09F011EC11F011D0C2
:103A98008CEC22F00ED0946B0CD000019451E1E034
:103AA800010AE9E0030AE4E0010AE8E0070AF0E0B5
:103AB800F2D7E90E0001805D030E8159000E82598C
:103AC800000E83590BE3806B816B826B836BDCEC9C
:103AD8001FF09451030AD8B490EC12F03B0E8D6598
:103AE8000BD08D6B8B2B3B0E8B6502D08B6B8A2B8F
:103AF800170E8A6501D08A6B90EC22F09BD751D0C3
:103B0800572811E0810EA66FA76BA86BA96B020E50
:103B1800AA6F57C0ACF0C0EC20F0010E0001956F01
:103B2800886B896B45D0040E946F810EA66FAC69C3
:103B3800070EA76FA86BA96B030EAA6FC0EC20F045
:103B480037D098AF0FD09B519A1132E19C51030A9C
:103B58002FE1576603D0020E946FE2D7572A956B70
:103B6800966B26D0E90E885D030E895921E3962BC2
:103B7800020E966514D0576605D0572A956B886B48
:103B8800896BEED757C093F0030E946F956B9351E2
:103B980028EC22F00001966BC9EC21F009D0956B56
:103BA80007D000019551ACE0010ACBE0030AF7E128
:103BB8000001986B120041C0B4F0B56BB66BB76BDF
:103BC800B6C0B7F0B5C0B6F0B4C0B5F0B46B3F50EE
:103BD800B86F4050B96FBA6BBB6BB9C0BBF0B8C017
:103BE800BAF0B96BB86B43C0BCF0BD6BBE6BBF6BB2
:103BF8001A0ED890BC37BD37BE37BF37E82EF9D775
:103C0800B851BC11C06FB951BD11C16FBA51BE11C5
:103C1800C26FBB51BF11C36FB451C011C46FB5514E
:103C2800C111C56FB651C211C66FB751C311C76F65
:103C38004250C411476EC551486EC651496EC751AE
:103C48004A6E47C037F048C038F049C039F04AC01A
:103C58003AF044C03BF045C03CF046C03DF02BEC88
:103C680020F00009000ED8A4010E1200E8CF0BF0D6
:103C78000A6A0B6606D0096A440E086E5AEC22F0EE
:103C88004DD00B0406E1096A450E086E5AEC22F085
:103C980045D0010E0B6434D00A0E0B6031D01ED013
:103CA800000E8AB8010E3AD0000E8AB2010E36D044
:103CB800000E8AB0010E32D0000E8BBE010E2ED03F
:103CC800000E8BBC010E2AD0000E8BBA010E26D036
:103CD800000E8BB8010E22D00A6A21D00B50020ABE
:103CE800DFE0010AE1E0070AE3E0010AE5E0030A90
:103CF800E7E0010AE9E00F0AEBE0010AEDE00FD086
:103D0800090E0B640CD0800E0B6009D0440E0B24F6
:103D1800086E096A000E09225AEC22F00A6E0A504F
:103D28001200E8CF10F0116A11C00DF0010E0E6EEE
:103D38000D2A02D0D8900E360D2EFCD70E500C143A
:103D48003AE010A810D0D89011340D6E0E6A0E36D5
:103D5800760E0D24086E000E0E20096E5AEC22F025
:103D680000019F1928E110A610D0D89011340D6ECB
:103D78000E6A0E36770E0D24086E000E0E20096EA0
:103D88005AEC22F00001A01916E14E0E1124086E1B
:103D9800096A000E09225AEC22F00F6E89EC22F013
:103DA8004E0E1124086E096A000E09220F507F0B6F
:103DB8000A6E8EEC20F0112A070E1164B5D7070C95
:103DC800800E1CEC22F0090E706EFC0E716E010E56
:103DD800726E200E736E778E779C606A0F01506B3F
:103DE8000E01206B306B406B506B606B706BE00E9C
:103DF8000D01F86F0F01006B080E016F026B036B6A
:103E0800046BE80E056F1A0E066F076B030E0D01A3
:103E1800D46FD56BE06B110EE16FE26FE36BE46B6F
:103E2800E56BE66BE76B540EF06F050EF16FF26B06
:103E3800F26B0F0E0F01186FE00E196F1A6B1B6BE8
:103E480019870F0E1C6FE00E1D6F1E691F6B1D87F3
:103E5800000E1CEF22F0E8CF27F021C01AF022C094
:103E68001BF0280ED8EC20F0000902E1000E2ED03D
:103E78001F50D96EDA6A28C0DFFF1E50D96EDA6A81
:103E880029C0DFFF2A50236E010E2B14246E275001
:103E9800D96EDA6A23C0DEFF24C0DDFF2050D96E58
:103EA800DA6A28C023F029C024F02AC025F02BC0E4
:103EB80026F01B0E05D0D890263225322432233224
:103EC800E82EF9D72350070BDF6E010E1200E8CF5A
:103ED8000BF024D00F0E0D6E600E1ED00F010F0ECA
:103EE8000D6E500E19D00E010E0E0D6E200E14D050
:103EF8000E010E0E0D6E300E0FD00E010E0E0D6E51
:103F0800400E0AD00E010E0EEBD70E010E0EE3D7AF
:103F18000E010E0E0D6E700E0C6E0FD00B50DAE007
:103F2800010ADCE0030ADFE0010AE2E0070AE5E053
:103F3800010AE8E0030AE9E0EBD70CC008F00DC07D
:103F480009F01200E8CF50F050C04DF0D89050342E
:103F58004B6E4C6A4C36760E4B24086E000E4C2085
:103F6800096E5AEC22F04E6ED89050344B6E4C6A63
:103F78004C36770E4B24086E000E4C20096E5AEC16
:103F880022F04F6E0001C8C03FF0406AC9C041F03E
:103F980093C042F0030E436E446E4D0E456E000E04
:103FA800466E0F0E466E5F0E4564466ADFEF1DF0E3
:103FB800972B3B0E97650DD0976B922B9451030A64
:103FC80008E16CEC22F00001C86F71EC22F02CECD7
:103FD80021F03B0E0001926502D0926B902B170ED8
:103FE800906501D0906B9451030A09E18F2B8FC023
:103FF8004DF00F0E4D16020E4D5CD8B08F6B1200AF
:10400800010E566E80EC22F00001936F936701D089
:104018009369932902E1020E566E986B996B9A6B1D
:104028009B6B9C6BA66BA76BA86BA96BAA6B556A5D
:104038008E6B576A946B956B966B526A536A886B52
:10404800896B866B876B976B926B906B12003E6ADD
:10405800846B856B17D037C012F038C013F039C0A5
:1040680014F03AC015F03CC016F03DC017F03BC044
:1040780018F0200E196E35EC18F0000903E0010E57
:104088003E6E06D0E80E0001845D030E8559E3E319
:104098000001A66B3E501200000EAAEC21F0550A52
:1040A80007E1010EAAEC21F0AA0A02E1010E12D0E2
:1040B800020E566E8EEC22F0FF0E28EC22F0550E02
:1040C8000C6E000E65EC21F0AA0E0C6E010E65EC6C
:1040D80021F0000E120015EC1CF0926A806A080E9E
:1040E800936E816A010E946E826A920ED8EC21F06A
:1040F800FB0E096E1D0E086E51EC22F08A988A920A
:104108008A908B9E8B9C8B9A8B98E4EC1EF0F28C99
:10411800F28E120008C0A9FF0AC0A8FFA69EA69C9E
:10412800A684000EF2BE010E0B6EF29E550EA76E0F
:10413800AA0EA76EA682A6B2FED70BB002D0F29E38
:1041480001D0F28EA694120098510F0B0D6E0D50EF
:1041580012E0935120EE9EF0DF620DD00D0405E0D1
:10416800010E0D6408D09F6706D09369FF0E28ECF6
:1041780022F004EC20F01200A8C03FF0A9C040F0E3
:10418800AAC041F093C042F0A7C043F0A6510F0B5C
:10419800446E000E466EAC0E456EDFEC1DF04B6EA5
:1041A8004B6601D0552A1200E8CF1CF098AF02D018
:1041B800000E0FD01BC00FF01AC010F01D0E116EAC
:1041C8001C5056EC15F00009F3E01DAC1DAAF0D701
:1041D800010E120098C04CF00F0E4C164C040EE164
:1041E800935120EE9EF0DF6209D0800EA66FA76B78
:1041F800A86BA96B030EAA6FC0EC20F0120098BF41
:1042080012D09C0E1E6E9D0E1F6E990E206E980E7B
:10421800216E9E0E226E9A0E2FEC1FF02C6E2C50E3
:1042280002E00001988F1200E8CF09F0080E0A6E2C
:104238000B6AD89009340B340B6ED89009360850A5
:104248000B5C02E308500B5E0A2EF3D70B501200EA
:10425800E8CF4CF0830E0001A66F070EA76FA96B7D
:10426800140EA86F090EAA6FAC6B4CC0ADF0C8C095
:10427800AEF0C0EF20F0E8CF0DF0070E0D6401D0CE
:104288000CD089EC22F00C0E0D24086E096A000E81
:1042980009220CC00AF08EEC20F01200E8CF0DF0D5
:1042A8000F0E0D6401D00CD089EC22F0140E0D24F1
:1042B800086E096A000E09220CC00AF08EEC20F084
:1042C8001200E8CF0DF0010E0D6401D00CD089EC7E
:1042D80022F0030E0D24086E096A000E09220CC094
:1042E8000AF08EEC20F0120000EE60F0540EEE6A38
:1042F800E806FDE100EE52F0070EEE6AE806FDE181
:10430800000EF86E000110EF1DF0E8CFD3F07F0E1D
:10431800D36506D0D2C048F0D3518DEC1BF005D040
:10432800D2C051F0D35170EC04F01200070EAC6FFC
:10433800480EAD6F020E086E0850AC0FD96EDA6ADF
:10434800DF6A082A070E0864F7D7070CE8CF0AF0D7
:10435800010E0A6402D0000E08D0030E0A24086E6B
:10436800096A000E09225AEC22F0120098510F0B2C
:10437800020A0AE1935120EE9EF0DF6205D09FC049
:1043880093F0935128EC22F01200810E0001A66FE1
:10439800A76BA86BA96B020EAA6F93C0ACF0C0EC18
:1043A80020F0010E566E010CE8CF08F008507F0B84
:1043B800D56ED76AD66AF29408AE02D0F28A01D0D6
:1043C800F29AD58E1200E8CF0DF089EC22F0070E94
:1043D8000D24086E096A000E09220CC00AF08EEF3F
:1043E80020F0E8CF0CF00C0409E189EC22F0096A0E
:1043F800086AFF0E0A688EEC20F0FF001200E8CF72
:104408001DF07F0E1D6404D01D505DEC17F003D025
:104418001D503AEC1EF01200E8CF09F00950BE0F0B
:10442800086E08C0F6FF080EF76E0800F550120077
:10443800E8CF08F01F0E6F1608506F126F50E00B90
:104448000818D8B41200FAD7E8CF0CF089EC22F09B
:10445800096A010E086E0CC00AF08EEF20F0E8CF52
:104468000AF00C0E0A24086E096A000E09225AEF97
:1044780022F0E8CF0AF0070E0A24086E096A000E37
:1044880009225AEF22F0E8CF0AF0140E0A24086E27
:10449800096A000E09225AEF22F008C00AF009C082
:1044A8000BF00BC0D7FF0AC0D6FF120008C0A9FF47
:1044B800A69CA69EA68000F000F0A850120001C09D
:1044C80003F002C004F004C0D7FF03C0D6FF1200F7
:1044D800096A450E086E5AEF22F0096A440E086E02
:1044E8005AEF22F0086A096A0A6A0B6A1200086A17
:1044F800096A0A6A0B6A1200096A010E086E5AEF05
:1045080022F0DFEC0EF015EF1CF0A6A21200FDD78A
:10451800566A1200DFEF0EF01200010C080C010CB5
:08452800040C010C010C12004F
:020000040020DA
:08000000FFFFFFFFFFFFFFFF00
:020000040030CA
:0E000000FF061D0FFF8295FF0F800FE00F40DF
:00000001FF
